:020000040020DA
:10000000185F002075132000151420003113200004
:1000100035132000351320003513200000000000A8
:10002000000000000000000000000000F12220009D
:10003000351320000000000091232000D52320006C
:100040003513200035132000351320003513200010
:100050000000000035132000351320003513200068
:100060003513200000000000000000000000000028
:100070000000000000000000351320000000000018
:1000800000000000000000003513200035132000A0
:1000900035132000351320003513200035132000C0
:1000A00035132000351320003513200035132000B0
:1000B00035132000351320003513200035132000A0
:1000C0003513200035132000351320003513200090
:1000D00035132000000000000000000000000000B8
:1000E0000000000000000000000000000000000010
:1000F00035132000000000003513200035132000C8
:100100000348044B834202D0034B03B118477047A6
:10011000D4410020D44100200000000005480649D9
:100120000B1AD90F01EBA301491002D0034B03B105
:1001300018477047D4410020D4410020000000003F
:1001400010B5064C237843B9FFF7DAFF044B13B11F
:100150000448AFF300800123237010BDD441002078
:1001600000000000E0FF270008B5044B1BB1044964
:100170000448AFF30080BDE80840CFE7000000006E
:10018000D8410020E0FF2700012800D070474FF63B
:10019000FF739942FAD100B583B000230193054A59
:1001A000009280220449054801F0A8F903B05DF8E7
:1001B00004FB00BFC101200048512000F041002095
:1001C00008B5074C204600F099FB40F2E73001F0FB
:1001D00041F9204600F081FB012001F03BF9F0E7F6
:1001E000DC42002008B5034800F094F901F02EF934
:1001F000002008BDB042002008B54FF6FF71012075
:10020000FFF7C2FF08BD10B50446043001F033F912
:10021000204601F014F9204610BD10B504461430F4
:1002200001F029F904F1100001F025F904F10C00A6
:1002300001F021F9204610BD10B504460C3001F044
:100240001AF9204610BD38B504460D4600F078FA7C
:100250006560204638BD0000012800D070474FF689
:10026000FF739942FAD12DE9F04F83B0DFF888A2ED
:100270006349504600F0C9FADFF880B26149584638
:1002800000F0C3FA6049614800F0BFFA6049614874
:1002900000F0BBFA604C6149204600F0B6FA6049B4
:1002A000604800F0B2FA6049604800F0AEFA604978
:1002B000604800F0AAFA604F6049384600F0A5FA9D
:1002C000DFF83C825E49404600F09FFA5D4D5E4992
:1002D000284600F09AFA5D495D4800F096FA5D49BB
:1002E0005D4800F01CFB5D495D4800F018FB5D4E69
:1002F0005D49304600F013FB5C495D4800F089FA27
:100300005C495D48FFF79FFF5C495D4800F007FBD3
:100310005C495D4800F003FB5C495D4800F0FFFA72
:100320005C495D4800F0FBFA5C495D4800F08CFADE
:1003300030215C4800F0A4FE31215B4800F030FE23
:1003400000215A4800F0F2FFDFF8B891584B5A46A6
:100350005146484600F018FBDFF8ACA1524655491B
:10036000484603F0B5F8DFF8A491534B42463946AE
:10037000484600F09DFF514F52463946484603F02B
:10038000A7F8DFF88C814E4B314A2946404600F0F1
:100390008FFF52463946404603F09AF8494D4A4B82
:1003A000009323461B4A1949284600F06DFE474832
:1003B00000F05CFE464800F088FD464800F0BCF9BD
:1003C000454800F06AFF454C204600F00DFA5246C1
:1003D0004349204603F07CF8254B01930096204BBF
:1003E0001D4A29463F4800F0D3F83F493F4800F0F6
:1003F00096FA3F493F4800F092FA03B0BDE8F08F0B
:100400005051200064512000185220003842002032
:100410002C5220003C420020204200208C51200021
:10042000405220004042002054522000444200200C
:10043000A05120002442002028420020B451200076
:10044000C851200030420020DC512000F051200033
:1004500034420020CC52200010420020E052200004
:100460001442002004420020A4522000B852200070
:10047000084200205C410020B042002004522000CD
:10048000DC42002068522000E04200207851200029
:10049000E44200207C522000E842002090522000DC
:1004A000B842002010430020044300207C43002079
:1004B00004410020390220002C4100201B022000B2
:1004C00044410020184300200C410020EC42002051
:1004D000F04200204842002030430020C04200206B
:1004E0000702200064420020085320005C420020E4
:1004F000F452200060420020184200201C420020DC
:100500002C420020CC420020004100203443002037
:100510005843002008B5416800F016F9064800F07D
:10052000EDF9064800F0EAF9054800F0E7F905485A
:1005300000F0E4F908BD00BFDC420020E8420020E2
:10054000E0420020E442002008B54FF6FF71012090
:10055000FFF782FE08BD10B503464168C26801EB93
:10056000620012F0010F02D19B68984710BD541031
:100570000A599B68D358F8E710B50446C06800F0E4
:10058000E4F9A06800F0E1F9606800F0DEF910BD60
:1005900030B585B00446016042608360089BC3604B
:1005A000099B0361174B0293002303936A4604A936
:1005B00011E9030082E8030013496161A46104F1B9
:1005C0001C0592E8030085E803006362A362E3620E
:1005D00023636363A363E363236484F8443084F890
:1005E000453084F8463084F8473084F84930204656
:1005F000FFF7C2FF04F11401206900F05DF9204605
:1006000005B030BDBF0620002453200038B5054694
:10061000144612F0010F04D0406A10B103681B6841
:10062000984714F0020F04D0A86A10B103681B6841
:10063000984714F0100F04D0286B10B103681B68A2
:10064000984738BD38B50546144612F0010F04D05E
:10065000406B10B103681B68984714F0020F04D078
:10066000A86B10B103681B68984714F0100F04D0F2
:10067000286C10B103681B68984738BD30B585B049
:10068000044615460B0A8DF80C308DF80D1000232A
:100690008DF80E30C06800F058F994F84930019395
:1006A0000322009202AB03A9206800F0BDFDE068C0
:1006B00000F043F99DF80A302B7005B030BD10B53D
:1006C00082B004460DF107020021FFF7D7FF0DF1BC
:1006D000060201212046FFF7D1FF0DF1050202219C
:1006E0002046FFF7CBFF01AA03212046FFF7C6FFF4
:1006F00094F844309DF807100B4205D194F8462039
:100700009DF805301A4204D09DF805202046FFF7D9
:100710007DFF94F845309DF806100B4205D194F802
:1007200047209DF804301A4204D09DF8042020464A
:10073000FFF788FF02B010BD0022027070477047BB
:10074000002202707047000038B50C46184D002298
:100750004021284602F00AF800228021284602F0B3
:1007600005F801224021284602F00CFB01228021DD
:10077000284602F007FB62686178207802F0AEFC40
:10078000A06802F091FC637823B90A4B1B6813F44C
:10079000002FFAD023784BB1064B1B6813F0806F03
:1007A000FAD1044B1B6813F0806FFAD038BD00BF3C
:1007B00000C00D4004200D40094B03E013F801294F
:1007C00001F8012BB3F1281FF8D2064B03E013F810
:1007D000012901F8012B024A9342F8D8704700BF63
:1007E0002B0028002F00280010B5044600F01DFE45
:1007F0000021201D00F066FE00232372204610BD5C
:1008000008B5043000F046FE08BD0160704700687E
:10081000704710B50446FFF7F8FF002363602368B4
:100820001979186802F06CF82368DA681979186881
:1008300001F0CCFF23689A680AB9204610BD1979E7
:10084000186802F09FFAF8E710B50446FFF7E1FFD9
:1008500023681979186802F053F82368DA6819795F
:10086000186802F081F823681B680F4A934209D088
:100870000E4A93420BD00E4A93420CD00D4A93423B
:100880000DD0FEE7012002F009F9204610BD02203C
:1008900002F004F9F9E7042002F000F9F5E7082076
:1008A00002F0FCF8F1E700BF00900D4000A00D4001
:1008B00000B00D4000C00D4010B50446416000F08E
:1008C000E9F8204600F0EAF810BD406820B108B50C
:1008D00003681B68984708BD704708B503681A6924
:1008E000012A05D019790A46186801F0F7FF08BDFA
:1008F00000221979186801F0F1FFF8E708B50368DC
:100900001A69012A05D000221979186801F0E6FF5A
:1009100008BD19790A46186801F0E0FFF8E710B53C
:100920000446FFF772FF23681979186802F002F88D
:100930002046FFF7E3FF204610BD08B5036819798C
:100940000A46186801F0CAFF08BD08B5036800220E
:100950001979186801F0C2FF08BD0000012800D015
:1009600070474FF6FF739942FAD1044B1A68044B53
:10097000B3FBF2F3034A1360F2E700BF28532000F1
:10098000A08601008043002010B50446016042604B
:10099000836001210C3000F095FD204610BD7047AA
:1009A00008B54FF6FF710120FFF7D8FF08BD000022
:1009B00008B5034B186808B100F096FC08BD00BFED
:1009C0002044002008B5034B186808B100F08CFCE7
:1009D00008BD00BF2444002008B5034B186808B1C7
:1009E000FFF7DDFF08BD00BF9043002008B5034BB3
:1009F000186808B100F035FC08BD00BF9443002022
:100A000008B5044B1B681BB1034B186800F029FCA8
:100A100008BD00BF944300209843002008B5034B55
:100A2000186808B100F058FA08BD00BF1C44002047
:100A300008B5034B186808B100F0A0FA08BD00BF64
:100A40001C44002008B5034B186808B100F0AEFA4A
:100A500008BD00BF4844002008B5034B186808B122
:100A6000FFF76DFE08BD00BF8843002008B5034BAB
:100A7000186808B100F0D1FC08BD00BF8443002015
:100A800008B5034B186808B1FFF7BAFE08BD00BFF0
:100A90008C430020004870474C44002070B5054648
:100AA000FFF7B5FE06682846FFF7B1FE0479012C72
:100AB0000FD0022C1BD0042C1BD0082C1BD0102CC8
:100AC0001BD0202C1BD0402C1BD0802C02D1072403
:100AD00000E000241C4B9E4215D01C4B9E421AD0B5
:100AE0001B4B9E421FD01B4B9E4224D070BD012445
:100AF000F0E70224EEE70324ECE70424EAE7052408
:100B0000E8E70624E6E7F021102002F06FF8124B28
:100B100043F82450EAE7F021112002F067F80F4B68
:100B200043F82450E2E7F021122002F05FF80C4B6A
:100B300043F82450DAE7F021132002F057F8094B6C
:100B400043F82450D2E700BF00900D4000A00D40B4
:100B500000B00D4000C00D409C430020BC4300206D
:100B6000DC430020FC4300202DE9F0410446DFF87F
:100B7000A8814FF6FF71404602F064FB4B4F4FF6E1
:100B8000FF71384602F05EFB49494A4801F08CFE8D
:100B900049494A4801F088FE49494A4801F084FE23
:100BA00049494A4801F080FE494E4A4D3246FF21EC
:100BB000284601F0A3FF32464FF47F41284601F05A
:100BC0009DFF32464FF6FF71284601F097FF424ED7
:100BD00005F580553246FF21284601F08FFF324649
:100BE0004FF47F41284601F089FF32464FF6FF71EE
:100BF000284601F083FF394E05F580553246FF2126
:100C0000284601F07BFF32464FF47F41284601F031
:100C100075FF32464FF6FF71284601F06FFF304EE8
:100C200005F580553246FF21284601F067FF324620
:100C30004FF47F41284601F061FF32464FF6FF71C5
:100C4000284601F05BFF2749404602F0DDFA2649BD
:100C5000384602F0D9FA254801F0BEFF244925485C
:100C600002F012F92449254802F00EF924492A20FD
:100C700002F058F823492B2002F054F82249312081
:100C800002F050F821492E2002F04CF820491E2095
:100C900002F048F81F4D29463E2002F0F9FB294694
:100CA0003F2002F0F5FB2046BDE8F08100D0004077
:100CB000D90D200000900D40ED0D200000A00D404A
:100CC000010E200000B00D40150E200000C00D40A8
:100CD0006D0E200000000340810E2000950E2000C4
:100CE000A90E2000B1092000C5092000D909200063
:100CF000ED09200000800040010A20000090004023
:100D00001D0A2000310A2000450A2000590A20004F
:100D10006D0A2000810A200000C00040012800D098
:100D2000704708B54FF6FF73994200D008BD0248DE
:100D3000FFF71AFFFAE700BF4C440020F8B505465C
:100D40000F46012101F088FD06460121284601F0E9
:100D500049FE0446F1B2284601F094FDE1B228466E
:100D600001F070FE344314F0010F03D0386808B16D
:100D7000FFF7ABFD14F0020F03D0786808B1FFF75E
:100D8000A4FD14F0040F03D0B86808B1FFF79DFD6F
:100D900014F0080F03D0F86808B1FFF796FD14F0BF
:100DA000100F03D0386908B1FFF78FFD14F0200F42
:100DB00003D0786908B1FFF788FD14F0400F03D025
:100DC000B86908B1FFF781FD14F0800F03D0F8690E
:100DD00008B1FFF77AFDF8BD08B502490248FFF7F0
:100DE000ADFF08BD9C43002000900D4008B50249AE
:100DF0000248FFF7A3FF08BDBC43002000A00D4040
:100E000008B502490248FFF799FF08BDDC430020FE
:100E100000B00D4008B502490248FFF78FFF08BD3A
:100E2000FC43002000C00D4038B50E4D012128467E
:100E300001F0AEFE04460146284601F0BDFE0A4B15
:100E4000186810B114F0170F06D1074B586810B18D
:100E500014F4706F03D138BD00F022FAF5E700F00A
:100E60001FFAF8E7000003402844002008B50249B3
:100E70000248FFF7D9FF08BD2844002000000340C6
:100E800008B502490248FFF7CFFF08BD30440020F3
:100E90000010034008B502490248FFF7C5FF08BD2E
:100EA000384400200020034008B502490248FFF7FB
:100EB000BBFF08BD404400200030034008B54FF69A
:100EC000FF710120FFF72AFF08BD00220270426077
:100ED0008260C260026170472DE9F0410446254FEF
:100EE0003D68254ED6F800802A2001F0E1FE00235F
:100EF0003B60336015F0020F07D02378DBB2022B82
:100F000013D02378DBB2052B18D015F0400F03D097
:100F10002378DBB2032B1AD018F0020F03D023780A
:100F2000DBB2062B1CD0BDE8F08160680028E8D059
:100F30000323237003681B689847E6E7E0680028EE
:100F4000E3D00623237003681B689847DDE7A06899
:100F50000028E1D00423237003681B689847DBE76F
:100F600020690028DFD00723237003681B68984797
:100F7000D9E700BF348808403088084038B5074CAE
:100F800025682B2001F094FE23682B4013F0020FFC
:100F900002D06FF00202226038BD00BF9486084084
:100FA000016000224260826070470000F8B505468B
:100FB000134B1C68134E3768312001F079FE002373
:100FC000336004EA070313F0100F09D0336823F0ED
:100FD00010033360A86810B103681B689847F8BD18
:100FE00013F0080FFBD0074A136823F008031360BF
:100FF00068680028F3D003681B689847EFE700BFD4
:10100000088808400C88084008B503681B689847A2
:1010100008BD08B503685B68984708BD00B583B094
:1010200069460B48FFF7C8FB9DF804009DF80530A2
:101030001B0443EA00639DF8060043EA00239DF881
:101040000700184302F042FB03B05DF804FB00BF49
:10105000B042002008B502F06BFB80B208BD000072
:10106000014B0360704700BF3453200010B50446A5
:10107000FFF7F6FF014B2360204610BD44532000CC
:10108000016000224260704710B4016042608360DA
:10109000019BC36000230361436110BC70472DE9CD
:1010A000F04782B004468A461E460A9F914622B106
:1010B00037B1BA4206D9904600E0B846002508E0AC
:1010C0009046FBE7B846F9E7FF2109E00023735596
:1010D0000135A84518D9B9F1000FF5D01AF8051057
:1010E000E368586801F022FFE368586801F094FF54
:1010F0000028F9D1E36801A9586801F03FFF002FEB
:10110000E4D09DF80430E2E7012002B0BDE8F087AA
:101110002DE9F04585B01E46FF238DF80F308DF880
:101120000E30B14279D0054688461746C3685868E4
:101130003C4B984207D003F5805398426FD1182456
:101140004FF0190A02E00A244FF00B0A002F3BD09F
:10115000022101F02FFF4FF04041504602F0C2F84B
:10116000EB685B680097083342460121504602F065
:10117000E1F80C9B002B3BD0EB680121586801F093
:1011800019FF4FF04061204602F0ACF8EB685A6856
:101190000C9B0093334608320121204602F0CAF826
:1011A000204602F087F8504602F084F8204602F00C
:1011B00047F90028FAD1EB680321586801F012FFC3
:1011C000012005B0BDE8F085022101F0F3FE4FF0EB
:1011D0004C41504602F086F8EB685B680C9A00922E
:1011E00008330DF10F020121504602F0A3F8C0E7C9
:1011F000EB680121586801F0DDFE4FF04C412046BC
:1012000002F070F8EB685A6800970DF10E0308328F
:101210000121204602F08EF8C2E70020D1E700202D
:10122000CFE700BF0080004000B583B0049C9DF86C
:10123000145015B10094FFF76BFF0094FFF72FFFD8
:10124000FBE7406920B108B503681B68984708BDF3
:101250007047006920B108B503681B68984708BD4E
:10126000704738B50546C3680121586801F02EFE65
:101270000446EB680146D86801F042FE14F0080FFE
:1012800003D114F0040F04D138BD2846FFF7E1FF65
:10129000F7E72846FFF7D5FFF6E700220280704700
:1012A000406820B108B503681B68984708BD7047BF
:1012B00010B5044601604260836000210C3000F0EC
:1012C00001F9002104F1100000F0FCF8002104F104
:1012D000140000F0F7F80023A361E36184F82030E4
:1012E00084F82130204610BD38B5054683680121B9
:1012F000586801F0BBFF0446AB680146586801F02E
:10130000C9FF14F0200F0CD114F0500F08D0C4F313
:10131000801485F82040A86910B103681B689847BD
:1013200038BD05F1140000F0B5F8EDE70160704735
:1013300000BFFDE700BFFDE708B5FF21074801F04A
:10134000DFFAFF21064801F0DBFAFF21054801F032
:10135000D7FAFF21044801F0D3FA08BD00900D40F0
:1013600000A00D4000B00D4000C00D4008B501F0D8
:10137000FDFEFCE700B583B01A4BFF221A601A4B42
:101380001A4A1A601A4B01931A4B1A681A4B9A425E
:1013900004D1019B5A1E0192002BF5D1124B002261
:1013A0001A60164A136843F001031360144B154A80
:1013B00003E052F8041B43F8041B13498B42F8D393
:1013C000124B134A934204D200221A6053F8042BA2
:1013D000F7E7FFF7B1FF02F08FF8FEF703FFFFF723
:1013E000C5FF00BFB4200D4004300020BBAABBAA3B
:1013F00080841E00003000204812F0A598200D4087
:10140000004000206C562000D4410020D441002030
:101410001857002008B5FFF7ADFF406820B108B5A8
:1014200003681B68984708BD704710B50446012043
:1014300000F02CFA206008B1204610BDFEE710B580
:101440000446006800F086FA204610BD08B500F09A
:101450003FFC08BD08B54FF47A7303FB00F0034B63
:10146000A3FB0030800900F081FD08BDD34D621060
:1014700000220260704710B50446006800F06AFA66
:10148000204610BD08B500231A461946006800F032
:101490003FF908BD00B583B00023019301A900689E
:1014A00000F0FFF9019B3BB1054B4FF080521A60F1
:1014B000BFF34F8FBFF36F8F03B05DF804FB00BF26
:1014C00004ED00E038B504460D46FFF7D1FF0322D6
:1014D0000021012000F0F8F8206010B115B9204675
:1014E00038BDFEE72046FFF7CDFFF8E720B108B58D
:1014F000C2680069904708BD7047000010B582B00F
:101500000446416083600498E0600598206101947E
:1015100000932346024800F0A9FB204602B010BD0C
:10152000ED14200010B5044600F0F4FEA26BE36B4E
:101530009A4204D0002400F00FFF204610BD012481
:10154000F9E770B504461546866B026C5AB9036814
:101550001BB100200136A66370BD806800F02AFE32
:101560000023A360F6E76DB9406801F0E9FF226C43
:10157000636813446360A268934219D3236863606D
:101580002846E7E7C06801F0DBFF226C5142E368C0
:101590009B1AE3602268934202D2A3680B44E36083
:1015A000022D01D00020D5E726B1013E0020D1E771
:1015B0002846CFE70020CDE738B5054600F0AAFE63
:1015C00095F8454064B203E000F0EEFD013C64B2E2
:1015D000002C08DD6B6A33B105F1240000F050FDEA
:1015E0000028F3D0F0E7FF2385F8453000F0B4FE83
:1015F00000F090FE95F8444064B203E000F0D4FDA2
:10160000013C64B2002C08DD2B6933B105F11000F8
:1016100000F036FD0028F3D0F0E7FF2385F84430D2
:1016200000F09AFE38BD000038B5E0B10D46044622
:1016300000F070FE2168E26B236C03FB0210A060D7
:101640000020A0636160013A02FB0313E360FF2303
:1016500084F8443084F84530EDB9236963B900F06B
:101660007BFE012038BD4FF0A00383F31188BFF348
:101670006F8FBFF34F8FFEE704F1100000F000FD05
:101680000028ECD0084B4FF080521A60BFF34F8F08
:10169000BFF36F8FE3E704F1100000F0D9FF04F10E
:1016A000240000F0D5FFDAE704ED00E010B50346B2
:1016B00002980C4631B90060C36304640121FFF74E
:1016C000B3FF10BD0260F7E740B94FF0A00383F30A
:1016D0001188BFF36F8FBFF34F8FFEE7F0B583B074
:1016E0000C461646074689B101FB00F0483000F071
:1016F00041FF054638B10090334600F148022146CB
:101700003846FFF7D3FF284603B0F0BD0846EDE7A3
:10171000F0B585B0019238B10E461D46044661B160
:10172000022D16D000275CE04FF0A00383F3118850
:10173000BFF36F8FBFF34F8FFEE7036C002BEFD02B
:101740004FF0A00383F31188BFF36F8FBFF34F8F68
:10175000FEE7E36B012B08D04FF0A00383F3118861
:10176000BFF36F8FBFF34F8FFEE7002739E02A46A4
:1017700031462046FFF7E5FE626A6AB938B13C4B54
:101780004FF080521A60BFF34F8FBFF36F8F00F09E
:10179000E3FD012005B0F0BD04F1240000F070FC71
:1017A0000028F4D0324B4FF080521A60BFF34F8FB5
:1017B000BFF36F8FEBE700F0CFFD0020EAE702A850
:1017C00000F0A4FC012719E0002384F8443021E054
:1017D000002384F8453023E02046FFF7EDFE00F0BB
:1017E00049FB00F097FDA26BE36B9A42BFD3022D39
:1017F000BDD0019B002BDED0002FE0D000F0ACFD6F
:1018000000F0A4FA00F086FD94F844305BB2B3F126
:10181000FF3FD9D094F845305BB2B3F1FF3FD7D04A
:1018200000F09AFD01A902A800F07CFCC8B920468E
:10183000FFF778FE0028CFD0019904F1100000F0E6
:1018400007FC2046FFF7B8FE00F014FB0028C8D1C3
:10185000074B4FF080521A60BFF34F8FBFF36F8F6B
:10186000BFE72046FFF7A8FE00F004FB002091E749
:1018700004ED00E048B110B5002181600160C16055
:101880000B460A46FFF744FF10BD704710B50246ED
:1018900000210120FFF718FF0446FFF7EBFF204669
:1018A00010BD68B170B50E460446036C8BB14FF0A5
:1018B000A00383F31188BFF36F8FBFF34F8FFEE751
:1018C0004FF0A00383F31188BFF36F8FBFF34F8FE7
:1018D000FEE70368EBB100F009FEEFF311854FF06E
:1018E000A00383F31188BFF36F8FBFF34F8FA26BF9
:1018F000E36B934226D994F845305BB20132A26380
:10190000B3F1FF3F11D001335BB284F845300120C1
:1019100019E08368002BDED04FF0A00383F3118819
:10192000BFF36F8FBFF34F8FFEE7636A0BB90120E0
:1019300009E004F1240000F0A3FB38B146B1012016
:10194000306000E0002085F3118870BD0120FAE7C7
:101950000120F8E708B510B100F05CFE08BD4FF0BB
:10196000A00383F31188BFF36F8FBFF34F8FFEE7A0
:10197000084B1B681B6823B9074B4FF0FF321A60F6
:101980007047044B1B68DB68DB685A68024B1A60BF
:10199000704700BF544400200445002010B50446A1
:1019A000006B00F037FE204600F034FE10BD2DE93C
:1019B000F047089DDDF824800A9C61B106461F4669
:1019C0000846216B02F18043013B01EB830323F0C6
:1019D0000709002309E04FF0A00383F31188BFF348
:1019E0006F8FBFF34F8FFEE701330B2B06D8C15C1F
:1019F000E21882F83410C25C002AF5D1002384F882
:101A00003F30042D00D90425E56225644FF0000A1B
:101A1000C4F844A0201D00F026FE04F1180000F0D8
:101A200022FE2461C5F10505A5616462C4F848A0E1
:101A300084F84CA03A463146484600F045FC206008
:101A4000B8F1000F01D0C8F80040BDE8F0870000F1
:101A500038B50024042C08D804EB840293000E4807
:101A6000184400F0F5FD0134F4E70C4D284600F071
:101A7000EFFD0B4C204600F0EBFD0A4800F0E8FDBE
:101A8000094800F0E5FD094800F0E2FD084B1D6043
:101A9000084B1C6038BD00BF5C440020D8440020C7
:101AA000EC4400200C45002038450020244500204F
:101AB000544400205844002010B5044600F02AFC8D
:101AC000204A1368013313601F4B1B685BB11F4B27
:101AD0001B686BB91C4B1B68DA6AE36A9A4207D829
:101AE000194B1C6004E0184B1C601368012B26D0B6
:101AF000174A136801331360E06A01238340154AD3
:101B000011680B43136000EB8000211D124B03EBA7
:101B1000800000F0ABFD00F01FFC0C4B1B686BB1AC
:101B2000094B1B68DA6AE36A9A4207D20B4B4FF003
:101B300080521A60BFF34F8FBFF36F8F10BDFFF756
:101B400087FFD5E7C04400205044002020450020F6
:101B5000D0440020D44400205C44002004ED00E088
:101B60000F4B1B68D3B110B500F0D4FB0D4BDB68F5
:101B7000DC68201D00F09FFD0B4A1368013B1360D9
:101B8000074A1368013B136000F0E6FB2046FFF7AD
:101B900005FF034B1B68002BE6D110BD704700BF4B
:101BA000C444002038450020C044002008B5FFF799
:101BB000D7FF064B1B68012BF9D9054B4FF080521C
:101BC0001A60BFF34F8FBFF36F8FF0E75C440020C4
:101BD00004ED00E070B504460D461D4B1E681D4B1C
:101BE0001868043000F067FD50B91A4B1B68DA6AB8
:101BF000012303FA02F218490B6823EA02030B607F
:101C0000B4F1FF3F0DD03444124B1B685C60A64218
:101C100010D9124B18680F4B1968043100F032FDCF
:101C200070BD002DEFD00B4B196804310C4800F04B
:101C30001DFDF5E70B4B1868064B1968043100F0E1
:101C400021FD094B1B68A342EAD9074B1C60E7E75B
:101C50004C45002050440020D4440020584400202B
:101C60002445002054440020044500202DE9F04381
:101C700085B00746884614461E46900000F07AFC60
:101C8000F0B18146502000F075FC0546A0B1C0F8C7
:101C90003090D5B10023039302950D9B01930C9BCB
:101CA00000933346224641463846FFF780FE2846D9
:101CB000FFF702FF012005E0484600F0ABFCE8E733
:101CC0004FF0FF3005B0BDE8F0834FF0FF30F9E78B
:101CD00000B583B0174B019300230093802216496F
:101CE0001648FFF7C3FF012805D0B0F1FF3F17D01A
:101CF00003B05DF804FB4FF0A00383F31188BFF33A
:101D00006F8FBFF34F8F0E4B4FF0FF321A600D4BAA
:101D100001221A600C4B00221A6000F08BFBE7E7EF
:101D20004FF0A00383F31188BFF36F8FBFF34F8F82
:101D3000FEE700BF004500204C532000AD1B2000F3
:101D400004450020204500204C450020024A13682D
:101D500001331360704700BFCC440020F8B53A4B04
:101D60001B68002B64D1394B1D6801351D60C5B956
:101D7000374B1B681B6843B14FF0A00383F31188F6
:101D8000BFF36F8FBFF34F8FFEE7314A1168314BBE
:101D9000186810601960304A136801331360FFF748
:101DA000E7FD2E4B1B68AB4238D900242C4B1B6837
:101DB000DB6A03EB83039A002A4B9B58012B3CD927
:101DC00001243AE00124224B1B681B6843B3204BDB
:101DD0001B68DB68DE6873689D4226D3371D384672
:101DE00000F069FCB36A1BB106F1180000F063FC57
:101DF000F36A01229A401C49086802430A6003EB17
:101E000083039A0039461748104400F02FFCF26A09
:101E1000134B1B68DB6A9A42D4D2D4E70024D2E782
:101E20000E4B4FF0FF321A60C0E70C4A1360BDE75B
:101E30000E4A13680133136000240D4B1B6803B175
:101E400001242046F8BD00BFCC4400204C450020B2
:101E50005444002058440020084500200445002038
:101E6000504400205C440020D4440020C84400209A
:101E70005045002038B5344B1B6843B94FF0A003E0
:101E800083F31188BFF36F8FBFF34F8FFEE700F02E
:101E900041FA2D4B1A68013A1A601B68002B4DD18C
:101EA0002A4B1B680BB9002449E00024284B1B680F
:101EB0001BB3274BDB68DC6804F1180000F0FBFB68
:101EC000251D284600F0F7FBE06A01238340214AE4
:101ED00011680B43136000EB800029461E4B03EB97
:101EE000800000F0C3FBE26A1C4B1B68DB6A9A426D
:101EF000DCD31B4B01221A60D8E70CB1FFF738FD89
:101F0000184B1C6874B9164B1C68C4B1164B4FF0C3
:101F100080521A60BFF34F8FBFF36F8F01240EE022
:101F2000013C07D0FFF71AFF0028F9D00C4B012223
:101F30001A60F5E70B4B00221A60E4E7002400F07A
:101F40000BFA204638BD00BFCC440020C04400201E
:101F50000C450020D44400205C4400205044002064
:101F600050450020C844002004ED00E010B5A8B1A1
:101F700004460F4B1B6843B14FF0A00383F3118855
:101F8000BFF36F8FBFF34F8FFEE7FFF7DFFE002138
:101F90002046FFF71FFEFFF76DFF38B9054B4FF0E6
:101FA00080521A60BFF34F8FBFF36F8F10BD00BF19
:101FB000CC44002004ED00E0204B1B681BB1204BFB
:101FC00001221A6070471E4B00221A601D4B1B68CD
:101FD000B3FA83F3DBB2C3F11F0303EB83018A007F
:101FE00019498A5842B94FF0A00383F31188BFF30F
:101FF0006F8FBFF34F8FFEE710B4134903EB8300DD
:1020000082000A4450684068506003EB8304A200D9
:1020100014460832114488420AD003EB83039A0025
:10202000094B13445B68DA68084B1A6010BC7047B0
:102030004068054A22445060EFE700BFCC440020CE
:1020400050450020D44400205C440020504400202F
:1020500058B110B50C46094B1968183100F012FB45
:1020600001212046FFF7B6FD10BD4FF0A00383F31A
:102070001188BFF36F8FBFF34F8FFEE750440020EE
:1020800038B5C368DC6824B304F11805284600F0AD
:1020900012FB184B1B682BBB251D284600F00BFBC1
:1020A000E06A01238340144A11680B43136000EB7C
:1020B00080002946114B03EB800000F0D7FAE26A5A
:1020C0000F4B1B68DB6A9A4211D901200D4B186037
:1020D0000EE04FF0A00383F31188BFF36F8FBFF3BF
:1020E0004F8FFEE72946084800F0C0FAE7E70020D6
:1020F00038BD00BFCC440020D44400205C44002004
:1021000050440020504500200C450020034B1B6824
:102110000360034B1B684360704700BF0845002005
:102120004C450020F8B5C8B10C460546F9B100F0A1
:10213000F1F81B4B19686B68C81A2268B2F1FF3FAF
:1021400026D02F68174E3668B74201D08B4224D96B
:10215000824215D80023236001241AE04FF0A00327
:1021600083F31188BFF36F8FBFF34F8FFEE74FF0FC
:10217000A00383F31188BFF36F8FBFF34F8FFEE788
:102180005B1A134423602846FFF7C0FF002400E0D9
:10219000002400F0E1F82046F8BD0124F9E700BF73
:1021A0004C45002008450020014B01221A60704771
:1021B0005045002000284CD038B50446274B1B68FA
:1021C000834208D04FF0A00383F31188BFF36F8FD1
:1021D000BFF34F8FFEE7436C43B94FF0A00383F387
:1021E0001188BFF36F8FBFF34F8FFEE7013B43644E
:1021F000C16A026C91422ED00BB1002038BD051D82
:10220000284600F058FA70B9E26A02EB82039B009C
:102210001349CB583BB9012303FA02F211490B6869
:1022200023EA02030B60206CE062C0F10503A361A6
:10223000012404FA00F30B4A11680B43136000EB0E
:1022400080002946064B03EB800000F00FFA204681
:10225000D4E7002070470020D0E700BF50440020A2
:102260005C440020D444002082B0002301930D4B35
:102270001B68B3F1FF3F08D04FF0A00383F3118830
:10228000BFF36F8FBFF34F8FFEE74FF0A00383F3D1
:102290001188BFF36F8FBFF34F8F019B002BFCD0D2
:1022A00002B070476841002006480068006880F36B
:1022B000088862B661B6BFF34F8FBFF36F8F00DF40
:1022C00000BF000008ED00E04FF0807340F8043CD0
:1022D00021F0010140F8081C034B40F80C3C40F889
:1022E000202C4038704700BF692220000000000009
:1022F000074B19680868B0E8F00F80F30988BFF34E
:102300006F8F4FF0000080F311884EF00D0E704774
:10231000504400204FF0A00383F31188BFF36F8F68
:10232000BFF34F8F0A4A136801331360012B00D0AB
:102330007047084B1B6813F0FF0FF9D04FF0A00354
:1023400083F31188BFF36F8FBFF34F8FFEE700BF9A
:102350006841002004ED00E0094B1B6843B94FF0D1
:10236000A00383F31188BFF36F8FBFF34F8FFEE796
:10237000013B034A13600BB983F31188704700BF18
:102380006841002000000000000000000000000084
:10239000EFF30980BFF36F8F0D4B1A6820E9F00F40
:1023A00010602DE908404FF0A00080F31188FFF77E
:1023B00003FE4FF0000080F31188BDE80840196863
:1023C0000868B0E8F00F80F30988BFF36F8F70479B
:1023D0005044002008B54FF0A00383F31188BFF3E9
:1023E0006F8FBFF34F8FFFF7B9FC18B1034B4FF05E
:1023F00080521A60002383F3118808BD04ED00E0C9
:1024000010B5084C00232360074A136000F01CFE3F
:10241000064BA3FB00239B09013B054A13600723DE
:10242000236010BD10E000E018E000E0D34D621022
:1024300014E000E010B582B0274B1A78D2B20192B6
:10244000FF221A701B78DBB28DF803309DF8033041
:1024500003F0A003214A1370214B07221A609DF854
:10246000033013F0800F0AD01D4A1368013B13603C
:102470009DF803305B00DBB28DF80330EFE7184BBB
:102480001B68042B08D04FF0A00383F31188BFF31F
:102490006F8FBFF34F8FFEE71B0203F4E063104A18
:1024A0001360019BDBB20C4A13700E4B1A6842F4A6
:1024B00060021A601A6842F060421A60FFF7A0FFDB
:1024C0000024094B1C60FFF7EFFEFFF775FDFFF7D7
:1024D000CBFE204602B010BD00E400E054450020D1
:1024E0005845002020ED00E068410020EFF305830F
:1024F0000F2B0FD9104A9B5CDBB2104A12789A421C
:1025000008D94FF0A00383F31188BFF36F8FBFF397
:102510004F8FFEE70A4B1B6803F4E063094A126819
:10252000934208D94FF0A00383F31188BFF36F8F54
:10253000BFF34F8FFEE77047F0E300E05445002003
:102540000CED00E058450020074B23F00703074A35
:10255000136000205060064A40F6F8715160106028
:1025600059601A60704700BF64450020685500201C
:102570005C55002070B50446FFF7E8FB214B1B6853
:102580007BB134B1083414F0070F02D024F00704F3
:102590000834621E40F6F6739A422FD81A4D2B6803
:1025A00007E0FFF7D1FF174B01221A60E9E71D464C
:1025B00013465968A14202D21A68002AF7D1134A79
:1025C00093421DD02E6808361A682A60091B10290C
:1025D0000BD91D1969605C606C680B4A1046126863
:1025E0005168A142FAD32A6005605968084A136805
:1025F0005B1A1360FFF73EFC304670BD0026F9E71A
:102600000026F7E764550020685500205C5500203F
:102610006C410020B8B138B50446A0F10805FFF7B9
:1026200095FB54F8041C084B18461B685A688A42EC
:10263000FAD344F8083C0560044A13681944116051
:10264000FFF718FC38BD7047685500206C4100202A
:1026500000F1080343604FF0FF328260C360036102
:1026600000230360704700230361704743684B6099
:102670009A688A609A6851609960086103680133BA
:102680000360704730B40D68B5F1FF3F11D000F121
:1026900008031C465B681A68AA42FAD963684B6053
:1026A00099608C606160086103680133036030BC2D
:1026B00070470469F2E70369416882688A60516083
:1026C0005968814206D0002202611A68013A1A60F4
:1026D000186870475A60F6E7FEE700000C4B984216
:1026E0000FD003F5805398420DD003F580539842E4
:1026F0000BD003F58053984201D000207047012091
:10270000704701207047012070470120704700BFCB
:1027100000900D4010B50446FFF7E0FF60B1104B8C
:102720009C4218D00DD90F4B9C4216D003F5805314
:102730009C420ED113200BE062210B48FFF7CCFF27
:10274000EDE7A3F580539C4201D1102000E000206A
:1027500010BD0020FCE71120FAE71220F8E700BFC7
:1027600000A00D4000B00D405453200070B5044649
:102770000D461646FFF7B2FF90B1022E15D816F09F
:10278000010F17D0D4F800342B43C4F8003416F0EE
:10279000020F14D0D4F820341D43C4F8205470BD67
:1027A000B5210948FFF798FFE7E7B7210648FFF78B
:1027B00093FFE4E7D4F8003423EA0503E5E7D4F80F
:1027C000203423EA0505E8E75453200070B5044699
:1027D0000E461546FFF782FF08B33DB1042D05D024
:1027E000012D03D0022D01D0072D1ED115F0010FB0
:1027F00021D0D4F808343343C4F8083415F0020F5C
:102800001ED0D4F804343343C4F8043415F0040F54
:102810001BD0D4F80C341E43C4F80C6470BD40F2D5
:1028200019110C48FFF758FFD7E74FF48E7109488C
:10283000FFF752FFDAE7D4F8083423EA0603DBE7B0
:10284000D4F8043423EA0603DEE7D4F80C3423EA90
:102850000606E1E75453200038B504460D46FFF75D
:102860003DFF18B145B1D4F8180438BD4FF4D57107
:102870000348FFF731FFF5E7D4F81404F5E700BF8C
:102880005453200038B504460D46FFF727FF10B11A
:10289000C4F81C5438BD4FF4EC710248FFF71CFF1C
:1028A000F6E700BF5453200038B504460D46FFF745
:1028B00015FF50B12046FFF72DFF0446294600F0D2
:1028C00031FA204600F0B4F938BD4FF4FD710248EA
:1028D000FFF702FFEEE700BF5453200070B5044637
:1028E0000D461646FFF7FAFE10B144F8256070BD9C
:1028F0004FF41C710148FFF7EFFEF6E75453200038
:1029000038B504460D46FFF7E9FE50B100222946CE
:102910002046FFF72BFF00222946204600F032FA1E
:1029200038BD4FF424710248FFF7D6FEEEE700BF32
:102930005453200038B504460D46FFF7CFFE50B182
:10294000012229462046FFF711FF00222946204692
:1029500000F018FA38BD40F2B5210248FFF7BCFE7E
:10296000EEE700BF5453200070B504460D461646EE
:10297000FFF7B4FEA8B1012E19D8164B9C421CD00B
:102980000023154A94421AD0144A944219D09D400B
:10299000012E18D0D4F8043723EA0505C4F80457EB
:1029A00070BD40F2BE310E48FFF796FEE3E74FF4EC
:1029B00070710B48FFF790FEDFE70823E1E7102373
:1029C000E2E71823E3E7D4F804371D43C4F80457BB
:1029D000E6E700BF00A00D4000B00D4000C00D4074
:1029E0005453200038B504460D46FFF777FE78B102
:1029F000104B9C4212D000230F4A944210D00F4A31
:102A000094420FD085B1D4F81807D840C0B238BD71
:102A100040F2BA410A48FFF75FFEE9E70823EBE717
:102A20001023ECE71823EDE7D4F82007D840C0B214
:102A3000EDE700BF00A00D4000B00D4000C00D400C
:102A40005453200038B504460D46FFF747FE80B1C9
:102A50000E4B9C4213D000210D4B9C4211D00D4BCC
:102A60009C4210D08D40D4F818172943C4F8181789
:102A700038BD40F2FB410848FFF72EFEE8E7082189
:102A8000EAE71021EBE71821ECE700BF00A00D40BA
:102A900000B00D4000C00D405453200010B5044656
:102AA00010F03F0F04D0054B18682043186010BD8C
:102AB00040F233510248FFF70FFEF4E794200D4037
:102AC000545320000C4B98420FD003F5805398428A
:102AD0000DD003F5805398420BD003F580539842F4
:102AE00001D000207047012070470120704701206D
:102AF00070470120704700BF0000034070B50546D5
:102B00000C461646FFF7DEFFA8B1FF2C06D0B4F541
:102B10007F4F03D04FF6FF739C4212D11A4B9D4258
:102B200017D003F580539D421BD003F580539D427F
:102B30000DD033250EE040F239311448FFF7CCFDBB
:102B4000E3E740F23B311148FFF7C6FDE6E72725F2
:102B500000E0232514F0FF0F05D114F47F4F0AD1B4
:102B600070BD2525F6E73146284600F0DBF82846FB
:102B700000F05EF8F1E701353146284600F0D2F862
:102B8000284600F055F8EBE70000034060532000B2
:102B900038B504460D46FFF795FF10B13DB1206AE8
:102BA00038BD40F204410348FFF796FDF6E7E069BF
:102BB000F6E700BF6053200038B504460D46FFF726
:102BC00081FF08B1656238BD40F22E410148FFF730
:102BD00083FDF7E76053200008B50146182000F098
:102BE000A1F8182000F024F808BD000038B504460C
:102BF0000D46031F3B2B10D8A2080B4B53F8221095
:102C00000B6804F00304E400FF22A24023EA02035D
:102C100005FA04F41C430C6038BD4FF4DE71034820
:102C2000FFF75AFDE8E700BF9453200070532000DF
:102C300010B504463F2814D8042C18D0052C1CD0FD
:102C4000062C20D00F2C24D00F2C15D9103C04F0CA
:102C50001F016409124B53F8242001238B40136099
:102C60000AE04FF4FB710F48FFF736FDE4E70E4A28
:102C7000136843F48033136010BD0B4A136843F4A8
:102C800000331360F8E7084A136843F480231360A5
:102C9000F2E7064A136843F002031360ECE700BF53
:102CA000805320007053200024ED00E010E000E08D
:102CB00010B504463F2810D80E2C14D00F2C18D075
:102CC0000F2C15D9103C04F01F0164090C4B53F86C
:102CD000242001238B4013600AE040F2AE21094812
:102CE000FFF7FAFCE8E7084A136843F00063136053
:102CF00010BD054A136843F000731360F8E700BF86
:102D0000385420007053200004ED00E0044B1B6891
:102D100013F0010F01D0012070470020704700BF61
:102D200098200D4070B504460E463F2813D8FFF793
:102D3000EDFFA8B1104B1B68104DAB4218D00E4BE5
:102D4000186800233F2B11D850F823100B4A42F883
:102D500023100133F6E7FE210948FFF7BDFCE6E743
:102D60004FF481710648FFF7B7FCE3E7024B1D60A3
:102D7000024B43F8246070BD08ED00E000400020E5
:102D80007053200070B504460D461646364B9842E7
:102D90000BD003F58053984207D003F58053984237
:102DA00003D003F5805398420ED19DB1082E06D072
:102DB000042E04D0022E02D0012E00D086B92B4B57
:102DC0009C4213D000232CE040F259212848FFF701
:102DD00083FCEAE740F25A212548FFF77DFCE5E74E
:102DE00040F25F212248FFF777FCE8E715F00F0F6C
:102DF000E8D0042E03D0022E01D0012EE2D140F201
:102E000066211B48FFF768FCDCE7A2F5805294427C
:102E100003D1184A52F8232001E0A2F59F42166020
:102E20000133072B1ED845FA03F212F0010FF7D039
:102E3000114A94420ED0E8D90C4A94420ED002F5C1
:102E40008052944203D10D4A52F82320E7E7A2F5BD
:102E5000FF42E4E70A4A52F82320E0E7094A52F821
:102E60002320DCE770BD00BF00900D4000B00D4096
:102E70004C5420005854200000A00D40B8542000AD
:102E8000785420009854200038B504460D460D4B68
:102E9000984203D003F5805398420BD1094B9C42D2
:102EA0000DD0322429462046FFF73CFF2046FFF78D
:102EB000BFFE38BDF6210448FFF70EFCEEE71724ED
:102EC000F0E700BF00800040D854200038B5044629
:102ED0000D46094B984203D003F58053984202D126
:102EE0003DB1E06938BD40F281110448FFF7F4FBC1
:102EF000F6E7A069F6E700BF00800040D854200044
:102F000038B504460D46074B984203D003F580536D
:102F1000984201D1256238BD4FF4D8710248FFF7BD
:102F2000DBFBF7E700800040D854200038B50446AA
:102F30000D46104B984203D003F5805398420DD1B3
:102F4000226802F00F026FF0010393402B420BD175
:102F5000E36813F0020FFBD0A56038BD4FF4E871B1
:102F60000548FFF7B9FBEBE74FF4E9710248FFF7BB
:102F7000B3FBEDE700800040D854200038B504468C
:102F80000D460A4B984203D003F58053984206D170
:102F9000E36813F0040FFBD0A3682B6038BD40F248
:102FA00027210348FFF798FBF2E700BF00800040AD
:102FB000D854200038B504460D46084B984203D03B
:102FC00003F58053984203D1616A2943616238BD99
:102FD00040F27D210248FFF77FFBF5E700800040CB
:102FE000D854200038B504460D46094B984203D00A
:102FF00003F58053984204D1616A21EA05016162B8
:1030000038BD4FF427710348FFF766FBF4E700BFB4
:1030100000800040D854200010B50446084B984268
:1030200003D003F58053984203D1E068C0F3001049
:1030300010BD40F2B9210348FFF74EFBF5E700BF92
:1030400000800040D85420000E4B1B6803F007039B
:10305000072B05D8DFE803F01406080A0C0E10123F
:103060000020704708487047084870470848704774
:103070000848704708487047084870470848704734
:103080000848704704200D400024F40000127A0024
:1030900000093D0080841E0040420F0020A107006F
:1030A00090D003000048E80110B50446072807D86F
:1030B000064B186820F4E06040EA0420186010BD58
:1030C0004FF4B0710248FFF707FBF1E700200D4015
:1030D000E454200001387FF4FDAF704770B5064618
:1030E0000D461446072A01D822B919B1D9211B4827
:1030F000FFF7F2FA25B91A4A136843F40013136074
:10310000174B1A68174B13400EB943F08073BDB1CB
:103110004FF480352B432343114A1360124B1B6835
:10312000002403F48033AB420CD04FF6FE739C4274
:1031300008D81020FFF7CEFF0B4B1B680134F0E7D7
:103140000025E7E74FF6FE739C4200D870BD4FF4B0
:1031500081710248FFF7C0FAF8E700BFE45420008D
:1031600000200D40F8FFFEFE04200D4070B51B4B03
:103170001D6805F4E06615F0070500D056B9184B38
:103180001A680DBB01231A4306BB4FF48073134327
:10319000134A1360134C236843F00403236000F0C8
:1031A00095F9236823F00403236005B15EB90C4B45
:1031B0001A686DB96FF007031A4066B96FF4E063DF
:1031C0001340074A136070BD0023DCE70023DEE7ED
:1031D0004FF0FF33F0E74FF0FF33F1E704200D40ED
:1031E00000200D4010ED00E0064B984207D003F59B
:1031F0008053984201D00020704701207047012081
:10320000704700BF00C0004038B504460D46FFF7C8
:10321000EBFF58B1094B9C420ED01624294620469C
:10322000FFF780FD2046FFF703FD38BD40F2BB31BC
:103230000348FFF751FAEDE71524EFE700C000401F
:10324000F454200038B504460D46FFF7CDFF20B1F9
:10325000A16B21EA0501A16338BD40F23741024864
:10326000FFF73AFAF4E700BFF454200038B50446FB
:103270000D46FFF7B9FF10B13DB1206C38BD40F2EB
:1032800055410348FFF728FAF6E7E06BF6E700BF81
:10329000F454200038B504460D46FFF7A5FF08B1E9
:1032A000656438BD40F285410148FFF715FAF7E73C
:1032B000F454200010B504464FF6E073184207D1CD
:1032C00004F01F04012303FA04F4044B1C6010BD36
:1032D0009A210348FFF700FAF2E700BF28F00F40F9
:1032E0000055200038B504460D464FF6C07318420D
:1032F0000ED10D4B1B688BB104F03F040A4B1868CC
:1033000000EB04108368094919402943816038BDE6
:1033100040F261210648FFF7DFF9EAE740F2622157
:103320000348FFF7D9F9E7E708F00F40F73FFC0043
:10333000005520002DE9F84F83460D4616461F46DE
:10334000DDF828804FF6C073184247D13A4B1B680E
:10335000002B49D0062D4DD8B146B6F1005F4FD3B2
:10336000BA46B7F1005F51D308F1FF34B4F5806F6E
:1033700052D20BF03F0C304B1A684FEA0C1E02EB96
:103380000E00836823F47F5323F037031BF0200FD4
:1033900005D0042D01D0062D01D145F0010545EAE7
:1033A0000411194301F04063B3F1406F04D09E0E45
:1033B00008FA06F64E44013E42F80E6001F0404322
:1033C000B3F1404F33D0042D2CD0062D2AD09B0FC3
:1033D00008FA03F8D04408F1FF3728E040F2D12181
:1033E0001648FFF779F9B1E740F2D2211348FFF709
:1033F00073F9AFE740F2D3211048FFF76DF9ABE75F
:103400004FF435710D48FFF767F9A9E740F2D52170
:103410000A48FFF761F9A7E740F2D6210748FFF70E
:103420005BF9A6E74CF0200702EB07170C37476063
:103430008160BDE8F88F00BF08F00F400055200004
:1034400010B504464FF6C073184210D10E4B1B68DE
:103450009BB104F03F040C4B1B6803EB0414A06801
:1034600043F6F773184001D00009013010BD40F257
:10347000B3310648FFF730F9E8E74FF46D710348C0
:10348000FFF72AF9E5E700BF08F00F4000552000DC
:1034900038B504460D4659B1A4F13E03012B0DD8B1
:1034A00029462046FFF73EFC2046FFF7C1FB38BD0A
:1034B0004FF488610448FFF70FF9EDE740F241410E
:1034C0000148FFF709F9EBE70055200030BF7047CE
:1034D0000B460146184600F001B8000010B5054C37
:1034E00034B113460A460146022000F069F910BDC6
:1034F000204610BDC137200070B50D4E0D4D761B16
:10350000B61006D00024013455F8043B9847A64273
:10351000F9D1094E094D02F091F8761BB61006D08C
:103520000024013455F8043B9847A642F9D170BDF8
:1035300048562000485620005C562000485620007F
:10354000844641EA000313F0030349D1403A23D3F0
:103550000B6803604B6843608B688360CB68C36013
:103560000B6903614B6943618B698361CB69C361FB
:103570000B6A03624B6A43628B6A8362CB6AC362E3
:103580000B6B03634B6B43638B6B8363CB6BC363CB
:1035900040304031403ADBD230320BD30B6803600D
:1035A0004B6843608B688360CB68C3601030103118
:1035B000103AF3D20C3205D351F8043B40F8043BE7
:1035C000043AF9D2043208D0D2071CBF11F8013BEB
:1035D00000F8013B01D30B8803806046704700BFB1
:1035E000082A13D38B07B1D010F00303AED0C3F178
:1035F0000403D21ADB071CBF11F8013B00F8013BA2
:10360000A4D331F8023B20F8023B9FE7043AD9D318
:10361000013A11F8013B00F8013BF9D20B78037035
:103620004B7843708B78837060467047F0B48607A0
:1036300046D0541E002A3CD0CAB2034602E014F120
:10364000FF3436D303F8012B9D07F8D1032C29D979
:10365000CDB245EA05250F2C45EA054533D9A4F13D
:103660001006360903F1200707EB061703F11002D5
:1036700042E9045542E902551032BA42F8D1721CAF
:1036800014F00C0F03EB021204F00F0613D0331FDB
:1036900023F003030433134442F8045B9342FBD149
:1036A00006F003042CB1C9B21C4403F8011B9C4270
:1036B000FBD1F0BC704734461346002CF3D1F8E739
:1036C00014460346C2E71A462646E0E738B5124BD1
:1036D00005461C68A06B18B10023C0E9045338BD2F
:1036E000182000F00DF9A06378B101220023C0E991
:1036F00004230A4B0B24836000230949094A84816F
:10370000C0E90012C0E9045338BD0246064B42210D
:10371000064800F0ADF800BF70410020ECDE050067
:103720000E33CDAB34126DE6145520002C5520001D
:1037300038B51A4B1C68A26B92B1146918495369C9
:1037400001FB04F1174800FB0313A4FB0045611CB7
:103750001D4445F1000323F00040C2E9041338BDC5
:10376000182000F0CDF80246A06388B1012400259E
:103770000B21C0E904450C4B0948136003460B4D6F
:103780000B4C91810B49C2E90154C2E9041338BDC5
:10379000094B4E21094800F06BF800BF7041002032
:1037A0002DF451582D7F954C0E33CDAB34126DE670
:1037B000ECDE05002E7F954C145520002C55200082
:1037C0002DE9F041264C82B025680DB36C681F2CA2
:1037D00042DC9846064690B1D5F8880038B3D0F858
:1037E00000310127A74047EA030C022E00EB8403B7
:1037F00040F82420C0F800C1C3F8808011D0002018
:10380000631C02346B6045F8241002B0BDE8F081FF
:10381000144E154D2660EDB12C683546C6F888402B
:10382000D4E7D0F804311F43C0F80471E7E70F4B29
:10383000CDE9001283B14FF4847000F061F858B103
:10384000DDE9001200276C683B46C0E94077C5F807
:103850008800C6E73546B9E74FF0FF30D5E700BF2F
:103860000457002078560020105520000139200010
:1038700000B50A4C0546206885B01C46C06852B1A8
:10388000074BCDE9013200912B462246054900F055
:1038900023F800F07FFD044B1A46F2E77041002048
:1038A00060552000705520006C55200008B5134667
:1038B0000022FFF7DDFF00BF0CB410B582B004ACEE
:1038C00054F8042B2346019400F024F902B0BDE81B
:1038D000104002B0704700BF0EB430B582B005ACE6
:1038E00054F8042B054D014623462868019400F046
:1038F00011F902B0BDE8304003B0704770410020BC
:10390000024B0146186800F05FB800BF704100200C
:10391000024B0146186800F003B800BF7041002058
:1039200000293AD038B551F8043C0C1F002BB8BF21
:10393000E418054601F006FA224B1A682AB1A242A1
:103940000DD921686018824221D0626028461C602F
:10395000BDE8384001F0F8B9A34203D81A465368CD
:10396000002BF9D111685018A04217D022D8216835
:103970006018834203BFD3E900030918C4E90013A8
:10398000636054602846BDE8384001F0DDB9D2E9F3
:1039900000020144C4E90012D8E7704720680144DE
:1039A000501883421160EDD1D3E900030144C2E90C
:1039B0000013E7E70C2328462B60BDE8384001F0F0
:1039C000C3B900BF08570020F8B5CD1C25F003058A
:1039D00008350C2D38BF0C25002D064633DBA942D7
:1039E00031D82A4F01F0AEF93A6852B113685B1B27
:1039F00004D43FE023685B1B29D522465468002C81
:103A0000F8D1796800293BD02946304600F0D0FB38
:103A1000431C28D0C41C24F00304A04205D0211A62
:103A2000304600F0C5FB01301DD02560304601F066
:103A30008BF904F10B0020F00700231DC21A01D0FE
:103A40001B1AA350F8BD0C2200203260F8BD0B2BCE
:103A500005D8A242636811D05360E7E7144623609B
:103A60001C442560E2E70C233046336001F06CF91A
:103A70000020F8BD0B2BF1D8144653683B60D5E706
:103A8000304600F095FB7860BEE700BF0857002085
:103A90009368013B002B93600FDA10B49469A34242
:103AA00008DB0A2906D01368581C106019700846F4
:103AB00010BC704710BC00F08DBB1368581C106020
:103AC00019700846704700BF9BB1F8B513440F4604
:103AD00006465D1E541E01E0AC4208D03A4614F87A
:103AE000011F3046FFF7D4FF431CF5D1F8BD00207D
:103AF000F8BD0020704700BF936810B5144613B995
:103B00005360184610BD00F02DFE0023C4E90133B8
:103B100010BD00BF2DE9F04F9FB08B4690461C466C
:103B2000039018B18369002B00F0B980A34B9B452B
:103B300000F0BB80A24B9B4500F0C980A14B9B4588
:103B400004BF039BD3F80CB0BBF80C30180740F14E
:103B5000B480DBF81030002B00F0AF803023002160
:103B600020228DF8323098F8003005940B918DF8B2
:103B70003120954E0127002B00F08980252B00F085
:103B80001781454603E0252B00F0A58025466B787C
:103B90006C1C002BF7D1B4EB080A78D04246534690
:103BA00059460398FFF790FF013070D00B9B6A785D
:103BB00053440B93002A6AD000234FF0FF320134A4
:103BC0000693CDE908338DF85B301C93079206E02D
:103BD0002C46069B801B07FA00F0184306902546EA
:103BE000052215F8011B304601F000F8AA4600280E
:103BF000EED1069BD90644BF20228DF85B201A0720
:103C000048BF2B22217848BF8DF85B202A2967D135
:103C1000059A1168043200290592C0F29E8009912C
:103C20006178A51C2E2974D0684C0322204600F030
:103C3000DDFF002800F087804022069B001B02FA6F
:103C400000F00343069305F101082B78062219467C
:103C50005F488DF8303000F0C9FF002800F0838005
:103C60005C4B002B72D005AB00935A465A4B06A909
:103C70000398AFF300808146B9F1FF3F07D00B9B5B
:103C80004B440B9398F80030002B7FF477AFBBF8D0
:103C90000C305B0618D40B981FB0BDE8F08F00F015
:103CA00041FD464B9B457FF445AF039BD3F804B0E1
:103CB000BBF80C3018073FF54CAF5946039800F09D
:103CC000E9FA00283FF44AAF4FF0FF30E4E7039BE6
:103CD000D3F808B038E7B4EB080A3FF46DAF5DE7FE
:103CE000A1F13002092A88BFA2469BD8099B01E0B6
:103CF0002C460135297803EB830302EB4303A1F142
:103D00003002092AAA46F3D92E2904F102050993A3
:103D10008AD19AF801102A292FD1059B0AF10200B5
:103D20001A680433002A079205939AF802100AF1E0
:103D3000030538DB254C82460322204600F056FF5F
:103D400000287FF479AFA84655467EE7059B0733E8
:103D500023F007030833059391E7494243F0020338
:103D6000099106935CE705AB00935A461A4B06A9E6
:103D7000039800F0D3F881467EE70023A1F13002DA
:103D8000092A079301D915E05546697803EB8303A7
:103D900002EB4303A1F13002092A05F1010AF3D92C
:103DA0000235079340E74FF0FF33824607933BE726
:103DB000444601E7AA46013536E700BF1C562000FD
:103DC000FC552000DC552000A0552000A8552000FF
:103DD000AC55200000000000C93A200010B4044C8B
:103DE00013460A460146206810BCFFF793BE00BF89
:103DF000704100202DE9F0470C460969A5689146FD
:103E00008D42B8BF0D46156094F8431006461F4614
:103E1000DDF8208011B16A1CC9F8002023689906DA
:103E20005CD5D9F800200232C9F80020236813F0CD
:103E3000060F19461DD1E1688A1A002AD8BF194613
:103E400017DD002504F1190A05E0E368D9F8002020
:103E50009B1AAB420CDD0123524639463046C0471F
:103E6000013005F10105F0D14FF0FF30BDE8F087DA
:103E7000216894F84330003318BF01238A060AD51D
:103E80003021E21882F8431094F845105A1C22445D
:103E900082F84310023304F1430239463046C047EA
:103EA0000130E1D02368A26803F00603042B2169E6
:103EB0001DD08A4226DD4FF00009521A9144002598
:103EC0001A3401E04D451DDA0123224639463046B9
:103ED000C047013005F10105F4D1C5E713F0060F25
:103EE00013D094F84330003318BF0123D3E7D9F837
:103EF0000000E3688A42A3EB000323EAE379DCDCF9
:103F0000002BDCDC0020BDE8F087E168D9F8002058
:103F10008A1A002AD8BF194693DCAAE72DE9F04394
:103F20000C46097E85B06E2906461746984604F170
:103F3000430C0C986DD039D9732900F0F48044D922
:103F4000752900F00281782940F00F8178232268DA
:103F5000DFF854E284F845300168150651F8043B57
:103F6000016040F1A180D10744BF42F020022260ED
:103F7000002B00F093801022002184F84310606829
:103F80000028A060C0F2C680216821F004012160F1
:103F9000002B40F0A280002840F0BE806546082A31
:103FA00000F0AB80ACEB0503236141E0632900F036
:103FB000E3801AD8002938D0582940F0D68084F8F8
:103FC00045102268DFF8E4E1C6E76F2900F0BD8004
:103FD000702940F0CA8078232268DFF8CCE142F0F3
:103FE0002002226084F84530B6E7642902D06929AE
:103FF00040F0BB8022680368110603F1040557D521
:10400000196805600B46002959DB0A22DFF89CE19C
:10401000B5E7036822681D1D6169056015061B6808
:1040200002D4500600F1BB8019600023654623616D
:10403000CDF800803B4603AA21463046FFF7DAFE62
:10404000013020D02A46236939463046C047013026
:1040500019D0226803989207E36819D51A1A002A22
:1040600016DD002504F1190904E0E36803981A1A23
:10407000AA420DDD01234A4639463046C047013089
:1040800005F10105F1D14FF0FF3005B0BDE8F08337
:104090009842B8BF184605B0BDE8F08321681022E9
:1040A00021F02001216067E7500648BF9BB25AE724
:1040B0005106A5D5B3F9003005601946A3E72D20B8
:1040C00061685B42002984F84300A16002DB22F0B2
:1040D000040222600A22DFF8D4E0654600E00B46C5
:1040E000B3FBF2F102FB11301EF80000934205F819
:1040F000010DF4D2082A7FF455AF2368DB077FF562
:1041000051AF626823699A423FF74CAF3023013DBB
:104110002B7047E7002BE0D19EF8003004F14205F8
:1041200084F842303BE703686268191D01601D682E
:104130000021284600F05AFD002832D0401B606064
:104140002061002384F8433072E72268036812F08C
:10415000800F03F104051AD01B6805606F290CBF9E
:1041600008220A22DFF844E006E7012384F842101F
:10417000236104F14205E4E70122036804F14205EA
:10418000191D1B68016084F842302261D9E712F0E2
:10419000400F0DBF1B6805601B880560DEE71980B6
:1041A00043E76068CCE700BFC8552000B455200045
:1041B00038B50023064C05460846236000F0ACFFE6
:1041C000431C00D038BD2368002BFBD02B6038BDCA
:1041D00014570020F8B50D461446064608B1836909
:1041E00043B3254B9C422AD0244B9C4229D0244BDC
:1041F0009C4208BFF468A269A389A2601A0722D56D
:10420000236903B322686169D31AEDB299422F463C
:1042100029DD0133A168501C0139A16020601570AF
:1042200062699A4216D0A389DB0701D50A2D11D005
:104230003846F8BD00F076FA0F4B9C42D4D1746832
:10424000D9E7B468D7E72146304600F023F838B9FB
:104250002369D7E72146304600F03AF90028E7D035
:104260004FF0FF37E4E72146304600F031F90028EF
:10427000F6D101232268CDE71C562000FC55200012
:10428000DC552000024B0A4601461868FFF7A2BF22
:10429000704100203B4B70B51D6806460C460DB1C1
:1042A000AB69DBB1384B9C421ED0384B9C424AD0A4
:1042B000374B9C4208BFEC68B4F90C2093B2190745
:1042C00018D5206908B313F001022CD000226369CD
:1042D000A2605B42A36160B3002070BD284600F07D
:1042E00021FA294B9C42E0D16C68B4F90C2093B2BE
:1042F0001907E6D4DD063CD5580726D4206942F0DC
:104300000803A3819BB20028DDD103F42072B2F52B
:10431000007FD8D03046214600F01EFCA3892069DA
:1043200013F00102D2D1990758BF6269A260002838
:10433000D2D1B4F90C301A06CFD543F04003A38193
:104340004FF0FF3070BDAC68B6E7616B51B104F15E
:104350004403994204D03046FFF7E2FAB4F90C2046
:10436000002363630023206922F02402C4E90003D0
:10437000C5E7092342F0400233604FF0FF30A281CD
:1043800070BD00BF704100201C562000FC5520006D
:10439000DC55200008B5062000F084FD012000F067
:1043A000D1FE00BF2DE9F0418F890C463A078046C7
:1043B00041D44B68002B59DDE66A002E53D0002310
:1043C00017F48052D8F80050216AC8F8003051D153
:1043D00001234046B047431C5FD0A789E66A216AA3
:1043E0007F0705D56268636B801A0BB1236CC01A16
:1043F000024600234046B047461C45D1D8F800305D
:10440000B4F90C20002B55D01D2B01D0162B5AD1FE
:1044100000222369C4E90032616BC8F8005011B36F
:1044200004F14403994202D04046FFF779FA002094
:104430006063BDE8F0810E69AEB10D680E60B9072A
:1044400014BF00236369AD1BA3600AE02B4632460C
:10445000A76A216A4046B8470028A5EB0005064434
:104460000ADD002DF2DC0020BDE8F0810B6C002B92
:10447000A2DCF8E7606DB3E7A3894FF0FF3043F0AB
:104480004003A381BDE8F081002322696360A38912
:104490002260DA04C0D56065BEE7D8F80030002B92
:1044A0009BD01D2B0CD0162B0AD0A38943F04003C0
:1044B000A381D9E72169C4E90013D304ACD5EAE7A5
:1044C000C8F80050CFE742F04002A281CCE700BF1D
:1044D0000B6923B310B5044682B008B18369BBB140
:1044E000104B994212D0104B994216D00F4B994263
:1044F00008BFE168B1F90C302BB1204602B0BDE82D
:104500001040FFF74FBF002002B010BD6168F1E717
:10451000019100F007F90199E2E7A168EAE70020BC
:10452000704700BF1C562000FC552000DC552000C1
:1045300020B1054B01461868FFF7CABF034B044979
:10454000186800F0B3BA00BF704100200C5520007D
:10455000D144200000207047014900F0A7BA00BFF5
:10456000D14420000020704770B568254A1E05FB25
:1045700002F50E4605F17401FFF726FA044640B134
:1045800000210C30666005F168022160A060FFF731
:104590004DF8204670BD00BF1E4B70B51D68064625
:1045A000AB6943B34835D5E90134013B05D51EE07D
:1045B000013B5A1C04F1680419D0B4F90C20002AFC
:1045C000F6D10025144B6566C4E90055A560C4E921
:1045D0000455A5612946E360082204F15C00FFF759
:1045E00025F8C4E90D55C4E91255204670BD2C6864
:1045F0002CB12546D7E7284600F010F8D2E7042171
:104600003046FFF7B1FF044628600028F1D10C23A3
:104610003360EAE70C5520000100FFFF2DE9F84F59
:104620000023334AC0E9123312680365904208BF81
:104630000123304908BF836181620546FFF7ACFF63
:1046400068602846FFF7A8FFA86028460024FFF707
:10465000A3FF04236E68E8602146F3607466C6E930
:104660000044B460C6E90444B46106F15C00082269
:10467000FEF7DCFFDFF888B0AF68DFF888A0DFF86E
:104680008890DFF888801C4BC6E9086BC6E90AA948
:10469000C6F830802146FB6008227C66C7E90044EA
:1046A000BC60C7E90444BC6107F15C00FEF7BEFFD3
:1046B000EE68124BC7E9087BC7E90AA9C7F8308042
:1046C0002146F3607466C6E90044B460C6E9044458
:1046D000B46106F15C000822FEF7A8FF0123C6E9D9
:1046E000086BC6E90AA9C6F83080AB61BDE8F88F4F
:1046F0000C5520005945200009000100120002005D
:10470000154F20003D4F20007D4F20009D4F200081
:10471000024B0349186800F0C9B900BF0C552000CE
:10472000D1442000836903B978E77047704700BF20
:10473000704700BF704700BF704700BF024B03497E
:10474000186800F08FB900BF704100205545200067
:10475000024B0349186800F085B900BF7041002082
:10476000654520009368002B00F0FC802DE9F04F98
:10477000B1F90C300C469BB2190783B082469046C3
:104780002BD522694AB313F00202D8F8006033D067
:1047900000273D46D4F828B0216ADFF8C492C5B19D
:1047A0004D452B463A4628BF4B465046D847002831
:1047B00040F3CE80D8F8083007441B1A2D1AC8F8E9
:1047C0000830002B00F0B380D4F828B0216A002D07
:1047D000E6D1D6E900750836E1E721465046FFF7F5
:1047E00059FD002840F03781B4F90C30D8F800604A
:1047F0009BB213F00202CBD113F0010940F0B48058
:104800004D46A7682068002D55D09A0540F1C0801C
:10481000AF42BB4600F2EE8013F4906F2FD0D4E984
:10482000041707EB4707A0EB010B07EBD777681CD2
:104830007F105844B8423A4684BF07463A465B0563
:1048400040F1F08011465046FFF7BEF8002800F016
:10485000FC805A4621690190FEF772FEA289019BF5
:1048600022F4906242F08002A281A7EB0B0203EBDC
:104870000B006761AB462F4623612060A2605A4659
:10488000494600F0F9F92368A2685B44AB4600256D
:10489000D71BA7602360D8F80870D944A7EB0B0793
:1048A000C8F80870002F42D0B4F90C30A7689BB24A
:1048B0002068002DA9D1D6E900950836A3E70BF1B1
:1048C000080353F8047C9B4653F8086C0833002F08
:1048D000F7D03A460A21304600F088F9002854D033
:1048E0000130A0EB06094B4620682169BB4228BF76
:1048F0003B468842626903D9A5681544AB421ADC7D
:104900009A4200F381801346A56A3246216A5046D6
:10491000A847051E1CDDB9EB05096ED00120D8F8AB
:1049200008302E445B1B7F1BC8F8083013BB0020E7
:1049300003B0BDE8F08F31462A4600F09DF92368A8
:1049400021462B4423605046FFF7C2FD0028E2D0E9
:10495000B4F90C304FF0FF3043F04003A38103B0B3
:10496000BDE8F08F00207047334691461046174649
:104970004E469B46002FA2D00028B4D13A460A21C9
:10498000304600F033F90028AAD17B1C9946ABE7EA
:104990002369834217D36269AA4214D82F4BA76AAE
:1049A0009D4294BF2B466FF0004393FBF2F3216AC4
:1049B00002FB03F350464A46B847B0F1000BC7DD8F
:1049C000A5EB0B0567E7AF4228BF2F4649463A469D
:1049D00000F052F9A3682268DB1B3A44BB46A3608F
:1049E0002260002BECD121465046FFF771FD0028D4
:1049F000E6D0ADE72F46AB4641E721465046FFF7EC
:104A000067FD00288BD0A3E71A4631461D46019367
:104A100000F032F9A1682268019BC91A1344A16011
:104A2000236078E7504600F091F9034600287FF4B0
:104A30001CAF21695046FEF773FF0C22B4F90C300D
:104A4000CAF8002023F0800384E70C22B4F90C306C
:104A5000CAF800207EE74FF0FF3069E7FEFFFF7FD6
:104A600000FCFF7F2DE9F04110F148071AD088467D
:104A70000026D7E90154013D0ED4A389013D012B45
:104A800006D9B4F90E30013302D02046C0470643A0
:104A90006B1C04F16804F0D13F68002FE9D1304667
:104AA000BDE8F0813E463046BDE8F0812DE9F8438F
:104AB00010F148061ED0884607464FF00009D6E997
:104AC0000154013D10D4A389013D012B08D9B4F94B
:104AD0000E30013304D021463846C04749EA000968
:104AE0006B1C04F16804EED13668002EE7D148460D
:104AF000BDE8F883B1464846BDE8F88370B50C467A
:104B0000B1F90E1096B0002916461D4613DB6A4611
:104B100000F070FA00280EDB019A4FF4806302F473
:104B20007042A2F50052B2FA82F2002052092A60C5
:104B3000336016B070BD0022A3892A601B0604D51D
:104B400040230020336016B070BD4FF48063002016
:104B5000336016B070BD00BF8A890B46920706D538
:104B6000012103F1470259611A601A61704770B55B
:104B700082B001AB6A460C460646FFF7BFFF0099BC
:104B800005463046FEF720FFB4F90C3070B1164AE6
:104B90000099B262019A43F08003A3812060C4E9C6
:104BA00004018AB92B43A38102B070BD9A05FBD4DE
:104BB000012123F0030304F1470243F00203A38120
:104BC000616122602261EFE73046B4F90E1000F017
:104BD00025FA10B9B4F90C30E4E7A38923F00303F4
:104BE00043F001031BB2DDE759452000830770B491
:104BF000CDB23DD0541E0AB30378AB421FD0431C44
:104C000005E014F1FF3419D30278AA4217D013F04B
:104C1000030F184603F10103F3D1032C11D84CB351
:104C20000378AB420BD00444431C02E00278AA4252
:104C300005D09C42184603F10103F7D1002070BC57
:104C4000704702460E02B6B22E4346EA0646136885
:104C500010467340A3F1013121EA030313F0803FB2
:104C600002F10402DCD1043C032C1046EFD8D6E755
:104C70001446D2E72046E2E78842F0B40DD98B18FB
:104C800083420AD9841832B1224613F8014D994261
:104C900002F8014DF9D1F0BC70470F2A0ED8034637
:104CA000541E002AF7D001340C44013B11F8012BAB
:104CB000A14203F8012FF9D1F0BC704740EA01038B
:104CC0009B073AD1A2F110073F0901F1200606EB3C
:104CD000071601F1100300F1100453F8105C1033B3
:104CE00044F8105C53F81C5C103444F81C5C53F816
:104CF000185C44F8185C53F8145CB34244F8145C34
:104D0000EBD17B1C1B0112F00C0F194402F00F05B4
:104D1000034415D00E46043DAD0803EB850C1C1F63
:104D200056F8047B44F8047F6445F9D10135AD00A1
:104D30002B44294402F00302B2E7541E0346B2E7B3
:104D40002A46ADE7704700BF704700BF09B3F8B50A
:104D50001446CAB106460D4600F088F9A04202D3B7
:104D60002F463846F8BD21463046FEF72DFE074651
:104D70000028F6D022462946FEF7E2FB30462946B7
:104D8000FEF7CEFD3846F8BD2746FEF7C9FD38468A
:104D9000F8BD1146FEF718BE10B580210446FEF797
:104DA00013FE606440B10022031F7C3043F8042FDF
:104DB0008342FBD1002010BD4FF0FF3010BD00BF7B
:104DC000436C0BB100207047E6E700BF1F2970B5A8
:104DD000054608D8436C16460C464BB153F82400E0
:104DE00043F8246070BD16224FF0FF302A6070BD7A
:104DF000FFF7D2FF08B96B6CF0E74FF0FF3070BDE2
:104E00001F2938B5054620D8426C0C466AB152F8C5
:104E1000213053B1012B16D0591C10D0002520464B
:104E200042F824509847284638BD284600F070F8CC
:104E3000224601462846BDE8384000F055B8162302
:104E400001202B6038BD002038BD16234FF0FF3005
:104E50002B6038BD1F2921D838B5436C05460C4658
:104E600083B153F8242003EB84034AB1511C10D0C2
:104E7000012A0CD0002520461D609047284638BDE9
:104E8000012038BDFFF788FF28B96B6CE9E70320E4
:104E900038BD022038BD4FF0FF3038BD4FF0FF3035
:104EA000704700BF024B01461868FFF7A9BF00BF5B
:104EB00070410020024B0A4601461868FFF786BF82
:104EC00070410020034B1868436C0BB10020704701
:104ED00062E700BF70410020024B01461868FFF7EF
:104EE000B9BF00BF7041002070B50D460023074CCC
:104EF000064611462846236000F0F6F8431C00D011
:104F000070BD2368002BFBD0336070BD14570020A8
:104F100000F0DAB810B50C46B1F90E1000F0AEF89A
:104F2000002803DB636D0344636510BDA38923F48C
:104F30008053A38110BD00BF002070472DE9F041D0
:104F4000B1F90C409846E3050D461746B1F90E102D
:104F5000064609D424F48054AC8143463A46304690
:104F6000BDE8F04100F01EB80223002200F068F80E
:104F7000B5F90C40B5F90E10ECE700BF10B50C46C2
:104F8000B1F90E1000F05CF8A389421C0EBF23F4A7
:104F9000805343F480536065A38110BDB1F90E10B6
:104FA00000F016B8F8B50E460025084C1146074625
:104FB0001A463046256000F0BDF8431C00D0F8BD0D
:104FC0002368002BFBD03B60F8BD00BF14570020C6
:104FD00038B50023064C05460846236000F064F807
:104FE000431C00D038BD2368002BFBD02B6038BD9C
:104FF0001457002070B50D460023074C0646114695
:105000002846236000F058F8431C00D070BD236888
:10501000002BFBD0336070BD1457002038B500233F
:10502000064C05460846236000F056F8431C00D0A5
:1050300038BD2368002BFBD02B6038BD14570020EF
:10504000F8B50E460025084C114607461A4630466C
:10505000256000F051F8431C00D0F8BD2368002BF8
:10506000FBD03B60F8BD00BF1457002051F8043C52
:10507000181F002BBCBF0B58C0187047F8B50E4660
:105080000025084C114607461A463046256000F0B8
:105090003BF8431C00D0F8BD2368002BFBD03B60DD
:1050A000F8BD00BF145700205822024B4FF0FF30CC
:1050B0001A607047145700205822024B4FF0FF30FF
:1050C0001A607047145700205822024B4FF0FF30EF
:1050D0001A607047145700205822024B00201A60B3
:1050E000704700BF145700205822024B4FF0FF308A
:1050F0001A607047145700205822024B4FF0FF30BF
:105100001A607047145700205822024B4FF0FF30AE
:105110001A60704714570020044A05491368002B91
:1051200008BF0B46184410601846704710570020FF
:10513000185700205822024B4FF0FF301A6070477A
:1051400014570020FEE700BF477265656E0000003F
:1051500000A00D4002000000000000000000000060
:105160000000000000A00D40010000000000000051
:10517000000000000000000000B00D401000000022
:1051800000000000000000000100000000900D4041
:105190000400000004000000000000000000000007
:1051A00000A00D4004000000080000000000000006
:1051B0000000000000900D400100000000410D4083
:1051C000000000000000000000900D400200000000
:1051D00000000000000000000000000000A00D40E2
:1051E0000400000008410D40000000000000000025
:1051F00000A00D40080000000200000000000000B8
:105200000000000000B00D40800000000000000021
:10521000000000000100000000900D4010000000A0
:1052200010410D40000000000000000000900D4003
:10523000200000000300000000000000000000004B
:1052400000A00D400200000020410D4000000000C1
:105250000000000000A00D40010000000700000059
:10526000000000000000000000B00D402000000021
:1052700000000000000000000100000000B00D4030
:1052800040000000000000000000000001000000DD
:1052900000C00D40200000000000000000000000E1
:1052A0000000000000900D40080000000000000019
:1052B000000000000100000000C00D4001000000DF
:1052C00000000000040000000000000000B00D40DD
:1052D00001000000000000000000000000000000CD
:1052E00000C00D40020000000000000000000000AF
:1052F0000100000000C00D40100000000000000090
:10530000000000000000000000C00D400800000088
:10531000000000000000000000000000000000008D
:1053200000000000570520001F00000000000000E2
:1053300000000000091020001310200000000000F1
:10534000000000001D1020005510200049444C456D
:10535000000000007372635C6770696F2E63000069
:105360007372635C677074696D65722E6300000010
:105370007372635C696E746572727570742E63000B
:1053800000E100E004E100E008E100E00CE100E001
:1053900010E100E00000000018ED00E01CED00E06E
:1053A00020ED00E000E400E004E400E008E400E0B8
:1053B0000CE400E010E400E014E400E018E400E095
:1053C0001CE400E020E400E024E400E028E400E045
:1053D0002CE400E030E400E034E400E038E400E0F5
:1053E0003CE400E040E400E044E400E048E400E0A5
:1053F0004CE400E050E400E054E400E058E400E055
:105400005CE400E060E400E064E400E068E400E004
:105410006CE400E070E400E074E400E078E400E0B4
:105420007CE400E080E400E084E400E088E400E064
:105430008CE400E090E400E080E200E084E200E040
:1054400088E200E08CE200E090E200E07372635CCE
:10545000696F632E6300000080400D4084400D4062
:1054600088400D408C400D4090400D4094400D40D0
:1054700098400D409C400D40A0400D40A4400D4080
:10548000A8400D40AC400D40B0400D40B4400D4030
:10549000B8400D40BC400D40C0400D40C4400D40E0
:1054A000C8400D40CC400D40D0400D40D4400D4090
:1054B000D8400D40DC400D40E0400D40E4400D4040
:1054C000E8400D40EC400D40F0400D40F4400D40F0
:1054D000F8400D40FC400D407372635C7373692E9D
:1054E000630000007372635C7379735F6374726C42
:1054F0002E6300007372635C756172742E6300002A
:105500007372635C75646D612E63000074410020EA
:10551000705500205245454E54206D616C6C6F6390
:105520002073756363656564656400002E2E2F2EFD
:105530002E2F2E2E2F2E2E2F2E2E2F2E2E2F2E2E86
:105540002F2E2E2F6E65776C69622F6C6962632F28
:105550007374646C69622F72616E642E6300000064
:105560002C2066756E6374696F6E3A20000000002F
:10557000617373657274696F6E20222573222066D1
:1055800061696C65643A2066696C65202225732226
:105590002C206C696E65202564257325730A000034
:1055A000232D302B20000000686C4C006566674599
:1055B00046470000303132333435363738394142CE
:1055C000434445460000000030313233343536372D
:1055D0003839616263646566000000000000000005
:1055E00000000000000000000000000000000000BB
:1055F00000000000000000000000000000000000AB
:10560000000000000000000000000000000000009A
:10561000000000000000000000000000000000008A
:10562000000000000000000000000000000000007A
:10563000000000000000000000000000F8B500BFFE
:10564000F8BC08BC9E46704769012000F9012000A3
:1056500049052000A1092000BD0E2000F8B500BFBB
:0C566000F8BC08BC9E46704741012000C9
:10566C00000000000000000000000000000000002E
:10567C00000000000000000000000000000000001E
:10568C00000000000000000000000000000000000E
:10569C0000000000000000000000000000000000FE
:1056AC0000000000000000000000000000000000EE
:1056BC0000000000000000000000000000000000DE
:1056CC0000000000000000000000000000000000CE
:1056DC0000000000000000000000000000000000BE
:1056EC0000000000000000000000000000000000AE
:1056FC00000000000000000000000000000000009E
:10570C00000000000000000000000000000000008D
:10571C00000000000000000000000000000000007D
:10572C00000000000000000000000000000000006D
:10573C00000000000000000000000000000000005D
:10574C00000000000000000000000000000000004D
:10575C00000000000000000000000000000000003D
:10576C000000000000030000801A06000001000089
:10577C000080004001000000170000000000000045
:10578C0000000000080000000024F40000020000EB
:10579C0000C00040010000001500000000C2010024
:1057AC00600000000102000000D000400100000079
:1057BC001600000000C201006000000001000000A3
:1057CC000000000000000000AAAAAAAAF80F00001E
:1057DC0074410020000000001C562000FC552000E5
:1057EC00DC5520000000000000000000000000005C
:1057FC00000000000000000000000000000000009D
:10580C00000000000000000000000000000000008C
:10581C00000000000000000000000000000000007C
:10582C00000000000000000000000000000000006C
:04583C000000000068
:020000040027D3
:0CFFD400FFFFFFF600000000000020000E
:04000005002013754F
:00000001FF
