:020000040020DA
:1000000070640020F926200099272000B3262000E4
:10001000B7262000B7262000B726200000000000E9
:100020000000000000000000000000001139200066
:10003000B72620000000000071392000B5392000EB
:10004000B7262000B7262000B7262000B7262000BC
:1000500000000000B7262000B7262000B7262000A9
:10006000B726200000000000000000000000000093
:100070000000000000000000B72620000000000083
:100080000000000000000000B7262000B726200076
:10009000B7262000B7262000B7262000B72620006C
:1000A000B7262000B7262000B7262000B72620005C
:1000B000B7262000B7262000B7262000B72620004C
:1000C000B7262000B7262000B7262000B72620003C
:1000D000B726200000000000000000000000000023
:1000E0000000000000000000000000000000000010
:1000F000B726200000000000B7262000B726200009
:100100000348044B834202D0034B03B118477047A6
:10011000E8410020E84100200000000005480649B1
:100120000B1AD90F01EBA301491002D0034B03B105
:1001300018477047E8410020E84100200000000017
:1001400010B5064C237843B9FFF7DAFF044B13B11F
:100150000448AFF300800123237010BDE841002064
:1001600000000000E0FF270008B5044B1BB1044964
:100170000448AFF30080BDE80840CFE7000000006E
:10018000EC410020E0FF270008B54368984708BD10
:1001900008B5024801F0ABFA08BD00BF1C480020BA
:1001A00008B5024801F0A3FA08BD00BF1C480020B2
:1001B00070B5A6B03349344801F00AFA334801F06B
:1001C000A7FA334800F01FFC13E03249324802F02E
:1001D00015FA35E0204601F055FF642002F034FBAB
:1001E0002E4801F095FA012003F08CF9274801F020
:1001F0008FFA264801F07BFA21A9254800F092FCED
:1002000070B1219805F0D4FAADF89000229805F06D
:10021000CFFAADF89200239805F0CAFAADF8940031
:10022000BDF89040BDF89250BDF8946000962B4602
:1002300022461B49174805F06BFC02460028C4D132
:1002400000962B462246164902A805F061FC02469C
:1002500002A90C4805F0FEFA0021124802F00CFB3E
:100260000028C3D0104C204601F0D4FE0B4801F00A
:100270003EFA7D220349204601F018FF0028B2D142
:10028000A8E700BF00440020E847002018480020ED
:10029000A4440020044200206C4800202048002094
:1002A00010792000FC4300202848002008B5074CA6
:1002B000204601F02DFA5F2003F024F9204601F0DA
:1002C00016FA052003F01EF9F1E700BF14480020DC
:1002D000012800D070474FF6FF739942FAD170B5EC
:1002E0001D4D0121284602F003FB1C4C1C4E2246EA
:1002F0003146284600F0E7F81A4D0121284602F061
:10030000F7FA22463146284600F0DDF8164A174B28
:10031000136017495160174A136017495160174A13
:10032000136017495160174A1360174B5360174900
:10033000174801F0FEF9174D1749284602F036FB21
:1003400022461649284600F0BEF876221449154880
:1003500000F056FB70BD00BFF843002000410020B4
:10036000F1032000FC430020884400207079200025
:10037000A101200080440020D903200098440020DF
:100380009101200090440020C1032000044100207E
:10039000A0440020E44400206C480020A903200071
:1003A00004480020A444002010B5044600F50C7059
:1003B00002F03EFA04F50B7002F03AFA204610BD46
:1003C00008B5034801F0A4F9024802F079FA08BD23
:1003D0001C480020FC43002008B5034801F098F9B0
:1003E000024802F06DFA08BD1C480020F8430020C6
:1003F00010B5044602F039FA204610BD10B582B09F
:100400001E4800F0EBF91E4C1E4A1F49204601F021
:100410000CFE1E4A1E49204601F004FE204601F053
:100420009BFD204601F004FE1A21204601F020FE2B
:100430004FF4E131174802F06FF8174801F057F90F
:100440000024019402230093234680221349144878
:1004500002F0FCFE134801F07AF91349134801F049
:10046000A9F901940094234680221149114802F011
:10047000EDFE02F0E4F9204602B010BDE84700208E
:100480002848002090440020984400208044002008
:10049000884400206C48002018480020587920002B
:1004A000AD022000A0440020A086010004480020E6
:1004B00060792000B101200008B54FF6FF710120DE
:1004C000FFF706FF08BD0B460146184605F090B938
:1004D00010B50446043002F0C8F9204602F0A8F92D
:1004E000204610BD10B50446143002F0BEF904F1E8
:1004F000100002F0BAF904F10C0002F0B6F920463F
:1005000010BD10B504460C3002F0AFF9204610BD06
:1005100038B504460D4600F0FCFF6560204638BD46
:10052000012800D070474FF6FF739942FAD12DE9A8
:10053000F04F83B0DFF888A26349504601F06EF8AF
:10054000DFF880B26149584601F068F860496148B7
:1005500001F064F86049614801F060F8604C61495D
:10056000204601F05BF86049604801F057F86049A7
:10057000604801F053F86049604801F04FF8604F5F
:100580006049384601F04AF8DFF83C825E4940464F
:1005900001F044F85D4D5E49284601F03FF85D49A1
:1005A0005D4801F03BF85D495D4801F0C2F85D49E6
:1005B0005D4801F0BEF85D4E5D49304601F0B9F886
:1005C0005C495D4801F02EF85C495D48FFF7A0FFEB
:1005D0005C495D4801F0ADF85C495D4801F0A9F85F
:1005E0005C495D4801F0A5F85C495D4801F0A1F85F
:1005F0005C495D4801F032F830215C4801F058FE5A
:1006000031215B4801F0E4FD00215A4802F04FF827
:10061000DFF8B891584B5A465146484601F0BEF8AB
:10062000DFF8ACA1524655494846FFF74CFFDFF8CA
:10063000A491534B42463946484601F051FF514F71
:10064000524639464846FFF73EFFDFF88C814E4B55
:10065000314A2946404601F043FF5246394640465A
:10066000FFF731FF494D4A4B009323461B4A194976
:10067000284601F021FE474801F010FE464801F0EF
:1006800064FC464800F041FF454801F01EFF454C20
:10069000204600F0B2FF524643492046FFF713FFC1
:1006A000254B01930096204B1D4A29463F4800F0F8
:1006B000D3F83F493F4801F03CF83F493F4801F03B
:1006C00038F803B0BDE8F08F7479200088792000F5
:1006D0003C7A200070470020507A200074470020A8
:1006E00058470020B0792000647A20007847002025
:1006F000787A20007C470020C47920005C470020E5
:1007000060470020D8792000EC792000684700205D
:10071000007A2000147A20006C470020F07A200034
:1007200048470020047B20004C4700203C47002025
:10073000C87A2000DC7A2000404700207041002069
:10074000E8470020287A2000144800208C7A2000F6
:10075000184800209C7920001C480020A07A200026
:1007600020480020B47A2000F047002048480020AC
:100770003C480020B4480020184100200305200018
:1007800040410020E504200058410020504800204E
:1007900020410020244800202848002080470020D5
:1007A00068480020F8470020D10420009C47002022
:1007B0002C7B200094470020187B200098470020C5
:1007C0005047002054470020644700200448002080
:1007D000004100206C4800209048002008B5416886
:1007E00000F09AFE064800F093FF064800F090FFE4
:1007F000054800F08DFF054800F08AFF08BD00BFE6
:100800001448002020480020184800201C480020E0
:1008100008B54FF6FF710120FFF782FE08BD10B545
:1008200003464168C26801EB620012F0010F02D179
:100830009B68984710BD54100A599B68D358F8E735
:1008400010B50446C06800F08AFFA06800F087FF7A
:10085000606800F084FF10BD30B585B004460160CB
:1008600042608360089BC360099B0361174B02933E
:10087000002303936A4604A911E9030082E80300F8
:1008800013496161A46104F11C0592E8030085E845
:1008900003006362A362E36223636363A363E363AE
:1008A000236484F8443084F8453084F8463084F872
:1008B000473084F849302046FFF7C2FF04F11401A5
:1008C000206900F003FF204605B030BD87092000F5
:1008D000487B200038B50546144612F0010F04D0BD
:1008E000406A10B103681B68984714F0020F04D0E7
:1008F000A86A10B103681B68984714F0100F04D061
:10090000286B10B103681B68984738BD38B5054699
:10091000144612F0010F04D0406B10B103681B683D
:10092000984714F0020F04D0A86B10B103681B683D
:10093000984714F0100F04D0286C10B103681B689E
:10094000984738BD30B585B0044615460B0A8DF87A
:100950000C308DF80D1000238DF80E30C06800F0BB
:10096000FEFE94F8493001930322009202AB03A9E2
:10097000206801F071FDE06800F0E9FE9DF80A30A2
:100980002B7005B030BD10B582B004460DF10702E2
:100990000021FFF7D7FF0DF1060201212046FFF7E6
:1009A000D1FF0DF1050202212046FFF7CBFF01AA7E
:1009B00003212046FFF7C6FF94F844309DF8071046
:1009C0000B4205D194F846209DF805301A4204D018
:1009D0009DF805202046FFF77DFF94F845309DF8EF
:1009E00006100B4205D194F847209DF804301A42B6
:1009F00004D09DF804202046FFF788FF02B010BD08
:100A000001600271704738B50446037943720123CF
:100A10008372C06300F10805284600F055FC0028E9
:100A200013DB012384F83630052384F834300223A5
:100A300084F83530042384F8373029460F2000F03D
:100A400091FC002803DB012038BD0020FCE70020DA
:100A5000FAE72DE9F04104460D4616461F46BDF85B
:100A60001880006800F0F4FEB8F1010F13D0324690
:100A70002946206800F058FFD0B15FFA88F33A4663
:100A80002946206800F018FF90B1206800F0E6FECB
:100A90000020BDE8F08132462946206800F044FF7E
:100AA00030B13A462946206800F0DEFE0028ECD13D
:100AB000206800F0D3FE4FF0FF30EAE72DE9F04167
:100AC00088B006460F4690461C46BDF83850006870
:100AD00000F0BEFE8DF8008000220123AA4209DA50
:100AE000A05C08A9194401F8200C0133DBB20132E3
:100AF000D2B2F3E76A463946306800F03DFF30B1C4
:100B0000306800F0ABFE002008B0BDE8F08130682E
:100B100000F0A4FE4FF0FF30F6E708B5084601F0FC
:100B200093FE08BD70B584B004460D4600F108067A
:100B30003146012000F050FC10B1002004B070BD1F
:100B400060212046FFF7E9FF324601A9072000F0A7
:100B5000B2FCB8B9029804F087FC0B4904F08CFD94
:100B60002860039804F07CFC4FF06A5104F0D0FC3C
:100B70006860019804F074FC034904F07DFDA860EE
:100B80000120DBE70020D9E70000C84290F90030DF
:100B900023F01C03CA78920002F01C021343037076
:100BA000704790F9003003F01F030A7943EA4213BB
:100BB0000370704790F9003023F01C030A7892000C
:100BC00002F01C0213430370704790F9003003F0E9
:100BD0001F034A7843EA421303707047037803F017
:100BE00007038B708378C3F382030B7083785B09F0
:100BF0004B70C378C3F38203CB70C3785B090B716E
:100C00007047000010B440680A885300C3EBD0035B
:100C1000B1F9024003FB04F3002B1EDBDB12C2EB35
:100C2000101202FB02F2002A1ADB1213B1F90400BF
:100C300000FB02F2002A16DB03EBA2334B6203EB4C
:100C4000830313F1800012D400120C4A934210DB8C
:100C50000B4A93420FDA10BC704703F2FF73DDE7D3
:100C600002F6FF72E1E702F57F523F32E4E7FF3020
:100C7000EAE70448EFE742F23410ECE7815EF0FF68
:100C80008034210060F0FFFF70B44B6A03EBD37334
:100C90005B10A3F57A431A46002B68DB921002FB27
:100CA00002F21546002A64DBED12B1F91060B1F9C9
:100CB0000E4003FB04F4640006FB0544002C5BDBE0
:100CC000B1F90C502D0405EBA405B1F90A601446E6
:100CD000002A53DB621302FB06F2002A52DBB1F951
:100CE000084003FB04F303EBD3735B1013EBE20345
:100CF0004AD49B1403F50043CA8802FB03F3002B7C
:100D000047DBDB1359D00068C0F580102A46002D60
:100D100043DBA0EB223240F6354000FB02F0002816
:100D20003EDB4000B0FBF3F3B1F91620DC0804FB16
:100D300004F4640B04FB02F2002A35DB121398085A
:100D4000B1F9144004FB00F0002830DB02EB603204
:100D5000B1F9120012182ED403EB221047F22F53D0
:100D600098422ED9184B984229D9174827E0DA1C07
:100D700094E702F2FF7597E70334A1E702F5FF5409
:100D80001F34A7E70732AAE703F57F3303F2FF33E7
:100D9000AFE703F5FF437F33B3E705F6FF72B8E72C
:100DA000B0FBF3F35B00BFE702F6FF72C6E700F5A6
:100DB000FF501F30CAE70F32CEE747F2305070BC09
:100DC000704747F23050FAE7B0AD010010B44C6AFA
:100DD000A4F596348268B1F91E000005B1F92030FF
:100DE000C0EB823004FB130313F5804341D4D813C6
:100DF00091F9222004FB02F2002A3EDB92120B7FC3
:100E000004FB03F4002C3BDBE41204F5004402FB7A
:100E100004F2002A37DB931203F50013B1F91A200C
:100E200003FB02F313F5005330D49B1303FB00F3D1
:100E30001A46002B2EDBD21302FB02F2002A2DDB16
:100E4000D211097E02FB01F2002A29DBA3EB221357
:100E500023EAE373B3F1C85FA8BF4FF0C8531A4643
:100E6000002B1FDB13131846B3F5C83F1DD810BC69
:100E7000704703F5FF437F33B9E702F2FF32BDE766
:100E800004F2FF74C0E702F2FF32C4E703F57F53B8
:100E90003F33CAE703F5FF427F32CCE77F32CFE72B
:100EA0000F32D3E703F6FF72DCE74FF4C830DEE71A
:100EB00070B401249C4209D26500013D065D4E5587
:100EC000155D01F814500134E4B2F3E770BC7047CB
:100ED0004278037843EA02238B80C278837843EA1E
:100EE0000223CB804279037943EA02230B81C27942
:100EF000837943EA02234B81427A037A43EA02234D
:100F00008B81C27A837A43EA0223CB81427B037BC3
:100F100043EA02230B82C27B837B43EA02234B8298
:100F2000427C037C43EA02238B82C27C837C43EABB
:100F30000223CB82427D037D43EA02230B83C27DE1
:100F4000837D43EA02234B83437E0B7770474278CD
:100F5000037843EA0223CB83837881F8203090F929
:100F600003309BB21B011BB2027902F00F02134344
:100F70004B8490F905309BB21B011BB2027943EA06
:100F800012138B8490F9063081F8263070470840A0
:100F900000D00120704730B1436B0BB10020704787
:100FA0004FF0FF3070474FF0FF307047F0B583B01F
:100FB00005460F4616461C461846FFF7ECFF60B97B
:100FC000A378012B01D045F0800500963B462A46C8
:100FD0006178606BFFF73DFD08B903B0F0BD6FF0BD
:100FE0000300FAE730B589B0044600230193029369
:100FF0000393049305930693ADF81C3003461A221D
:1010000001A98820FFF7D2FF054610B1284609B094
:1010100030BD214601A8FFF75BFF2346072201A947
:10102000E120FFF7C3FF05460028EFD1214601A8C4
:10103000FFF78DFFEAE72DE9F04389B007468946BF
:10104000164698460A2A00D90A264046FFF7A3FF0B
:1010500080BB97B3B9F1000F32D0A6B399F8003036
:101060008DF80C3098F80230012B09D00024A642EC
:1010700006D93D5D05F07F053D550134E4B2F6E744
:10108000012E0DD8B6B2009603AB3A7898F801104D
:10109000D8F83400FFF712FDC0B909B0BDE8F083FD
:1010A00033464A4603A93846FFF702FF7600013E61
:1010B000B6B2E8E74FF0FF30EFE74FF0FF30ECE774
:1010C0004FF0FF30E9E76FF00200E6E76FF0030052
:1010D000E3E710B582B00C46F2238DF80530837833
:1010E00003F007038DF807300B4601220DF10701CD
:1010F0000DF10500FFF79FFF08B102B010BDF4200D
:101100008DF80500234601220DF10601FFF74EFF81
:101110000028F2D1234601220DF106010DF1050050
:10112000FFF789FFE9E770B582B005460E46144621
:10113000F4208DF80700134601220DF10601FFF798
:1011400035FF68B915F0010F0CD115F0020F0FD162
:10115000234601220DF106010DF10700FFF76BFF99
:1011600002B070BD31460DF10600FFF723FDECE73C
:1011700031460DF10600FFF728FDE9E770B504469A
:101180000D46164610F0040F04D1012014F0030F91
:1011900005D170BD11462846FFF79BFFF6E73246A2
:1011A00029462046FFF7BFFFF3E770B582B005463A
:1011B0000E461446F5208DF80700134601220DF166
:1011C0000601FFF7F3FE68B915F0080F0CD115F012
:1011D000100F0FD1234601220DF106010DF107007A
:1011E000FFF729FF02B070BD31460DF10600FFF791
:1011F000CDFCECE731460DF10600FFF7D2FCE9E744
:1012000038B504460D460A4601461F20FFF7B6FFD3
:1012100000B138BD2A4621461F20FFF7C6FFF8E778
:1012200030B583B005460C46F4208DF807000B4618
:1012300001220DF10601FFF7B9FE08B103B030BD80
:101240009DF8063023F003035BB205F003051D4350
:101250008DF80650234601220DF106010DF107001D
:10126000FFF7E9FEEAE738B505460C460846FFF702
:1012700092FE00B138BD234601222946F420FFF733
:1012800095FE2B7803F003032B70F3E730B583B0A2
:101290000446E0238DF80730B6238DF80630FFF7BB
:1012A0007AFE054610B1284603B030BD2346012220
:1012B0000DF106010DF10700FFF7BDFE0546022105
:1012C000606BFFF72AFCEEE770B582B0054600239D
:1012D0008DF80730FFF75FFE064618BB05240AE0CD
:1012E0002846FFF77FFE06461BE00121686BFFF7EB
:1012F00014FC013CE4B2A4B12B4601220DF107011C
:10130000D020FFF753FE06460028EED19DF80730A7
:10131000602BEAD12B702846FFF7B8FF064600285D
:10132000DED014B1304602B070BD6FF00106F9E7AF
:1013300010B584B004460346042203A9F220FFF747
:1013400035FE08B104B010BD01A903A8FFF746FCA3
:101350002046FFF79BFF0028F4D1214601A8FFF7A4
:101360004FFFEFE770B582B006460C460846FFF720
:1013700012FE054610B1284602B070BD21460DF19F
:101380000700FFF770FF054610B99DF80730B3B9A5
:10139000002DF0D131460720FFF7F9FDA0B9002D4F
:1013A000E9D131461820FFF7F2FD0028E3D02246AC
:1013B00004F12C013046FFF7F8FE0546DBE7204636
:1013C000FFF7B6FF0546E3E7224604F12C0130465D
:1013D000FFF7D4FE0546E2E730B583B005460C467C
:1013E0000846FFF7D8FD034610B1184603B030BDDC
:1013F00021460DF10700FFF736FF034610B99DF8AF
:1014000007203AB9002BF0D121462846FFF708FF04
:101410000346EAE72046FFF78BFF0346F2E710B4E6
:10142000047843781B01827843EA043343EA1213B9
:101430000B60C47803791B01427943EA043343EA21
:1014400012134B608279C37943EA02238B6010BC8C
:10145000704729B3F8B5074614461D460E4612B329
:1014600023B3002353601360936010F0070F11D172
:1014700017F0010F04D029463046FFF705FC206025
:1014800017F0040F15D029463046FFF79FFCA060E7
:1014900000200FE029463046FFF7B4FB6060E7E725
:1014A0004FF0FF3070474FF0FF3003E04FF0FF3058
:1014B00000E00020F8BD70B586B006460D46144623
:1014C0000023049305930193029303931046FFF7BF
:1014D00062FDA0B9B5B12346082204A9F720FFF7A1
:1014E00065FD08B106B070BD01A904A8FFF797FF1C
:1014F000231D2A4601A93046FFF7ABFFF2E74FF064
:10150000FF30EFE74FF0FF30ECE70022027070474A
:10151000704700220270704738B50C46184D002203
:101520004021284602F09EFB00228021284602F03E
:1015300099FB01224021284603F002F90122802173
:10154000284603F0FDF862686178207803F01AFB02
:10155000A06803F0CDFA637823B90A4B1B6813F433
:10156000002FFAD023784BB1064B1B6813F0806F25
:10157000FAD1044B1B6813F0806FFAD038BD00BF5E
:1015800000C00D4004200D4008B503F05BF908BD14
:1015900010B50C46FFF7F8FF201AC00F10BD000071
:1015A000094B03E013F8012901F8012BB3F1281FBF
:1015B000F8D2064B03E013F8012901F8012B024A87
:1015C0009342F8D8704700BF2B0028002F00280056
:1015D00010B582B00C466946FFF7E2FFBDF8002067
:1015E0009DF802302280A370BDF805209DF80730D9
:1015F000A4F80320637102B010BD10B5044601F0D9
:101600000DF90021201D01F073F9002323722046FB
:1016100010BD08B5043001F053F908BD01607047F2
:101620000068704710B50446FFF7F8FF00236360B9
:1016300023681979186802F0DFFB2368DA681979E2
:10164000186802F03FFB23689A680AB9204610BD6B
:101650001979186803F074F8F8E7000010B504462B
:10166000FFF7E0FF23681979186802F0C5FB2368CB
:10167000DA681979186802F05DFC23681B680F4A64
:10168000934209D00E4A93420BD00E4A93420CD09B
:101690000D4A93420DD0FEE7012002F0E5FC204602
:1016A00010BD022002F0E0FCF9E7042002F0DCFCAF
:1016B000F5E7082002F0D8FCF1E700BF00900D40EC
:1016C00000A00D4000B00D4000C00D4010B5044614
:1016D000416000F019FA204600F01AFA10BD406887
:1016E00020B108B503681B68984708BD704708B566
:1016F00003681A69012A05D019790A46186802F0A8
:1017000069FB08BD00221979186802F063FBF8E74D
:1017100008B503681A69012A05D0002219791868EA
:1017200002F058FB08BD19790A46186802F052FB0E
:10173000F8E710B50446FFF771FF236819791868B8
:1017400002F074FB2046FFF7E3FF204610BD08B50A
:10175000036819790A46186802F03CFB08BD08B511
:10176000036800221979186802F034FB08BD0000F4
:10177000012800D070474FF6FF739942FAD1044B0D
:101780001A68044BB3FBF2F3034A1360F2E700BF9D
:101790004C7B2000A0860100B848002010B504460C
:1017A00001604260836001210C3001F0A1F8204605
:1017B00010BD000070B5044609B182685160206810
:1017C000FFF72EFF06466068FFF72AFF0546A3686D
:1017D000186803F093FAA368186803F0ADFAA368D9
:1017E000186803F0C7FAA368186803F051FA317952
:1017F000306802F035FB134A3179306802F086FE1A
:101800000C223179306802F023FE2979286802F031
:1018100027FB0D4A2979286802F078FE0B222979E6
:10182000286802F015FEA3685C68084BE41A18BF2C
:10183000012403F02DF9214602F0BCFC02F0B2FCB9
:1018400070BD00BF30410D402C410D40A08601000D
:1018500008B500210C3001F00FF808BD08B50C30B8
:1018600001F026F808BD000038B508461546104BB3
:101870001C68012102F0C2FC072002F0E1FC0D48C7
:10188000FFF782FE044402F0CFFC38B1214609483C
:10189000FFF77EFE0028F6D0002007E002F006FDEC
:1018A000287002F0EBFCB0FA80F0400938BD00BFB0
:1018B000B8480020E8470020F8B5084617461E46FD
:1018C000174B1C68012102F099FC0B2002F0B8FCB8
:1018D0001448FFF759FE044406B302F0A5FC054680
:1018E00040B121460F48FFF753FE0028F5D00025F0
:1018F0002846F8BD02F0C2FC0028F9D102F0D6FC5F
:1019000007F8010B013EF6B2012E03D9092002F0BF
:1019100097FCE1E7052002F093FCDDE70125E7E70E
:10192000B8480020E847002038B508461546104B57
:101930001C68002102F062FC284602F0B1FC07207E
:1019400002F07EFC0B48FFF71FFE044402F06CFC23
:1019500038B121460748FFF71BFE0028F6D00020CB
:1019600004E002F08BFCB0FA80F0400938BD00BF03
:10197000B8480020E84700202DE9F0410846164607
:101980001D46224B1C68002102F038FC16F8010BA2
:1019900002F086FC013DEDB2032002F051FC1C4830
:1019A000FFF7F2FD044402F03FFC804688B1214677
:1019B0001748FFF7EDFD0028F5D04FF0000840462E
:1019C000BDE8F081012002F03BFC0EE002F056FC85
:1019D000B8B9C5B116F8010B02F062FC013D15F073
:1019E000FF05EFD1052002F02BFC02F01DFC07469D
:1019F0000028EBD021460648FFF7CAFD0028F4D0A6
:101A0000DDE7B846DBE74FF00108D8E7B84800202B
:101A1000E8470020704708B54FF6FF710120FFF737
:101A2000A7FE08BD08B5034B186808B100F01DFEFD
:101A300008BD00BF5849002008B5034B186808B11D
:101A400000F013FE08BD00BF5C49002008B5034B41
:101A5000186808B1FFF7DEFF08BD00BFC8480020C6
:101A600008B5034B186808B100F013FD08BD00BFAE
:101A7000CC48002008B5044B1B681BB1034B186809
:101A800000F007FD08BD00BFCC480020D048002072
:101A900008B5034B186808B100F036FB08BD00BF5D
:101AA0005449002008B5034B186808B100F07EFBCC
:101AB00008BD00BF5449002008B5034B186808B1A1
:101AC00000F08CFB08BD00BF8049002008B5034B27
:101AD000186808B1FFF71CFD08BD00BFC048002012
:101AE00008B5034B186808B100F059FE08BD00BFE7
:101AF000BC48002008B5034B186808B1FFF789FD02
:101B000008BD00BFC4480020004870478449002039
:101B100070B50546FFF784FD06682846FFF780FD8F
:101B20000479012C0FD0022C1BD0042C1BD0082CC4
:101B30001BD0102C1BD0202C1BD0402C1BD0802C59
:101B400002D1072400E000241C4B9E4215D01C4B00
:101B50009E421AD01B4B9E421FD01B4B9E4224D04C
:101B600070BD0124F0E70224EEE70324ECE704242F
:101B7000EAE70524E8E70624E6E7F021102002F072
:101B80009BFB124B43F82450EAE7F021112002F0AE
:101B900093FB0F4B43F82450E2E7F021122002F0B0
:101BA0008BFB0C4B43F82450DAE7F021132002F0B2
:101BB00083FB094B43F82450D2E700BF00900D404F
:101BC00000A00D4000B00D4000C00D40D4480020E2
:101BD000F44800201449002034490020014B1860CB
:101BE000704700BF544900202DE9F0410446DFF85A
:101BF000A8814FF6FF71404603F01CFA4B4F4FF699
:101C0000FF71384603F016FA49494A4802F0C8F80D
:101C100049494A4802F0C4F849494A4802F0C0F824
:101C200049494A4802F0BCF8494E4A4D3246FF2124
:101C3000284602F049FA32464FF47F41284602F026
:101C400043FA32464FF6FF71284602F03DFA424E03
:101C500005F580553246FF21284602F035FA324616
:101C60004FF47F41284602F02FFA32464FF6FF71BB
:101C7000284602F029FA394E05F580553246FF21F3
:101C8000284602F021FA32464FF47F41284602F0FE
:101C90001BFA32464FF6FF71284602F015FA304E15
:101CA00005F580553246FF21284602F00DFA3246EE
:101CB0004FF47F41284602F007FA32464FF6FF7193
:101CC000284602F001FA2749404603F095F92649D3
:101CD000384603F091F9254802F086FA2449254850
:101CE00002F0C4FD2449254802F0C0FD24492A2001
:101CF00002F07EFB23492B2002F07AFB224931209F
:101D000002F076FB21492E2002F072FB20491E20B2
:101D100002F06EFB1F4D29463E2003F0CBFA294608
:101D20003F2003F0C7FA2046BDE8F08100D0004014
:101D3000591E200000900D406D1E200000A00D4097
:101D4000811E200000B00D40951E200000C00D40F7
:101D5000ED1E200000000340011F2000151F200081
:101D6000291F2000251A2000391A20004D1A2000B2
:101D7000611A200000800040751A20000090004089
:101D8000911A2000A51A2000B91A2000CD1A2000AF
:101D9000E11A2000F51A200000C00040012800D000
:101DA000704708B54FF6FF73994200D008BD02484E
:101DB000FFF71AFFFAE700BF84490020F8B505468F
:101DC0000F46012101F0C4FF06460121284602F01A
:101DD000EFF80446F1B2284601F0D0FFE1B2284600
:101DE00002F016F9344314F0010F03D0386808B13B
:101DF000FFF775FC14F0020F03D0786808B1FFF705
:101E00006EFC14F0040F03D0B86808B1FFF767FC4C
:101E100014F0080F03D0F86808B1FFF760FC14F065
:101E2000100F03D0386908B1FFF759FC14F0200FE8
:101E300003D0786908B1FFF752FC14F0400F03D0CB
:101E4000B86908B1FFF74BFC14F0800F03D0F869B4
:101E500008B1FFF744FCF8BD08B502490248FFF796
:101E6000ADFF08BDD448002000900D4008B50249E0
:101E70000248FFF7A3FF08BDF448002000A00D4072
:101E800008B502490248FFF799FF08BD1449002030
:101E900000B00D4008B502490248FFF78FFF08BDAA
:101EA0003449002000C00D4038B50E4D01212846B0
:101EB00002F054F904460146284602F063F90A4B41
:101EC000186810B114F0170F06D1074B586810B1FD
:101ED00014F4706F03D138BD00F0FAFAF5E700F0A2
:101EE000F7FAF8E7000003406049002008B502490E
:101EF0000248FFF7D9FF08BD6049002000000340F9
:101F000008B502490248FFF7CFFF08BD6849002025
:101F10000010034008B502490248FFF7C5FF08BD9D
:101F2000704900200020034008B502490248FFF72D
:101F3000BBFF08BD784900200030034008B54FF6CC
:101F4000FF710120FFF72AFF08BD002202704260E6
:101F50008260C2600261704708B54FF4A06002F071
:101F6000CDFE4FF4A06002F0E7FE4FF4A06002F057
:101F700001FF234B14221A6008333F221A600433F6
:101F800055221A60103B85221A60183301221A600C
:101F9000103315221A601B491020086004310E20EE
:101FA00008600431032008608439F820086001F5D6
:101FB000C871092008601A600B2204231A60FF21EF
:101FC000114B1960A3F5B873402018600F480368DF
:101FD00023F0010303600E4B0020186048337F207C
:101FE000186003F5F473ED2018601860EE20186097
:101FF0001860A3F5FC731960043B1A6008BD00BFAC
:10200000A4860840D486084094870840008608408B
:102010000886084001230370014BE3221A607047D1
:1020200038880840416082607047C1600261704733
:1020300010B50446FFF768FD2046FFF7CFFD0A4ABA
:10204000136843F0070313600432136843F002037C
:102050001360064B7F221A60E0212A2002F02CF93F
:102060002A2002F04BF910BD8C8608409486084067
:102070000B3901EB81010B31014B1960704700BF37
:102080003C860840074B1B6813F0020FFAD105236A
:102090000370054BE9221A60024B1B6813F0020F14
:1020A000FAD070474C86084038880840134B1B68AC
:1020B00013F0020FFAD10378DBB2012B15D1931C78
:1020C000D8B2931EDBB27B2B12D810B40C4BEE248B
:1020D0001C601C60103B1860002393420BD2CC5C48
:1020E000084804600133DBB2F7E74FF0FF30704778
:1020F0004FF0FF307047002010BC70474C860840FE
:1021000038880840288808402DE9F0410446254FCA
:102110003D68254ED6F800802A2002F02FF90023D2
:102120003B60336015F0020F07D02378DBB2022B3F
:1021300013D02378DBB2052B18D015F0400F03D055
:102140002378DBB2032B1AD018F0020F03D02378C8
:10215000DBB2062B1CD0BDE8F08160680028E8D017
:102160000323237003681B689847E6E7E0680028AC
:10217000E3D00623237003681B689847DDE7A06857
:102180000028E1D00423237003681B689847DBE72D
:1021900020690028DFD00723237003681B68984755
:1021A000D9E700BF348808403088084038B5074C6C
:1021B00025682B2002F0E2F823682B4013F0020F71
:1021C00002D06FF00202226038BD00BF9486084042
:1021D000016000224260826070470000F8B5054649
:1021E000134B1C68134E3768312002F0C7F80023E8
:1021F000336004EA070313F0100F09D0336823F0AB
:1022000010033360A86810B103681B689847F8BDD5
:1022100013F0080FFBD0074A136823F0080313607C
:1022200068680028F3D003681B689847EFE700BF91
:10223000088808400C88084008B503681B68984760
:1022400008BD08B503685B68984708BD00B583B052
:1022500069460B48FFF7A4F99DF804009DF8053086
:102260001B0443EA00639DF8060043EA00239DF83F
:102270000700184303F0B4FB03B05DF804FB00BF94
:10228000E847002008B503F0DDFB80B208BD000080
:10229000014B0360704700BF587B200010B5044617
:1022A000FFF7F6FF014B2360204610BD687B20003E
:1022B000016000224260704710B401604260836098
:1022C000019BC36000230361436110BC70472DE98B
:1022D000F04782B004468A461E460A9F914622B1C4
:1022E00037B1BA4206D9904600E0B846002508E06A
:1022F0009046FBE7B846F9E7FF2109E00023735554
:102300000135A84518D9B9F1000FF5D01AF8051014
:10231000E368586802F0FCFAE368586802F06EFB64
:102320000028F9D1E36801A9586802F019FB002FD1
:10233000E4D09DF80430E2E7012002B0BDE8F08768
:102340002DE9F04585B01E46FF238DF80F308DF83E
:102350000E30B14279D0054688461746C3685868A2
:102360003C4B984207D003F5805398426FD1182414
:102370004FF0190A02E00A244FF00B0A002F3BD05D
:10238000022102F009FB4FF04041504602F0BCFE32
:10239000EB685B680097083342460121504602F023
:1023A000DBFE0C9B002B3BD0EB680121586802F050
:1023B000F3FA4FF04061204602F0A6FEEB685A683F
:1023C0000C9B0093334608320121204602F0C4FEE4
:1023D000204602F081FE504602F07EFE204602F0CA
:1023E00041FF0028FAD1EB680321586802F0ECFAAB
:1023F000012005B0BDE8F085022102F0CDFA4FF0D2
:102400004C41504602F080FEEB685B680C9A0092EB
:1024100008330DF10F020121504602F09DFEC0E786
:10242000EB680121586802F0B7FA4FF04C412046A2
:1024300002F06AFEEB685A6800970DF10E0308324D
:102440000121204602F088FEC2E70020D1E70020EB
:10245000CFE700BF0080004000B583B0049C9DF82A
:10246000145015B10094FFF76BFF0094FFF72FFF96
:10247000FBE7406920B108B503681B68984708BDB1
:102480007047006920B108B503681B68984708BD0C
:10249000704738B50546C3680121586802F008FA4C
:1024A0000446EB680146D86802F01CFA14F0080FE5
:1024B00003D114F0040F04D138BD2846FFF7E1FF23
:1024C000F7E72846FFF7D5FFF6E7002202807047BE
:1024D000406820B108B503681B68984708BD70477D
:1024E00010B5044601604260836000210C3000F0AA
:1024F000FFF9002104F1100000F0FAF9002104F1C5
:10250000140000F0F5F90023A361E36184F82030A2
:1025100084F82130204610BDF8B504460F46006807
:10252000FFF77EF806466068FFF77AF805460FB1B8
:10253000A3681F61A368186802F0E0FBA36818682D
:1025400002F0FAFBA368186802F014FCA36858684C
:1025500002F07CFCA3689968586802F0A3FDB26899
:102560003179306801F0D2FFAA682979286801F032
:102570006FFF3179306801F08DFC2979286801F00E
:10258000B1FCA3689B6813B1012B1DD0FEE702F0DC
:102590007FFA0146A5686B692A69686802F072FCD7
:1025A000A36820220021586802F012FCA368586832
:1025B00002F09CFCA3681021586802F0A9FCA368F3
:1025C000586802F02BFCF8BD02F0A8FA0146A56895
:1025D0006B692A69686802F055FCE1E708B50C30C0
:1025E00000F06EF908BD08B5103000F069F908BDBB
:1025F00008B58368586802F0D3FC08BDF8B50746F3
:102600000C4616460025B54207D2BB6814F8011BDC
:10261000586802F0DDFC0135F5E70020F8BD70B523
:1026200004460E4690F82030C3B1012313701025E4
:10263000A368586802F08AFC034698B19DB1A3686C
:10264000586802F097FC0028F2DB0022C1B2304645
:1026500000F0D3F8034630B1013DE9E700231370E1
:102660000D25E5E70123184670BD38B5054683689A
:102670000121586802F0F2FC0446AB680146586834
:1026800002F000FD14F0200F0CD114F0500F08D010
:10269000C4F3801485F82040A86910B103681B6852
:1026A000984738BD05F1140000F00AF9EDE7016024
:1026B000704700BFFDE700BFFDE7000008B5FF2140
:1026C000074801F099FBFF21064801F095FBFF2127
:1026D000054801F091FBFF21044801F08DFB08BD86
:1026E00000900D4000A00D4000B00D4000C00D4016
:1026F00008B502F08FFAFCE700B583B01A4BFF2251
:102700001A601A4B1A4A1A601A4B01931A4B1A682C
:102710001A4B9A4204D1019B5A1E0192002BF5D10B
:10272000124B00221A60164A136843F0010313602B
:10273000144B154A03E052F8041B43F8041B1349D9
:102740008B42F8D3124B134A934204D200221A60F0
:1027500053F8042BF7E7FFF7B1FF03F057F8FDF745
:102760004DFEFFF7C5FF00BFB4200D400430002030
:10277000BBAABBAA80841E00003000204812F0A52E
:1027800098200D4000400020847F2000E841002078
:10279000E8410020705C002008B5FFF7ADFF4068FD
:1027A00020B108B503681B68984708BD704710B48E
:1027B000016042608360C160016110BC7047806845
:1027C000B0FA80F04009704782684068824214BFC6
:1027D00000200120704738B504460D46FFF7EFFF93
:1027E00048B923695A1C22611B782B70A368013BEE
:1027F000A360012038BD0020FCE738B504460D4633
:10280000FFF7E2FF40B9E3685A1CE2601D70A3685D
:102810000133A360012038BD0020FCE710B5044659
:10282000012000F0A3FA206008B1204610BDFEE7A9
:1028300010B50446006800F08FFB204610BD08B5B7
:1028400000F036FD08BD000008B5642303FB00F06E
:10285000034BA3FB0030800900F054FE08BD00BF0D
:10286000D34D621000220260704710B50446006824
:1028700000F072FB204610BD08B561B10B460B4954
:10288000A1FB0331C908006800F0AEFA012814BFAB
:102890000020012008BD4FF0FF31006800F0A4FACD
:1028A000012814BF00200120F4E700BFCDCCCCCC20
:1028B00008B500231A461946006800F0BFF908BDA4
:1028C00000B583B00023019301A9006800F059FA14
:1028D000019B3BB1054B4FF080521A60BFF34F8F05
:1028E000BFF36F8F03B05DF804FB00BF04ED00E0A1
:1028F00038B504460D46FFF7B5FF0322002101203D
:1029000000F082F9206010B115B9204638BDFEE70D
:102910002046FFF7CDFFF8E710B503464168C268CF
:1029200001EB620012F0010F02D19B68984710BDC5
:1029300054100A599B68D358F8E710B582B0044682
:102940000DF1070200F582710068FFF768FE20B103
:102950009DF8073043B902B010BD012384F8553209
:102960002068FFF73BFEF6E72068FFF737FEF2E747
:1029700010B582B0044690F854328BB901220DF1A3
:10298000070100F50670FFF726FF28B19DF8071034
:102990002068FFF72DFE06E02068FFF724FE02E026
:1029A0000068FFF720FE02B010BD000070B586B0D1
:1029B00004460B46014641F8043B00234FF4807265
:1029C00000F58270FFF7F3FE00234FF4807204F5E8
:1029D0008C7104F50670FFF7EAFE04F50B70FFF743
:1029E0001DFF04F50C70FFF719FF164B0293002230
:1029F00003926B461146134883E80300124DC4F856
:102A00003452C4F8384204F50F7693E8030086E8A0
:102A100003000E490491059206A911E9030083E819
:102A20000300C4F84452C4F8484204F5137593E80F
:102A3000030085E8030084F8542284F855222046D8
:102A400006B070BD3B292000787B20007129200052
:102A50000346406A18B11B6B1868C0F10500704747
:102A600010B5044600F066FFA26BE36B9A4204D0F7
:102A7000002400F06FFF204610BD0124F9E710B5D7
:102A8000044600F057FFA36B23B9012400F062FF56
:102A9000204610BD0024F9E770B504461546866B44
:102AA000026C5AB903681BB100200136A66370BDE1
:102AB000806800F063FE0023A360F6E76DB940680C
:102AC00002F0C8FE226C636813446360A2689342FC
:102AD00019D3236863602846E7E7C06802F0BAFEAE
:102AE000226C5142E3689B1AE3602268934202D24F
:102AF000A3680B44E360022D01D00020D5E726B186
:102B0000013E0020D1E72846CFE70020CDE738B5C9
:102B1000054600F00FFF95F8454064B203E000F071
:102B2000CBFD013C64B2002C08DD6B6A33B105F1CA
:102B3000240000F04BFD0028F3D0F0E7FF2385F8D8
:102B4000453000F007FF00F0F5FE95F8444064B210
:102B500003E000F0B1FD013C64B2002C08DD2B69FC
:102B600033B105F1100000F031FD0028F3D0F0E79B
:102B7000FF2385F8443000F0EDFE38BD38B504463B
:102B80000D4600F0D7FE2168E26B236C03FB0210B8
:102B9000A0600020A0636160013A02FB0313E360C0
:102BA000FF2384F8443084F84530A5B923691BB964
:102BB00000F0D0FE012038BD04F1100000F006FD49
:102BC0000028F5D0084B4FF080521A60BFF34F8FAA
:102BD000BFF36F8FECE704F1100000F0B5FF04F1D4
:102BE000240000F0B1FFE3E704ED00E010B5034678
:102BF00002980C4631B90060C36304640121FFF7F9
:102C0000BDFF10BD0260F7E7F0B583B0044615467E
:102C10000F4689B100FB01F0483000F027FF06465F
:102C200038B100902B4600F1480239462046FFF7A4
:102C3000DDFF304603B0F0BD0846EDE7F0B585B0E6
:102C400004460F4601921D46002639E02A463946C1
:102C50002046FFF721FF636A6BB938B13C4B4FF058
:102C600080521A60BFF34F8FBFF36F8F00F072FE78
:102C7000012005B0F0BD04F1240000F0A7FC0028FD
:102C8000F4D0334B4FF080521A60BFF34F8FBFF335
:102C90006F8FEBE700F05EFE0020EAE702A800F08D
:102CA000D1FC012619E0002384F8443021E0002300
:102CB00084F8453023E02046FFF729FF00F0B2FBFF
:102CC00000F038FEA26BE36B9A42BFD3022DBDD059
:102CD000019B002BDED0002EE0D000F03BFE00F088
:102CE00019FB00F027FE94F8442052B2B2F1FF3FE6
:102CF000D9D094F8452052B2B2F1FF3FD7D000F0BE
:102D000029FE01A902A800F0A9FCC8B92046FFF7D6
:102D1000A7FE0028CFD0019904F1100000F048FC74
:102D20002046FFF7F4FE00F07DFB0028C8D1084BD9
:102D30004FF080521A60BFF34F8FBFF36F8FBFE722
:102D40002046FFF7E4FE00F06DFB002091E700BF96
:102D500004ED00E048B110B5002181600160C16060
:102D60000B460A46FFF76AFF10BD704710B50246D2
:102D700000210120FFF748FF0446FFF7EBFF204644
:102D800010BD38B5EFF311844FF0A00383F3118821
:102D9000BFF36F8FBFF34F8F826BC36B93421AD910
:102DA0000D4690F845305BB201328263B3F1FF3FCC
:102DB00005D001335BB280F8453001200CE0436A56
:102DC0000BB9012008E0243000F000FC38B145B117
:102DD0000120286000E0002084F3118838BD012024
:102DE000FAE70120F8E7000070B584B004460191CD
:102DF0000026354647E0013BA363236833B12369CE
:102E000043B900F0A7FD012004B070BD00F03EFD05
:102E1000A060F4E704F1100000F0D8FB0028F0D027
:102E2000414B4FF080521A60BFF34F8FBFF36F8F4B
:102E3000E7E700F08FFD0020E6E702A800F002FCC3
:102E400001252AE0002384F8443032E0002384F88E
:102E5000453034E000F06EFDA06800F033FC06461B
:102E600000F078FD3BE02046FFF751FE00F0DAFA73
:102E700009E02046FFF74BFE00F0D4FA2046FFF7AA
:102E8000FEFD002840D100F055FDA36B002BB2D110
:102E9000019B002BCDD0002DCFD000F05BFD00F0CA
:102EA00039FA00F047FD94F844305BB2B3F1FF3FCC
:102EB000C8D094F845305BB2B3F1FF3FC6D000F004
:102EC00049FD01A902A800F0C9FB0028D1D1204684
:102ED000FFF7D5FD0028C6D02368002BBAD0019992
:102EE00004F1240000F064FB2046FFF710FE00F020
:102EF00099FA0028C7D10C4B4FF080521A60BFF3EB
:102F00004F8FBFF36F8FBEE70EB900207CE700F054
:102F100011FD2046FFF79CFD0146A06800F06EFC05
:102F200000F018FDF1E700BF04ED00E00023042BE2
:102F30000FD8084A02EBC3025268824201D0013323
:102F4000F5E7044A002142F8331002EBC30359604D
:102F500070477047445C002010B50446FFF7E6FF59
:102F6000204600F0D3FD10BD084B1B681B6823B939
:102F7000074B4FF0FF321A607047044B1B68DB6849
:102F8000DB685A68024B1A60704700BF8C4900200A
:102F90003C4A002010B50446006B00F0B7FD204607
:102FA00000F0B4FD10BD2DE9F04707469846089D96
:102FB000DDF824900A9C266B02F18042013A06EB70
:102FC000820626F0070600220F2A07D8885CA3187D
:102FD00083F834008B5C0BB10132F5E7002384F8F1
:102FE0004330042D00D90425E56265644FF0000AE2
:102FF000C4F848A0201D00F0B2FD04F1180000F054
:10300000AEFD2461C5F10505A5616462C4F84CA05C
:1030100084F850A042463946304600F065FC2060F6
:10302000B9F1000F01D0C9F80040BDE8F0870000F9
:1030300038B50024042C08D804EB840293000E4811
:10304000184400F081FD0134F4E70C4D284600F0EF
:103050007BFD0B4C204600F077FD0A4800F074FD24
:10306000094800F071FD094800F06EFD084B1D6035
:10307000084B1C6038BD00BF94490020104A002056
:10308000244A0020444A0020704A00205C4A002064
:103090008C4900209049002010B5044600F04AFCFD
:1030A000204A1368013313601F4B1B685BB11F4B31
:1030B0001B686BB91C4B1B68DA6AE36A9A4207D833
:1030C000194B1C6004E0184B1C601368012B26D0C0
:1030D000174A136801331360E06A01238340154ADD
:1030E00011680B43136000EB8000211D124B03EBB2
:1030F000800000F037FD00F02DFC0C4B1B686BB11D
:10310000094B1B68DA6AE36A9A4207D20B4B4FF00D
:1031100080521A60BFF34F8FBFF36F8F10BDFFF760
:1031200087FFD5E7F849002088490020584A002049
:10313000084A00200C4A00209449002004ED00E0D9
:103140000F4B1B68D3B110B500F0F4FB0D4BDB68DF
:10315000DC68201D00F02BFD0B4A1368013B136057
:10316000074A1368013B136000F0F4FB2046FFF7A9
:1031700011FF034B1B68002BE6D110BD704700BF49
:10318000FC490020704A0020F849002008B5FFF7EC
:10319000D7FF064B1B68012BF9D9054B4FF0805226
:1031A0001A60BFF34F8FBFF36F8FF0E79449002091
:1031B00004ED00E070B504460D461D4B1E681D4B26
:1031C0001868043000F0F3FC50B91A4B1B68DA6A37
:1031D000012303FA02F218490B6823EA02030B6089
:1031E000B4F1FF3F0DD03444124B1B685C60A64223
:1031F00010D9124B18680F4B1968043100F0BEFC4F
:1032000070BD002DEFD00B4B196804310C4800F055
:10321000A9FCF5E70B4B1868064B1968043100F060
:10322000ADFC094B1B68A342EAD9074B1C60E7E7DA
:10323000844A0020884900200C4A00209049002040
:103240005C4A00208C4900203C4A00202DE9F043D4
:1032500085B00746884614461E46900000F006FCDE
:10326000F0B18146542000F001FC0546A0B1C0F841
:103270003090D5B10023039302950D9B01930C9BD5
:1032800000933346224641463846FFF78CFE2846D7
:10329000FFF702FF012005E0484600F037FCE8E7B1
:1032A0004FF0FF3005B0BDE8F0834FF0FF30F9E795
:1032B00000B583B0114B01930023009340221049C5
:1032C0001048FFF7C3FF012802D003B05DF804FBEC
:1032D0004FF0A00383F31188BFF36F8FBFF34F8FBD
:1032E000094B4FF0FF321A60084B01221A60084B5D
:1032F00000221A6000F088FBE7E700BF384A002090
:103300007C7B20008D3120003C4A0020584A002060
:10331000844A0020024A136801331360704700BFDB
:10332000044A0020F8B5344B1B68002B58D1334BAE
:103330001E6801361E6086B1314B1B68B34245D909
:103340000027304B1B68DB6A03EB83039A002E4B8C
:103350009B58012B49D9012747E02C4A11682C4B77
:103360001868106019602B4A136801331360FFF767
:10337000FBFDE1E70127254B1B681B6843B3234B8B
:103380001B68DB68DC6863689E4226D3251D2846DF
:1033900000F00DFCA36A1BB104F1180000F007FC5B
:1033A000E36A01229A401C49086802430A6003EB61
:1033B00083039A0029461448104400F0D3FBE26AC4
:1033C000104B1B68DB6A9A42D4D2D4E70027D2E7BD
:1033D0000B4B4FF0FF321A60B3E7094A1360B0E7B6
:1033E0000E4A13680133136000270D4B1B6803B1AD
:1033F00001273846F8BD00BF044A0020844A002057
:103400003C4A002088490020944900208C49002033
:1034100090490020404A00200C4A0020004A002029
:10342000884A002038B500F085FA2D4B1A68013A19
:103430001A601B68002B4DD12A4B1B680BB9002466
:1034400049E00024284B1B681BB3274BDB68DC6872
:1034500004F1180000F0ABFB251D284600F0A7FB87
:10346000E06A01238340214A11680B43136000EB9B
:10347000800029461E4B03EB800000F073FBE26ADC
:103480001C4B1B68DB6A9A42DCD31B4B01221A607F
:10349000D8E70CB1FFF768FD184B1C6874B9164BE0
:1034A0001C68C4B1164B4FF080521A60BFF34F8FA7
:1034B000BFF36F8F01240EE0013C07D0FFF732FF0E
:1034C0000028F9D00C4B01221A60F5E70B4B0022C3
:1034D0001A60E4E7002400F03DFA204638BD00BF42
:1034E000044A0020F8490020444A00200C4A0020E9
:1034F0009449002088490020884A0020004A002082
:1035000004ED00E010B540B90A4B4FF080521A604C
:10351000BFF34F8FBFF36F8F10BD0446FFF7FAFE66
:1035200000212046FFF746FEFFF77CFF0028F3D17D
:10353000EAE700BF04ED00E0184B1B681BB1184B15
:1035400001221A60704710B4154B00221A60154B07
:103550001B68B3FA83F3DBB2C3F11F03124903EB19
:10356000830082000A4450684068506003EB830483
:10357000A20014460832114488420AD003EB8303A8
:103580009A00094B13445B68DA68084B1A6010BC58
:1035900070474068044A22445060EFE7044A002024
:1035A000884A00200C4A00209449002088490020C5
:1035B00010B50C46044B1968183100F0DFFA0121F0
:1035C0002046FFF7F7FD10BD8849002038B5C368D5
:1035D000DC6804F11805284600F0E9FA134B1B6873
:1035E000E3B9251D284600F0E2FAE06A0123834092
:1035F0000F4A11680B43136000EB800029460D4B06
:1036000003EB800000F0AEFAE26A0B4B1B68DB6A4A
:103610009A4208D90120094B186038BD294608484C
:1036200000F0A0FAF0E70020F7E700BF044A00200E
:103630000C4A00209449002088490020884A002034
:10364000444A0020034B1B680360034B1B68436024
:10365000704700BF404A0020844A0020F8B5044665
:103660000D4600F067F9124B19686368C81A2A689A
:10367000B2F1FF3F14D027680E4E3668B74201D032
:103680008B4212D9824203D800232B60012408E028
:103690005B1A13442B602046FFF7D4FF002400E0A0
:1036A000002400F057F92046F8BD0124F9E700BFD7
:1036B000844A0020404A0020014B01221A607047D2
:1036C000884A002000284FD038B50446C36A284AEB
:1036D0001268D26A93423FD28269002A05DB244AEB
:1036E0001268D26AC2F105028261616903EB830349
:1036F000204A02EB8303994205D01D4B1B68DB6A0D
:10370000E362012038BD251D284600F050FA70B94B
:10371000E26A02EB82039B001649CB583BB90123B6
:1037200003FA02F214490B6823EA02030B60104B00
:103730001B68D86AE062012404FA00F30E4A11689B
:103740000B43136000EB800029460A4B03EB80001B
:1037500000F008FA2046D5E7426C054B1B68DB6A8F
:103760009A4203D30020CDE7002070470120C9E72B
:1037700088490020944900200C4A0020002834D0B9
:1037800038B50446836C013B8364C16A426C914244
:103790002DD00BB1002038BD051D284600F007FADA
:1037A00068B9E26A02EB82039B001249CB5833B935
:1037B0000123934010490A6822EA03020A60606C00
:1037C000E062C0F10503A361012404FA00F30A4A90
:1037D00011680B43136000EB80002946054B03EB97
:1037E000800000F0BFF92046D5E700207047002098
:1037F000D1E700BF944900200C4A002000283FD0A8
:1038000038B50446436C8B4200D20B46E26A9A42BA
:1038100002D0A16C012900D038BDE362A169002962
:1038200002DBC3F10503A361616902EB8202154B60
:1038300003EB82029142EFD1251D284600F0B7F933
:1038400070B9E26A02EB82039B000E49CB583BB988
:10385000012303FA02F20C490B6823EA02030B600E
:10386000E06A01238340084A11680B43136000EBB0
:1038700080002946034B03EB800000F073F9CBE78F
:10388000704700BF944900200C4A0020054B1B687C
:1038900023B1044B1A68936C01339364014B18688D
:1038A000704700BF8849002082B0002301934FF089
:1038B000A00383F31188BFF36F8FBFF34F8F019B7A
:1038C000002BFCD002B0704706480068006880F307
:1038D000088862B661B6BFF34F8FBFF36F8F00DF0A
:1038E00000BF000008ED00E04FF0807340F8043C9A
:1038F00021F0010140F8081C034B40F80C3C40F853
:10390000202C4038704700BFA9382000000000007C
:10391000074B19680868B0E8F00F80F30988BFF317
:103920006F8F4FF0000080F311884EF00D0E70473E
:10393000884900204FF0A00383F31188BFF36F8FF5
:10394000BFF34F8F024A136801331360704700BF03
:103950007C410020034A1368013B13600BB983F3D9
:10396000118870477C41002000000000000000002A
:10397000EFF30980BFF36F8F0D4B1A6820E9F00F4A
:1039800010602DE908404FF0A00080F31188FFF788
:10399000D3FD4FF0000080F31188BDE8084019689E
:1039A0000868B0E8F00F80F30988BFF36F8F7047A5
:1039B0008849002008B54FF0A00383F31188BFF3B6
:1039C0006F8FBFF34F8FFFF7ADFC18B1034B4FF074
:1039D00080521A60002383F3118808BD04ED00E0D3
:1039E000054B00221A6005490A60054A0549116025
:1039F00007221A60704700BF10E000E018E000E006
:103A000014E000E0FFE1040010B50B4B1A6842F42B
:103A100060021A601A6842F060421A60FFF7E0FF25
:103A20000024064B1C60FFF74FFFFFF785FDFFF7F3
:103A30003BFF204610BD00BF20ED00E07C41002090
:103A4000074B23F00703074A136000205060064A23
:103A500040F6F8715160106059601A60704700BFFD
:103A6000944A0020985A00208C5A002070B50446D1
:103A7000FFF750FC214B1B687BB134B1083414F0C4
:103A8000070F02D024F007040834621E40F6F673D4
:103A90009A422FD81A4D2B6807E0FFF7D1FF174B3A
:103AA00001221A60E9E71D4613465968A14202D275
:103AB0001A68002AF7D1134A93421DD02E6808369F
:103AC0001A682A60091B10290BD91D1969605C60EE
:103AD0006C680B4A104612685168A142FAD32A60FA
:103AE00005605968084A13685B1A1360FFF79AFC6F
:103AF000304670BD0026F9E70026F7E7945A00200B
:103B0000985A00208C5A002080410020B8B138B566
:103B10000446A0F10805FFF7FDFB54F8041C084B10
:103B200018461B685A688A42FAD344F8083C056074
:103B3000044A136819441160FFF774FC38BD7047DC
:103B4000985A00208041002000F1080343604FF0A4
:103B5000FF328260C360036100230360704700236B
:103B60000361704743684B609A688A609A68516045
:103B700099600861036801330360704730B40D68D1
:103B8000B5F1FF3F11D000F108031C465B681A68CD
:103B9000AA42FAD963684B6099608C6061600861E1
:103BA00003680133036030BC70470469F2E70369BE
:103BB000416882688A6051605968814206D000225B
:103BC00002611A68013A1A60186870475A60F6E78D
:103BD000FEE700000C4B98420FD003F5805398424B
:103BE0000DD003F5805398420BD003F580539842D3
:103BF00001D000207047012070470120704701204C
:103C000070470120704700BF00900D4010B504467A
:103C1000FFF7E0FF60B1104B9C4218D00DD90F4B5D
:103C20009C4216D003F580539C420ED113200BE02A
:103C300062210B48FFF7CCFFEDE7A3F580539C42D0
:103C400001D1102000E0002010BD0020FCE7112071
:103C5000FAE71220F8E700BF00A00D4000B00D40C9
:103C6000847B200070B504460D461646FFF7B2FF70
:103C700090B1022E15D816F0010F17D0D4F80034E9
:103C80002B43C4F8003416F0020F14D0D4F82034BB
:103C90001D43C4F8205470BDB5210948FFF798FFB3
:103CA000E7E7B7210648FFF793FFE4E7D4F80034CD
:103CB00023EA0503E5E7D4F8203423EA0505E8E71D
:103CC000847B200070B504460E461546FFF782FF40
:103CD00008B33DB1042D05D0012D03D0022D01D034
:103CE000072D1ED115F0010F21D0D4F8083433432D
:103CF000C4F8083415F0020F1ED0D4F8043433434E
:103D0000C4F8043415F0040F1BD0D4F80C341E434F
:103D1000C4F80C6470BD40F219110C48FFF758FF4D
:103D2000D7E74FF48E710948FFF752FFDAE7D4F86E
:103D3000083423EA0603DBE7D4F8043423EA060355
:103D4000DEE7D4F80C3423EA0606E1E7847B2000A2
:103D500038B504460D46FFF73DFF18B145B1D4F81C
:103D6000180438BD4FF4D5710348FFF731FFF5E76C
:103D7000D4F81404F5E700BF847B200038B504466E
:103D80000D46FFF727FF10B1C4F81C5438BD4FF49F
:103D9000EC710248FFF71CFFF6E700BF847B2000B0
:103DA00038B504460D46FFF715FF50B12046FFF722
:103DB0002DFF0446294600F01BFB204600F09EFA2A
:103DC00038BD4FF4FD710248FFF702FFEEE700BF78
:103DD000847B200070B504460D461646FFF7FAFEB8
:103DE00010B144F8256070BD4FF41C710148FFF715
:103DF000EFFEF6E7847B200038B504460D46FFF75A
:103E0000E9FE50B1002229462046FFF72BFF002291
:103E10002946204600F094FC38BD4FF42471024836
:103E2000FFF7D6FEEEE700BF847B200038B50446DE
:103E30000D46FFF7CFFE50B1012229462046FFF77D
:103E400011FF00222946204600F07AFC38BD40F2DE
:103E5000B5210248FFF7BCFEEEE700BF847B2000DF
:103E600038B504460D46FFF7B5FE50B1022229468B
:103E70002046FFF7F7FE00222946204600F060FCAE
:103E800038BD40F2DD210248FFF7A2FEEEE700BF99
:103E9000847B200038B504460D46FFF79BFE68B1D1
:103EA0000E4B9C4210D0022229462046FFF7DAFE34
:103EB00000222946204600F043FC38BD40F25B3129
:103EC0000748FFF785FEEBE715F00F0FEBD04FF437
:103ED00057710348FFF77CFEE5E700BF00B00D40D7
:103EE000847B200038B504460D46FFF773FE68B1A9
:103EF0000E4B9C4210D0022229462046FFF7B2FE0C
:103F000008222946204600F01BFC38BD40F28531CE
:103F10000748FFF75DFEEBE715F00F0FEBD040F21F
:103F200086310348FFF754FEE5E700BF00B00D40BF
:103F3000847B200070B504460D461646FFF74AFE06
:103F4000A8B1012E19D8164B9C421CD00023154A4B
:103F500094421AD0144A944219D09D40012E18D090
:103F6000D4F8043723EA0505C4F8045770BD40F2BD
:103F7000BE310E48FFF72CFEE3E74FF470710B489B
:103F8000FFF726FEDFE70823E1E71023E2E7182327
:103F9000E3E7D4F804371D43C4F80457E6E700BF4D
:103FA00000A00D4000B00D4000C00D40847B2000FB
:103FB00038B504460D46FFF70DFE78B1104B9C4214
:103FC00012D000230F4A944210D00F4A94420FD0CF
:103FD00085B1D4F81807D840C0B238BD40F2BA4114
:103FE0000A48FFF7F5FDE9E70823EBE71023ECE7C4
:103FF0001823EDE7D4F82007D840C0B2EDE700BFA2
:1040000000A00D4000B00D4000C00D40847B20009A
:1040100038B504460D46FFF7DDFD80B10E4B9C42DE
:1040200013D000210D4B9C4211D00D4B9C4210D05F
:104030008D40D4F818172943C4F8181738BD40F23A
:10404000FB410848FFF7C4FDE8E70821EAE7102133
:10405000EBE71821ECE700BF00A00D4000B00D40D9
:1040600000C00D40847B200010B5044610F03F0FC7
:1040700004D0054B18682043186010BD40F233513E
:104080000248FFF7A5FDF4E794200D40847B200053
:104090000C4B98420FD003F5805398420DD003F596
:1040A000805398420BD003F58053984201D00020F2
:1040B00070470120704701207047012070470120A0
:1040C000704700BF0000034070B505460C46164619
:1040D000FFF7DEFFA8B1FF2C06D0B4F57F4F03D069
:1040E0004FF6FF739C4212D11A4B9D4217D003F535
:1040F00080539D421BD003F580539D420DD0332544
:104100000EE040F239311448FFF762FDE3E740F278
:104110003B311148FFF75CFDE6E7272500E023254A
:1041200014F0FF0F05D114F47F4F0AD170BD25257F
:10413000F6E73146284600F05BF9284600F0DEF845
:10414000F1E701353146284600F052F9284600F0E3
:10415000D5F8EBE700000340907B200038B504461B
:104160000D46FFF795FF10B13DB1206A38BD40F212
:1041700004410348FFF72CFDF6E7E069F6E700BFCE
:10418000907B200038B504460D46FFF781FF08B14B
:10419000656238BD40F22E410148FFF719FDF7E78F
:1041A000907B2000024A136843F0100313607047AD
:1041B0002000024038B504460D46FFF7F3FF5DB11D
:1041C000064B03EB83039A001444013CB4FBF2F466
:1041D000013C034B1C6038BD024BF2E7801A06001D
:1041E0000C000240A086010008B50146182000F02E
:1041F000FFF8182000F082F808BD000038B5054629
:104200000C4610F0800F04D144EA4504044B1C60B6
:1042100038BD4FF41D710348FFF7DAFCF4E700BF27
:1042200000000240A07B2000044B1B6813F0010F2C
:1042300001D0012070470020704700BF04000240F9
:1042400010B5044607280BD0032809D0012807D051
:10425000052805D0042803D00B2801D0092802D155
:10426000044B1C6010BD40F2DA210348FFF7B0FC9C
:10427000F6E700BF04000240A07B2000074B18684F
:1042800010F0010F05D110F0120F04D000F01C0047
:104290007047002070470020704700BF04000240B4
:1042A000014B1860704700BF08000240014B1868BE
:1042B000704700BF0800024038B504460D46031F92
:1042C0003B2B10D8A2080B4B53F822100B6804F0BC
:1042D0000304E400FF22A24023EA020305FA04F4E7
:1042E0001C430C6038BD4FF4DE710348FFF770FCCF
:1042F000E8E700BFD07B2000AC7B200010B504466F
:104300003F2814D8042C18D0052C1CD0062C20D003
:104310000F2C24D00F2C15D9103C04F01F01640978
:10432000124B53F8242001238B4013600AE04FF412
:10433000FB710F48FFF74CFCE4E70E4A136843F4A7
:104340008033136010BD0B4A136843F400331360CD
:10435000F8E7084A136843F480231360F2E7064A3B
:10436000136843F002031360ECE700BFBC7B20003E
:10437000AC7B200024ED00E010E000E010B5044626
:104380003F2810D80E2C14D00F2C18D00F2C15D974
:10439000103C04F01F0164090C4B53F82420012346
:1043A0008B4013600AE040F2AE210948FFF710FC91
:1043B000E8E7084A136843F00063136010BD054A3C
:1043C000136843F000731360F8E700BF747C2000AB
:1043D000AC7B200004ED00E0044B1B6813F0010FE0
:1043E00001D0012070470020704700BF98200D4089
:1043F00070B504460E463F2813D8FFF7EDFFA8B16D
:10440000104B1B68104DAB4218D00E4B18680023A0
:104410003F2B11D850F823100B4A42F823100133D8
:10442000F6E7FE210948FFF7D3FBE6E74FF4817179
:104430000648FFF7CDFBE3E7024B1D60024B43F854
:10444000246070BD08ED00E000400020AC7B20003F
:1044500070B504460D461646244B98420BD003F522
:104460008053984207D003F58053984203D003F558
:104470008053984202D135B1002315E0FB211C483E
:10448000FFF7A6FBF7E7FC211948FFF7A1FBF3E7CD
:10449000A2F58052944203D1164A52F8232001E03B
:1044A000A2F5A04216600133072B1ED845FA03F28D
:1044B00012F0010FF7D0104A94420ED0E8D90F4AFB
:1044C00094420ED002F58052944203D10C4A52F825
:1044D0002320E7E7A2F50042E4E70A4A52F8232046
:1044E000E0E7094A52F82320DCE770BD00900D4058
:1044F000887C2000B47C200000A00D4000B00D405E
:10450000747D2000F47C2000347D200070B50546C9
:104510000C461646854B98420BD003F580539842C3
:1045200007D003F58053984203D003F58053984297
:1045300073D1631EDBB2012B0BD9042C09D0082CDC
:1045400007D0102C05D0202C03D0402C01D0802C7B
:1045500069D1774B9E423BD004339E4238D004331E
:104560009E4235D004339E4232D004339E422FD037
:1045700004339E422CD004339E4229D004339E4201
:1045800026D004339E4223D004339E4220D00433ED
:104590009E421DD004339E421AD004339E4217D04F
:1045A00004339E4214D004339E4211D004339E4201
:1045B0000ED004339E420BD004339E4208D0043305
:1045C0009E4205D004339E4202D004339E4230D135
:1045D000584B9D4259D032D9574B9D4276D003F566
:1045E00080539D4243D1012C00F091800023022C86
:1045F00000F08F80042C00F08E80082C00F08D805D
:10460000102C00F08C80202C00F08B80402C00F0CF
:104610008A80802C29D11F2327E040F26D11474862
:10462000FFF7D6FA85E740F271114448FFF7D0FA58
:104630008FE74FF4C3714148FFF7CAFAC8E7A3F503
:1046400080539D4210D1022C13D00023042C12D091
:10465000082C12D0102C12D0202C12D0402C12D0AA
:10466000802C02D1072300E00023336070BD0023BB
:10467000FBE70123EAE70223EAE70323EAE704234F
:10468000EAE70523EAE70623EAE7012C10D0002336
:10469000022C0FD0042C0FD0082C0FD0102C0FD0D0
:1046A000202C0FD0402C0FD0802CDED10F23DCE744
:1046B0000823EDE70923EDE70A23EDE70B23EDE7F8
:1046C0000C23EDE70D23EDE70E23EDE7012C10D0D1
:1046D0000023022C0FD0042C0FD0082C0FD0102C4C
:1046E0000FD0202C0FD0402C0FD0802CBDD1172301
:1046F000BBE71023EDE71123EDE71223EDE71323CA
:10470000EDE71423EDE71523EDE71623EDE7182376
:104710006DE719236EE71A236FE71B2370E71C234D
:1047200071E71D2372E71E2373E700BF00900D4061
:1047300000410D4000A00D4000B00D40887C2000DD
:1047400070B504460D461646364B98420BD003F51D
:104750008053984207D003F58053984203D003F565
:10476000805398420ED19DB1082E06D0042E04D05D
:10477000022E02D0012E00D086B92B4B9C4213D0C2
:1047800000232CE040F259212848FFF721FAEAE7FC
:1047900040F25A212548FFF71BFAE5E740F25F2176
:1047A0002248FFF715FAE8E715F00F0FE8D0042EBE
:1047B00003D0022E01D0012EE2D140F266211B4827
:1047C000FFF706FADCE7A2F58052944203D1184ABB
:1047D00052F8232001E0A2F59F4216600133072B17
:1047E0001ED845FA03F212F0010FF7D0114A944295
:1047F0000ED0E8D90C4A94420ED002F58052944271
:1048000003D10D4A52F82320E7E7A2F5FF42E4E77F
:104810000A4A52F82320E0E7094A52F82320DCE74D
:1048200070BD00BF00900D4000B00D40887C20009E
:10483000947C200000A00D40547D2000D47C2000FA
:10484000147D2000074B1B68074A106843EA0023C9
:104850000432106843EA00430432106843EA0060FF
:10486000704700BF40500D4044500D4038B50446DD
:104870000D460D4B984203D003F5805398420BD15F
:10488000094B9C420DD0322429462046FFF7B0FD4B
:104890002046FFF733FD38BDF6210448FFF798F9AD
:1048A000EEE71724F0E700BF00800040947D200071
:1048B00038B504460D46094B984203D003F58053A2
:1048C000984202D13DB1E06938BD40F281110448FF
:1048D000FFF77EF9F6E7A069F6E700BF0080004029
:1048E000947D200038B504460D46074B984203D00E
:1048F00003F58053984201D1256238BD4FF4D87139
:104900000248FFF765F9F7E700800040947D20003A
:1049100038B504460D46104B984203D003F580533A
:1049200098420DD1226802F00F026FF0010393400C
:104930002B420BD1E36813F0020FFBD0A56038BD0A
:104940004FF4E8710548FFF743F9EBE74FF4E971DD
:104950000248FFF73DF9EDE700800040947D20001C
:1049600038B504460D460A4B984203D003F58053F0
:10497000984206D1E36813F0040FFBD0A3682B60C4
:1049800038BD40F227210348FFF722F9F2E700BFC4
:1049900000800040947D200038B504460D46084B49
:1049A000984203D003F58053984203D1616A2943AA
:1049B000616238BD40F27D210248FFF709F9F5E751
:1049C00000800040947D200038B504460D46094B18
:1049D000984203D003F58053984204D1616A21EADA
:1049E0000501616238BD4FF427710348FFF7F0F805
:1049F000F4E700BF00800040947D200010B504461D
:104A0000084B984203D003F58053984203D1E068E5
:104A1000C0F3001010BD40F2B9210348FFF7D8F8E9
:104A2000F5E700BF00800040947D200003281ED9D8
:104A3000B0F5807F1DD040F2011398421BD0B0F535
:104A4000007F1AD040F20123984218D0B0F5407F81
:104A500017D0B0F5806F16D040F20143984214D0C1
:104A6000B0F5A06F01D000207047012070470120F1
:104A700070470120704701207047012070470120D6
:104A800070470120704701207047012070470000E7
:104A90000E4B1B6803F00703072B05D8DFE803F074
:104AA0001406080A0C0E10120020704708487047C0
:104AB00008487047084870470848704708487047DA
:104AC00008487047084870470848704704200D4060
:104AD0000024F40000127A0000093D0080841E00CA
:104AE00040420F0020A1070090D003000048E801D9
:104AF00010B50446072807D8064B186820F4E06074
:104B000040EA0420186010BD4FF4B0710248FFF76E
:104B10005FF8F1E700200D40A07D20000E4B1B68E0
:104B2000C3F30223072B05D8DFE803F01406080AB5
:104B30000C0E101200207047084870470848704754
:104B40000848704708487047084870470848704749
:104B5000084870470848704704200D400024F400BE
:104B600000127A0000093D0080841E0040420F00C0
:104B700020A1070090D003000048E80101387FF42D
:104B8000FDAF704770B506460D461446072A01D89A
:104B900022B919B1D9211B48FFF71AF825B91A4AC9
:104BA000136843F400131360174B1A68174B134034
:104BB0000EB943F08073BDB14FF480352B432343CE
:104BC000114A1360124B1B68002403F48033AB427C
:104BD0000CD04FF6FE739C4208D81020FFF7CEFF92
:104BE0000B4B1B680134F0E70025E7E74FF6FE7337
:104BF0009C4200D870BD4FF481710248FEF7E8FF77
:104C0000F8E700BFA07D200000200D40F8FFFEFE69
:104C100004200D4070B51B4B1D6805F4E06615F0CF
:104C2000070500D056B9184B1A680DBB01231A436B
:104C300006BB4FF480731343134A1360134C23686D
:104C400043F00403236000F053FB236823F00403C4
:104C5000236005B15EB90C4B1A686DB96FF007039C
:104C60001A4066B96FF4E0631340074A136070BDE1
:104C70000023DCE70023DEE74FF0FF33F0E74FF0DF
:104C8000FF33F1E704200D4000200D4010ED00E05F
:104C900010B582B00446FFF7C9FEC0B1B4F5A06FED
:104CA0001BD0C4F30322134B53F82220116804F0E5
:104CB0000F04012303FA04F421431160002301933C
:104CC000019B0F2B0FD8019B01330193F8E740F2B2
:104CD000AA210948FEF77CFFE0E740F2AB21064835
:104CE000FEF776FFDDE7136823EA0404146002B0E0
:104CF00010BD00BFF87D2000A07D200010B5044647
:104D0000FFF794FE68B1C4F30322094B53F8221055
:104D10000B6804F00F04012202FA04F41C430C6037
:104D200010BD40F2D7210348FEF752FFEBE700BF6A
:104D3000C87D2000A07D200010B50446FFF776FE58
:104D400068B1C4F30322094B53F822100B6804F036
:104D50000F04012202FA04F41C430C6010BD40F25F
:104D60001A310348FEF734FFEBE700BFE07D200077
:104D7000A07D200010B50446FFF758FE70B1C4F3C3
:104D80000322094B53F822100B6804F00F04012290
:104D900002FA04F423EA04040C6010BD40F28731E7
:104DA0000248FEF715FFEAE7B07D2000A07D200055
:104DB000064B984207D003F58053984201D000205B
:104DC0007047012070470120704700BF00C00040BD
:104DD00070B506460C461546FFF7EAFF68B1042C8D
:104DE00010D83DB1082D05D0102D03D0182D01D0BD
:104DF000202D0CD12C43746370BDA8210648FEF70A
:104E0000E7FEECE7AD210448FEF7E2FEE9E7B22158
:104E10000148FEF7DDFEEDE70C7E200010B50446EC
:104E2000FFF7C6FF50B1E36A43F01003E362236B60
:104E300043F4407343F00103236310BD40F2A31118
:104E40000148FEF7C5FEEEE70C7E200010B50446D3
:104E5000FFF7AEFF70B1A36913F0080FFBD1E36A4F
:104E600023F01003E362236B23F4407323F0010368
:104E7000236310BD40F2C3110148FEF7A9FEEAE723
:104E80000C7E2000F8B505460C4616461F46FFF777
:104E90008FFFC0B1EEB12846FFF7D8FFB4EB061F75
:104EA0001DD22B6B43F020032B637608E400B4FB88
:104EB000F6F40134E3096B62C4F34504AC62EF62BB
:104EC0000023AB61F8BD40F215110748FEF780FEE4
:104ED000E0E74FF48B710448FEF77AFEDBE72B6BBB
:104EE00023F020032B63E1E70C7E200010B504467D
:104EF000FFF75EFF20B1E36A43F01003E36210BDE9
:104F000040F2E9110148FEF763FEF4E70C7E200051
:104F100038B505460C46FFF74BFF40B1102C00D0CA
:104F20005CB9296B21F010012143296338BD4FF48E
:104F300018710548FEF74CFEF0E740F26221024886
:104F4000FEF746FEEDE700BF0C7E200010B50446DC
:104F5000FFF72EFF30B1A36913F0100F0CBF012033
:104F6000002010BD40F29F210148FEF731FEF2E71C
:104F70000C7E200010B50446FFF71AFF28B1A36984
:104F800013F0100F07D1206810BD40F2D72103485D
:104F9000FEF71EFEF3E74FF0FF30F5E70C7E200032
:104FA00038B504460D46FFF703FF30B1A36913F08F
:104FB000200F08D12560012006E040F22631034889
:104FC000FEF706FEF2E7002038BD00BF0C7E200091
:104FD00038B504460D46FFF7EBFE28B1A36913F080
:104FE000200FFBD1256038BD4FF455710148FEF705
:104FF000EFFDF3E70C7E200038B504460D46FFF7C1
:10500000D7FE58B1094B9C420ED0162429462046A3
:10501000FFF7EEF92046FFF771F938BD40F2BB31DA
:105020000348FEF7D5FDEDE71524EFE700C000408B
:105030000C7E200038B504460D46FFF7B9FE20B1BE
:10504000A16B21EA0501A16338BD40F23741024856
:10505000FEF7BEFDF4E700BF0C7E200038B5044625
:105060000D46FFF7A5FE10B13DB1206C38BD40F2F2
:1050700055410348FEF7ACFDF6E7E06BF6E700BFED
:105080000C7E200038B504460D46FFF791FE08B1AE
:10509000656438BD40F285410148FEF799FDF7E7A8
:1050A0000C7E200038B505460C46FFF781FE20B186
:1050B000012C08D8C5F8C84F38BD40F22F5105481B
:1050C000FEF786FDF4E74FF4A6610248FEF780FD87
:1050D000F0E700BF0C7E200010B504464FF6E073E9
:1050E000184207D104F01F04012303FA04F4044B0F
:1050F0001C6010BD9A210348FEF76AFDF2E700BF6D
:1051000028F00F40187E200038B504460D464FF6B3
:10511000C07318420ED10D4B1B688BB104F03F04D5
:105120000A4B186800EB04108368094919402943A9
:10513000816038BD40F261210648FEF749FDEAE78B
:1051400040F262210348FEF743FDE7E708F00F4015
:10515000F73FFC00187E20002DE9F84F83460D46EE
:1051600016461F46DDF828804FF6C073184247D117
:105170003A4B1B68002B49D0062D4DD8B146B6F1ED
:10518000005F4FD3BA46B7F1005F51D308F1FF3447
:10519000B4F5806F52D20BF03F0C304B1A684FEAD7
:1051A0000C1E02EB0E00836823F47F5323F03703B9
:1051B0001BF0200F05D0042D01D0062D01D145F0A4
:1051C000010545EA0411194301F04063B3F1406F52
:1051D00004D09E0E08FA06F64E44013E42F80E60D8
:1051E00001F04043B3F1404F33D0042D2CD0062DB5
:1051F0002AD09B0F08FA03F8D04408F1FF3728E0C3
:1052000040F2D1211648FEF7E3FCB1E740F2D2218B
:105210001348FEF7DDFCAFE740F2D3211048FEF75C
:10522000D7FCABE74FF435710D48FEF7D1FCA9E789
:1052300040F2D5210A48FEF7CBFCA7E740F2D62181
:105240000748FEF7C5FCA6E74CF0200702EB07175E
:105250000C3747608160BDE8F88F00BF08F00F4051
:10526000187E200010B504464FF6C073184210D1C6
:105270000E4B1B689BB104F03F040C4B1B6803EB07
:105280000414A06843F6F773184001D000090130F8
:1052900010BD40F2B3310648FEF79AFCE8E74FF440
:1052A0006D710348FEF794FCE5E700BF08F00F407E
:1052B000187E200038B504460D4659B1A4F13E03CE
:1052C000012B0DD829462046FFF792F82046FFF71C
:1052D00015F838BD4FF488610448FEF779FCEDE716
:1052E00040F241410148FEF773FCEBE7187E2000D5
:1052F00030BF704780F0004002E000BF81F0004105
:1053000042001FBF5FEA410392EA030F7FEA226C6B
:105310007FEA236C6AD04FEA1262D2EB1363C1BFFB
:10532000D218414048404140B8BF5B42192B88BF6A
:10533000704710F0004F40F4000020F07F4018BF8D
:10534000404211F0004F41F4000121F07F4118BFAD
:10535000494292EA030F3FD0A2F1010241FA03FC55
:1053600010EB0C00C3F1200301FA03F100F000433D
:1053700002D5494260EB4000B0F5000F13D3B0F105
:10538000807F06D340084FEA310102F10102FE2A74
:1053900051D2B1F1004F40EBC25008BF20F00100E4
:1053A00040EA03007047490040EB0000013A28BF83
:1053B000B0F5000FEDD2B0FA80FCACF1080CB2EB06
:1053C0000C0200FA0CF0AABF00EBC2505242184384
:1053D000BCBFD0401843704792F0000F81F4000129
:1053E00006BF80F400000132013BB5E74FEA4103FC
:1053F0007FEA226C18BF7FEA236C21D092EA030F68
:1054000004D092F0000F08BF0846704790EA010FE1
:105410001CBF0020704712F07F4F04D1400028BF0E
:1054200040F00040704712F100723CBF00F50000F0
:10543000704700F0004343F0FE4040F40000704726
:105440007FEA226216BF08467FEA236301464202D2
:1054500006BF5FEA412390EA010F40F480007047E5
:105460004FF0000304E000BF10F0004348BF40428B
:105470005FEA000C08BF704743F0964301464FF0C7
:1054800000001CE050EA010208BF70474FF0000323
:105490000AE000BF50EA010208BF704711F0004364
:1054A00002D5404261EB41015FEA010C02BF844634
:1054B0000146002043F0B64308BFA3F18053A3F593
:1054C0000003BCFA8CF2083AA3EBC25310DB01FADA
:1054D00002FC634400FA02FCC2F12002BCF1004F5E
:1054E00020FA02F243EB020008BF20F001007047EF
:1054F00002F1200201FA02FCC2F1200250EA4C0043
:1055000021FA02F243EB020008BF20EADC70704788
:105510004FF0FF0C1CEAD0521EBF1CEAD15392EA96
:105520000C0F93EA0C0F6FD01A4480EA010C400272
:1055300018BF5FEA41211ED04FF0006343EA5010CC
:1055400043EA5111A0FB01310CF00040B1F5000F0E
:105550003EBF490041EAD3715B0040EA010062F1BD
:105560007F02FD2A1DD8B3F1004F40EBC25008BFA7
:1055700020F00100704790F0000F0CF0004C08BFC5
:1055800049024CEA502040EA51207F3AC2BFD2F192
:10559000FF0340EAC250704740F400004FF00003A0
:1055A000013A5DDC12F1190FDCBF00F000407047DA
:1055B000C2F10002410021FA02F1C2F1200200FA18
:1055C00002FC5FEA310040F1000053EA4C0308BFDF
:1055D00020EADC70704792F0000F00F0004C02BF30
:1055E000400010F4000F013AF9D040EA0C0093F0AB
:1055F000000F01F0004C02BF490011F4000F013B05
:10560000F9D041EA0C018FE70CEAD15392EA0C0F72
:1056100018BF93EA0C0F0AD030F0004C18BF31F0DD
:10562000004CD8D180EA010000F00040704790F0B3
:10563000000F17BF90F0004F084691F0000F91F057
:10564000004F14D092EA0C0F01D142020FD193EA1D
:105650000C0F03D14B0218BF084608D180EA0100A5
:1056600000F0004040F0FE4040F40000704740F081
:10567000FE4040F4400070474FF0FF0C1CEAD0524F
:105680001EBF1CEAD15392EA0C0F93EA0C0F69D0AB
:10569000A2EB030280EA010C49024FEA402037D016
:1056A0004FF0805343EA111143EA10130CF000400D
:1056B0008B4238BF5B0042F17D024FF4000C8B42FD
:1056C00024BF5B1A40EA0C00B3EB510F24BFA3EBDD
:1056D000510340EA5C00B3EB910F24BFA3EB9103AD
:1056E00040EA9C00B3EBD10F24BFA3EBD10340EA07
:1056F000DC001B0118BF5FEA1C1CE0D1FD2A3FF64D
:1057000050AF8B4240EBC25008BF20F00100704701
:105710000CF0004C4CEA50207F32C2BFD2F1FF03A4
:1057200040EAC250704740F400004FF00003013AD5
:1057300037E792F0000F00F0004C02BF400010F479
:10574000000F013AF9D040EA0C0093F0000F01F08D
:10575000004C02BF490011F4000F013BF9D041EAAF
:105760000C0195E70CEAD15392EA0C0F08D14202E2
:105770007FF47DAF93EA0C0F7FF470AF084676E7B5
:1057800093EA0C0F04D14B023FF44CAF08466EE78E
:1057900030F0004C18BF31F0004CCAD130F000425C
:1057A0007FF45CAF31F000437FF43CAF5FE700BFB4
:1057B00042000ED2B2F1FE4F0BD34FF09E03B3EB7B
:1057C000126209D44FEA002343F0004323FA02F0A7
:1057D00070474FF00000704712F1610F01D1420293
:1057E00002D14FF0FF3070474FF00000704700BF0C
:1057F00010B5054C34B113460A460146022000F0AC
:10580000A9F910BD204610BD555B200070B50D4EA6
:105810000D4D761BB61006D00024013455F8043B1C
:105820009847A642F9D1094E094D02F093FB761B29
:10583000B61006D00024013455F8043B9847A64220
:10584000F9D170BD607F2000607F2000747F200050
:10585000607F2000844641EA000313F0030349D12E
:10586000403A23D30B6803604B6843608B688360C6
:10587000CB68C3600B6903614B6943618B698361CA
:10588000CB69C3610B6A03624B6A43628B6A8362B2
:10589000CB6AC3620B6B03634B6B43638B6B83639A
:1058A000CB6BC36340304031403ADBD230320BD354
:1058B0000B6803604B6843608B688360CB68C36090
:1058C00010301031103AF3D20C3205D351F8043BAA
:1058D00040F8043B043AF9D2043208D0D2071CBF86
:1058E00011F8013B00F8013B01D30B8803806046AF
:1058F000704700BF082A13D38B07B1D010F0030301
:10590000AED0C3F10403D21ADB071CBF11F8013B70
:1059100000F8013BA4D331F8023B20F8023B9FE79B
:10592000043AD9D3013A11F8013B00F8013BF9D20E
:105930000B7803704B7843708B78837060467047A8
:10594000F0B4860746D0541E002A3CD0CAB20346A3
:1059500002E014F1FF3436D303F8012B9D07F8D190
:10596000032C29D9CDB245EA05250F2C45EA05457A
:1059700033D9A4F11006360903F1200707EB061707
:1059800003F1100242E9045542E902551032BA42CD
:10599000F8D1721C14F00C0F03EB021204F00F0686
:1059A00013D0331F23F003030433134442F8045B82
:1059B0009342FBD106F003042CB1C9B21C4403F896
:1059C000011B9C42FBD1F0BC704734461346002CAF
:1059D000F3D1F8E714460346C2E71A462646E0E745
:1059E00038B5124B05461C68A06B18B10023C0E9FE
:1059F000045338BD182000F04DF9A06378B101229E
:105A00000023C0E904230A4B0B24836000230949C7
:105A1000094A8481C0E90012C0E9045338BD024636
:105A2000064B4221064800F0EDF800BF84410020FB
:105A3000ECDE05000E33CDAB34126DE62C7E20007B
:105A4000447E200038B51A4B1C68A26B92B11469D1
:105A50001849536901FB04F1174800FB0313A4FB29
:105A60000045611C1D4445F1000323F00040C2E9DC
:105A7000041338BD182000F00DF90246A06388B168
:105A8000012400250B21C0E904450C4B0948136093
:105A900003460B4D0B4C91810B49C2E90154C2E9FD
:105AA000041338BD094B4E21094800F0ABF800BF84
:105AB000844100202DF451582D7F954C0E33CDABF1
:105AC00034126DE6ECDE05002E7F954C2C7E200016
:105AD000447E20000CB470B56FF000459CB020AC43
