:020000040020DA
:10000000646200208D2720002D2820004727200033
:100010004B2720004B2720004B272000000000002A
:10002000000000000000000000000000713A200005
:100030004B27200000000000113B2000553B200012
:100040004B2720004B2720004B2720004B27200068
:10005000000000004B2720004B2720004B272000EA
:100060004B272000000000000000000000000000FE
:1000700000000000000000004B27200000000000EE
:1000800000000000000000004B2720004B2720004C
:100090004B2720004B2720004B2720004B27200018
:1000A0004B2720004B2720004B2720004B27200008
:1000B0004B2720004B2720004B2720004B272000F8
:1000C0004B2720004B2720004B2720004B272000E8
:1000D0004B2720000000000000000000000000008E
:1000E0000000000000000000000000000000000010
:1000F0004B272000000000004B2720004B2720004A
:100100000348044B834202D0034B03B118477047A6
:10011000EC410020EC4100200000000005480649A9
:100120000B1AD90F01EBA301491002D0034B03B105
:1001300018477047EC410020EC410020000000000F
:1001400010B5064C237843B9FFF7DAFF044B13B11F
:100150000448AFF300800123237010BDEC41002060
:1001600000000000E0FF270008B5044B1BB1044964
:100170000448AFF30080BDE80840CFE7000000006E
:10018000F0410020E0FF270008B54368984708BD0C
:10019000012800D070474FF6FF739942FAD170B52D
:1001A00082B0214C0121204602F0ACFB1F4E204DB5
:1001B00032462946204600F076F91E4C01212046A1
:1001C00002F0A0FB32462946204600F06CF91A4B9B
:1001D0001A4A1A601A4959601A4B1A601A4A5A6028
:1001E0001A491B4801F027FB1A4D442229461A4898
:1001F00001F07BF900240194184B00932346402220
:100200001749184802F09AFB0194174B00930223F8
:1002100080221649164802F091FB7622294615489D
:1002200000F0DEFB02B070BD104400200041002051
:100230002504200014440020FC440020CC9420001D
:1002400079022000F44400200D0420000441002025
:10025000044500201846002048450020E503200002
:1002600074942000E0440020890220008094200043
:10027000084200200845002008B5024801F0B9FAFC
:1002800008BD00BF3046002070B58CB04A4800F071
:10029000AAFB00254FE0494801F0ABFA06AABDF8D9
:1002A0001410204601F0A8F94549069806F0DCFE36
:1002B00007F02AF8ADF822004AE0099807F024F880
:1002C00084B2ADF81C400A9807F01EF885B2ADF86C
:1002D0001E500B9807F018F886B2ADF82060394828
:1002E00001F087FABDF8223002930196009523466B
:1002F00001223549354807F0BDF905462EE02A466A
:100300003249334802F0EAF9002529E0204601F09D
:1003100039FF4FF4FA7002F0A9FA284801F07AFA8E
:10032000322002F0A3FA0025264801F073FA40F2C9
:10033000DC5002F09BFA274C204601F01BF92046C6
:1003400001F0D6F805A9204601F018F90028A2D13D
:1003500009A9194800F0D6FB0028AED1002DCED156
:10036000184801F046FA322002F080FA00211A48BB
:1003700002F094FA0028D7D0184C204601F0CCFEA9
:100380000E4801F036FABDF81E30BDF82020BDF849
:100390002210134D029101920093BDF81C300122EE
:1003A0000949284607F066F9C2B22946204601F0FD
:1003B000FDFE0028B4D1A9E70845002034460020FE
:1003C0000000204128460020889420001C42002084
:1003D0008046002048450020144400203C46002070
:1003E0001844002008B5084C204601F002FA4FF4EA
:1003F000967002F03BFA204601F00CFA4FF41670AA
:1004000002F034FAEFE700BF3046002008B5034899
:1004100001F000FA024802F05DFA08BD3046002003
:100420001444002010B5044602F031FA204610BDF5
:1004300010B5114800F0C2F9104C114A114920467C
:1004400001F072FE204601F009FE204601F070FE28
:100450001A21204601F08CFE0B4801F0FAF90B49F5
:100460000B4801F029FA4FF4E1310A4802F0D4F8C0
:1004700002F0F8F9002010BDFC4500203C460020A9
:10048000F4440020FC44002004450020A086010024
:10049000184600208046002008B54FF6FF71012065
:1004A000FFF776FE08BD0B460146184606F04CBF26
:1004B00010B50446043002F0EAF9204602F0CBF908
:1004C000204610BD10B50446143002F0E0F904F1E6
:1004D000100002F0DCF904F10C0002F0D8F920461B
:1004E00010BD10B504460C3002F0D1F9204610BD05
:1004F00038B504460D4601F0A3F86560204638BDC6
:10050000012800D070474FF6FF739942FAD12DE9C8
:10051000F04F83B0DFF888A26349504601F001F93B
:10052000DFF880B26149584601F0FBF86049614844
:1005300001F0F7F86049614801F0F3F8604C614957
:10054000204601F0EEF86049604801F0EAF86049A1
:10055000604801F0E6F86049604801F0E2F8604F59
:100560006049384601F0DDF8DFF83C825E494046DC
:1005700001F0D7F85D4D5E49284601F0D2F85D499B
:100580005D4801F0CEF85D495D4801F054F95D49E0
:100590005D4801F050F95D4E5D49304601F04BF980
:1005A0005C495D4801F0C1F85C495D48FFF7A0FF78
:1005B0005C495D4801F03FF95C495D4801F03BF959
:1005C0005C495D4801F037F95C495D4801F033F959
:1005D0005C495D4801F0C4F830215C4801F0E8FE58
:1005E00031215B4801F074FE00215A4802F0A9F85D
:1005F000DFF8B891584B5A465146484601F050F939
:10060000DFF8ACA1524655494846FFF74CFFDFF8EA
:10061000A491534B42463946484601F0E1FF514F01
:10062000524639464846FFF73EFFDFF88C814E4B75
:10063000314A2946404601F0D3FF524639464046EA
:10064000FFF731FF494D4A4B009323461B4A194996
:10065000284601F0B1FE474801F0A0FE464801F0EF
:10066000F6FC464800F0E8FF454801F0AEFF454C77
:10067000204601F045F8524643492046FFF713FF54
:10068000254B01930096204B1D4A29463F4800F018
:10069000D3F83F493F4801F0CEF83F493F4801F0C9
:1006A000CAF803B0BDE8F08FD0942000E494200095
:1006B0009895200084450020AC95200088450020B6
:1006C0006C4500200C952000C09520008C45002032
:1006D000D4952000904500202095200070450020F2
:1006E0007445002034952000489520007C4500206A
:1006F0005C95200070952000804500204C962000DD
:100700005C45002060962000604500205045002098
:100710002496200038962000544500207041002087
:10072000FC4500208495200028460020E895200004
:100730002C460020F894200030460020FC95200034
:100740003446002010962000044600205C4600201D
:1007500050460020C846002018410020E304200035
:1007600040410020C504200058410020644600207C
:1007700020410020384600203C46002094450020BF
:100780007C4600200C460020B1042000B04500202B
:1007900088962000A845002074962000AC450020D3
:1007A0006445002068450020784500201846002058
:1007B0000041002080460020A446002008B5416882
:1007C00000F042FF064801F025F8064801F022F843
:1007D000054801F01FF8054801F01CF808BD00BFEE
:1007E00028460020344600202C46002030460020B9
:1007F00008B54FF6FF710120FFF782FE08BD10B566
:1008000003464168C26801EB620012F0010F02D199
:100810009B68984710BD54100A599B68D358F8E755
:1008200010B50446C06801F01CF8A06801F019F882
:10083000606801F016F810BD30B585B0044601605F
:1008400042608360089BC360099B0361174B02935E
:10085000002303936A4604A911E9030082E8030018
:1008600013496161A46104F11C0592E8030085E865
:1008700003006362A362E36223636363A363E363CE
:10088000236484F8443084F8453084F8463084F892
:10089000473084F849302046FFF7C2FF04F11401C5
:1008A000206900F095FF204605B030BD67092000A3
:1008B000A496200038B50546144612F0010F04D066
:1008C000406A10B103681B68984714F0020F04D007
:1008D000A86A10B103681B68984714F0100F04D081
:1008E000286B10B103681B68984738BD38B50546BA
:1008F000144612F0010F04D0406B10B103681B685E
:10090000984714F0020F04D0A86B10B103681B685D
:10091000984714F0100F04D0286C10B103681B68BE
:10092000984738BD30B585B0044615460B0A8DF89A
:100930000C308DF80D1000238DF80E30C06800F0DB
:1009400090FF94F8493001930322009202AB03A96F
:10095000206801F001FEE06800F07BFF9DF80A309E
:100960002B7005B030BD10B582B004460DF1070202
:100970000021FFF7D7FF0DF1060201212046FFF706
:10098000D1FF0DF1050202212046FFF7CBFF01AA9E
:1009900003212046FFF7C6FF94F844309DF8071066
:1009A0000B4205D194F846209DF805301A4204D038
:1009B0009DF805202046FFF77DFF94F845309DF80F
:1009C00006100B4205D194F847209DF804301A42D6
:1009D00004D09DF804202046FFF788FF02B010BD28
:1009E00001600271704738B50446037943720123F0
:1009F0008372C06300F10805284600F055FC00280A
:100A000013DB012384F83630052384F834300223C5
:100A100084F83530042384F8373029460F2000F05D
:100A200091FC002803DB012038BD0020FCE70020FA
:100A3000FAE72DE9F04104460D4616461F46BDF87B
:100A40001880006800F086FFB8F1010F13D032461D
:100A50002946206800F0EAFFD0B15FFA88F33A46F1
:100A60002946206800F0AAFF90B1206800F078FFC6
:100A70000020BDE8F08132462946206800F0D6FF0C
:100A800030B13A462946206800F070FF0028ECD1CA
:100A9000206800F065FF4FF0FF30EAE72DE9F041F4
:100AA00088B006460F4690461C46BDF83850006890
:100AB00000F050FF8DF8008000220123AA4209DADD
:100AC000A05C08A9194401F8200C0133DBB2013203
:100AD000D2B2F3E76A463946306800F0CFFF30B152
:100AE000306800F03DFF002008B0BDE8F0813068BC
:100AF00000F036FF4FF0FF30F6E708B5084601F08A
:100B0000B5FE08BD70B584B004460D4600F1080678
:100B10003146012000F050FC10B1002004B070BD3F
:100B200060212046FFF7E9FF324601A9072000F0C7
:100B3000B2FCB8B9029806F043FA0B4906F048FB3C
:100B40002860039806F038FA4FF06A5106F08CFAE4
:100B50006860019806F030FA034906F039FBA86096
:100B60000120DBE70020D9E70000C84290F90030FF
:100B700023F01C03CA78920002F01C021343037096
:100B8000704790F9003003F01F030A7943EA4213DB
:100B90000370704790F9003023F01C030A7892002C
:100BA00002F01C0213430370704790F9003003F009
:100BB0001F034A7843EA421303707047037803F037
:100BC00007038B708378C3F382030B7083785B0910
:100BD0004B70C378C3F38203CB70C3785B090B718E
:100BE0007047000010B440680A885300C3EBD0037C
:100BF000B1F9024003FB04F3002B1EDBDB12C2EB56
:100C0000101202FB02F2002A1ADB1213B1F90400DF
:100C100000FB02F2002A16DB03EBA2334B6203EB6C
:100C2000830313F1800012D400120C4A934210DBAC
:100C30000B4A93420FDA10BC704703F2FF73DDE7F3
:100C400002F6FF72E1E702F57F523F32E4E7FF3040
:100C5000EAE70448EFE742F23410ECE7815EF0FF88
:100C60008034210060F0FFFF70B44B6A03EBD37354
:100C70005B10A3F57A431A46002B68DB921002FB47
:100C800002F21546002A64DBED12B1F91060B1F9E9
:100C90000E4003FB04F4640006FB0544002C5BDB00
:100CA000B1F90C502D0405EBA405B1F90A60144606
:100CB000002A53DB621302FB06F2002A52DBB1F971
:100CC000084003FB04F303EBD3735B1013EBE20365
:100CD0004AD49B1403F50043CA8802FB03F3002B9C
:100CE00047DBDB1359D00068C0F580102A46002D81
:100CF00043DBA0EB223240F6354000FB02F0002837
:100D00003EDB4000B0FBF3F3B1F91620DC0804FB36
:100D100004F4640B04FB02F2002A35DB121398087A
:100D2000B1F9144004FB00F0002830DB02EB603224
:100D3000B1F9120012182ED403EB221047F22F53F0
:100D400098422ED9184B984229D9174827E0DA1C27
:100D500094E702F2FF7597E70334A1E702F5FF5429
:100D60001F34A7E70732AAE703F57F3303F2FF3307
:100D7000AFE703F5FF437F33B3E705F6FF72B8E74C
:100D8000B0FBF3F35B00BFE702F6FF72C6E700F5C6
:100D9000FF501F30CAE70F32CEE747F2305070BC29
:100DA000704747F23050FAE7B0AD010010B44C6A1A
:100DB000A4F596348268B1F91E000005B1F920301F
:100DC000C0EB823004FB130313F5804341D4D813E6
:100DD00091F9222004FB02F2002A3EDB92120B7FE3
:100DE00004FB03F4002C3BDBE41204F5004402FB9B
:100DF00004F2002A37DB931203F50013B1F91A202D
:100E000003FB02F313F5005330D49B1303FB00F3F1
:100E10001A46002B2EDBD21302FB02F2002A2DDB36
:100E2000D211097E02FB01F2002A29DBA3EB221377
:100E300023EAE373B3F1C85FA8BF4FF0C8531A4663
:100E4000002B1FDB13131846B3F5C83F1DD810BC89
:100E5000704703F5FF437F33B9E702F2FF32BDE786
:100E600004F2FF74C0E702F2FF32C4E703F57F53D8
:100E70003F33CAE703F5FF427F32CCE77F32CFE74B
:100E80000F32D3E703F6FF72DCE74FF4C830DEE73A
:100E900070B401249C4209D26500013D065D4E55A7
:100EA000155D01F814500134E4B2F3E770BC7047EB
:100EB0004278037843EA02238B80C278837843EA3E
:100EC0000223CB804279037943EA02230B81C27962
:100ED000837943EA02234B81427A037A43EA02236D
:100EE0008B81C27A837A43EA0223CB81427B037BE4
:100EF00043EA02230B82C27B837B43EA02234B82B9
:100F0000427C037C43EA02238B82C27C837C43EADB
:100F10000223CB82427D037D43EA02230B83C27D01
:100F2000837D43EA02234B83437E0B7770474278ED
:100F3000037843EA0223CB83837881F8203090F949
:100F400003309BB21B011BB2027902F00F02134364
:100F50004B8490F905309BB21B011BB2027943EA26
:100F600012138B8490F9063081F8263070470840C0
:100F700000D00120704730B1436B0BB100207047A7
:100F80004FF0FF3070474FF0FF307047F0B583B03F
:100F900005460F4616461C461846FFF7ECFF60B99B
:100FA000A378012B01D045F0800500963B462A46E8
:100FB0006178606BFFF73DFD08B903B0F0BD6FF0DD
:100FC0000300FAE730B589B0044600230193029389
:100FD0000393049305930693ADF81C3003461A223D
:100FE00001A98820FFF7D2FF054610B1284609B0B5
:100FF00030BD214601A8FFF75BFF2346072201A968
:10100000E120FFF7C3FF05460028EFD1214601A8E4
:10101000FFF78DFFEAE72DE9F04389B007468946DF
:10102000164698460A2A00D90A264046FFF7A3FF2B
:1010300080BB97B3B9F1000F32D0A6B399F8003056
:101040008DF80C3098F80230012B09D00024A6420C
:1010500006D93D5D05F07F053D550134E4B2F6E764
:10106000012E0DD8B6B2009603AB3A7898F801106D
:10107000D8F83400FFF712FDC0B909B0BDE8F0831D
:1010800033464A4603A93846FFF702FF7600013E81
:10109000B6B2E8E74FF0FF30EFE74FF0FF30ECE794
:1010A0004FF0FF30E9E76FF00200E6E76FF0030072
:1010B000E3E710B582B00C46F2238DF80530837853
:1010C00003F007038DF807300B4601220DF10701ED
:1010D0000DF10500FFF79FFF08B102B010BDF4202D
:1010E0008DF80500234601220DF10601FFF74EFFA2
:1010F0000028F2D1234601220DF106010DF1050071
:10110000FFF789FFE9E770B582B005460E46144641
:10111000F4208DF80700134601220DF10601FFF7B8
:1011200035FF68B915F0010F0CD115F0020F0FD182
:10113000234601220DF106010DF10700FFF76BFFB9
:1011400002B070BD31460DF10600FFF723FDECE75C
:1011500031460DF10600FFF728FDE9E770B50446BA
:101160000D46164610F0040F04D1012014F0030FB1
:1011700005D170BD11462846FFF79BFFF6E73246C2
:1011800029462046FFF7BFFFF3E770B582B005465A
:101190000E461446F5208DF80700134601220DF186
:1011A0000601FFF7F3FE68B915F0080F0CD115F032
:1011B000100F0FD1234601220DF106010DF107009A
:1011C000FFF729FF02B070BD31460DF10600FFF7B1
:1011D000CDFCECE731460DF10600FFF7D2FCE9E764
:1011E00038B504460D460A4601461F20FFF7B6FFF4
:1011F00000B138BD2A4621461F20FFF7C6FFF8E799
:1012000030B583B005460C46F4208DF807000B4638
:1012100001220DF10601FFF7B9FE08B103B030BDA0
:101220009DF8063023F003035BB205F003051D4370
:101230008DF80650234601220DF106010DF107003D
:10124000FFF7E9FEEAE738B505460C460846FFF722
:1012500092FE00B138BD234601222946F420FFF753
:1012600095FE2B7803F003032B70F3E730B583B0C2
:101270000446E0238DF80730B6238DF80630FFF7DB
:101280007AFE054610B1284603B030BD2346012240
:101290000DF106010DF10700FFF7BDFE0546022125
:1012A000606BFFF72AFCEEE770B582B005460023BD
:1012B0008DF80730FFF75FFE064618BB05240AE0ED
:1012C0002846FFF77FFE06461BE00121686BFFF70B
:1012D00014FC013CE4B2A4B12B4601220DF107013C
:1012E000D020FFF753FE06460028EED19DF80730C8
:1012F000602BEAD12B702846FFF7B8FF064600287E
:10130000DED014B1304602B070BD6FF00106F9E7CF
:1013100010B584B004460346042203A9F220FFF767
:1013200035FE08B104B010BD01A903A8FFF746FCC3
:101330002046FFF79BFF0028F4D1214601A8FFF7C4
:101340004FFFEFE770B582B006460C460846FFF740
:1013500012FE054610B1284602B070BD21460DF1BF
:101360000700FFF770FF054610B99DF80730B3B9C5
:10137000002DF0D131460720FFF7F9FDA0B9002D6F
:10138000E9D131461820FFF7F2FD0028E3D02246CC
:1013900004F12C013046FFF7F8FE0546DBE7204656
:1013A000FFF7B6FF0546E3E7224604F12C0130467D
:1013B000FFF7D4FE0546E2E730B583B005460C469C
:1013C0000846FFF7D8FD034610B1184603B030BDFC
:1013D00021460DF10700FFF736FF034610B99DF8CF
:1013E00007203AB9002BF0D121462846FFF708FF25
:1013F0000346EAE72046FFF78BFF0346F2E710B407
:10140000047843781B01827843EA043343EA1213D9
:101410000B60C47803791B01427943EA043343EA41
:1014200012134B608279C37943EA02238B6010BCAC
:10143000704729B3F8B5074614461D460E4612B349
:1014400023B3002353601360936010F0070F11D192
:1014500017F0010F04D029463046FFF705FC206045
:1014600017F0040F15D029463046FFF79FFCA06007
:1014700000200FE029463046FFF7B4FB6060E7E745
:101480004FF0FF3070474FF0FF3003E04FF0FF3078
:1014900000E00020F8BD70B586B006460D46144643
:1014A0000023049305930193029303931046FFF7DF
:1014B00062FDA0B9B5B12346082204A9F720FFF7C1
:1014C00065FD08B106B070BD01A904A8FFF797FF3C
:1014D000231D2A4601A93046FFF7ABFFF2E74FF084
:1014E000FF30EFE74FF0FF30ECE70160027170472B
:1014F00030B583B0044601238DF80430C4238DF841
:10150000053010238DF80630006800F023FA03231D
:1015100001AA2179206800F0B1FA054628B12068B7
:1015200000F01EFA284603B030BD206800F018FA1B
:10153000F8E730B583B0044601238DF80430C023AA
:101540008DF8053010238DF80630006800F002FA9F
:10155000032301AA2179206800F090FA054628B1FA
:10156000206800F0FDF9284603B030BD206800F087
:10157000F7F9F8E708B5FFF7DCFF08BD70B582B0F2
:1015800004460E46006800F0E5F901222179206842
:1015900000F04CFA30B9206800F0E2F90025284646
:1015A00002B070BD022301AA2179206800F006FA7A
:1015B0000028F0D09DF90530002BECDB00222179CA
:1015C000206800F033FA0028E5D0022301AA21792F
:1015D000206800F0F3F905460028DCD09DF80420CF
:1015E0009DF8053043EA02233380206800F0B8F903
:1015F000D5E7000000000000F8B51446C1F30B0564
:10160000080B05F0A9F803F077FF09A3D3E900233D
:1016100005F01CF906460F46284605F0ADF832469F
:101620003B4605F013F905F0C1FB2060F8BD00BF93
:101630007B14AE47E17A843F002202707047704706
:10164000002202707047000038B50C46184D002289
:101650004021284602F04AFC00228021284602F060
:1016600045FC01224021284603F0AEF901228021E9
:10167000284603F0A9F962686178207803F0C6FB78
:10168000A06803F079FB637823B90A4B1B6813F455
:10169000002FFAD023784BB1064B1B6813F0806FF4
:1016A000FAD1044B1B6813F0806FFAD038BD00BF2D
:1016B00000C00D4004200D4008B503F007FA08BD36
:1016C00010B50C46FFF7F8FF201AC00F10BD000040
:1016D000094B03E013F8012901F8012BB3F1281F8E
:1016E000F8D2064B03E013F8012901F8012B024A56
:1016F0009342F8D8704700BF2B0028002F00280025
:1017000010B5044601F09DF80021201D01F0FAF803
:1017100000232372204610BD08B5043001F0DAF82A
:1017200008BD016070470068704710B50446FFF7B8
:10173000F8FF0023636023681979186802F0A0FCA1
:101740002368DA681979186802F000FC23689A683F
:101750000AB9204610BD1979186803F035F9F8E781
:1017600010B50446FFF7E1FF23681979186802F005
:1017700087FC2368DA681979186802F01FFD23686E
:101780001B680F4A934209D00E4A93420BD00E4A6F
:1017900093420CD00D4A93420DD0FEE7012002F097
:1017A000A7FD204610BD022002F0A2FDF9E70420AB
:1017B00002F09EFDF5E7082002F09AFDF1E700BF78
:1017C00000900D4000A00D4000B00D4000C00D4045
:1017D00010B50446416000F019FA204600F01AFAEC
:1017E00010BD406820B108B503681B68984708BD64
:1017F000704708B503681A69012A05D019790A46A5
:10180000186802F02BFC08BD00221979186802F054
:1018100025FCF8E708B503681A69012A05D00022FB
:101820001979186802F01AFC08BD19790A46186877
:1018300002F014FCF8E710B50446FFF772FF2368C6
:101840001979186802F036FC2046FFF7E3FF2046BE
:1018500010BD08B5036819790A46186802F0FEFB46
:1018600008BD08B5036800221979186802F0F6FB74
:1018700008BD0000012800D070474FF6FF73994261
:10188000FAD1044B1A68044BB3FBF2F3034A13601A
:10189000F2E700BFA8962000A0860100CC460020F9
:1018A00010B5044601604260836001210C3001F0F4
:1018B00029F8204610BD000070B5044609B18268C1
:1018C00051602068FFF72FFF06466068FFF72BFF87
:1018D0000546A368186803F055FBA368186803F071
:1018E0006FFBA368186803F089FBA368186803F00E
:1018F00013FB3179306802F0F7FB134A3179306815
:1019000002F048FF0C223179306802F0E5FE2979B7
:10191000286802F0E9FB0D4A2979286802F03AFFAD
:101920000B222979286802F0D7FEA3685C68084B6F
:10193000E41A18BF012403F0EFF9214602F07EFDFE
:1019400002F074FD70BD00BF30410D402C410D40D0
:10195000A086010008B500210C3000F09FFF08BDF3
:1019600008B50C3000F0AEFF08BD000038B50846E1
:101970001546104B1C68012102F084FD072002F07F
:10198000A3FD0D48FFF798FE044402F091FD38B125
:1019900021460948FFF794FE0028F6D0002007E012
:1019A00002F0C8FD287002F0ADFDB0FA80F04009E9
:1019B00038BD00BFCC460020FC450020F8B50846E5
:1019C00017461E46174B1C68012102F05BFD0B20D9
:1019D00002F07AFD1448FFF76FFE044406B302F0EC
:1019E00067FD054640B121460F48FFF769FE002814
:1019F000F5D000252846F8BD02F084FD0028F9D175
:101A000002F098FD07F8010B013EF6B2012E03D952
:101A1000092002F059FDE1E7052002F055FDDDE760
:101A20000125E7E7CC460020FC45002038B50846F4
:101A30001546104B1C68002102F024FD284602F0D8
:101A400073FD072002F040FD0B48FFF735FE04440C
:101A500002F02EFD38B121460748FFF731FE00287D
:101A6000F6D0002004E002F04DFDB0FA80F040090D
:101A700038BD00BFCC460020FC4500202DE9F041D8
:101A8000084616461D46224B1C68002102F0FAFC4F
:101A900016F8010B02F048FD013DEDB2032002F003
:101AA00013FD1C48FFF708FE044402F001FD8046C8
:101AB00088B121461748FFF703FE0028F5D04FF004
:101AC00000084046BDE8F081012002F0FDFC0EE078
:101AD00002F018FDB8B9C5B116F8010B02F024FDEB
:101AE000013D15F0FF05EFD1052002F0EDFC02F0FD
:101AF000DFFC07460028EBD021460648FFF7E0FD53
:101B00000028F4D0DDE7B846DBE74FF00108D8E75E
:101B1000CC460020FC450020704708B54FF6FF7109
:101B20000120FFF7A7FE08BD08B5034B186808B1F0
:101B300000F0E5FD08BD00BF6C47002008B5034B71
:101B4000186808B100F0DBFD08BD00BF7047002039
:101B500008B5034B186808B1FFF7DEFF08BD00BFEA
:101B6000DC46002008B5034B186808B100F011FDF1
:101B700008BD00BFE046002008B5044B1B681BB140
:101B8000034B186800F005FD08BD00BFE0460020CB
:101B9000E446002008B5034B186808B100F034FB98
:101BA00008BD00BF6847002008B5034B186808B19E
:101BB00000F07CFB08BD00BF6847002008B5034B60
:101BC000186808B100F08AFB08BD00BF94470020E8
:101BD00008B5034B186808B1FFF731FD08BD00BF19
:101BE000D446002008B5034B186808B100F021FE68
:101BF00008BD00BFD046002008B5034B186808B1E7
:101C0000FFF78AFD08BD00BFD84600200048704796
:101C10009847002070B50546FFF785FD0668284601
:101C2000FFF781FD0479012C0FD0022C1BD0042C6E
:101C30001BD0082C1BD0102C1BD0202C1BD0402CD0
:101C40001BD0802C02D1072400E000241C4B9E42B4
:101C500015D01C4B9E421AD01B4B9E421FD01B4BD3
:101C60009E4224D070BD0124F0E70224EEE7032455
:101C7000ECE70424EAE70524E8E70624E6E7F02198
:101C8000102002F05DFC124B43F82450EAE7F021EB
:101C9000112002F055FC0F4B43F82450E2E7F021ED
:101CA000122002F04DFC0C4B43F82450DAE7F021EF
:101CB000132002F045FC094B43F82450D2E700BF43
:101CC00000900D4000A00D4000B00D4000C00D4040
:101CD000E846002008470020284700204847002009
:101CE000014B1860704700BF684700202DE9F041A4
:101CF0000446DFF8A8814FF6FF71404603F09CFAD6
:101D00004B4F4FF6FF71384603F096FA49494A485F
:101D100002F08AF949494A4802F086F949494A4895
:101D200002F082F949494A4802F07EF9494E4A4D8B
:101D30003246FF21284602F00BFB32464FF47F412A
:101D4000284602F005FB32464FF6FF71284602F0A6
:101D5000FFFA424E05F580553246FF21284602F033
:101D6000F7FA32464FF47F41284602F0F1FA324644
:101D70004FF6FF71284602F0EBFA394E05F5805513
:101D80003246FF21284602F0E3FA32464FF47F4103
:101D9000284602F0DDFA32464FF6FF71284602F07F
:101DA000D7FA304E05F580553246FF21284602F01D
:101DB000CFFA32464FF47F41284602F0C9FA324644
:101DC0004FF6FF71284602F0C3FA2749404603F058
:101DD00015FA2649384603F011FA254802F048FB67
:101DE0002449254802F086FE2449254802F082FE57
:101DF00024492A2002F040FC23492B2002F03CFC1D
:101E00002249312002F038FC21492E2002F034FC16
:101E100020491E2002F030FC1F4D29463E2003F0D1
:101E20004BFB29463F2003F047FB2046BDE8F081ED
:101E300000D000405D1F200000900D40711F200069
:101E400000A00D40851F200000B00D40991F20000C
:101E500000C00D40F11F20000000034005202000BD
:101E6000192020002D202000291B20003D1B2000D0
:101E7000511B2000651B200000800040791B2000C2
:101E800000900040951B2000A91B2000BD1B2000D6
:101E9000D11B2000E51B2000F91B200000C00040E2
:101EA000012800D0704708B54FF6FF73994200D063
:101EB00008BD0248FFF71AFFFAE700BF9847002065
:101EC000F8B505460F46012102F086F806460121C5
:101ED000284602F0B1F90446F1B2284602F092F821
:101EE000E1B2284602F0D8F9344314F0010F03D0D0
:101EF000386808B1FFF775FC14F0020F03D078685A
:101F000008B1FFF76EFC14F0040F03D0B86808B1F5
:101F1000FFF767FC14F0080F03D0F86808B1FFF76B
:101F200060FC14F0100F03D0386908B1FFF759FCBA
:101F300014F0200F03D0786908B1FFF752FC14F0B9
:101F4000400F03D0B86908B1FFF74BFC14F0800FC5
:101F500003D0F86908B1FFF744FCF8BD08B50249A1
:101F60000248FFF7ADFF08BDE846002000900D4095
:101F700008B502490248FFF7A3FF08BD0847002043
:101F800000A00D4008B502490248FFF799FF08BDBF
:101F90002847002000B00D4008B502490248FFF76D
:101FA0008FFF08BD4847002000C00D4038B50E4DDA
:101FB0000121284602F016FA04460146284602F09E
:101FC00025FA0A4B186810B114F0170F06D1074B09
:101FD000586810B114F4706F03D138BD00F0F8FAEE
:101FE000F5E700F0F5FAF8E7000003407447002039
:101FF00008B502490248FFF7D9FF08BD7447002021
:102000000000034008B502490248FFF7CFFF08BDB2
:102010007C4700200010034008B502490248FFF742
:10202000C5FF08BD844700200020034008B50249D1
:102030000248FFF7BBFF08BD8C470020003003407B
:1020400008B54FF6FF710120FFF72AFF08BD0022F7
:10205000027042608260C2600261704708B54FF44E
:10206000A06002F08FFF4FF4A06002F0A9FF4FF4D0
:10207000A06002F0C3FF234B14221A6008333F22F2
:102080001A60043355221A60103B85221A601833F7
:1020900001221A60103315221A601B4910200860B3
:1020A00004310E2008600431032008608439F820D0
:1020B000086001F5C871092008601A600B2204232A
:1020C0001A60FF21114B1960A3F5B8734020186006
:1020D0000F48036823F0010303600E4B00201860D3
:1020E00048337F20186003F5F473ED201860186002
:1020F000EE2018601860A3F5FC731960043B1A60A9
:1021000008BD00BFA4860840D486084094870840D4
:10211000008608400886084001230370014BE32233
:102120001A60704738880840C1600261704700003B
:1021300010B50446FFF76AFD2046FFF7D1FD0A4AB5
:10214000136843F0070313600432136843F002037B
:102150001360064B7F221A60E0212A2002F0F0F97A
:102160002A2002F00FFA10BD8C86084094860840A1
:102170000B3901EB81010B31014B1960704700BF36
:102180003C860840074B1B6813F0020FFAD1052369
:102190000370054BE9221A60024B1B6813F0020F13
:1021A000FAD070474C86084038880840134B1B68AB
:1021B00013F0020FFAD10378DBB2012B15D1931C77
:1021C000D8B2931EDBB27B2B12D810B40C4BEE248A
:1021D0001C601C60103B1860002393420BD2CC5C47
:1021E000084804600133DBB2F7E74FF0FF30704777
:1021F0004FF0FF307047002010BC70474C860840FD
:1022000038880840288808402DE9F0410446254FC9
:102210003D68254ED6F800802A2002F0F3F900230D
:102220003B60336015F0020F07D02378DBB2022B3E
:1022300013D02378DBB2052B18D015F0400F03D054
:102240002378DBB2032B1AD018F0020F03D02378C7
:10225000DBB2062B1CD0BDE8F08160680028E8D016
:102260000323237003681B689847E6E7E0680028AB
:10227000E3D00623237003681B689847DDE7A06856
:102280000028E1D00423237003681B689847DBE72C
:1022900020690028DFD00723237003681B68984754
:1022A000D9E700BF348808403088084038B5074C6B
:1022B00025682B2002F0A6F923682B4013F0020FAB
:1022C00002D06FF00202226038BD00BF9486084041
:1022D000016000224260826070470000F8B5054648
:1022E000134B1C68134E3768312002F08BF9002322
:1022F000336004EA070313F0100F09D0336823F0AA
:1023000010033360A86810B103681B689847F8BDD4
:1023100013F0080FFBD0074A136823F0080313607B
:1023200068680028F3D003681B689847EFE700BF90
:10233000088808400C88084008B503681B6898475F
:1023400008BD08B503685B68984708BD00B583B051
:1023500069460B48FFF7BCF99DF804009DF805306D
:102360001B0443EA00639DF8060043EA00239DF83E
:102370000700184305F0E6F803B05DF804FB00BF62
:10238000FC45002008B505F00FF980B208BD00003B
:10239000014B0360704700BFB496200010B504469F
:1023A000FFF7F6FF014B2360204610BDC4962000C6
:1023B000016000224260704710B401604260836097
:1023C000019BC36000230361436110BC70472DE98A
:1023D000F04782B004468A461E460A9F914622B1C3
:1023E00037B1BA4206D9904600E0B846002508E069
:1023F0009046FBE7B846F9E7FF2109E00023735553
:102400000135A84518D9B9F1000FF5D01AF8051013
:10241000E368586802F0C0FBE368586802F032FCD9
:102420000028F9D1E36801A9586802F0DDFB002F0C
:10243000E4D09DF80430E2E7012002B0BDE8F08767
:102440002DE9F04585B01E46FF238DF80F308DF83D
:102450000E30B14279D0054688461746C3685868A1
:102460003C4B984207D003F5805398426FD1182413
:102470004FF0190A02E00A244FF00B0A002F3BD05C
:10248000022102F0CDFB4FF04041504602F03EFFEA
:10249000EB685B680097083342460121504602F022
:1024A0005DFF0C9B002B3BD0EB680121586802F0CC
:1024B000B7FB4FF04061204602F028FFEB685A68F6
:1024C0000C9B0093334608320121204602F046FF60
:1024D000204602F003FF504602F000FF204602F0C3
:1024E000C3FF0028FAD1EB680321586802F0B0FB63
:1024F000012005B0BDE8F085022102F091FB4FF00C
:102500004C41504602F002FFEB685B680C9A009267
:1025100008330DF10F020121504602F01FFFC0E702
:10252000EB680121586802F07BFB4FF04C412046DC
:1025300002F0ECFEEB685A6800970DF10E030832CA
:102540000121204602F00AFFC2E70020D1E7002067
:10255000CFE700BF0080004000B583B0049C9DF829
:10256000145015B10094FFF76BFF0094FFF72FFF95
:10257000FBE7406920B108B503681B68984708BDB0
:102580007047006920B108B503681B68984708BD0B
:10259000704738B50546C3680121586802F0CCFA87
:1025A0000446EB680146D86802F0E0FA14F0080F20
:1025B00003D114F0040F04D138BD2846FFF7E1FF22
:1025C000F7E72846FFF7D5FFF6E7002202807047BD
:1025D000406820B108B503681B68984708BD70477C
:1025E00010B5044601604260836000210C3000F0A9
:1025F00089F9002104F1100000F084F9002104F1B0
:10260000140000F07FF90023A361E36184F8203017
:1026100084F82130204610BDF8B504460F46006806
:10262000FFF781F806466068FFF77DF805460FB1B1
:10263000A3681F61A368186802F0A4FCA368186867
:1026400002F0BEFCA368186802F0D8FCA3685868C2
:1026500002F040FDA3689968586802F025FEB26850
:102660003179306802F096F8AA682979286802F072
:1026700033F83179306801F051FD2979286801F08B
:1026800075FDA3689B6813B1012B1DD0FEE702F016
:1026900043FB0146A5686B692A69686802F036FD4C
:1026A000A36820220021586802F0D6FCA36858686D
:1026B00002F060FDA3681021586802F06DFDA36868
:1026C000586802F0EFFCF8BD02F06CFB0146A5680B
:1026D0006B692A69686802F019FDE1E7F8B50746F9
:1026E0000C4616460025B54207D2BB6814F8011BFC
:1026F000586802F06FFD0135F5E70020F8BD38B5E8
:10270000054683680121586802F0AAFD0446AB68BB
:102710000146586802F0B8FD14F0200F0CD114F0F7
:10272000500F08D0C4F3801485F82040A86910B178
:1027300003681B68984738BD05F1140000F0CAF81B
:10274000EDE70160704700BFFDE700BFFDE7000057
:1027500008B5FF21074801F093FCFF21064801F06E
:102760008FFCFF21054801F08BFCFF21044801F09C
:1027700087FC08BD00900D4000A00D4000B00D404A
:1027800000C00D4008B502F089FBFCE700B583B03E
:102790001A4BFF221A601A4B1A4A1A601A4B0193FD
:1027A0001A4B1A681A4B9A4204D1019B5A1E019285
:1027B000002BF5D1124B00221A60164A136843F021
:1027C00001031360144B154A03E052F8041B43F84D
:1027D000041B13498B42F8D3124B134A934204D281
:1027E00000221A6053F8042BF7E7FFF7B1FF04F05B
:1027F000BFFDFDF71DFEFFF7C5FF00BFB4200D4074
:1028000004300020BBAABBAA80841E000030002038
:102810004812F0A598200D4000400020E89A2000C2
:10282000EC410020EC410020645A002008B5FFF77D
:10283000ADFF406820B108B503681B68984708BD24
:10284000704710B50446012000F054FA206008B12A
:10285000204610BDFEE710B50446006800F06EFB90
:10286000204610BD08B500F027FD08BD08B54FF49F
:102870007A7303FB00F0034BA3FB0030800900F0E8
:1028800069FE08BDD34D621000220260704710B58A
:102890000446006800F052FB204610BD08B539B16F
:1028A000006800F08BFA012814BF0020012008BD49
:1028B0004FF0FF31006800F081FA012814BF0020BA
:1028C0000120F4E708B500231A461946006800F015
:1028D00053F908BD00B583B00023019301A9006836
:1028E00000F013FA019B3BB1054B4FF080521A6088
:1028F000BFF34F8FBFF36F8F03B05DF804FB00BFD2
:1029000004ED00E038B504460D46FFF7BDFF032295
:102910000021012000F00CF9206010B115B920460B
:1029200038BDFEE72046FFF7CDFFF8E720B108B538
:10293000C2680069904708BD7047000010B582B0BA
:102940000446416083600498E0600598206101942A
:1029500000932346024800F07DFC204602B010BDE3
:102960002D2920000346406A18B11B6B1868C0F17E
:102970000500704710B5044601F08CF8A26BE36BBC
:102980009A4204D0002401F0A7F8204610BD01248B
:10299000F9E710B5044601F07DF8A36B23B90124D3
:1029A00001F09AF8204610BD0024F9E770B50446FE
:1029B0001546866B026C5AB903681BB100200136BC
:1029C000A66370BD806800F045FF0023A360F6E7B2
:1029D0006DB9406804F0F0FC226C636813446360D6
:1029E000A268934219D3236863602846E7E7C0686A
:1029F00004F0E2FC226C5142E3689B1AE360226817
:102A0000934202D2A3680B44E360022D01D0002060
:102A1000D5E726B1013E0020D1E72846CFE70020C8
:102A2000CDE738B5054601F035F895F8454064B274
:102A300003E000F0ADFE013C64B2002C08DD6B6ADF
:102A400033B105F1240000F00FFE0028F3D0F0E7C9
:102A5000FF2385F8453001F03FF801F01BF895F8A9
:102A6000444064B203E000F093FE013C64B2002CE9
:102A700008DD2B6933B105F1100000F0F5FD0028E9
:102A8000F3D0F0E7FF2385F8443001F025F838BD96
:102A900038B5E0B10D46044600F0FCFF2168E26B5A
:102AA000236C03FB0210A0600020A0636160013A68
:102AB00002FB0313E360FF2384F8443084F84530BD
:102AC000EDB9236963B901F007F8012038BD4FF073
:102AD000A00383F31188BFF36F8FBFF34F8FFEE71F
:102AE00004F1100000F0C0FD0028ECD0084B4FF0BE
:102AF00080521A60BFF34F8FBFF36F8FE3E704F18B
:102B0000100001F065F904F1240001F061F9DAE741
:102B100004ED00E010B5034602980C4631B90060A0
:102B2000C36304640121FFF7B3FF10BD0260F7E740
:102B300040B94FF0A00383F31188BFF36F8FBFF349
:102B40004F8FFEE7F0B583B00C461646074689B1B5
:102B500001FB00F0483001F0CDF8054638B1009097
:102B6000334600F1480221463846FFF7D3FF284696
:102B700003B0F0BD0846EDE7F0B585B0019238B17D
:102B80000E461D46044661B1022D16D000275CE0BA
:102B90004FF0A00383F31188BFF36F8FBFF34F8F04
:102BA000FEE7036C002BEFD04FF0A00383F31188F6
:102BB000BFF36F8FBFF34F8FFEE7E36B012B08D09E
:102BC0004FF0A00383F31188BFF36F8FBFF34F8FD4
:102BD000FEE7002739E02A4631462046FFF7E6FEA9
:102BE000626A6AB938B13C4B4FF080521A60BFF349
:102BF0004F8FBFF36F8F00F06FFF012005B0F0BD66
:102C000004F1240000F030FD0028F4D0324B4FF0E6
:102C100080521A60BFF34F8FBFF36F8FEBE700F066
:102C20005BFF0020EAE702A800F064FD012719E03D
:102C3000002384F8443021E0002384F8453023E069
:102C40002046FFF7EEFE00F009FC00F023FFA26B28
:102C5000E36B9A42BFD3022DBDD0019B002BDED087
:102C6000002FE0D000F038FF00F064FB00F012FF0E
:102C700094F844305BB2B3F1FF3FD9D094F84530BB
:102C80005BB2B3F1FF3FD7D000F026FF01A902A845
:102C900000F03CFDC8B92046FFF76CFE0028CFD0FD
:102CA000019904F1100000F0C7FC2046FFF7B9FEBF
:102CB00000F0D4FB0028C8D1074B4FF080521A60B7
:102CC000BFF34F8FBFF36F8FBFE72046FFF7A9FE1B
:102CD00000F0C4FB002091E704ED00E048B110B51E
:102CE000002181600160C1600B460A46FFF744FF86
:102CF00010BD704710B5024600210120FFF718FFF4
:102D00000446FFF7EBFF204610BD68B170B50E46D4
:102D10000446036C8BB14FF0A00383F31188BFF31B
:102D20006F8FBFF34F8FFEE74FF0A00383F311883F
:102D3000BFF36F8FBFF34F8FFEE70368EBB100F077
:102D400095FFEFF311854FF0A00383F31188BFF3D4
:102D50006F8FBFF34F8FA26BE36B934226D994F82A
:102D600045305BB20132A263B3F1FF3F11D00133B2
:102D70005BB284F84530012019E08368002BDED077
:102D80004FF0A00383F31188BFF36F8FBFF34F8F12
:102D9000FEE7636A0BB9012009E004F1240000F0AA
:102DA00063FC38B146B10120306000E0002085F3BB
:102DB000118870BD0120FAE70120F8E770B584B0F2
:102DC000019158B10446036C8BB14FF0A00383F31B
:102DD0001188BFF36F8FBFF34F8FFEE74FF0A00353
:102DE00083F31188BFF36F8FBFF34F8FFEE700258A
:102DF0002E4651E0013BA36323683BB123694BB9E5
:102E000000F06AFE0125284604B070BD00F0DEFD2A
:102E1000A060F3E704F1100000F026FC0028EFD0DA
:102E2000454B4FF080521A60BFF34F8FBFF36F8F47
:102E3000E6E745B14FF0A00383F31188BFF36F8F2E
:102E4000BFF34F8FFEE700F047FEDCE702A800F07B
:102E500051FC01262AE0002384F8443032E00023AC
:102E600084F8453034E000F015FEA06800F096FCD0
:102E7000054600F031FE3BE02046FFF7D2FD00F0B2
:102E8000EDFA09E02046FFF7CCFD00F0E7FA204616
:102E9000FFF77FFD002840D100F0FCFDA36B002B65
:102EA000A8D1019B002BC4D0002ECFD000F014FE7F
:102EB00000F040FA00F0EEFD94F844305BB2B3F15C
:102EC000FF3FC8D094F845305BB2B3F1FF3FC6D0A6
:102ED00000F002FE01A902A800F018FC0028D1D1E0
:102EE0002046FFF756FD0028C6D02368002BBAD035
:102EF000019904F1240000F09FFB2046FFF791FDAB
:102F000000F0ACFA0028C7D10B4B4FF080521A608A
:102F1000BFF34F8FBFF36F8FBEE70DB9002572E788
:102F200000F0B8FD2046FFF71DFD0146A06800F047
:102F3000EBFC00F0D1FDF1E704ED00E008B510B1C5
:102F400000F028FF08BD4FF0A00383F31188BFF302
:102F50006F8FBFF34F8FFEE7084B1B681B6823B9C9
:102F6000074B4FF0FF321A607047044B1B68DB6859
:102F7000DB685A68024B1A60704700BFA047002008
:102F80005048002010B50446006B00F003FF2046B7
:102F900000F000FF10BD2DE9F047089DDDF824800A
:102FA0000A9C61B106461F460846216B02F1804328
:102FB000013B01EB830323F00709002309E04FF0F5
:102FC000A00383F31188BFF36F8FBFF34F8FFEE72A
:102FD00001330B2B06D8C15CE21882F83410C25CB6
:102FE000002AF5D1002384F83F30042D00D90425B0
:102FF000E56225644FF0000AC4F844A0201D00F0EB
:10300000F2FE04F1180000F0EEFE2461C5F10505A2
:10301000A5616462C4F848A084F84CA03A463146E1
:10302000484600F011FD2060B8F1000F01D0C8F84B
:103030000040BDE8F087000038B50024042C08D813
:1030400004EB840293000E48184400F0C1FE0134E2
:10305000F4E70C4D284600F0BBFE0B4C204600F078
:10306000B7FE0A4800F0B4FE094800F0B1FE094876
:1030700000F0AEFE084B1D60084B1C6038BD00BF61
:10308000A847002024480020384800205848002045
:103090008448002070480020A0470020A44700205A
:1030A00010B5044600F0F6FC204A136801331360A3
:1030B0001F4B1B685BB11F4B1B686BB91C4B1B681C
:1030C000DA6AE36A9A4207D8194B1C6004E0184B8D
:1030D0001C601368012B26D0174A13680133136054
:1030E000E06A01238340154A11680B43136000EB2B
:1030F0008000211D124B03EB800000F077FE00F0F2
:10310000EBFC0C4B1B686BB1094B1B68DA6AE36A7A
:103110009A4207D20B4B4FF080521A60BFF34F8F89
:10312000BFF36F8F10BDFFF787FFD5E70C48002076
:103130009C4700206C4800201C48002020480020AC
:10314000A847002004ED00E00F4B1B68D3B110B579
:1031500000F0A0FC0D4BDB68DC68201D00F06BFE6E
:103160000B4A1368013B1360074A1368013B136065
:1031700000F0B2FC2046FFF705FF034B1B68002B55
:10318000E6D110BD704700BF1048002084480020E1
:103190000C48002008B5FFF7D7FF064B1B68012B32
:1031A000F9D9054B4FF080521A60BFF34F8FBFF330
:1031B0006F8FF0E7A847002004ED00E070B50446EB
:1031C0000D461D4B1E681D4B1868043000F033FE81
:1031D00050B91A4B1B68DA6A012303FA02F2184944
:1031E0000B6823EA02030B60B4F1FF3F0DD03444B7
:1031F000124B1B685C60A64210D9124B18680F4B2B
:103200001968043100F0FEFD70BD002DEFD00B4BAE
:10321000196804310C4800F0E9FDF5E70B4B18681C
:10322000064B1968043100F0EDFD094B1B68A34201
:10323000EAD9074B1C60E7E7984800209C4700202C
:1032400020480020A447002070480020A04700200C
:10325000504800202DE9F04385B0074688461446C3
:103260001E46900000F046FDF0B18146502000F06F
:1032700041FD0546A0B1C0F83090D5B100230393BD
:1032800002950D9B01930C9B0093334622464146C9
:103290003846FFF780FE2846FFF702FF012005E0D1
:1032A000484600F077FDE8E74FF0FF3005B0BDE895
:1032B000F0834FF0FF30F9E700B583B0174B01936F
:1032C00000230093802216491648FFF7C3FF012808
:1032D00005D0B0F1FF3F17D003B05DF804FB4FF00D
:1032E000A00383F31188BFF36F8FBFF34F8F0E4B93
:1032F0004FF0FF321A600D4B01221A600C4B002276
:103300001A6000F057FCE7E74FF0A00383F3118841
:10331000BFF36F8FBFF34F8FFEE700BF4C48002015
:10332000CC96200095312000504800206C480020A9
:1033300098480020024A136801331360704700BFA9
:1033400018480020F8B53A4B1B68002B64D1394B64
:103350001D6801351D60C5B9374B1B681B6843B13B
:103360004FF0A00383F31188BFF36F8FBFF34F8F2C
:10337000FEE7314A1168314B186810601960304A15
:10338000136801331360FFF7E7FD2E4B1B68AB4258
:1033900038D900242C4B1B68DB6A03EB83039A00AB
:1033A0002A4B9B58012B3CD901243AE00124224BA3
:1033B0001B681B6843B3204B1B68DB68DE687368BF
:1033C0009D4226D3371D384600F035FDB36A1BB148
:1033D00006F1180000F02FFDF36A01229A401C4903
:1033E000086802430A6003EB83039A0039461748D2
:1033F000104400F0FBFCF26A134B1B68DB6A9A4234
:10340000D4D2D4E70024D2E70E4B4FF0FF321A603B
:10341000C0E70C4A1360BDE70E4A1368013313601E
:1034200000240D4B1B6803B101242046F8BD00BFEA
:103430001848002098480020A0470020A4470020FA
:1034400054480020504800209C470020A8470020F6
:1034500020480020144800209C48002038B5344BF8
:103460001B6843B94FF0A00383F31188BFF36F8F3C
:10347000BFF34F8FFEE700F00DFB2D4B1A68013AAA
:103480001A601B68002B4DD12A4B1B680BB9002416
:1034900049E00024284B1B681BB3274BDB68DC6822
:1034A00004F1180000F0C7FC251D284600F0C3FCFD
:1034B000E06A01238340214A11680B43136000EB4B
:1034C000800029461E4B03EB800000F08FFCE26A6F
:1034D0001C4B1B68DB6A9A42DCD31B4B01221A602F
:1034E000D8E70CB1FFF738FD184B1C6874B9164BC0
:1034F0001C68C4B1164B4FF080521A60BFF34F8F57
:10350000BFF36F8F01240EE0013C07D0FFF71AFFD5
:103510000028F9D00C4B01221A60F5E70B4B002272
:103520001A60E4E7002400F0D7FA204638BD00BF57
:10353000184800200C48002058480020204800204F
:10354000A84700209C4700209C48002014480020E9
:1035500004ED00E010B5A8B104460F4B1B6843B161
:103560004FF0A00383F31188BFF36F8FBFF34F8F2A
:10357000FEE7FFF7DFFE00212046FFF71FFEFFF703
:103580006DFF38B9054B4FF080521A60BFF34F8F73
:10359000BFF36F8F10BD00BF1848002004ED00E09E
:1035A000204B1B681BB1204B01221A6070471E4B39
:1035B00000221A601D4B1B68B3FA83F3DBB2C3F120
:1035C0001F0303EB83018A0019498A5842B94FF05F
:1035D000A00383F31188BFF36F8FBFF34F8FFEE714
:1035E00010B4134903EB830082000A44506840681A
:1035F000506003EB8304A200144608321144884251
:103600000AD003EB83039A00094B13445B68DA6822
:10361000084B1A6010BC70474068054A224450604D
:10362000EFE700BF184800209C48002020480020F9
:10363000A84700209C47002058B110B50C46094B04
:103640001968183100F0DEFB01212046FFF7B6FDB6
:1036500010BD4FF0A00383F31188BFF36F8FBFF34A
:103660004F8FFEE79C47002038B5C368DC6824B361
:1036700004F11805284600F0DEFB184B1B682BBB35
:10368000251D284600F0D7FBE06A01238340144A39
:1036900011680B43136000EB80002946114B03EBCC
:1036A000800000F0A3FBE26A0F4B1B68DB6A9A42C2
:1036B00011D901200D4B18600EE04FF0A00383F3E9
:1036C0001188BFF36F8FBFF34F8FFEE7294608487D
:1036D00000F08CFBE7E7002038BD00BF1848002051
:1036E00020480020A84700209C4700209C4800203C
:1036F00058480020034B1B680360034B1B68436062
:10370000704700BF5448002098480020F8B5C8B161
:103710000C460546F9B100F0BDF91B4B19686B6802
:10372000C81A2268B2F1FF3F26D02F68174E3668BC
:10373000B74201D08B4224D9824215D8002323609E
:1037400001241AE04FF0A00383F31188BFF36F8FB9
:10375000BFF34F8FFEE74FF0A00383F31188BFF351
:103760006F8FBFF34F8FFEE75B1A13442360284629
:10377000FFF7C0FF002400E0002400F0ADF9204670
:10378000F8BD0124F9E700BF984800205448002004
:10379000014B01221A6070479C48002000284FD03E
:1037A00038B50446C36A284A1268D26A93423FD2A7
:1037B0008269002A05DB244A1268D26AC2F1050236
:1037C0008261616903EB8303204A02EB8303994220
:1037D00005D01D4B1B68DB6AE362012038BD251D47
:1037E000284600F028FB70B9E26A02EB82039B00D6
:1037F0001649CB583BB9012303FA02F214490B686E
:1038000023EA02030B60104B1B68D86AE0620124B4
:1038100004FA00F30E4A11680B43136000EB8000BA
:1038200029460A4B03EB800000F0E0FA2046D5E77A
:10383000026C054B1B68DB6A9A4203D30020CDE77C
:10384000002070470120C9E79C470020A8470020BE
:103850002048002000284CD038B50446274B1B6870
:10386000834208D04FF0A00383F31188BFF36F8F1A
:10387000BFF34F8FFEE7436C43B94FF0A00383F3D0
:103880001188BFF36F8FBFF34F8FFEE7013B436497
:10389000C16A026C91422ED00BB1002038BD051DCB
:1038A000284600F0C8FA70B9E26A02EB82039B0076
:1038B0001349CB583BB9012303FA02F211490B68B3
:1038C00023EA02030B60206CE062C0F10503A361F0
:1038D000012404FA00F30B4A11680B43136000EB58
:1038E00080002946064B03EB800000F07FFA20465B
:1038F000D4E7002070470020D0E700BF9C4700209D
:10390000A847002020480020002857D038B50A4694
:103910000446416C41B94FF0A00383F31188BFF313
:103920006F8FBFF34F8FFEE7036C934200D21346B5
:10393000E26A9A4201D0012900D038BD20490968C5
:10394000A14232D0E362A169002902DBC3F1050381
:10395000A361616902EB82021A4B03EB820291427E
:10396000EBD1251D284600F066FA70B9E26A02EB39
:1039700082039B001349CB583BB9012303FA02F29F
:1039800011490B6823EA02030B60E06A01238340BC
:103990000D4A11680B43136000EB80002946094B68
:1039A00003EB800000F022FAC7E74FF0A00383F397
:1039B0001188BFF36F8FBFF34F8FFEE7704700BFD3
:1039C0009C470020A847002020480020054B1B688A
:1039D00023B1044B1A68536C01335364014B1868CC
:1039E000704700BF9C47002082B0002301930D4B1D
:1039F0001B68B3F1FF3F08D04FF0A00383F3118899
:103A0000BFF36F8FBFF34F8FFEE74FF0A00383F339
:103A10001188BFF36F8FBFF34F8F019B002BFCD03A
:103A200002B070477C41002006480068006880F3BF
:103A3000088862B661B6BFF34F8FBFF36F8F00DFA8
:103A400000BF000008ED00E04FF0807340F8043C38
:103A500021F0010140F8081C034B40F80C3C40F8F1
:103A6000202C4038704700BFE939200000000000DA
:103A7000074B19680868B0E8F00F80F30988BFF3B6
:103A80006F8F4FF0000080F311884EF00D0E7047DD
:103A90009C4700204FF0A00383F31188BFF36F8F82
:103AA000BFF34F8F0A4A136801331360012B00D014
:103AB0007047084B1B6813F0FF0FF9D04FF0A003BD
:103AC00083F31188BFF36F8FBFF34F8FFEE700BF03
:103AD0007C41002004ED00E0094B1B6843B94FF026
:103AE000A00383F31188BFF36F8FBFF34F8FFEE7FF
:103AF000013B034A13600BB983F31188704700BF81
:103B00007C410020000000000000000000000000D8
:103B1000EFF30980BFF36F8F0D4B1A6820E9F00FA8
:103B200010602DE908404FF0A00080F31188FFF7E6
:103B300037FD4FF0000080F31188BDE80840196898
:103B40000868B0E8F00F80F30988BFF36F8F704703
:103B50009C47002008B54FF0A00383F31188BFF302
:103B60006F8FBFF34F8FFFF7EDFB18B1034B4FF093
:103B700080521A60002383F3118808BD04ED00E031
:103B800010B5084C00232360074A136001F0C4F805
:103B9000064BA3FB00239B09013B054A1360072347
:103BA000236010BD10E000E018E000E0D34D62108B
:103BB00014E000E010B582B0274B1A78D2B201921F
:103BC000FF221A701B78DBB28DF803309DF80330AA
:103BD00003F0A003214A1370214B07221A609DF8BD
:103BE000033013F0800F0AD01D4A1368013B1360A5
:103BF0009DF803305B00DBB28DF80330EFE7184B24
:103C00001B68042B08D04FF0A00383F31188BFF387
:103C10006F8FBFF34F8FFEE71B0203F4E063104A80
:103C20001360019BDBB20C4A13700E4B1A6842F40E
:103C300060021A601A6842F060421A60FFF7A0FF43
:103C40000024094B1C60FFF7EFFEFFF7A9FCFFF70C
:103C5000CBFE204602B010BD00E400E0A0480020EA
:103C6000A448002020ED00E07C410020EFF3058314
:103C70000F2B0FD9104A9B5CDBB2104A12789A4284
:103C800008D94FF0A00383F31188BFF36F8FBFF300
:103C90004F8FFEE70A4B1B6803F4E063094A126882
:103CA000934208D94FF0A00383F31188BFF36F8FBD
:103CB000BFF34F8FFEE77047F0E300E0A04800201D
:103CC0000CED00E0A4480020074B23F00703074A4F
:103CD000136000205060064A40F6F8715160106091
:103CE00059601A60704700BFB0480020B4580020E7
:103CF000A858002070B50446FFF71CFB214B1B6839
:103D00007BB134B1083414F0070F02D024F007045B
:103D10000834621E40F6F6739A422FD81A4D2B686B
:103D200007E0FFF7D1FF174B01221A60E9E71D46B4
:103D300013465968A14202D21A68002AF7D1134AE1
:103D400093421DD02E6808361A682A60091B102974
:103D50000BD91D1969605C606C680B4A10461268CB
:103D60005168A142FAD32A6005605968084A13686D
:103D70005B1A1360FFF772FB304670BD0026F9E74F
:103D80000026F7E7B0580020B4580020A8580020BB
:103D900080410020B8B138B50446A0F10805FFF70E
:103DA000C9FA54F8041C084B18461B685A688A4222
:103DB000FAD344F8083C0560044A136819441160BA
:103DC000FFF74CFB38BD7047B458002080410020FD
:103DD00000F1080343604FF0FF328260C36003616B
:103DE00000230360704700230361704743684B6002
:103DF0009A688A609A685160996008610368013323
:103E00000360704730B40D68B5F1FF3F11D000F189
:103E100008031C465B681A68AA42FAD963684B60BB
:103E200099608C606160086103680133036030BC95
:103E300070470469F2E70369416882688A605160EB
:103E40005968814206D0002202611A68013A1A605C
:103E5000186870475A60F6E7FEE700000C4B98427E
:103E60000FD003F5805398420DD003F5805398424C
:103E70000BD003F58053984201D0002070470120F9
:103E8000704701207047012070470120704700BF34
:103E900000900D4010B50446FFF7E0FF60B1104BF5
:103EA0009C4218D00DD90F4B9C4216D003F580537D
:103EB0009C420ED113200BE062210B48FFF7CCFF90
:103EC000EDE7A3F580539C4201D1102000E00020D3
:103ED00010BD0020FCE71120FAE71220F8E700BF30
:103EE00000A00D4000B00D40D496200070B50446EF
:103EF0000D461646FFF7B2FF90B1022E15D816F008
:103F0000010F17D0D4F800342B43C4F8003416F056
:103F1000020F14D0D4F820341D43C4F8205470BDCF
:103F2000B5210948FFF798FFE7E7B7210648FFF7F3
:103F300093FFE4E7D4F8003423EA0503E5E7D4F877
:103F4000203423EA0505E8E7D496200070B504463E
:103F50000E461546FFF782FF08B33DB1042D05D08C
:103F6000012D03D0022D01D0072D1ED115F0010F18
:103F700021D0D4F808343343C4F8083415F0020FC4
:103F80001ED0D4F804343343C4F8043415F0040FBD
:103F90001BD0D4F80C341E43C4F80C6470BD40F23E
:103FA00019110C48FFF758FFD7E74FF48E710948F5
:103FB000FFF752FFDAE7D4F8083423EA0603DBE719
:103FC000D4F8043423EA0603DEE7D4F80C3423EAF9
:103FD0000606E1E7D496200038B504460D46FFF703
:103FE0003DFF18B145B1D4F8180438BD4FF4D57170
:103FF0000348FFF731FFF5E7D4F81404F5E700BFF5
:10400000D496200038B504460D46FFF727FF10B1BF
:10401000C4F81C5438BD4FF4EC710248FFF71CFF84
:10402000F6E700BFD496200038B504460D46FFF7EA
:1040300015FF50B12046FFF72DFF0446294600F03A
:104040001BFB204600F09EFA38BD4FF4FD7102487C
:10405000FFF702FFEEE700BFD496200070B50446DC
:104060000D461646FFF7FAFE10B144F8256070BD04
:104070004FF41C710148FFF7EFFEF6E7D4962000DD
:1040800038B504460D46FFF7E9FE50B10022294637
:104090002046FFF72BFF00222946204600F094FC23
:1040A00038BD4FF424710248FFF7D6FEEEE700BF9B
:1040B000D496200038B504460D46FFF7CFFE50B128
:1040C000012229462046FFF711FF002229462046FB
:1040D00000F07AFC38BD40F2B5210248FFF7BCFE83
:1040E000EEE700BFD496200038B504460D46FFF732
:1040F000B5FE50B1022229462046FFF7F7FE002206
:104100002946204600F060FC38BD40F2DD2102481F
:10411000FFF7A2FEEEE700BFD496200038B50446B4
:104120000D46FFF79BFE68B10E4B9C4210D0022259
:1041300029462046FFF7DAFE00222946204600F0F5
:1041400043FC38BD40F25B310748FFF785FEEBE7E3
:1041500015F00F0FEBD04FF457710348FFF77CFEBB
:10416000E5E700BF00B00D40D496200038B5044606
:104170000D46FFF773FE68B10E4B9C4210D0022231
:1041800029462046FFF7B2FE08222946204600F0C5
:104190001BFC38BD40F285310748FFF75DFEEBE7B9
:1041A00015F00F0FEBD040F286310348FFF754FEB5
:1041B000E5E700BF00B00D40D496200070B504467E
:1041C0000D461646FFF74AFEA8B1012E19D8164B28
:1041D0009C421CD00023154A94421AD0144A94429F
:1041E00019D09D40012E18D0D4F8043723EA0505D4
:1041F000C4F8045770BD40F2BE310E48FFF72CFEE4
:10420000E3E74FF470710B48FFF726FEDFE7082362
:10421000E1E71023E2E71823E3E7D4F804371D436E
:10422000C4F80457E6E700BF00A00D4000B00D4001
:1042300000C00D40D496200038B504460D46FFF767
:104240000DFE78B1104B9C4212D000230F4A9442CD
:1042500010D00F4A94420FD085B1D4F81807D84037
:10426000C0B238BD40F2BA410A48FFF7F5FDE9E7B0
:104270000823EBE71023ECE71823EDE7D4F8200739
:10428000D840C0B2EDE700BF00A00D4000B00D4027
:1042900000C00D40D496200038B504460D46FFF707
:1042A000DDFD80B10E4B9C4213D000210D4B9C4292
:1042B00011D00D4B9C4210D08D40D4F818172943D3
:1042C000C4F8181738BD40F2FB410848FFF7C4FD99
:1042D000E8E70821EAE71021EBE71821ECE700BF47
:1042E00000A00D4000B00D4000C00D40D49620004D
:1042F00010B5044610F03F0F04D0054B186820435A
:10430000186010BD40F233510248FFF7A5FDF4E7F5
:1043100094200D40D49620000C4B98420FD003F50A
:10432000805398420DD003F5805398420BD003F58B
:104330008053984201D0002070470120704701202F
:104340007047012070470120704700BF0000034004
:1043500070B505460C461646FFF7DEFFA8B1FF2CE8
:1043600006D0B4F57F4F03D04FF6FF739C4212D1B5
:104370001A4B9D4217D003F580539D421BD003F585
:1043800080539D420DD033250EE040F23931144860
:10439000FFF762FDE3E740F23B311148FFF75CFDB8
:1043A000E6E7272500E0232514F0FF0F05D114F4DC
:1043B0007F4F0AD170BD2525F6E73146284600F02B
:1043C0005BF9284600F0DEF8F1E701353146284672
:1043D00000F052F9284600F0D5F8EBE70000034062
:1043E000E096200038B504460D46FFF795FF10B162
:1043F0003DB1206A38BD40F204410348FFF72CFD6F
:10440000F6E7E069F6E700BFE096200038B504461D
:104410000D46FFF781FF08B1656238BD40F22E41BD
:104420000148FFF719FDF7E7E0962000024A1368FC
:1044300043F01003136070472000024038B5044673
:104440000D46FFF7F3FF5DB1064B03EB83039A00C4
:104450001444013CB4FBF2F4013C034B1C6038BD36
:10446000024BF2E7801A06000C000240A086010011
:1044700008B50146182000F0FFF8182000F082F877
:1044800008BD000038B505460C4610F0800F04D179
:1044900044EA4504044B1C6038BD4FF41D710348C9
:1044A000FFF7DAFCF4E700BF00000240F0962000BE
:1044B000044B1B6813F0010F01D00120704700204E
:1044C000704700BF0400024010B5044607280BD017
:1044D000032809D0012807D0052805D0042803D0D7
:1044E0000B2801D0092802D1044B1C6010BD40F2FA
:1044F000DA210348FFF7B0FCF6E700BF04000240F2
:10450000F0962000074B186810F0010F05D110F04D
:10451000120F04D000F01C007047002070470020EC
:10452000704700BF04000240014B1860704700BF95
:1045300008000240014B1868704700BF08000240A5
:1045400038B504460D46031F3B2B10D8A2080B4B71
:1045500053F822100B6804F00304E400FF22A24089
:1045600023EA020305FA04F41C430C6038BD4FF43F
:10457000DE710348FFF770FCE8E700BF20972000DA
:10458000FC96200010B504463F2814D8042C18D0FF
:10459000052C1CD0062C20D00F2C24D00F2C15D984
:1045A000103C04F01F016409124B53F8242001232E
:1045B0008B4013600AE04FF4FB710F48FFF74CFC8F
:1045C000E4E70E4A136843F48033136010BD0B4ACE
:1045D000136843F400331360F8E7084A136843F4A0
:1045E00080231360F2E7064A136843F00203136066
:1045F000ECE700BF0C972000FC96200024ED00E0C3
:1046000010E000E010B504463F2810D80E2C14D05E
:104610000F2C18D00F2C15D9103C04F01F01640981
:104620000C4B53F8242001238B4013600AE040F226
:10463000AE210948FFF710FCE8E7084A136843F089
:104640000063136010BD054A136843F000731360E4
:10465000F8E700BFC4972000FC96200004ED00E0BE
:10466000044B1B6813F0010F01D00120704700209C
:10467000704700BF98200D4070B504460E463F2895
:1046800013D8FFF7EDFFA8B1104B1B68104DAB42DC
:1046900018D00E4B186800233F2B11D850F8231068
:1046A0000B4A42F823100133F6E7FE210948FFF7D1
:1046B000D3FBE6E74FF481710648FFF7CDFBE3E754
:1046C000024B1D60024B43F8246070BD08ED00E012
:1046D00000400020FC96200070B504460D461646AA
:1046E000244B98420BD003F58053984207D003F532
:1046F0008053984203D003F58053984202D135B1DC
:10470000002315E0FB211C48FFF7A6FBF7E7FC217F
:104710001948FFF7A1FBF3E7A2F58052944203D1B9
:10472000164A52F8232001E0A2F5A0421660013398
:10473000072B1ED845FA03F212F0010FF7D0104AEA
:1047400094420ED0E8D90F4A94420ED002F580521E
:10475000944203D10C4A52F82320E7E7A2F5004225
:10476000E4E70A4A52F82320E0E7094A52F82320F6
:10477000DCE770BD00900D40D89720000498200021
:1047800000A00D4000B00D40C498200044982000C7
:104790008498200070B505460C461646854B984215
:1047A0000BD003F58053984207D003F5805398420D
:1047B00003D003F58053984273D1631EDBB2012B03
:1047C0000BD9042C09D0082C07D0102C05D0202C94
:1047D00003D0402C01D0802C69D1774B9E423BD036
:1047E00004339E4238D004339E4235D004339E4277
:1047F00032D004339E422FD004339E422CD0043357
:104800009E4229D004339E4226D004339E4223D0B8
:1048100004339E4220D004339E421DD004339E4276
:104820001AD004339E4217D004339E4214D004336E
:104830009E4211D004339E420ED004339E420BD0D0
:1048400004339E4208D004339E4205D004339E4276
:1048500002D004339E4230D1584B9D4259D032D9B8
:10486000574B9D4276D003F580539D4243D1012C96
:1048700000F091800023022C00F08F80042C00F0C7
:104880008E80082C00F08D80102C00F08C80202C65
:1048900000F08B80402C00F08A80802C29D11F23CF
:1048A00027E040F26D114748FFF7D6FA85E740F25E
:1048B00071114448FFF7D0FA8FE74FF4C3714148B4
:1048C000FFF7CAFAC8E7A3F580539D4210D1022C26
:1048D00013D00023042C12D0082C12D0102C12D08C
:1048E000202C12D0402C12D0802C02D1072300E0C3
:1048F0000023336070BD0023FBE70123EAE70223B6
:10490000EAE70323EAE70423EAE70523EAE70623C5
:10491000EAE7012C10D00023022C0FD0042C0FD07A
:10492000082C0FD0102C0FD0202C0FD0402C0FD0E3
:10493000802CDED10F23DCE70823EDE70923EDE728
:104940000A23EDE70B23EDE70C23EDE70D23EDE75D
:104950000E23EDE7012C10D00023022C0FD0042CE5
:104960000FD0082C0FD0102C0FD0202C0FD0402CA3
:104970000FD0802CBDD11723BBE71023EDE7112307
:10498000EDE71223EDE71323EDE71423EDE71523FD
:10499000EDE71623EDE718236DE719236EE71A23D9
:1049A0006FE71B2370E71C2371E71D2372E71E23AB
:1049B00073E700BF00900D4000410D4000A00D4086
:1049C00000B00D40D897200070B504460D4616463D
:1049D000364B98420BD003F58053984207D003F52D
:1049E0008053984203D003F5805398420ED19DB175
:1049F000082E06D0042E04D0022E02D0012E00D0A4
:104A000086B92B4B9C4213D000232CE040F2592155
:104A10002848FFF721FAEAE740F25A212548FFF734
:104A20001BFAE5E740F25F212248FFF715FAE8E7B5
:104A300015F00F0FE8D0042E03D0022E01D0012E66
:104A4000E2D140F266211B48FFF706FADCE7A2F547
:104A50008052944203D1184A52F8232001E0A2F573
:104A60009F4216600133072B1ED845FA03F212F05D
:104A7000010FF7D0114A94420ED0E8D90C4A944263
:104A80000ED002F58052944203D10D4A52F82320F1
:104A9000E7E7A2F5FF42E4E70A4A52F82320E0E7FD
:104AA000094A52F82320DCE770BD00BF00900D409A
:104AB00000B00D40D8972000E497200000A00D40E2
:104AC000A49820002498200064982000074B1B68BD
:104AD000074A106843EA00230432106843EA00439F
:104AE0000432106843EA0060704700BF40500D4038
:104AF00044500D4038B504460D460D4B984203D046
:104B000003F5805398420BD1094B9C420DD03224BF
:104B100029462046FFF7B0FD2046FFF733FD38BD9C
:104B2000F6210448FFF798F9EEE71724F0E700BFF5
:104B300000800040E498200038B504460D46094B3B
:104B4000984203D003F58053984202D13DB1E06909
:104B500038BD40F281110448FFF77EF9F6E7A069FD
:104B6000F6E700BF00800040E498200038B5044616
:104B70000D46074B984203D003F58053984201D16C
:104B8000256238BD4FF4D8710248FFF765F9F7E7A1
:104B900000800040E498200038B504460D46104BD4
:104BA000984203D003F5805398420DD1226802F059
:104BB0000F026FF0010393402B420BD1E36813F017
:104BC000020FFBD0A56038BD4FF4E8710548FFF730
:104BD00043F9EBE74FF4E9710248FFF73DF9EDE7E0
:104BE00000800040E498200038B504460D460A4B8A
:104BF000984203D003F58053984206D1E36813F03E
:104C0000040FFBD0A3682B6038BD40F22721034876
:104C1000FFF722F9F2E700BF00800040E49820008F
:104C200038B504460D46084B984203D003F580532F
:104C3000984203D1616A2943616238BD40F27D2107
:104C40000248FFF709F9F5E700800040E4982000EA
:104C500038B504460D46094B984203D003F58053FE
:104C6000984204D1616A21EA0501616238BD4FF4BE
:104C700027710348FFF7F0F8F4E700BF0080004019
:104C8000E498200010B50446084B984203D003F581
:104C90008053984203D1E068C0F3001010BD40F289
:104CA000B9210348FFF7D8F8F5E700BF00800040BE
:104CB000E498200003281ED9B0F5807F1DD040F273
:104CC000011398421BD0B0F5007F1AD040F20123A7
:104CD000984218D0B0F5407F17D0B0F5806F16D04D
:104CE00040F20143984214D0B0F5A06F01D00020EB
:104CF0007047012070470120704701207047012054
:104D00007047012070470120704701207047012043
:104D100070470120704700000E4B1B6803F007032B
:104D2000072B05D8DFE803F01406080A0C0E101252
:104D30000020704708487047084870470848704787
:104D40000848704708487047084870470848704747
:104D50000848704704200D400024F40000127A0037
:104D600000093D0080841E0040420F0020A1070082
:104D700090D003000048E80110B50446072807D882
:104D8000064B186820F4E06040EA0420186010BD6B
:104D90004FF4B0710248FFF75FF8F1E700200D40D3
:104DA000F09820000E4B1B68C3F30223072B05D895
:104DB000DFE803F01406080A0C0E101200207047FA
:104DC00008487047084870470848704708487047C7
:104DD00008487047084870470848704708487047B7
:104DE00004200D400024F40000127A0000093D0068
:104DF00080841E0040420F0020A1070090D00300D5
:104E00000048E80101387FF4FDAF704770B50646F1
:104E10000D461446072A01D822B919B1D9211B48D9
:104E2000FFF71AF825B91A4A136843F40013136000
:104E3000174B1A68174B13400EB943F08073BDB17E
:104E40004FF480352B432343114A1360124B1B68E8
:104E5000002403F48033AB420CD04FF6FE739C4227
:104E600008D81020FFF7CEFF0B4B1B680134F0E78A
:104E70000025E7E74FF6FE739C4200D870BD4FF463
:104E800081710248FEF7E8FFF8E700BFF0982000C4
:104E900000200D40F8FFFEFE04200D4070B51B4BB6
:104EA0001D6805F4E06615F0070500D056B9184BEB
:104EB0001A680DBB01231A4306BB4FF480731343DA
:104EC000134A1360134C236843F00403236000F07B
:104ED00011FB236823F00403236005B15EB90C4B7A
:104EE0001A686DB96FF007031A4066B96FF4E06392
:104EF0001340074A136070BD0023DCE70023DEE7A0
:104F00004FF0FF33F0E74FF0FF33F1E704200D409F
:104F100000200D4010ED00E010B582B00446FFF710
:104F2000C9FEC0B1B4F5A06F1BD0C4F30322134B6C
:104F300053F82220116804F00F04012303FA04F44B
:104F40002143116000230193019B0F2B0FD8019B7C
:104F500001330193F8E740F2AA210948FEF77CFFEC
:104F6000E0E740F2AB210648FEF776FFDDE7136885
:104F700023EA0404146002B010BD00BF4899200069
:104F8000F098200010B50446FFF794FE68B1C4F312
:104F90000322094B53F822100B6804F00F0401227E
:104FA00002FA04F41C430C6010BD40F2D721034800
:104FB000FEF752FFEBE700BF18992000F0982000A1
:104FC00010B50446FFF776FE68B1C4F30322094B1F
:104FD00053F822100B6804F00F04012202FA04F4C3
:104FE0001C430C6010BD40F21A310348FEF734FF39
:104FF000EBE700BF30992000F098200010B5044680
:10500000FFF758FE70B1C4F30322094B53F8221086
:105010000B6804F00F04012202FA04F423EA0404EA
:105020000C6010BD40F287310248FEF715FFEAE739
:1050300000992000F0982000064B984207D003F515
:105040008053984201D00020704701207047012012
:10505000704700BF00C0004070B506460C461546BC
:10506000FFF7EAFF68B1042C10D83DB1082D05D038
:10507000102D03D0182D01D0202D0CD12C4374639A
:1050800070BDA8210648FEF7E7FEECE7AD21044815
:10509000FEF7E2FEE9E7B2210148FEF7DDFEEDE7AB
:1050A0005C99200010B50446FFF7C6FF50B1E36AD3
:1050B00043F01003E362236B43F4407343F00103B6
:1050C000236310BD40F2A3110148FEF7C5FEEEE7D1
:1050D0005C99200010B50446FFF7AEFF70B1A369DC
:1050E00013F0080FFBD1E36A23F01003E362236B94
:1050F00023F4407323F00103236310BD40F2C31176
:105100000148FEF7A9FEEAE75C992000F8B50546DC
:105110000C4616461F46FFF78FFFC0B1EEB128467A
:10512000FFF7D8FFB4EB061F1DD22B6B43F0200313
:105130002B637608E400B4FBF6F40134E3096B62F8
:10514000C4F34504AC62EF620023AB61F8BD40F2EA
:1051500015110748FEF780FEE0E74FF48B71044815
:10516000FEF77AFEDBE72B6B23F020032B63E1E7EE
:105170005C99200010B50446FFF75EFF20B1E36A9A
:1051800043F01003E36210BD40F2E9110148FEF75D
:1051900063FEF4E75C99200038B505460C46FFF73E
:1051A0004BFF40B1102C00D05CB9296B21F01001ED
:1051B0002143296338BD4FF418710548FEF74CFEB2
:1051C000F0E740F262210248FEF746FEEDE700BF3D
:1051D0005C99200038B504460D46FFF72DFF28B135
:1051E000A36913F0200FFBD1256038BD4FF4557132
:1051F0000148FEF731FEF3E75C99200038B504461C
:105200000D46FFF719FF58B1094B9C420ED01624EA
:1052100029462046FFF730FA2046FFF7B3F938BD9C
:1052200040F2BB310348FEF717FEEDE71524EFE728
:1052300000C000405C99200038B504460D46FFF7D9
:10524000FBFE20B1A16B21EA0501A16338BD40F24C
:1052500037410248FEF700FEF4E700BF5C992000EA
:1052600038B504460D46FFF7E7FE10B13DB1206C9E
:1052700038BD40F255410348FEF7EEFDF6E7E06B1E
:10528000F6E700BF5C99200038B504460D46FFF7ED
:10529000D3FE08B1656438BD40F285410148FEF790
:1052A000DBFDF7E75C99200038B505460C46FFF7B3
:1052B000C3FE20B1012C08D8C5F8C84F38BD40F254
:1052C0002F510548FEF7C8FDF4E74FF4A6610248E8
:1052D000FEF7C2FDF0E700BF5C99200010B5044660
:1052E0004FF6E073184207D104F01F04012303FABC
:1052F00004F4044B1C6010BD9A210348FEF7ACFD7A
:10530000F2E700BF28F00F406899200038B5044646
:105310000D464FF6C07318420ED10D4B1B688BB172
:1053200004F03F040A4B186800EB04108368094935
:1053300019402943816038BD40F261210648FEF7DB
:105340008BFDEAE740F262210348FEF785FDE7E7BF
:1053500008F00F40F73FFC00689920002DE9F84F56
:1053600083460D4616461F46DDF828804FF6C0736B
:10537000184247D13A4B1B68002B49D0062D4DD817
:10538000B146B6F1005F4FD3BA46B7F1005F51D3D3
:1053900008F1FF34B4F5806F52D20BF03F0C304B64
:1053A0001A684FEA0C1E02EB0E00836823F47F5349
:1053B00023F037031BF0200F05D0042D01D0062D5C
:1053C00001D145F0010545EA0411194301F040639C
:1053D000B3F1406F04D09E0E08FA06F64E44013E2B
:1053E00042F80E6001F04043B3F1404F33D0042D3A
:1053F0002CD0062D2AD09B0F08FA03F8D04408F1D0
:10540000FF3728E040F2D1211648FEF725FDB1E72D
:1054100040F2D2211348FEF71FFDAFE740F2D3213F
:105420001048FEF719FDABE74FF435710D48FEF754
:1054300013FDA9E740F2D5210A48FEF70DFDA7E7C5
:1054400040F2D6210748FEF707FDA6E74CF02007FB
:1054500002EB07170C3747608160BDE8F88F00BF8B
:1054600008F00F406899200010B504464FF6C0734D
:10547000184210D10E4B1B689BB104F03F040C4B3B
:105480001B6803EB0414A06843F6F773184001D0BF
:105490000009013010BD40F2B3310648FEF7DCFCD4
:1054A000E8E74FF46D710348FEF7D6FCE5E700BF6F
:1054B00008F00F406899200038B504460D4659B1F0
:1054C000A4F13E03012B0DD829462046FFF7D4F85E
:1054D0002046FFF757F838BD4FF488610448FEF7BF
:1054E000BBFCEDE740F241410148FEF7B5FCEBE7BC
:1054F0006899200030BF704702460B4600204FF0ED
:10550000804100F001B800BF2DE9F8431D46064672
:105510000F46144600F0B8F8564B804693F9003019
:10552000894601332AD022462B462046294601F0DF
:1055300027FC18BB32463B463046394601F020FC7A
:10554000002841D1002200233046394601F0E6FB15
:10555000C0B1002200232046294601F0DFFB0028CD
:105560003AD12046294600F0A3FE38B1204629460C
:105570000022002301F0DCFB002858D140464946B8
:10558000BDE8F8834046494600F092FE60B3002231
:1055900000234046494601F0C1FB0028EED03046CA
:1055A000394600F085FE0028E8D02046294600F064
:1055B0007FFE0028E2D001F0D5FE22234FF0000844
:1055C0004FF000090360D9E7204629460022002356
:1055D00001F0A4FB0028D1D04FF00008DFF898902C
:1055E00040464946BDE8F8833046394600F060FE43
:1055F0000028CCD02046294600F05AFE0028C6D00C
:1056000042464B464046494601F0BAFB28BB01F0F2
:10561000A9FE22230022036039460023304601F010
:1056200087FB4FF0000858B9DFF85090A6E701F06B
:1056300099FE21234FF00008DFF8449003609DE7B6
:105640002046294600F040FE22462B4601F066FB2C
:105650000028E9D1DFF8289090E701F083FE2121AE
:105660000022002301601046194601F019FA804615
:10567000894683E7844100200000F03F0000F07F6E
:105680000000F0FF000000002DE9F04F23F000457E
:1056900055EA020493B03DD0DFF8B4E121F00044B4
:1056A00074450F4683462EDC1E46944639D0754518
:1056B00029DCDFF89CE1754522D0002F8A4681461F
:1056C000CDE9002336DB4FF00008BCF1000F4CD1D0
:1056D0005F4B9D4200F08E805E4B9D4200F09D80AE
:1056E000B6F1804F00F097845B4B9E423DD1002F76
:1056F0003BDB4846514613B0BDE8F04F00F016BD05
:10570000BCF1000FD9D004F1404404F5801454EAF0
:105710000B0309D100234F4C1846214613B0BDE8B6
:10572000F08F08B9A542C4DD4C4813B0BDE8F04F76
:1057300000F0C4BD4A4B9D4275DCA3F154739D42F9
:105740000EDD2B15A3F2FF33142B40F36C84C3F151
:1057500034032CFA03F202FA03F3634500F0AC843D
:105760004FF00008BCF1000FB6D04846514600F09B
:105770009BFDBBF1000F20D124B1364B27F04042F6
:105780009A421AD1002E05DA02460B460020314912
:1057900001F086F9002FC1DA04F1404404F58014C9
:1057A00054EA080340F0618402460B4600F096FE7E
:1057B00002460B4601F074F9B0E7FB0F013B07937B
:1057C00058EA030332D0274B9D424FDD03F10473A7
:1057D0009D4240F3BD83244B9C4240F34183002E05
:1057E00040F3418318A3D3E900231046194601F082
:1057F0002DF893E704F1404303F5801353EA0B03BC
:1058000088D0194B9C4240F35683002EC0F22B8364
:10581000DDE900341846214680E7002EC0F2F3830C
:10582000484651467AE74FF002084EE74A4653464B
:105830004846514600F052FE02460B4601F030F950
:105840006CE700BFAFF300809C7500883CE4377EB6
:105850000000F07F0000F03F0000E03FC094200017
:10586000FFFF3F430000E041FFFFEF3FD04B3B40D5
:10587000002B40F037830022CE4B00F0E7FF6FF0A3
:1058800034060C46CC4A2315C4F31304A3F2FF33A9
:1058900044F07F55944203EB060945F4401540F36C
:1058A0001383C64B9C4240F3E9830023002400226B
:1058B000CDE90C34CDE910340024C14B09F10109C4
:1058C000CDE90823A5F58015DDE908AB2946524648
:1058D0005B46064600F002FE5246CDE90A015B46F1
:1058E00030462946CDE908AB00F0FAFD02460B46EA
:1058F0000020B34901F0D4F80A4601461346CDE929
:105900000E120246DDE90A0100F0A0FF0A468346B6
:105910009446002301460020CDE902BC02936B109F
:1059200043F0005303F50023CDE90412DDE902AB97
:1059300019192F4604460D4602460B465046594655
:1059400000F084FF02460B46DDE90A0100F0C6FDC7
:10595000DDE90823CDE90A012046294600F0BEFD15
:1059600002460B463046394600F0B8FD52465B46CB
:1059700000F06CFF02460B46DDE90A0100F0AEFDC7
:10598000DDE90E2300F062FFDDE90445CDE9080101
:1059900022462B462046294600F058FF72A3D3E941
:1059A000002304460D4600F051FF71A3D3E9002304
:1059B00000F096FD22462B4600F048FF6EA3D3E987
:1059C000002300F08DFD22462B4600F03FFF6CA324
:1059D000D3E9002300F084FD22462B4600F036FF79
:1059E00069A3D3E9002300F07BFD22462B4600F09B
:1059F0002DFF67A3D3E9002300F072FD224606467F
:105A00000F462B462046294600F020FF02460B4653
:105A10003046394600F01AFF04460D46DDE9040120
:105A200052465B4600F05CFDDDE9082300F00EFF06
:105A300022462B4600F054FD524606460F465B4672
:105A40005046594600F002FF00225E4BCDE90A01A4
:105A500000F046FD32463B4600F042FD02980D46FE
:105A600004462B4622465046594600F0EFFE0022DF
:105A700082468B46534B2046294600F02FFDDDE938
:105A80000A2300F02BFD02460B463046394600F053
:105A900025FDDDE9042300F0D9FE224606460F4627
:105AA000DDE908012B4600F0D1FE02460B463046E8
:105AB000394600F015FD06460F4602460B46504695
:105AC000594600F00DFD34A3D3E9002302980D469A
:105AD000044600F0BBFE5246CDE904015B46204679
