:020000040020DA
:10000000B8770020651C2000051D2000211C200061
:10001000251C2000251C2000251C200000000000BD
:10002000000000000000000000000000713020000F
:10003000251C200000000000D130200015312000D8
:10004000251C2000251C2000251C2000251C20002C
:1000500000000000251C2000251C2000251C20007D
:10006000251C20000000000000000000000000002F
:100070000000000000000000251C2000000000001F
:100080000000000000000000251C2000251C2000AE
:10009000251C2000251C2000251C2000251C2000DC
:1000A000251C2000251C2000251C2000251C2000CC
:1000B000251C2000251C2000251C2000251C2000BC
:1000C000251C2000251C2000251C2000251C2000AC
:1000D000251C2000000000000000000000000000BF
:1000E0000000000000000000000000000000000010
:1000F000251C200000000000251C2000251C2000DD
:100100000348044B834202D0034B03B118477047A6
:10011000DC410020DC4100200000000005480649C9
:100120000B1AD90F01EBA301491002D0034B03B105
:1001300018477047DC410020DC410020000000002F
:1001400010B5064C237843B9FFF7DAFF044B13B11F
:100150000448AFF300800123237010BD0044002049
:1001600000000000E0FF270008B5044B1BB1044964
:100170000448AFF30080BDE80840CFE7000000006E
:1001800004440020E0FF270008B54368984708BDF5
:1001900008B5024800F065FD08BD00BF045400200A
:1001A00008B5024800F05DFD08BD00BF0454002002
:1001B000F0B583B005E02E4800F064FD2D4801F055
:1001C000DBF82C4C204601F0CFF8204601F01CF95A
:1001D000274800F046FD0021274801F011FE0028C5
:1001E000EFD0264D26492960264A7D231370264BE1
:1001F0000193264B0093264B204601F017F9254C1E
:1002000020702A682449254804F03EFE94F9003005
:10021000002BD0D11C4B1B78002BCCD00028CAD08F
:100220001E4A49231370431C03211154841C692165
:10023000D1541B4F0125009523467919194800F028
:1002400095FC194E2B4622463946304601F0D7FE22
:10025000164C0F4B93F900201549204604F014FE6C
:1002600002462B462146304601F0C9FEA3E700BFF7
:1002700008540020105400201C4C0020084100208D
:10028000244C002004410020C4500020C550002010
:10029000C650002020530020886C20001C44002001
:1002A000A44C0020E0530020C85000201C4800202F
:1002B000906C200008B5074C204600F0E3FC5F205E
:1002C00002F0D2FC204600F0CCFC052002F0CCFC71
:1002D000F1E700BFFC530020012800D070474FF623
:1002E000FF739942FAD170B5184D0121284601F0EB
:1002F000C3FD174C174E22463146284600F0D5F86C
:10030000154D0121284601F0B7FD22463146284609
:1003100000F0CBF8114A124B136012495160124A97
:10032000136012495160124A136012495160124A17
:100330001360124B5360124D1249284601F0FAFD2A
:1003400022461149284600F0B0F870BD1C4C002030
:1003500000410020D5032000204C0020AC5000209C
:10036000B46C2000A1012000A4500020BD03200097
:10037000BC50002091012000B4500020A5032000B3
:10038000C8500020545400208D03200010B50446AE
:1003900000F50C7001F00CFD04F50B7001F008FD88
:1003A000204610BD08B5034800F06CFC024801F07F
:1003B0004BFD08BD04540020204C002008B5034824
:1003C00000F060FC024801F03FFD08BD045400202D
:1003D0001C4C002010B5044601F00BFD204610BD5A
:1003E00010B582B01E4800F0EBF91E4C1E4A1F49A2
:1003F000204600F0DCFF1E4A1E49204600F0D4FFD4
:10040000204600F053FF204600F0D4FF1A2120467A
:1004100000F0F0FF00240194022300932346802281
:100420001549164802F0C4FA4FF4E131144801F0BE
:10043000BBFA1449144801F022F9144801F0CCFD2C
:10044000134800F033FB01940094234680221149A5
:10045000114802F0ADFA01F0C5FC204602B010BD13
:10046000D053002010540020B4500020BC50002075
:10047000A4500020AC5000209C6C2000B50220004D
:100480005454002000127A0038540020C850002034
:10049000E0530020A46C2000B101200008B54FF605
:1004A000FF710120FFF718FF08BD0B4601461846F3
:1004B00004F05ABB10B50446043001F09AFC204603
:1004C00001F076FC204610BD10B50446143001F052
:1004D00090FC04F1100001F08CFC04F10C0001F020
:1004E00088FC204610BD10B504460C3001F081FC9C
:1004F000204610BD38B504460D4600F077FA656019
:10050000204638BD012800D070474FF6FF7399424E
:10051000FAD12DE9F04F83B0DFF888A26349504645
:1005200000F036FBDFF880B26149584600F030FB3E
:100530006049614800F02CFB6049614800F028FBED
:10054000604C6149204600F023FB6049604800F0A0
:100550001FFB6049604800F01BFB6049604800F0E9
:1005600017FB604F6049384600F012FBDFF83C8211
:100570005E49404600F00CFB5D4D5E49284600F0A8
:1005800007FB5D495D4800F003FB5D495D4800F0F5
:100590008AFB5D495D4800F086FB5D4E5D49304653
:1005A00000F081FB5C495D4800F0F6FA5C495D486B
:1005B000FFF7A0FF5C495D4800F075FB5C495D48B2
:1005C00000F071FB5C495D4800F06DFB5C495D48E3
:1005D00000F069FB5C495D4800F0FAFA30215C48A4
:1005E00001F03EF831215B4800F0CAFF00215A4873
:1005F00001F014FBDFF8B891584B5A465146484673
:1006000000F086FBDFF8ACA1524655494846FFF79B
:100610004CFFDFF8A491534B42463946484601F05F
:10062000A7F9514F524639464846FFF73EFFDFF8DB
:100630008C814E4B314A2946404601F099F9524689
:1006400039464046FFF731FF494D4A4B0093234658
:100650001B4A1949284601F007F8474800F0F6FF01
:10066000464800F01CFE464800F0BCF9454801F041
:1006700074F9454C204600F00DFA52464349204695
:10068000FFF713FF254B01930096204B1D4A294687
:100690003F4800F0D3F83F493F4800F004FB3F4992
:1006A0003F4800F000FB03B0BDE8F08FB86C2000BD
:1006B000CC6C2000806D200058530020946D2000E9
:1006C0005C53002040530020F46C2000A86D2000F3
:1006D00060530020BC6D200064530020086D200092
:1006E00044530020485300201C6D2000306D200032
:1006F00050530020446D2000586D200054530020BA
:10070000346E200030530020486E20003453002007
:10071000245300200C6E2000206E2000285300205F
:1007200064410020D05300206C6D2000FC53002059
:10073000D06D200000540020E06C20000454002004
:10074000E46D200008540020F86D2000D8530020EC
:1007500030540020245400209C5400200C410020E0
:10076000E704200034410020C90420004C4100204F
:1007700038540020144100200C5400201054002054
:100780006853002050540020E0530020B50420009E
:1007900084530020706E20007C5300205C6E20008B
:1007A00080530020385300203C5300204C5300203D
:1007B000EC530020004100205454002078540020C5
:1007C00008B5416800F016F9064800F05BFA0648E3
:1007D00000F058FA054800F055FA054800F052FAC2
:1007E00008BD00BFFC530020085400200054002026
:1007F0000454002008B54FF6FF710120FFF782FE78
:1008000008BD10B503464168C26801EB620012F0F2
:10081000010F02D19B68984710BD54100A599B687C
:10082000D358F8E710B50446C06800F052FAA06843
:1008300000F04FFA606800F04CFA10BD30B585B09A
:100840000446016042608360089BC360099B0361AA
:10085000174B0293002303936A4604A911E903008E
:1008600082E8030013496161A46104F11C0592E868
:10087000030085E803006362A362E36223636363AA
:10088000A363E363236484F8443084F8453084F838
:10089000463084F8473084F849302046FFF7C2FFDD
:1008A00004F11401206900F0CBF9204605B030BDF9
:1008B0006B0920008C6E200038B50546144612F0F6
:1008C000010F04D0406A10B103681B68984714F008
:1008D000020F04D0A86A10B103681B68984714F08F
:1008E000100F04D0286B10B103681B68984738BDFF
:1008F00038B50546144612F0010F04D0406B10B114
:1009000003681B68984714F0020F04D0A86B10B15D
:1009100003681B68984714F0100F04D0286C10B1BE
:1009200003681B68984738BD30B585B00446154646
:100930000B0A8DF80C308DF80D1000238DF80E3059
:10094000C06800F0C6F994F8493001930322009280
:1009500002AB03A9206800F0C7FFE06800F0B1F91E
:100960009DF80A302B7005B030BD10B582B004463A
:100970000DF107020021FFF7D7FF0DF1060201215B
:100980002046FFF7D1FF0DF1050202212046FFF7B7
:10099000CBFF01AA03212046FFF7C6FF94F844309D
:1009A0009DF807100B4205D194F846209DF80530BC
:1009B0001A4204D09DF805202046FFF77DFF94F8E9
:1009C00045309DF806100B4205D194F847209DF85C
:1009D00004301A4204D09DF804202046FFF788FF17
:1009E00002B010BD002202707047704700220270F2
:1009F0007047000038B50C46184D002240212846AB
:100A000002F0E0FC00228021284602F0DBFC0122FB
:100A10004021284603F0C4F901228021284603F032
:100A2000BFF962686178207803F092FCA06803F057
:100A300045FC637823B90A4B1B6813F4002FFAD0E6
:100A400023784BB1064B1B6813F0806FFAD1044B2F
:100A50001B6813F0806FFAD038BD00BF00C00D4096
:100A600004200D40094B03E013F8012901F8012B84
:100A7000B3F1281FF8D2064B03E013F8012901F85F
:100A8000012B024A9342F8D8704700BF2B00280080
:100A90002F00280010B5044601F080F90021201D28
:100AA00001F0EAF900232372204610BD037A03B156
:100AB000704710B5044603F0CFFE0C4803F0EAFE81
:100AC00000F0ACF9204600F033FAF0213E2002F0AD
:100AD00023FFF0213F2002F01FFF3E2002F03EFFE7
:100AE0003F2002F03BFF0123237210BD005800207D
:100AF00008B5043001F0A8F908BD2DE9F04383B032
:100B000080460F4616461D4601F059F94FF0000980
:100B10001AE02C4600211E2003F030FF00943B46D3
:100B2000324602211E2003F051FF1E2003F09AFEE0
:100B30001E2003F0CBFE002108F1040001F060F953
:100B4000264427442D1BA1442DB1B5F5806FE0D973
:100B50004FF48064DEE70F211E2003F0CFFE4046F5
:100B600001F038F9484603B0BDE8F08310B582B013
:100B70001C469DF810302BB12346FFF7BEFF2046E0
:100B800002B010BD012300932346FFF7EFFFF6E705
:100B9000016070470068704710B50446FFF7F8FF22
:100BA0000023636023681979186802F0D5FC236874
:100BB000DA681979186802F035FC23689A680AB96E
:100BC000204610BD1979186803F0EAF8F8E700002C
:100BD00010B50446FFF7E0FF23681979186802F0A2
:100BE000BBFC2368DA681979186802F053FD2368A2
:100BF0001B680F4A934209D00E4A93420BD00E4A0B
:100C000093420CD00D4A93420DD0FEE7012002F032
:100C1000DBFD204610BD022002F0D6FDF9E70420DE
:100C200002F0D2FDF5E7082002F0CEFDF1E700BFAB
:100C300000900D4000A00D4000B00D4000C00D40E0
:100C400010B50446416000F0E9F8204600F0EAF8EB
:100C500010BD406820B108B503681B68984708BDFF
:100C6000704708B503681A69012A05D019790A4640
:100C7000186802F05FFC08BD00221979186802F0BC
:100C800059FCF8E708B503681A69012A05D0002263
:100C90001979186802F04EFC08BD19790A461868DF
:100CA00002F048FCF8E710B50446FFF771FF23682F
:100CB0001979186802F06AFC2046FFF7E3FF204626
:100CC00010BD08B5036819790A46186802F032FCAD
:100CD00008BD08B5036800221979186802F02AFCDB
:100CE00008BD0000012800D070474FF6FF739942FD
:100CF000FAD1044B1A68044BB3FBF2F3034A1360B6
:100D0000F2E700BF906E2000A0860100005C00208A
:100D100010B5044601604260836001210C3001F08F
:100D2000ABF8204610BD704708B54FF6FF710120A3
:100D3000FFF7D8FF08BD000008B5034B186808B1DD
:100D400000F04AFF08BD00BFA05C002008B5034BBF
:100D5000186808B100F040FF08BD00BFA45C002087
:100D600008B5034B186808B1FFF7DDFF08BD00BFE9
:100D7000105C002008B5034B186808B100F0D1FDE5
:100D800008BD00BF145C002008B5044B1B681BB1F4
:100D9000034B186800F0C5FD08BD00BF145C0020BF
:100DA000185C002008B5034B186808B100F084FBFC
:100DB00008BD00BF9C5C002008B5034B186808B153
:100DC00000F0CCFB08BD00BF9C5C002008B5034BC5
:100DD000186808B100F0DAFB08BD00BFC85C00204D
:100DE00008B5034B186808B1FFF7FFFD08BD00BF49
:100DF000085C002008B5034B186808B100F085FFB7
:100E000008BD00BF045C002008B5034B186808B19A
:100E1000FFF76EFE08BD00BF0C5C00200048704765
:100E2000CC5C002070B50546FFF7B4FE0668284686
:100E3000FFF7B0FE0479012C0FD0022C1BD0042C3C
:100E40001BD0082C1BD0102C1BD0202C1BD0402CCE
:100E50001BD0802C02D1072400E000241C4B9E42B2
:100E600015D01C4B9E421AD01B4B9E421FD01B4BD1
:100E70009E4224D070BD0124F0E70224EEE7032453
:100E8000ECE70424EAE70524E8E70624E6E7F02196
:100E9000102002F041FD124B43F82450EAE7F02104
:100EA000112002F039FD0F4B43F82450E2E7F02106
:100EB000122002F031FD0C4B43F82450DAE7F02108
:100EC000132002F029FD094B43F82450D2E700BF5C
:100ED00000900D4000A00D4000B00D4000C00D403E
:100EE0001C5C00203C5C00205C5C00207C5C0020E2
:100EF00010B5044600F06EFE4368064A934203D0E4
:100F0000054A934203D010BD044B1C60FBE7044B21
:100F10001C60F8E700C0004000D00040A05C00204A
:100F2000A45C0020014B1860704700BF9C5C00204F
:100F3000014B1860704700BF0C5C00202DE9F041A8
:100F40000446DFF8A8814FF6FF71404603F020FC0D
:100F50004B4F4FF6FF71384603F01AFC49494A4897
:100F600002F0CEFA49494A4802F0CAFA49494A48C9
:100F700002F0C6FA49494A4802F0C2FA494E4A4DBF
:100F80003246FF21284602F04FFC32464FF47F41A3
:100F9000284602F049FC32464FF6FF71284602F01F
:100FA00043FC424E05F580553246FF21284602F0AB
:100FB0003BFC32464FF47F41284602F035FC324676
:100FC0004FF6FF71284602F02FFC394E05F580558B
:100FD0003246FF21284602F027FC32464FF47F417B
:100FE000284602F021FC32464FF6FF71284602F0F7
:100FF0001BFC304E05F580553246FF21284602F095
:1010000013FC32464FF47F41284602F00DFC324675
:101010004FF6FF71284602F007FC2749404603F0CF
:1010200087FB2649384603F083FB254802F06AFC1B
:101030002449254802F0E0FF2449254802F0DCFF5E
:1010400024492A2002F004FD23492B2002F000FD50
:101050002249312002F0FCFC21492E2002F0F8FC4C
:1010600020491E2002F0F4FC1F4D29463E2003F0CB
:101070005BFD29463F2003F057FD2046BDE8F08187
:1010800000D00040AD11200000900D40C1112000A3
:1010900000A00D40D511200000B00D40E911200046
:1010A00000C00D40411220000000034055122000F6
:1010B000691220007D122000390D20004D0D200006
:1010C000610D2000750D200000800040890D20007A
:1010D00000900040A50D2000B90D2000CD0D20008E
:1010E000E10D2000F50D2000090E200000C0004099
:1010F000012800D0704708B54FF6FF73994200D021
:1011000008BD0248FFF71AFFFAE700BFCC5C0020D9
:10111000F8B505460F46012102F0CAF9064601213D
:10112000284602F0F5FA0446F1B2284602F0D6F954
:10113000E1B2284602F01CFB344314F0010F03D047
:10114000386808B1FFF785FD14F0020F03D0786806
:1011500008B1FFF77EFD14F0040F03D0B86808B1A2
:10116000FFF777FD14F0080F03D0F86808B1FFF718
:1011700070FD14F0100F03D0386908B1FFF769FD56
:1011800014F0200F03D0786908B1FFF762FD14F066
:10119000400F03D0B86908B1FFF75BFD14F0800F72
:1011A00003D0F86908B1FFF754FDF8BD08B502494E
:1011B0000248FFF7ADFF08BD1C5C002000900D4009
:1011C00008B502490248FFF7A3FF08BD3C5C0020B8
:1011D00000A00D4008B502490248FFF799FF08BD7D
:1011E0005C5C002000B00D4008B502490248FFF7E2
:1011F0008FFF08BD7C5C002000C00D4038B50E4D4F
:101200000121284602F05AFB04460146284602F016
:1012100069FB0A4B186810B114F0170F06D1074B81
:10122000586810B114F4706F03D138BD00F098FB0A
:10123000F5E700F095FBF8E700000340A85C00200C
:1012400008B502490248FFF7D9FF08BDA85C002095
:101250000000034008B502490248FFF7CFFF08BD70
:10126000B05C00200010034008B502490248FFF7B7
:10127000C5FF08BDB85C00200020034008B5024946
:101280000248FFF7BBFF08BDC05C002000300340F0
:1012900008B54FF6FF710120FFF72AFF08BD0022B5
:1012A000027042608260C2600261704708B54FF40C
:1012B000A06003F0D3F84FF4A06003F0EDF84FF412
:1012C000A06003F007F9234B14221A6008333F2271
:1012D0001A60043355221A60103B85221A601833B5
:1012E00001221A60103315221A601B491020086071
:1012F00004310E2008600431032008608439F8208E
:10130000086001F5C871092008601A600B220423E7
:101310001A60FF21114B1960A3F5B87340201860C3
:101320000F48036823F0010303600E4B0020186090
:1013300048337F20186003F5F473ED2018601860BF
:10134000EE2018601860A3F5FC731960043B1A6066
:1013500008BD00BFA4860840D48608409487084092
:10136000008608400886084001230370014BE322F1
:101370001A60704738880840084B1B6813F0020F4A
:10138000FAD100230370064B1B6833B1054BEF22E3
:101390001A60043B6FF044021A6070474C860840A4
:1013A0002C86084038880840416082607047C160E0
:1013B0000261704710B50446FFF730FD2046FFF785
:1013C000B1FD0A4A136843F007031360043213683F
:1013D00043F002031360064B7F221A60E0212A20AB
:1013E00002F09AFA2A2002F0B9FA10BD8C86084061
:1013F000948608400B3901EB81010B31014B1960D8
:10140000704700BF3C860840064BED221A601A6008
:1014100002220270E3221A60034B1B6813F0010FD3
:10142000FAD07047388808404C86084070B4047879
:10143000E4B2042C39D11E4C2568EDB22C1FE4B265
:101440007B2C0DD8023DEDB21478AC420FD30024B2
:10145000AC4213D2164E36680E550134E4B2F7E7AB
:10146000144BED221A601A604FF0FF301BE0114B55
:10147000ED221A601A604FF0FF3014E015700C492D
:101480000A68493A1A700B68C3F3C011049A1170C4
:1014900003F07F03039A1370064BED221A601A6063
:1014A00001230370002070BC70474FF0FF30FAE753
:1014B00028880840388808402DE9F0410446254F27
:1014C0003D68254ED6F800802A2002F087FA0023D6
:1014D0003B60336015F0020F07D02378DBB2022B9C
:1014E00013D02378DBB2052B18D015F0400F03D0B2
:1014F0002378DBB2032B1AD018F0020F03D0237825
:10150000DBB2062B1CD0BDE8F08160680028E8D073
:101510000323237003681B689847E6E7E068002808
:10152000E3D00623237003681B689847DDE7A068B3
:101530000028E1D00423237003681B689847DBE789
:1015400020690028DFD00723237003681B689847B1
:10155000D9E700BF348808403088084038B5074CC8
:1015600025682B2002F03AFA23682B4013F0020F73
:1015700002D06FF00202226038BD00BF948608409E
:10158000016000224260826070470000F8B50546A5
:10159000134B1C68134E3768312002F01FFA0023EA
:1015A000336004EA070313F0100F09D0336823F007
:1015B00010033360A86810B103681B689847F8BD32
:1015C00013F0080FFBD0074A136823F008031360D9
:1015D00068680028F3D003681B689847EFE700BFEE
:1015E000088808400C88084008B503681B689847BD
:1015F00008BD08B503685B68984708BD00B583B0AF
:1016000069460B48FFF72EFA9DF804009DF8053057
:101610001B0443EA00639DF8060043EA00239DF89B
:101620000700184303F098FB03B05DF804FB00BF0C
:10163000D053002008B503F0C1FB80B208BD000004
:10164000014B0360704700BF9C6E200010B504463C
:10165000FFF7F6FF014B2360204610BDAC6E200063
:10166000016000224260704710B4016042608360F4
:10167000019BC36000230361436110BC70472DE9E7
:10168000F04182B0044688460068FFF783FA0746B7
:101690006068FFF77FFA0646A068FFF77BFA054609
:1016A000B8F1000F02D0E368C3F81C80E368186843
:1016B00002F0D4FEE368186802F0EEFEE3681868F2
:1016C00002F008FFE368586802F07EFCE36899685E
:1016D000586802F071FDBA683979386802F046FA44
:1016E000B2683179306802F0E3F9AA68297928688C
:1016F00002F0DEF93979386801F062FF317930683B
:1017000001F05EFF2979286801F05AFFE3689B68C1
:1017100013B1012B14D0FEE702F0A0FD0146E568ED
:101720002B696A696868AE690196ED69009502F0F7
:10173000B9FBE368586802F02FFC02B0BDE8F08105
:1017400002F0D2FD0146E5682B696A696868AE69F6
:101750000196ED69009502F0A5FBEAE72DE9F04757
:1017600082B004468A461E460A9F914622B137B18E
:10177000BA4206D9904600E0B846002508E09046F7
:10178000FBE7B846F9E7FF2109E00023735501356F
:10179000A84518D9B9F1000FF5D01AF80510E3687B
:1017A000586802F07BFCE368586802F0EDFC002802
:1017B000F9D1E36801A9586802F098FC002FE4D041
:1017C0009DF80430E2E7012002B0BDE8F087000098
:1017D0002DE9F04585B01E46FF238DF80F308DF8BA
:1017E0000E30B14279D0054688461746C36858681E
:1017F0003C4B984207D003F5805398426FD1182490
:101800004FF0190A02E00A244FF00B0A002F3BD0D8
:10181000022102F087FC4FF04041504603F0AEF841
:10182000EB685B680097083342460121504603F09D
:10183000CDF80C9B002B3BD0EB680121586802F0DF
:1018400071FC4FF04061204603F098F8EB685A684D
:101850000C9B0093334608320121204603F0B6F872
:10186000204602F0FFFF504602F0FCFF204603F046
:1018700033F90028FAD1EB680321586802F06AFCBA
:10188000012005B0BDE8F085022102F04BFC4FF0CD
:101890004C41504603F072F8EB685B680C9A00927A
:1018A00008330DF10F020121504603F08FF8C0E715
:1018B000EB680121586802F035FC4FF04C4120469E
:1018C00003F05CF8EB685A6800970DF10E030832DC
:1018D0000121204603F07AF8C2E70020D1E700207A
:1018E000CFE700BF0080004000B583B0049C9DF8A6
:1018F000145015B10094FFF76BFF0094FFF72EFF13
:10190000FBE7406920B108B503681B68984708BD2C
:101910007047006920B108B503681B68984708BD87
:10192000704738B50546C3680121586802F086FB48
:101930000446EB680146D86802F09AFB14F0080FE1
:1019400003D114F0040F04D138BD2846FFF7E1FF9E
:10195000F7E72846FFF7D5FFF6E700220280704739
:10196000406820B108B503681B68984708BD7047F8
:1019700010B5044601604260836000210C3000F025
:101980007BFA002104F1100000F076FA002104F146
:10199000140000F071FA0023A361E36184F82030A1
:1019A00084F82130204610BDF8B504460F46006883
:1019B000FFF7F0F806466068FFF7ECF805460FB150
:1019C000A3681F61A368186802F048FDA36818683F
:1019D00002F062FDA368186802F07CFDA3685868F5
:1019E00002F0E4FDA3689968586802F01BFFB26832
:1019F0003179306802F0BAF8AA682979286802F0CB
:101A000057F83179306801F0F5FD2979286801F03F
:101A100019FEA3689B6813B1012B1DD0FEE702F0ED
:101A20001DFC0146A5686B692A69686802F0DAFD49
:101A3000A36820220021586802F07AFDA368586844
:101A400002F004FEA3681021586802F011FEA3689A
:101A5000586802F093FDF8BD02F046FC0146A56807
:101A60006B692A69686802F0BDFDE1E78161704732
:101A7000C161704710B50446FFF7D0F92046FFF763
:101A800037FAA3687021586802F0AAFEA368702193
:101A9000586802F06BFEA368F021D86801F03CFFA3
:101AA000A368D86801F05AFF10BD08B58368022109
:101AB000586802F0A5FE08BD08B50021103000F0FE
:101AC0009FF908BD08B5103000F0B6F908BD08B59B
:101AD0000C3000F0B9F908BD08B5103000F0B4F9C9
:101AE00008BD08B58368586802F00AFE08BD70B5E5
:101AF00004460E4690F82030C3B101231370102520
:101B0000A368586802F0D2FD034698B19DB1A3685E
:101B1000586802F0DFFD0028F2DB0022C1B2304637
:101B200000F02BF9034630B1013DE9E700231370C3
:101B30000D25E5E70123184670BD00002DE9F041B1
:101B400082B006460C4683685B68214A93420ED0F9
:101B500002F58052934237D14FF01708204600F02B
:101B6000F6F80746204600F0F4F804461DE04FF072
:101B70000908F3E7012386F8213025464FF040415C
:101B8000404602F0FBFEB3685B6800953A460121CF
:101B9000404602F01BFF404602F064FE002106F1C1
:101BA000140000F02DF92F44641B44B1B4F5806F8C
:101BB000E0D3002386F821304FF48065DEE7F0693A
:101BC00010B103681B689847002002B0BDE8F0819F
:101BD00000C000408068704738B505468368012121
:101BE000586802F0E9FD0446AB680146586802F007
:101BF000F7FD14F0200F0CD114F0500F08D0C4F3EF
:101C0000801485F82040A86910B103681B689847C4
:101C100038BD05F1140000F017F9EDE701607047D9
:101C200000BFFDE700BFFDE708B5FF21074801F051
:101C300093FCFF21064801F08FFCFF21054801F0CD
:101C40008BFCFF21044801F087FC08BD00900D408B
:101C500000A00D4000B00D4000C00D4008B502F0DE
:101C6000BFFBFCE700B583B01A4BFF221A601A4B8A
:101C70001A4A1A601A4B01931A4B1A681A4B9A4265
:101C800004D1019B5A1E0192002BF5D1124B002268
:101C90001A60164A136843F001031360144B154A87
:101CA00003E052F8041B43F8041B13498B42F8D39A
:101CB000124B134A934204D200221A6053F8042BA9
:101CC000F7E7FFF7B1FF02F05DFFFEF789FBFFF7D3
:101CD000C5FF00BFB4200D4004300020BBAABBAA42
:101CE00080841E00003000204812F0A598200D408E
:101CF00000400020A8742000DC41002000440020A7
:101D0000B86F002008B5FFF7ADFF406820B108B5F7
:101D100003681B68984708BD704710B401604260B3
:101D20008360C160016110BC70470368C3600361D8
:101D30000023836070478068B0FA80F040097047E4
:101D400082684068824214BF00200120704700680A
:101D500070478068704738B504460D46FFF7EBFFC3
:101D600048B923695A1C22611B782B70A368013B78
:101D7000A360012038BD0020FCE738B504460D46BD
:101D8000FFF7DEFF40B9E3685A1CE2601D70A368EC
:101D90000133A360012038BD0020FCE710B50446E4
:101DA000012000F095FB206008B1204610BDFEE741
:101DB00010B50446006800F081FC204610BD08B54F
:101DC0004FF0FF31006800F0C1FB012814BF002074
:101DD000012008BD08B500231A461946006800F026
:101DE000DFFA08BD08B500F015FE08BD002202604C
:101DF000704710B50446006800F060FC204610BD36
:101E000008B561B10B460B49A1FB0331C908006855
:101E100000F09CFB012814BF0020012008BD4FF0FA
:101E2000FF31006800F092FB012814BF0020012060
:101E3000F4E700BFCDCCCCCC08B500231A46194638
:101E4000006800F0ADFA08BD00B583B0002301932F
:101E500001A9006800F047FB019B3BB1054B4FF027
:101E600080521A60BFF34F8FBFF36F8F03B05DF8DE
:101E700004FB00BF04ED00E038B504460D46FFF753
:101E8000B5FF03220021012000F070FA206010B19C
:101E900015B9204638BDFEE72046FFF7CDFFF8E72D
:101EA00010B503464168C26801EB620012F0010FF1
:101EB00002D19B68984710BD54100A599B68D358AB
:101EC000F8E710B582B004460DF1070200F5827103
:101ED0000068FFF70CFE20B19DF8073043B902B04F
:101EE00010BD012384F855322068FFF7F0FDF6E7B6
:101EF0002068FFF7ECFDF2E710B582B0044690F8D9
:101F000054328BB901220DF1070100F50670FFF77D
:101F100022FF28B19DF807102068FFF7E2FD06E0D8
:101F20002068FFF7D9FD02E00068FFF7D5FD02B099
:101F300010BD000070B586B004460B46014641F85E
:101F4000043B00234FF4807200F58270FFF7E5FE3A
:101F500000234FF4807204F58C7104F50670FFF7CE
:101F6000DCFE04F50B70FFF719FF04F50C70FFF7AA
:101F700015FF164B0293002203926B46114613483D
:101F800083E80300124DC4F83452C4F8384204F513
:101F90000F7693E8030086E803000E49049105924A
:101FA00006A911E9030083E80300C4F84452C4F809
:101FB000484204F5137593E8030085E8030084F8AC
:101FC000542284F85522204606B070BDC31E20005E
:101FD000BC6E2000F91E200010B5044600F50D71FE
:101FE0000068FFF743FD04F511712068FFF740FD1D
:101FF0002068FFF75AFD2068FFF73CFD10BDF0B5E3
:102000008BB004461D46134605A8FFF786FE04F56F
:102010000676314601A800F03BF804F50B77384608
:10202000FFF7CDFE84F854523046FFF77EFE01A83C
:1020300000F03BF838B13046FFF777FE2068FFF735
:1020400041FD0BB0F0BD05A901A800F060F8002823
:10205000F1D101A800F076F80028ECD16DB900228A
:102060000DF103013046FFF776FE0028E3D09DF81E
:1020700003102068FFF735FD03E031462068FFF7C5
:102080005DFD2068FFF718FD3846FFF7A3FED8E78F
:1020900010B5044640F8041B00F077F80123A36054
:1020A000002323736373204610BD10B5044604302B
:1020B00000F06EF800227E212068FFF75EFE08B176
:1020C000002010BD4FF0FF30FBE738B505460C4649
:1020D000043000F063F8A4F17D03DBB2012B07D9D3
:1020E000002221462868FFF748FE68B1002038BD6D
:1020F00000227D212868FFF740FE10B184F0200403
:10210000EEE74FF0FF30F2E74FF0FF30EFE7F0B5CA
:1021100083B007460E46002407E09DF807103846B6
:10212000FFF7D3FF044655B14CB900220DF107016A
:102130003046FFF710FE05460028F4D0EDE72046B4
:1021400003B0F0BD38B50446043000F024F805466D
:10215000C0F307212046FFF7B8FF68B9E9B220466F
:10216000FFF7B3FF054650B900227E212068FFF734
:1021700004FE38B1284638BD4FF0FF35FAE74FF07E
:10218000FF35F7E74FF0FF35F4E700220280704794
:10219000002303807047008870470000028881EAAE
:1021A0002221034B33F9113083EA02230380704765
:1021B000C06E20000346406A18B11B6B1868C0F15E
:1021C0000500704710B5044600F064FFA26BE36B96
:1021D0009A4204D0002400F06DFF204610BD012477
:1021E000F9E710B5044600F055FFA36B23B90124AD
:1021F00000F060FF204610BD0024F9E770B50446EA
:102200001546866B026C5AB903681BB10020013673
:10221000A66370BD806800F063FE0023A360F6E74C
:102220006DB9406802F0D2FC226C636813446360AD
:10223000A268934219D3236863602846E7E7C06821
:1022400002F0C4FC226C5142E3689B1AE3602268EE
:10225000934202D2A3680B44E360022D01D0002018
:10226000D5E726B1013E0020D1E72846CFE7002080
:10227000CDE738B5054600F00DFF95F8454064B24E
:1022800003E000F0CBFD013C64B2002C08DD6B6A7A
:1022900033B105F1240000F04BFD0028F3D0F0E746
:1022A000FF2385F8453000F005FF00F0F3FE95F8B8
:1022B000444064B203E000F0B1FD013C64B2002C84
:1022C00008DD2B6933B105F1100000F031FD002865
:1022D000F3D0F0E7FF2385F8443000F0EBFE38BD83
:1022E00038B504460D4600F0D5FE2168E26B236C3C
:1022F00003FB0210A0600020A0636160013A02FBB2
:102300000313E360FF2384F8443084F84530A5B913
:1023100023691BB900F0CEFE012038BD04F1100086
:1023200000F006FD0028F5D0084B4FF080521A60EF
:10233000BFF34F8FBFF36F8FECE704F1100000F095
:10234000B3FF04F1240000F0AFFFE3E704ED00E089
:1023500010B5034602980C4631B90060C3630464AB
:102360000121FFF7BDFF10BD0260F7E7F0B583B0B4
:10237000044615460F4689B100FB01F0483000F0D5
:1023800025FF064638B100902B4600F14802394639
:102390002046FFF7DDFF304603B0F0BD0846EDE70D
:1023A000F0B585B004460F4601921D46002639E07F
:1023B0002A4639462046FFF721FF636A6BB938B1D8
:1023C0003C4B4FF080521A60BFF34F8FBFF36F8FBB
:1023D00000F070FE012005B0F0BD04F1240000F013
:1023E000A7FC0028F4D0334B4FF080521A60BFF3A3
:1023F0004F8FBFF36F8FEBE700F05CFE0020EAE742
:1024000002A800F0D1FC012619E0002384F8443032
:1024100021E0002384F8453023E02046FFF729FF20
:1024200000F0B2FB00F036FEA26BE36B9A42BFD322
:10243000022DBDD0019B002BDED0002EE0D000F09D
:1024400039FE00F019FB00F025FE94F8442052B24A
:10245000B2F1FF3FD9D094F8452052B2B2F1FF3F1C
:10246000D7D000F027FE01A902A800F0A9FCC8B946
:102470002046FFF7A7FE0028CFD0019904F11000F5
:1024800000F048FC2046FFF7F4FE00F07DFB00283A
:10249000C8D1084B4FF080521A60BFF34F8FBFF383
:1024A0006F8FBFE72046FFF7E4FE00F06DFB0020D2
:1024B00091E700BF04ED00E048B110B50021816054
:1024C0000160C1600B460A46FFF76AFF10BD704706
:1024D00010B5024600210120FFF748FF0446FFF730
:1024E000EBFF204610BD38B5EFF311844FF0A00389
:1024F00083F31188BFF36F8FBFF34F8F826BC36B72
:1025000093421AD90D4690F845305BB2013282638E
:10251000B3F1FF3F05D001335BB280F845300120B5
:102520000CE0436A0BB9012008E0243000F000FC05
:1025300038B145B10120286000E0002084F3118803
:1025400038BD0120FAE70120F8E7000070B584B03B
:10255000044601910026354647E0013BA36323680A
:1025600033B1236943B900F0A5FD012004B070BD6B
:1025700000F03EFDA060F4E704F1100000F0D8FB8D
:102580000028F0D0414B4FF080521A60BFF34F8FBC
:10259000BFF36F8FE7E700F08DFD0020E6E702A8AC
:1025A00000F002FC01252AE0002384F8443032E0E8
:1025B000002384F8453034E000F06CFDA06800F0A2
:1025C00033FC064600F076FD3BE02046FFF751FE67
:1025D00000F0DAFA09E02046FFF74BFE00F0D4FAEB
:1025E0002046FFF7FEFD002840D100F053FDA36B0D
:1025F000002BB2D1019B002BCDD0002DCFD000F00D
:1026000059FD00F039FA00F045FD94F844305BB212
:10261000B3F1FF3FC8D094F845305BB2B3F1FF3F50
:10262000C6D000F047FD01A902A800F0C9FB0028B0
:10263000D1D12046FFF7D5FD0028C6D02368002B56
:10264000BAD0019904F1240000F064FB2046FFF7A2
:1026500010FE00F099FA0028C7D10C4B4FF08052C1
:102660001A60BFF34F8FBFF36F8FBEE70EB9002024
:102670007CE700F00FFD2046FFF79CFD0146A068B7
:1026800000F06EFC00F016FDF1E700BF04ED00E085
:102690000023042B0FD8084A02EBC302526882427F
:1026A00001D00133F5E7044A002142F8331002EB70
:1026B000C3035960704770478C6F002010B5044603
:1026C000FFF7E6FF204600F0D1FD10BD084B1B6868
:1026D0001B6823B9074B4FF0FF321A607047044B59
:1026E0001B68DB68DB685A68024B1A60704700BFE2
:1026F000D45C0020845D002010B50446006B00F01F
:10270000B5FD204600F0B2FD10BD2DE9F0470746AB
:102710009846089DDDF824900A9C266B02F18042C1
:10272000013A06EB820626F0070600220F2A07D898
:10273000885CA31883F834008B5C0BB10132F5E799
:10274000002384F84330042D00D90425E562656434
:102750004FF0000AC4F848A0201D00F0B0FD04F1BD
:10276000180000F0ACFD2461C5F10505A5616462A7
:10277000C4F84CA084F850A042463946304600F0D8
:1027800065FC2060B9F1000F01D0C9F80040BDE838
:10279000F087000038B50024042C08D804EB84022C
:1027A00093000E48184400F07FFD0134F4E70C4D0F
:1027B000284600F079FD0B4C204600F075FD0A48D4
:1027C00000F072FD094800F06FFD094800F06CFD53
:1027D000084B1D60084B1C6038BD00BFDC5C00204E
:1027E000585D00206C5D00208C5D0020B85D0020ED
:1027F000A45D0020D45C0020D85C002010B5044605
:1028000000F048FC204A1368013313601F4B1B681B
:102810005BB11F4B1B686BB91C4B1B68DA6AE36A20
:102820009A4207D8194B1C6004E0184B1C601368CF
:10283000012B26D0174A136801331360E06A012385
:102840008340154A11680B43136000EB8000211D83
:10285000124B03EB800000F035FD00F02BFC0C4B1D
:102860001B686BB1094B1B68DA6AE36A9A4207D2AC
:102870000B4B4FF080521A60BFF34F8FBFF36F8F37
:1028800010BDFFF787FFD5E7405D0020D05C00203A
:10289000A05D0020505D0020545D0020DC5C002025
:1028A00004ED00E00F4B1B68D3B110B500F0F2FB54
:1028B0000D4BDB68DC68201D00F029FD0B4A136816
:1028C000013B1360074A1368013B136000F0F2FB01
:1028D0002046FFF711FF034B1B68002BE6D110BD0C
:1028E000704700BF445D0020B85D0020405D0020BF
:1028F00008B5FFF7D7FF064B1B68012BF9D9054B2D
:102900004FF080521A60BFF34F8FBFF36F8FF0E725
:10291000DC5C002004ED00E070B504460D461D4B64
:102920001E681D4B1868043000F0F1FC50B91A4BBA
:102930001B68DA6A012303FA02F218490B6823EADA
:1029400002030B60B4F1FF3F0DD03444124B1B68FF
:102950005C60A64210D9124B18680F4B19680431FD
:1029600000F0BCFC70BD002DEFD00B4B196804319A
:102970000C4800F0A7FCF5E70B4B1868064B1968EC
:10298000043100F0ABFC094B1B68A342EAD9074BAA
:102990001C60E7E7CC5D0020D05C0020545D002087
:1029A000D85C0020A45D0020D45C0020845D002061
:1029B0002DE9F04385B00746884614461E46900030
:1029C00000F004FCF0B18146542000F0FFFB054606
:1029D000A0B1C0F83090D5B10023039302950D9BB0
:1029E00001930C9B00933346224641463846FFF73D
:1029F0008CFE2846FFF702FF012005E0484600F064
:102A000035FCE8E74FF0FF3005B0BDE8F0834FF04C
:102A1000FF30F9E700B583B0114B01930023009319
:102A2000402210491048FFF7C3FF012802D003B02D
:102A30005DF804FB4FF0A00383F31188BFF36F8FA1
:102A4000BFF34F8F094B4FF0FF321A60084B012242
:102A50001A60084B00221A6000F086FBE7E700BF0F
:102A6000805D0020C0702000F1282000845D0020DF
:102A7000A05D0020CC5D0020024A13680133136082
:102A8000704700BF4C5D0020F8B5344B1B68002B2D
:102A900058D1334B1E6801361E6086B1314B1B681E
:102AA000B34245D90027304B1B68DB6A03EB830335
:102AB0009A002E4B9B58012B49D9012747E02C4AFD
:102AC00011682C4B1868106019602B4A1368013389
:102AD0001360FFF7FBFDE1E70127254B1B681B682F
:102AE00043B3234B1B68DB68DC6863689E4226D3D4
:102AF000251D284600F00BFCA36A1BB104F1180049
:102B000000F005FCE36A01229A401C490868024370
:102B10000A6003EB83039A0029461448104400F02E
:102B2000D1FBE26A104B1B68DB6A9A42D4D2D4E72D
:102B30000027D2E70B4B4FF0FF321A60B3E7094A88
:102B40001360B0E70E4A13680133136000270D4B82
:102B50001B6803B101273846F8BD00BF4C5D00205B
:102B6000CC5D0020845D0020D05C0020DC5C002077
:102B7000D45C0020D85C0020885D0020545D0020DB
:102B8000485D0020D05D002038B500F083FA2D4B61
:102B90001A68013A1A601B68002B4DD12A4B1B683A
:102BA0000BB9002449E00024284B1B681BB3274BBA
:102BB000DB68DC6804F1180000F0A9FB251D28463D
:102BC00000F0A5FBE06A01238340214A11680B4312
:102BD000136000EB800029461E4B03EB800000F0E1
:102BE00071FBE26A1C4B1B68DB6A9A42DCD31B4B0D
:102BF00001221A60D8E70CB1FFF768FD184B1C687A
:102C000074B9164B1C68C4B1164B4FF080521A6051
:102C1000BFF34F8FBFF36F8F01240EE0013C07D04D
:102C2000FFF732FF0028F9D00C4B01221A60F5E7BC
:102C30000B4B00221A60E4E7002400F03BFA204628
:102C400038BD00BF4C5D0020405D00208C5D002041
:102C5000545D0020DC5C0020D05C0020D05D0020B2
:102C6000485D002004ED00E010B540B90A4B4FF07C
:102C700080521A60BFF34F8FBFF36F8F10BD0446B1
:102C8000FFF7FAFE00212046FFF746FEFFF77CFF24
:102C90000028F3D1EAE700BF04ED00E0184B1B6801
:102CA0001BB1184B01221A60704710B4154B00225B
:102CB0001A60154B1B68B3FA83F3DBB2C3F11F0331
:102CC000124903EB830082000A4450684068506058
:102CD00003EB8304A20014460832114488420AD050
:102CE00003EB83039A00094B13445B68DA68084BD3
:102CF0001A6010BC70474068044A22445060EFE7F5
:102D00004C5D0020D05D0020545D0020DC5C002084
:102D1000D05C002010B50C46044B1968183100F047
:102D2000DDFA01212046FFF7F7FD10BDD05C002041
:102D300038B5C368DC6804F11805284600F0E7FAE6
:102D4000134B1B68E3B9251D284600F0E0FAE06A42
:102D5000012383400F4A11680B43136000EB80008E
:102D600029460D4B03EB800000F0ACFAE26A0B4BF6
:102D70001B68DB6A9A4208D90120094B186038BDEC
:102D80002946084800F09EFAF0E70020F7E700BF68
:102D90004C5D0020545D0020DC5C0020D05C0020F5
:102DA000D05D00208C5D0020034B1B680360034B4B
:102DB0001B684360704700BF885D0020CC5D002029
:102DC000F8B504460D4600F065F9124B19686368C2
:102DD000C81A2A68B2F1FF3F14D027680E4E366831
:102DE000B74201D08B4212D9824203D800232B6014
:102DF000012408E05B1A13442B602046FFF7D4FF40
:102E0000002400E0002400F055F92046F8BD01241C
:102E1000F9E700BFCC5D0020885D0020014B012256
:102E20001A607047D05D002000284FD038B50446A6
:102E3000C36A284A1268D26A93423FD28269002A42
:102E400005DB244A1268D26AC2F105028261616917
:102E500003EB8303204A02EB8303994205D01D4B09
:102E60001B68DB6AE362012038BD251D284600F09F
:102E70004EFA70B9E26A02EB82039B001649CB5806
:102E80003BB9012303FA02F214490B6823EA020357
:102E90000B60104B1B68D86AE062012404FA00F34F
:102EA0000E4A11680B43136000EB800029460A4B61
:102EB00003EB800000F006FA2046D5E7426C054B94
:102EC0001B68DB6A9A4203D30020CDE700207047DD
:102ED0000120C9E7D05C0020DC5C0020545D0020AC
:102EE000002834D038B50446836C013B8364C16A42
:102EF000426C91422DD00BB1002038BD051D2846F3
:102F000000F005FA68B9E26A02EB82039B001249FD
:102F1000CB5833B90123934010490A6822EA0302CF
:102F20000A60606CE062C0F10503A361012404FA49
:102F300000F30A4A11680B43136000EB8000294636
:102F4000054B03EB800000F0BDF92046D5E70020DB
:102F500070470020D1E700BFDC5C0020545D0020FA
:102F600000283FD038B50446436C8B4200D20B4654
:102F7000E26A9A4202D0A16C012900D038BDE36216
:102F8000A169002902DBC3F10503A361616902EBBA
:102F90008202154B03EB82029142EFD1251D284698
:102FA00000F0B5F970B9E26A02EB82039B000E49AA
:102FB000CB583BB9012303FA02F20C490B6823EA10
:102FC00002030B60E06A01238340084A11680B4347
:102FD000136000EB80002946034B03EB800000F0F8
:102FE00071F9CBE7704700BFDC5C0020545D002026
:102FF000054B1B6823B1044B1A68936C013393642F
:10300000014B1868704700BFD05C002082B00023DD
:1030100001934FF0A00383F31188BFF36F8FBFF3C9
:103020004F8F019B002BFCD002B070470648006810
:10303000006880F3088862B661B6BFF34F8FBFF3B4
:103040006F8F00DF00BF000008ED00E04FF08073DD
:1030500040F8043C21F0010140F8081C034B40F803
:103060000C3C40F8202C4038704700BF0D30200049
:10307000074B19680868B0E8F00F80F30988BFF3C0
:103080006F8F4FF0000080F311884EF00D0E7047E7
:10309000D05C00204FF0A00383F31188BFF36F8F43
:1030A000BFF34F8F024A136801331360704700BFAC
:1030B00070410020034A1368013B13600BB983F38E
:1030C00011887047704100200000000000000000DF
:1030D000EFF30980BFF36F8F0D4B1A6820E9F00FF3
:1030E00010602DE908404FF0A00080F31188FFF731
:1030F000D5FD4FF0000080F31188BDE80840196845
:103100000868B0E8F00F80F30988BFF36F8F70474D
:10311000D05C002008B54FF0A00383F31188BFF303
:103120006F8FBFF34F8FFFF7AFFC18B1034B4FF01A
:1031300080521A60002383F3118808BD04ED00E07B
:10314000054B00221A6005490A60054A05491160CD
:1031500007221A60704700BF10E000E018E000E0AE
:1031600014E000E0FFE1040010B50B4B1A6842F4D4
:1031700060021A601A6842F060421A60FFF7E0FFCE
:103180000024064B1C60FFF751FFFFF787FDFFF798
:103190003DFF204610BD00BF20ED00E07041002043
:1031A000074B23F00703074A136000205060064ACC
:1031B00040F6F8715160106059601A60704700BFA6
:1031C000DC5D0020E06D0020D46D002070B5044669
:1031D000FFF752FC214B1B687BB134B1083414F06B
:1031E000070F02D024F007040834621E40F6F6737D
:1031F0009A422FD81A4D2B6807E0FFF7D1FF174BE3
:1032000001221A60E9E71D4613465968A14202D21D
:103210001A68002AF7D1134A93421DD02E68083647
:103220001A682A60091B10290BD91D1969605C6096
:103230006C680B4A104612685168A142FAD32A60A2
:1032400005605968084A13685B1A1360FFF79CFC15
:10325000304670BD0026F9E70026F7E7DC6D002058
:10326000E06D0020D46D002074410020B8B138B565
:103270000446A0F10805FFF7FFFB54F8041C084BB7
:1032800018461B685A688A42FAD344F8083C05601D
:10329000044A136819441160FFF776FC38BD704783
:1032A000E06D00207441002000F1080343604FF0FE
:1032B000FF328260C3600361002303607047002314
:1032C0000361704743684B609A688A609A685160EE
:1032D00099600861036801330360704730B40D687A
:1032E000B5F1FF3F11D000F108031C465B681A6876
:1032F000AA42FAD963684B6099608C60616008618A
:1033000003680133036030BC70470469F2E7036966
:10331000416882688A6051605968814206D0002203
:1033200002611A68013A1A60186870475A60F6E735
:10333000FEE700000C4B98420FD003F580539842F3
:103340000DD003F5805398420BD003F5805398427B
:1033500001D00020704701207047012070470120F4
:1033600070470120704700BF00900D4010B5044623
:10337000FFF7E0FF60B1104B9C4218D00DD90F4B06
:103380009C4216D003F580539C420ED113200BE0D3
:1033900062210B48FFF7CCFFEDE7A3F580539C4279
:1033A00001D1102000E0002010BD0020FCE711201A
:1033B000FAE71220F8E700BF00A00D4000B00D4072
:1033C000C870200070B504460D461646FFF7B2FFE0
:1033D00090B1022E15D816F0010F17D0D4F8003492
:1033E0002B43C4F8003416F0020F14D0D4F8203464
:1033F0001D43C4F8205470BDB5210948FFF798FF5C
:10340000E7E7B7210648FFF793FFE4E7D4F8003475
:1034100023EA0503E5E7D4F8203423EA0505E8E7C5
:10342000C870200070B504460E461546FFF782FFAF
:1034300008B33DB1042D05D0012D03D0022D01D0DC
:10344000072D1ED115F0010F21D0D4F808343343D5
:10345000C4F8083415F0020F1ED0D4F804343343F6
:10346000C4F8043415F0040F1BD0D4F80C341E43F8
:10347000C4F80C6470BD40F219110C48FFF758FFF6
:10348000D7E74FF48E710948FFF752FFDAE7D4F817
:10349000083423EA0603DBE7D4F8043423EA0603FE
:1034A000DEE7D4F80C3423EA0606E1E7C870200012
:1034B00038B504460D46FFF73DFF18B145B1D4F8C5
:1034C000180438BD4FF4D5710348FFF731FFF5E715
:1034D000D4F81404F5E700BFC870200038B50446DE
:1034E0000D46FFF727FF10B1C4F81C5438BD4FF448
:1034F000EC710248FFF71CFFF6E700BFC870200020
:1035000038B504460D46FFF715FF50B12046FFF7CA
:103510002DFF0446294600F09BFA204600F01EFAD3
:1035200038BD4FF4FD710248FFF702FFEEE700BF20
:10353000C870200070B504460D461646FFF7FAFE27
:1035400010B144F8256070BD4FF41C710148FFF7BD
:10355000EFFEF6E7C870200038B504460D46FFF7C9
:10356000E9FE50B1002229462046FFF72BFF00223A
:103570002946204600F014FC38BD4FF4247102485F
:10358000FFF7D6FEEEE700BFC870200038B504464E
:103590000D46FFF7CFFE50B1012229462046FFF726
:1035A00011FF00222946204600F0FAFB38BD40F208
:1035B000B5210248FFF7BCFEEEE700BFC87020004F
:1035C00038B504460D46FFF7B5FE50B10222294634
:1035D0002046FFF7F7FE00222946204600F0E0FBD8
:1035E00038BD40F206310248FFF7A2FEEEE700BF09
:1035F000C870200038B504460D46FFF79BFE68B141
:103600000E4B9C4210D0022229462046FFF7DAFEDC
:1036100000222946204600F0C3FB38BD40F25B3152
:103620000748FFF785FEEBE715F00F0FEBD04FF4DF
:1036300057710348FFF77CFEE5E700BF00B00D407F
:10364000C870200038B504460D46FFF773FE68B118
:103650000E4B9C4210D0022229462046FFF7B2FEB4
:1036600008222946204600F09BFB38BD40F28531F8
:103670000748FFF75DFEEBE715F00F0FEBD040F2C8
:1036800086310348FFF754FEE5E700BF00B00D4068
:10369000C870200070B504460D461646FFF74AFE76
:1036A000A8B1012E19D8164B9C421CD00023154AF4
:1036B00094421AD0144A944219D09D40012E18D039
:1036C000D4F8043723EA0505C4F8045770BD40F266
:1036D000BE310E48FFF72CFEE3E74FF470710B4844
:1036E000FFF726FEDFE70823E1E71023E2E71823D0
:1036F000E3E7D4F804371D43C4F80457E6E700BFF6
:1037000000A00D4000B00D4000C00D40C87020006A
:1037100038B504460D46FFF70DFE78B1104B9C42BC
:1037200012D000230F4A944210D00F4A94420FD077
:1037300085B1D4F81807D840C0B238BD40F2BA41BC
:103740000A48FFF7F5FDE9E70823EBE71023ECE76C
:103750001823EDE7D4F82007D840C0B2EDE700BF4A
:1037600000A00D4000B00D4000C00D40C87020000A
:1037700038B504460D46FFF7DDFD80B10E4B9C4287
:1037800013D000210D4B9C4211D00D4B9C4210D008
:103790008D40D4F818172943C4F8181738BD40F2E3
:1037A000FB410848FFF7C4FDE8E70821EAE71021DC
:1037B000EBE71821ECE700BF00A00D4000B00D4082
:1037C00000C00D40C870200010B5044610F03F0F37
:1037D00004D0054B18682043186010BD40F23351E7
:1037E0000248FFF7A5FDF4E794200D40C8702000C3
:1037F0000C4B98420FD003F5805398420DD003F53F
:10380000805398420BD003F58053984201D000209A
:103810007047012070470120704701207047012048
:10382000704700BF0000034070B505460C461646C1
:10383000FFF7DEFFA8B1FF2C06D0B4F57F4F03D011
:103840004FF6FF739C4212D11A4B9D4217D003F5DD
:1038500080539D421BD003F580539D420DD03325EC
:103860000EE040F239311448FFF762FDE3E740F221
:103870003B311148FFF75CFDE6E7272500E02325F3
:1038800014F0FF0F05D114F47F4F0AD170BD252528
:10389000F6E73146284600F0DBF8284600F05EF8EF
:1038A000F1E701353146284600F0D2F8284600F00D
:1038B00055F8EBE700000340D470200038B504460B
:1038C0000D46FFF795FF10B13DB1206A38BD40F2BB
:1038D00004410348FFF72CFDF6E7E069F6E700BF77
:1038E000D470200038B504460D46FFF781FF08B1BB
:1038F000656238BD40F22E410148FFF719FDF7E738
:10390000D470200008B50146182000F0A1F8182056
:1039100000F024F808BD000038B504460D46031F2A
:103920003B2B10D8A2080B4B53F822100B6804F065
:103930000304E400FF22A24023EA020305FA04F490
:103940001C430C6038BD4FF4DE710348FFF7F0FCF8
:10395000E8E700BF08712000E470200010B50446BD
:103960003F2814D8042C18D0052C1CD0062C20D0AD
:103970000F2C24D00F2C15D9103C04F01F01640922
:10398000124B53F8242001238B4013600AE04FF4BC
:10399000FB710F48FFF7CCFCE4E70E4A136843F4D1
:1039A0008033136010BD0B4A136843F40033136077
:1039B000F8E7084A136843F480231360F2E7064AE5
:1039C000136843F002031360ECE700BFF4702000BB
:1039D000E470200024ED00E010E000E010B50446A3
:1039E0003F2810D80E2C14D00F2C18D00F2C15D91E
:1039F000103C04F01F0164090C4B53F824200123F0
:103A00008B4013600AE040F2AE210948FFF790FCBA
:103A1000E8E7084A136843F00063136010BD054AE5
:103A2000136843F000731360F8E700BFAC71200027
:103A3000E470200004ED00E0044B1B6813F0010F5C
:103A400001D0012070470020704700BF98200D4032
:103A500070B504460E463F2813D8FFF7EDFFA8B116
:103A6000104B1B68104DAB4218D00E4B186800234A
:103A70003F2B11D850F823100B4A42F82310013382
:103A8000F6E7FE210948FFF753FCE6E74FF48171A2
:103A90000648FFF74DFCE3E7024B1D60024B43F87D
:103AA000246070BD08ED00E000400020E4702000BC
:103AB00070B504460D461646244B98420BD003F5CC
:103AC0008053984207D003F58053984203D003F502
:103AD0008053984202D135B1002315E0FB211C48E8
:103AE000FFF726FCF7E7FC211948FFF721FCF3E775
:103AF000A2F58052944203D1164A52F8232001E0E5
:103B0000A2F5A04216600133072B1ED845FA03F236
:103B100012F0010FF7D0104A94420ED0E8D90F4AA4
:103B200094420ED002F58052944203D10C4A52F8CE
:103B30002320E7E7A2F50042E4E70A4A52F82320EF
:103B4000E0E7094A52F82320DCE770BD00900D4001
:103B5000C0712000EC71200000A00D4000B00D40AD
:103B6000AC7220002C7220006C72200070B50546EB
:103B70000C461646854B98420BD003F5805398426D
:103B800007D003F58053984203D003F58053984241
:103B900073D1631EDBB2012B0BD9042C09D0082C86
:103BA00007D0102C05D0202C03D0402C01D0802C25
:103BB00069D1774B9E423BD004339E4238D00433C8
:103BC0009E4235D004339E4232D004339E422FD0E1
:103BD00004339E422CD004339E4229D004339E42AB
:103BE00026D004339E4223D004339E4220D0043397
:103BF0009E421DD004339E421AD004339E4217D0F9
:103C000004339E4214D004339E4211D004339E42AA
:103C10000ED004339E420BD004339E4208D00433AE
:103C20009E4205D004339E4202D004339E4230D1DE
:103C3000584B9D4259D032D9574B9D4276D003F50F
:103C400080539D4243D1012C00F091800023022C2F
:103C500000F08F80042C00F08E80082C00F08D8006
:103C6000102C00F08C80202C00F08B80402C00F079
:103C70008A80802C29D11F2327E040F26D1147480C
:103C8000FFF756FB85E740F271114448FFF750FB00
:103C90008FE74FF4C3714148FFF74AFBC8E7A3F52C
:103CA00080539D4210D1022C13D00023042C12D03B
:103CB000082C12D0102C12D0202C12D0402C12D054
:103CC000802C02D1072300E00023336070BD002365
:103CD000FBE70123EAE70223EAE70323EAE70423F9
:103CE000EAE70523EAE70623EAE7012C10D00023E0
:103CF000022C0FD0042C0FD0082C0FD0102C0FD07A
:103D0000202C0FD0402C0FD0802CDED10F23DCE7ED
:103D10000823EDE70923EDE70A23EDE70B23EDE7A1
:103D20000C23EDE70D23EDE70E23EDE7012C10D07A
:103D30000023022C0FD0042C0FD0082C0FD0102CF5
:103D40000FD0202C0FD0402C0FD0802CBDD11723AA
:103D5000BBE71023EDE71123EDE71223EDE7132373
:103D6000EDE71423EDE71523EDE71623EDE7182320
:103D70006DE719236EE71A236FE71B2370E71C23F7
:103D800071E71D2372E71E2373E700BF00900D400B
:103D900000410D4000A00D4000B00D40C07120005A
:103DA00070B504460D461646364B98420BD003F5C7
:103DB0008053984207D003F58053984203D003F50F
:103DC000805398420ED19DB1082E06D0042E04D007
:103DD000022E02D0012E00D086B92B4B9C4213D06C
:103DE00000232CE040F259212848FFF7A1FAEAE726
:103DF00040F25A212548FFF79BFAE5E740F25F21A0
:103E00002248FFF795FAE8E715F00F0FE8D0042EE7
:103E100003D0022E01D0012EE2D140F266211B48D0
:103E2000FFF786FADCE7A2F58052944203D1184AE4
:103E300052F8232001E0A2F59F4216600133072BC0
:103E40001ED845FA03F212F0010FF7D0114A94423E
:103E50000ED0E8D90C4A94420ED002F5805294421A
:103E600003D10D4A52F82320E7E7A2F5FF42E4E729
:103E70000A4A52F82320E0E7094A52F82320DCE7F7
:103E800070BD00BF00900D4000B00D40C07120001B
:103E9000CC71200000A00D408C7220000C7220001C
:103EA0004C7220002DE9F84305468946174698468E
:103EB000089C099E354B984203D003F580539842E5
:103EC00046D14FB1022F07D0012F05D0032F03D0C9
:103ED000102F01D0202F40D1B8F1020F42D8B8F1F5
:103EE000000F02D1B4EB590F0CD9B8F1000F05D077
:103EF000274BA3FB0923B4EBD30F03D98621254815
:103F0000FFF716FAB9FBF4F4B4F57E4F2FD8331F40
:103F10000C2B31D8B8F1020F33D00023B8F1000FC9
:103F200031D1002213436B6000220232B4FBF2F362
:103F3000013BFF2BF9D82A61B901C9B207F030075C
:103F400041EA03233B43013E33432B60BDE8F88342
:103F50007B211048FFF7ECF9B3E781210D48FFF70B
:103F6000E7F9B9E784210B48FFF7E2F9B7E78721C2
:103F70000848FFF7DDF9CAE788210648FFF7D8F9B6
:103F8000C8E70823CAE70422CCE700BF008000404E
:103F9000ABAAAAAACC72200010B50446084B9842DE
:103FA00003D003F58053984204D1636843F00203C1
:103FB000636010BDB9210348FFF7BAF9F5E700BF08
:103FC00000800040CC72200010B50446084B984297
:103FD00003D003F58053984204D1636823F00203B1
:103FE000636010BDD2210348FFF7A2F9F5E700BFD7
:103FF00000800040CC72200038B504460D460D4BC1
:10400000984203D003F5805398420BD1094B9C4250
:104010000DD0322429462046FFF71AFD2046FFF72F
:104020009DFC38BDF6210448FFF782F9EEE717241E
:10403000F0E700BF00800040CC72200038B5044695
:104040000D46094B984203D003F58053984202D1A4
:104050003DB1E06938BD40F281110448FFF768F9CD
:10406000F6E7A069F6E700BF00800040CC722000B0
:1040700038B504460D46074B984203D003F58053EC
:10408000984201D1256238BD4FF4D8710248FFF73C
:104090004FF9F7E700800040CC72200038B50446A5
:1040A0000D46104B984203D003F5805398420DD132
:1040B000226802F00F026FF0010393402B420BD1F4
:1040C000E36813F0020FFBD0A56038BD4FF4E87130
:1040D0000548FFF72DF9EBE74FF4E9710248FFF7C8
:1040E00027F9EDE700800040CC72200038B5044687
:1040F0000D460A4B984203D003F58053984206D1EF
:10410000E36813F0040FFBD0A3682B6038BD40F2C6
:1041100027210348FFF70CF9F2E700BF00800040B9
:10412000CC72200038B504460D46084B984203D0A7
:1041300003F58053984203D1616A2943616238BD17
:1041400040F27D210248FFF7F3F8F5E700800040D8
:10415000CC72200038B504460D46094B984203D076
:1041600003F58053984204D1616A21EA0501616236
:1041700038BD4FF427710348FFF7DAF8F4E700BFC2
:1041800000800040CC72200010B50446084B9842D5
:1041900003D003F58053984203D1E068C0F30010C8
:1041A00010BD40F2B9210348FFF7C2F8F5E700BFA0
:1041B00000800040CC72200038B504460D460C4B00
:1041C000984203D003F58053984204D1012D08D8BA
:1041D000C4F8C85F38BD40F2DD210648FFF7A8F8F3
:1041E000F4E740F2DE210348FFF7A2F8F0E700BF52
:1041F00000800040CC72200003281ED9B0F5807FDB
:104200001DD040F2011398421BD0B0F5007F1AD0A8
:1042100040F20123984218D0B0F5407F17D0B0F596
:10422000806F16D040F20143984214D0B0F5A06FD1
:1042300001D0002070470120704701207047012005
:10424000704701207047012070470120704701200E
:104250007047012070470120704700000E4B1B681B
:1042600003F00703072B05D8DFE803F01406080A5C
:104270000C0E10120020704708487047084870471D
:104280000848704708487047084870470848704712
:10429000084870470848704704200D400024F40087
:1042A00000127A0000093D0080841E0040420F0089
:1042B00020A1070090D003000048E80110B5044693
:1042C000072807D8064B186820F4E06040EA04206D
:1042D000186010BD4FF4B0710248FFF729F8F1E7FC
:1042E00000200D40D87220000E4B1B68C3F3022340
:1042F000072B05D8DFE803F01406080A0C0E10128D
:1043000000207047084870470848704708487047C1
:104310000848704708487047084870470848704781
:104320000848704704200D400024F40000127A0071
:1043300000093D0080841E0040420F0020A10700BC
:1043400090D003000048E80101387FF4FDAF7047CA
:1043500070B506460D461446072A01D822B919B190
:10436000D9211B48FEF7E4FF25B91A4A136843F424
:1043700000131360174B1A68174B13400EB943F024
:104380008073BDB14FF480352B432343114A136032
:10439000124B1B68002403F48033AB420CD04FF661
:1043A000FE739C4208D81020FFF7CEFF0B4B1B6812
:1043B0000134F0E70025E7E74FF6FE739C4200D892
:1043C00070BD4FF481710248FEF7B2FFF8E700BFFD
:1043D000D872200000200D40F8FFFEFE04200D40A2
:1043E00070B51B4B1D6805F4E06615F0070500D09D
:1043F00056B9184B1A680DBB01231A4306BB4FF47C
:1044000080731343134A1360134C236843F004036F
:10441000236000F0A7FB236823F00403236005B1A9
:104420005EB90C4B1A686DB96FF007031A4066B994
:104430006FF4E0631340074A136070BD0023DCE7AC
:104440000023DEE74FF0FF33F0E74FF0FF33F1E7F3
:1044500004200D4000200D4010ED00E010B5044692
:10446000FFF7CAFE68B1C4F30322094B53F82210C8
:104470000B6804F00F04012202FA04F41C430C60E0
:1044800010BD40F2D7210348FEF752FFEBE700BF13
:1044900000732000D872200010B50446FFF7ACFE70
:1044A00068B1C4F30322094B53F822100B6804F0DF
:1044B0000F04012202FA04F41C430C6010BD40F208
:1044C0001A310348FEF734FFEBE700BF18732000F2
:1044D000D872200010B50446FFF78EFE70B1C4F309
:1044E0000322094B53F822100B6804F00F04012239
:1044F00002FA04F423EA04040C6010BD40F2873190
:104500000248FEF715FFEAE7E8722000D8722000A3
:10451000064B984207D003F58053984201D0002003
:104520007047012070470120704700BF00C0004065
:1045300070B506460C461546FFF7EAFF68B1042C35
:1045400010D83DB1082D05D0102D03D0182D01D065
:10455000202D0CD12C43746370BDA8210648FEF7B2
:10456000E7FEECE7AD210448FEF7E2FEE9E7B22101
:104570000148FEF7DDFEEDE73073200010B504467C
:10458000FFF7C6FF50B1E36A43F01003E362236B09
:1045900043F4407343F00103236310BD40F2A311C1
:1045A0000148FEF7C5FEEEE73073200010B5044663
:1045B000FFF7AEFF70B1A36913F0080FFBD1E36AF8
:1045C00023F01003E362236B23F4407323F0010311
:1045D000236310BD40F2C3110148FEF7A9FEEAE7CC
:1045E00030732000F8B505460C4616461F46FFF707
:1045F0008FFFC0B1EEB12846FFF7D8FFB4EB061F1E
:104600001DD22B6B43F020032B637608E400B4FB30
:10461000F6F40134E3096B62C4F34504AC62EF6263
:104620000023AB61F8BD40F215110748FEF780FE8C
:10463000E0E74FF48B710448FEF77AFEDBE72B6B63
:1046400023F020032B63E1E73073200010B504460C
:10465000FFF75EFF20B1E36A43F01003E36210BD91
:1046600040F2E9110148FEF763FEF4E730732000E1
:1046700038B505460C46FFF74BFF40B1102C00D073
:104680005CB9296B21F010012143296338BD4FF437
:1046900018710548FEF74CFEF0E740F2622102482F
:1046A000FEF746FEEDE700BF3073200010B504466C
:1046B000FFF72EFF30B1A36913F0100F0CBF0120DC
:1046C000002010BD40F29F210148FEF731FEF2E7C5
:1046D0003073200010B50446FFF71AFF28B1A36914
:1046E00013F0100F07D1206810BD40F2D721034806
:1046F000FEF71EFEF3E74FF0FF30F5E730732000C2
:1047000038B504460D46FFF703FF30B1A36913F037
:10471000200F08D12560012006E040F22631034831
:10472000FEF706FEF2E7002038BD00BF3073200020
:1047300038B504460D46FFF7EBFE58B1094B9C42D5
:104740000ED0162429462046FFF782F92046FFF7AF
:1047500005F938BD40F2BB310348FEF7E9FDEDE74E
:104760001524EFE700C000403073200038B5044640
:104770000D46FFF7CDFE18B1A16B2943A16338BDEB
:104780004FF483610148FEF7D3FDF5E73073200055
:1047900038B504460D46FFF7BBFE20B1A16B21EAF8
:1047A0000501A16338BD40F237410248FEF7C0FD64
:1047B000F4E700BF3073200038B504460D46FFF71C
:1047C000A7FE10B13DB1206C38BD40F25541034801
:1047D000FEF7AEFDF6E7E06BF6E700BF30732000B2
:1047E00038B504460D46FFF793FE08B1656438BD41
:1047F00040F285410148FEF79BFDF7E7307320004A
:1048000038B504460D46FFF783FE18B1A16C294365
:10481000A16438BD40F2A9410148FEF789FDF5E7E2
:104820003073200038B505460C46FFF771FE20B105
:10483000012C08D8C5F8C84F38BD40F22F510548A3
:10484000FEF776FDF4E74FF4A6610248FEF770FD2F
:10485000F0E700BF30732000014B01221A6070475F
:1048600004F00F4010B504464FF6E073184207D12C
:1048700004F01F04012303FA04F4044B1C6010BD70
:104880009A210348FEF754FDF2E700BF28F00F40DD
:104890003C73200010B5044620F47F7323F003031B
:1048A000984205D1B4F1005F07D3064B1C6010BDE0
:1048B000F5210548FEF73CFDF4E7F6210248FEF736
:1048C00037FDF2E708F00F403C73200010B50446B6
:1048D0004FF6E073184207D104F01F04012303FAD6
:1048E00004F4044B1C6010BD40F243110248FEF773
:1048F0001FFDF1E714F00F403C73200038B504466B
:104900000D464FF6E073184222D135F00F0325D142
:1049100004F01F0415F0010F03D00123A340124A35
:10492000136015F0020F03D00123A3400F4A136058
:1049300015F0040F03D00123A3400D4A136015F0B6
:10494000080F04D0012303FA04F40A4B1C6038BD9D
:104950004FF4D8710848FEF7EBFCD6E74FF4D97155
:104960000548FEF7E5FCD3E71CF00F4034F00F409C
:104970003CF00F4024F00F403C73200038B5044653
:104980000D464FF6C07318420ED10D4B1B688BB10C
:1049900004F03F040A4B186800EB041083680949CF
:1049A00019402943816038BD40F261210648FEF775
:1049B000BFFCEAE740F262210348FEF7B9FCE7E7F3
:1049C00008F00F40F73FFC003C7320002DE9F84F42
:1049D00083460D4616461F46DDF828804FF6C07305
:1049E000184247D13A4B1B68002B49D0062D4DD8B1
:1049F000B146B6F1005F4FD3BA46B7F1005F51D36D
:104A000008F1FF34B4F5806F52D20BF03F0C304BFD
:104A10001A684FEA0C1E02EB0E00836823F47F53E2
:104A200023F037031BF0200F05D0042D01D0062DF5
:104A300001D145F0010545EA0411194301F0406335
:104A4000B3F1406F04D09E0E08FA06F64E44013EC4
:104A500042F80E6001F04043B3F1404F33D0042DD3
:104A60002CD0062D2AD09B0F08FA03F8D04408F169
:104A7000FF3728E040F2D1211648FEF759FCB1E794
:104A800040F2D2211348FEF753FCAFE740F2D321A6
:104A90001048FEF74DFCABE74FF435710D48FEF7BB
:104AA00047FCA9E740F2D5210A48FEF741FCA7E7F9
:104AB00040F2D6210748FEF73BFCA6E74CF0200762
:104AC00002EB07170C3747608160BDE8F88F00BF25
:104AD00008F00F403C73200010B504464FF6C07339
:104AE000184210D10E4B1B689BB104F03F040C4BD5
:104AF0001B6803EB0414A06843F6F773184001D059
:104B00000009013010BD40F2B3310648FEF710FC39
:104B1000E8E74FF46D710348FEF70AFCE5E700BFD4
:104B200008F00F403C73200038B504460D4659B1DB
:104B3000A4F13E03012B0DD829462046FEF788FF3D
:104B40002046FEF70BFF38BD4FF488610448FEF79E
:104B5000EFFBEDE740F241410148FEF7E9FBEBE7EF
:104B60003C73200030BF704710B5054C34B113467C
:104B70000A460146022000F0A9F910BD204610BDEA
:104B8000CD4E200070B50D4E0D4D761BB61006D0E3
:104B90000024013455F8043B9847A642F9D1094E48
:104BA000094D02F069FC761BB61006D000240134D2
:104BB00055F8043B9847A642F9D170BD8474200093
:104BC000847420009874200084742000844641EA94
:104BD000000313F0030349D1403A23D30B68036069
:104BE0004B6843608B688360CB68C3600B6903616B
:104BF0004B6943618B698361CB69C3610B6A036253
:104C00004B6A43628B6A8362CB6AC3620B6B03633A
:104C10004B6B43638B6B8363CB6BC363403040311F
:104C2000403ADBD230320BD30B6803604B684360F1
:104C30008B688360CB68C36010301031103AF3D2B8
:104C40000C3205D351F8043B40F8043B043AF9D246
:104C5000043208D0D2071CBF11F8013B00F8013B19
:104C600001D30B8803806046704700BF082A13D326
:104C70008B07B1D010F00303AED0C3F10403D21AF6
:104C8000DB071CBF11F8013B00F8013BA4D331F84E
:104C9000023B20F8023B9FE7043AD9D3013A11F8CE
:104CA000013B00F8013BF9D20B7803704B7843705D
:104CB0008B78837060467047F0B4860746D0541EE8
:104CC000002A3CD0CAB2034602E014F1FF3436D3C6
:104CD00003F8012B9D07F8D1032C29D9CDB245EA61
:104CE00005250F2C45EA054533D9A4F110063609F0
:104CF00003F1200707EB061703F1100242E9045500
:104D000042E902551032BA42F8D1721C14F00C0F6D
:104D100003EB021204F00F0613D0331F23F003033A
:104D20000433134442F8045B9342FBD106F00304BE
:104D30002CB1C9B21C4403F8011B9C42FBD1F0BC4E
:104D4000704734461346002CF3D1F8E71446034667
:104D5000C2E71A462646E0E738B5124B05461C68FE
:104D6000A06B18B10023C0E9045338BD182000F02F
:104D70004DF9A06378B101220023C0E904230A4B56
:104D80000B24836000230949094A8481C0E9001289
:104D9000C0E9045338BD0246064B4221064800F0E4
:104DA000EDF800BF78410020ECDE05000E33CDABFE
:104DB00034126DE6507320006873200038B51A4B2A
:104DC0001C68A26B92B114691849536901FB04F184
:104DD000174800FB0313A4FB0045611C1D4445F16B
:104DE000000323F00040C2E9041338BD182000F08E
:104DF0000DF90246A06388B1012400250B21C0E90A
:104E000004450C4B0948136003460B4D0B4C918134
:104E10000B49C2E90154C2E9041338BD094B4E21C4
:104E2000094800F0ABF800BF784100202DF451583C
:104E30002D7F954C0E33CDAB34126DE6ECDE0500C4
:104E40002E7F954C50732000687320000CB470B511
:104E50006FF000459CB020AC54F8042B094E029131
:104E60000691234602A901940795CDE9045600F066
:104E700073FA0022029B1A701CB0BDE8704002B0A9
:104E8000704700BF0802FFFF0EB4034630B56FF055
:104E900000449CB01FA951F8042B0A480A4D029304
:104EA000069301910B46006802A90794CDE90445D9
:104EB00000F052FA0022029B1A701CB0BDE830408C
:104EC00003B07047784100200802FFFF2DE9F04150
:104ED000264C82B025680DB36C681F2C42DC9846C6
:104EE000064690B1D5F8880038B3D0F800310127D4
:104EF000A74047EA030C022E00EB840340F824206D
:104F0000C0F800C1C3F8808011D00020631C0234B7
:104F10006B6045F8241002B0BDE8F081144E154DC9
:104F20002660EDB12C683546C6F88840D4E7D0F845
:104F300004311F43C0F80471E7E70F4BCDE90012BD
:104F400083B14FF4847000F061F858B1DDE90012CC
:104F500000276C683B46C0E94077C5F88800C6E783
:104F60003546B9E74FF0FF30D5E700BF7C6F002032
:104F7000F06E00204C7320000D50200000B50A4C4C
:104F80000546206885B01C46C06852B1074BCDE984
:104F9000013200912B462246054900F023F800F02B
:104FA00099FF044B1A46F2E7784100209C732000D9
:104FB000AC7320008C6C200008B513460022FFF76C
:104FC000DDFF00BF0CB410B582B004AC54F8042B64
:104FD0002346019400F03EFB02B0BDE8104002B051
:104FE000704700BF0EB430B582B005AC54F8042B46
:104FF000054D014623462868019400F02BFB02B0C2
:10500000BDE8304003B0704778410020024B0146B4
:10501000186800F05FB800BF78410020024B0146DD
:10502000186800F003B800BF7841002000293AD08A
:1050300038B551F8043C0C1F002BB8BFE4180546E6
:1050400001F020FC224B1A682AB1A2420DD9216836
:105050006018824221D0626028461C60BDE838405A
:1050600001F012BCA34203D81A465368002BF9D1B1
:1050700011685018A04217D022D8216860188342C6
:1050800003BFD3E900030918C4E900136360546047
:105090002846BDE8384001F0F7BBD2E900020144E0
:1050A000C4E90012D8E770472068014450188342D1
:1050B0001160EDD1D3E900030144C2E90013E7E731
:1050C0000C2328462B60BDE8384001F0DDBB00BF53
:1050D000806F0020F8B5CD1C25F0030508350C2D98
:1050E00038BF0C25002D064633DBA94231D82A4FA4
:1050F00001F0C8FB3A6852B113685B1B04D43FE06F
:1051000023685B1B29D522465468002CF8D17968A6
:1051100000293BD02946304600F0EAFD431C28D048
:10512000C41C24F00304A04205D0211A304600F02C
:10513000DFFD01301DD02560304601F0A5FB04F1F4
:105140000B0020F00700231DC21A01D01B1AA35028
:10515000F8BD0C2200203260F8BD0B2B05D8A2420E
:10516000636811D05360E7E7144623601C44256050
:10517000E2E70C233046336001F086FB0020F8BDE7
:105180000B2BF1D8144653683B60D5E7304600F04E
:10519000AFFD7860BEE700BF806F00202DE9F047CB
:1051A0008E6880469E420C461D461746086836D8D3
:1051B000B1F80CC01CF4906F0DD135462A46394623
:1051C00001F0FAFA0020A2682368961B2B44A6601F
:1051D0002360BDE8F087D1E9041606EB460606EB2E
:1051E000D676A0EB0109013376104B44B342324628
:1051F00084BF1E4632461CF4806F12D011464046D2
:10520000FFF768FF824600B34A462169FFF7DEFCDC
:10521000A38923F4906343F08003A38106E01E4634
:10522000CCE7404601F032FB824650B1A6EB0903C1
:105230000AEB09006661C4F810A02060A3602E4646
:10524000BCE721694046FFF7F1FE0C23C8F80030A7
:10525000A3894FF0FF3043F04003A381B9E700BFBB
:105260002DE9F04F936883B09046002B6DD01768FE
:1052700082460C46086808378D6843E0A38913F41A
:10528000906F2ED0D4E9041505EB4505A0EB010B7A
:1052900005EBD5750BEB06006D100130A8422A46D0
:1052A00084BF05462A465B0536D511465046FFF7B2
:1052B00011FF00283AD05A4621690190FFF786FC79
:1052C000A289019B22F4906242F08002A281A5EBA8
:1052D0000B0203EB0B006561B3463546236120608A
:1052E000A2605A46494601F067FAD8F80830A26829
:1052F0002068551B58449E1BA5602060C8F80860B4
:105300001EB3083757E90296AB46002EF9D0AE42DD
:10531000B4D23546B346E4E7504601F0B7FA034647
:105320000028D4D121695046FFF780FE0C230022CB
:105330004FF0FF30CAF80030A38943F04003A38147
:10534000C8E9012203B0BDE8F08F0020C8F80400CE
:1053500003B0BDE8F08F00BF2DE9F04F8B4689897F
:105360009FB00C069046029004D5DBF81020002A6E
:1053700000F00D81002020213022059398F80030A4
:1053800001270B908DF831108C4E8DF83220002BB8
:1053900000F08680252B00F0F880454603E0252BA1
:1053A00000F0888025466B786C1C002BF7D1B4EB9D
:1053B000080A75D04246534659460298FFF7EEFE5A
:1053C00001306DD00B9B6A7853440B93002A67D051
:1053D00000234FF0FF3201340693CDE908338DF8F6
:1053E0005B301C93079206E02C46069B801B07FA55
:1053F00000F0184306902546052215F8011B30469B
:1054000001F094F9AA460028EED1069BD90644BFC4
:1054100020228DF85B201A0748BF2B22217848BF35
:105420008DF85B202A2949D1059A11680432002998
:1054300005927FDB09916178A51C2E2957D0604C1D
:105440000322204601F072F9002869D04022069B11
:10545000001B02FA00F00343069305F101082B78C4
:105460000622194657488DF8303001F05FF90028C0
:1054700066D0554B002B56D005AB00935A46534B84
:1054800006A90298AFF300808146B9F1FF3F07D02B
:105490000B9B4B440B9398F80030002B7FF47AAFB2
:1054A000BBF80C305B064CBF4FF0FF300B981FB0C1
:1054B000BDE8F08FB4EB080A8AD07BE7A1F1300297
:1054C000092A88BFA246B8D8099B01E02C460135BD
:1054D000297803EB830302EB4303A1F13002092A8D
:1054E000AA46F3D92E2904F102050993A7D19AF807
:1054F00001102A292ED1059B0AF102001A680433F3
:10550000002A079205939AF802100AF1030537DB87
:105510002B4C82460322204601F008F9002895D141
:10552000A84655469BE7059B073323F0070308333E
:105530000593ADE7494243F00203099106937AE7E8
:1055400005AB00935A46214B06A9029800F086FA53
:1055500081469AE70023A1F13002092A079301D975
:1055600023E05546697803EB830302EB4303A1F183
:105570003002092A05F1010AF3D9023507935EE7E3
:105580004FF0FF338246079359E7444620E7402116
:105590000393FFF79FFD039BCBF80000CBF81000AF
:1055A00030B14022CBF81420E4E6AA46013546E7A4
:1055B0000C23029A4FF0FF30136078E7DC73200071
:1055C000E4732000E8732000000000009D512000DB
:1055D0009368013B002B93600FDA10B49469A342E7
:1055E00008DB0A2906D01368581C10601970084699
:1055F00010BC704710BC00F08DBB1368581C1060C5
:1056000019700846704700BF9BB1F8B513440F46A8
:1056100006465D1E541E01E0AC4208D03A4614F81E
:10562000011F3046FFF7D4FF431CF5D1F8BD002021
:10563000F8BD0020704700BF936810B5144613B939
:105640005360184610BD00F02DFE0023C4E901335D
:1056500010BD00BF2DE9F04F9FB08B4690461C4611
:10566000039018B18369002B00F0B980A34B9B45D0
:1056700000F0BB80A24B9B4500F0C980A14B9B452D
:1056800004BF039BD3F80CB0BBF80C30180740F1F3
:10569000B480DBF81030002B00F0AF803023002105
:1056A00020228DF8323098F8003005940B918DF857
:1056B0003120954E0127002B00F08980252B00F02A
:1056C0001781454603E0252B00F0A58025466B7821
:1056D0006C1C002BF7D1B4EB080A78D04246534635
:1056E00059460398FFF790FF013070D00B9B6A7802
:1056F00053440B93002A6AD000234FF0FF32013449
:105700000693CDE908338DF85B301C93079206E0D1
:105710002C46069B801B07FA00F01843069025468E
:10572000052215F8011B304601F000F8AA460028B2
:10573000EED1069BD90644BF20228DF85B201A07C4
:1057400048BF2B22217848BF8DF85B202A2967D1DA
:10575000059A1168043200290592C0F29E800991D1
:105760006178A51C2E2974D0684C0322204600F0D5
:10577000DDFF002800F087804022069B001B02FA14
:1057800000F00343069305F101082B780622194621
:105790005F488DF8303000F0C9FF002800F08380AA
:1057A0005C4B002B72D005AB00935A465A4B06A9AE
:1057B0000398AFF300808146B9F1FF3F07D00B9B00
:1057C0004B440B9398F80030002B7FF477AFBBF875
:1057D0000C305B0618D40B981FB0BDE8F08F00F0BA
:1057E00041FD464B9B457FF445AF039BD3F804B086
:1057F000BBF80C3018073FF54CAF5946039800F042
:10580000E9FA00283FF44AAF4FF0FF30E4E7039B8A
:10581000D3F808B038E7B4EB080A3FF46DAF5DE7A2
:10582000A1F13002092A88BFA2469BD8099B01E05A
:105830002C460135297803EB830302EB4303A1F1E6
:105840003002092AAA46F3D92E2904F10205099348
:105850008AD19AF801102A292FD1059B0AF102005A
:105860001A680433002A079205939AF802100AF185
:10587000030538DB254C82460322204600F056FF04
:1058800000287FF479AFA84655467EE7059B07338D
:1058900023F007030833059391E7494243F00203DD
:1058A000099106935CE705AB00935A461A4B06A98B
:1058B000039800F0D3F881467EE70023A1F130027F
:1058C000092A079301D915E05546697803EB83034C
:1058D00002EB4303A1F13002092A05F1010AF3D9D1
:1058E0000235079340E74FF0FF33824607933BE7CB
:1058F000444601E7AA46013536E700BF5874200048
:105900003874200018742000DC732000E473200039
:10591000E8732000000000000956200010B4044C79
:1059200013460A460146206810BCFFF793BE00BF2D
:10593000784100202DE9F0470C460969A568914699
:105940008D42B8BF0D46156094F8431006461F46B9
:10595000DDF8208011B16A1CC9F80020236899067F
:105960005CD5D9F800200232C9F80020236813F072
:10597000060F19461DD1E1688A1A002AD8BF1946B8
:1059800017DD002504F1190A05E0E368D9F80020C5
:105990009B1AAB420CDD0123524639463046C047C4
:1059A000013005F10105F0D14FF0FF30BDE8F0877F
:1059B000216894F84330003318BF01238A060AD5C2
:1059C0003021E21882F8431094F845105A1C224402
:1059D00082F84310023304F1430239463046C0478F
:1059E0000130E1D02368A26803F00603042B21698B
:1059F0001DD08A4226DD4FF00009521A914400253D
:105A00001A3401E04D451DDA01232246394630465D
:105A1000C047013005F10105F4D1C5E713F0060FC9
:105A200013D094F84330003318BF0123D3E7D9F8DB
:105A30000000E3688A42A3EB000323EAE379DCDC9D
:105A4000002BDCDC0020BDE8F087E168D9F80020FD
:105A50008A1A002AD8BF194693DCAAE72DE9F04339
:105A60000C46097E85B06E2906461746984604F115
:105A7000430C0C986DD039D9732900F0F48044D9C7
:105A8000752900F00281782940F00F81782322687F
:105A9000DFF854E284F845300168150651F8043BFC
:105AA000016040F1A180D10744BF42F02002226092
:105AB000002B00F093801022002184F843106068CE
:105AC0000028A060C0F2C680216821F00401216096
:105AD000002B40F0A280002840F0BE806546082AD6
