:020000040020DA
:1000000078610020E1222000812320009B22200033
:100010009F2220009F2220009F222000000000003D
:10002000000000000000000000000000C1352000BA
:100030009F2220000000000061362000A53620002D
:100040009F2220009F2220009F2220009F2220002C
:10005000000000009F2220009F2220009F222000FD
:100060009F222000000000000000000000000000AF
:1000700000000000000000009F222000000000009F
:1000800000000000000000009F2220009F222000AE
:100090009F2220009F2220009F2220009F222000DC
:1000A0009F2220009F2220009F2220009F222000CC
:1000B0009F2220009F2220009F2220009F222000BC
:1000C0009F2220009F2220009F2220009F222000AC
:1000D0009F2220000000000000000000000000003F
:1000E0000000000000000000000000000000000010
:1000F0009F222000000000009F2220009F2220005D
:100100000348044B834202D0034B03B118477047A6
:10011000E8410020E84100200000000005480649B1
:100120000B1AD90F01EBA301491002D0034B03B105
:1001300018477047E8410020E84100200000000017
:1001400010B5064C237843B9FFF7DAFF044B13B11F
:100150000448AFF300800123237010BDE841002064
:1001600000000000E0FF270008B5044B1BB1044964
:100170000448AFF30080BDE80840CFE7000000006E
:10018000EC410020E0FF2700012800D070474FF627
:10019000FF739942FAD110B582B00F490F4801F0B0
:1001A000D0F9002401940E4B0093234640220D49C0
:1001B0000D4802F06DF901940C4B0093012380224D
:1001C0000B490C4802F064F976220B490B4800F009
:1001D00035FB02B010BD00BF0441002020440020C8
:1001E0009D022000707620000C44002001022000B7
:1001F0007C762000044200202C450020244400206E
:1002000070B586B01F4800F01CFB00242AE01E4990
:10021000039805F02DF805F07BF984B21A4904988B
:1002200005F026F805F074F985B21749059805F030
:100230001FF805F06DF986B2144801F060F90096D8
:100240002B4622461249134805F012FB04460FE0E4
:10025000642002F0B5F80D4801F062F94FF46170C6
:1002600002F0AEF803A9074800F07AFB0028CED1CF
:10027000002CEDD022460749074801F0D9FF0024A1
:10028000E6E700BF24440020000020413C45002058
:1002900084762000184200209445002008B5074CC1
:1002A000204601F02CF9322002F08AF8204601F0B5
:1002B00037F940F2B63002F083F8F0E74445002009
:1002C00008B5094800F0A8F9084801F048F90849BC
:1002D000084801F077F94FF4E131074801F046FF93
:1002E00002F06AF8002008BD1045002020440020DC
:1002F000A08601002C4500209445002008B54FF64B
:10030000FF710120FFF740FF08BD10B5044604301F
:1003100002F067F8204602F048F8204610BD10B5FC
:100320000446143002F05DF804F1100002F059F8B0
:1003300004F10C0002F055F8204610BD10B504463B
:100340000C3002F04EF8204610BD38B504460D467C
:1003500000F0FDFF6560204638BD0000012800D098
:1003600070474FF6FF739942FAD12DE9F04F83B0F1
:10037000DFF888A26349504601F059F8DFF880B2EF
:100380006149584601F053F86049614801F04FF85F
:100390006049614801F04BF8604C6149204601F02A
:1003A00046F86049604801F042F86049604801F051
:1003B0003EF86049604801F03AF8604F60493846BD
:1003C00001F035F8DFF83C825E49404601F02FF835
:1003D0005D4D5E49284601F02AF85D495D4801F00F
:1003E00026F85D495D4801F0ACF85D495D4801F0D3
:1003F000A8F85D4E5D49304601F0A3F85C495D48C0
:1004000001F019F85C495D48FFF79FFF5C495D48C2
:1004100001F097F85C495D4801F093F85C495D484C
:1004200001F08FF85C495D4801F08BF85C495D484C
:1004300001F01CF830215C4801F064FD31215B487B
:1004400001F0F0FC00215A4801F025FFDFF8B891D7
:10045000584B5A465146484601F0A8F8DFF8ACA17F
:1004600052465549484604F0EFFDDFF8A491534B3E
:1004700042463946484601F05DFE514F52463946E4
:10048000484604F0E1FDDFF88C814E4B314A2946A5
:10049000404601F04FFE52463946404604F0D4FD36
:1004A000494D4A4B009323461B4A1949284601F0FF
:1004B0002DFD474801F01CFD464801F048FC464828
:1004C00000F041FF454801F02AFE454C204600F06F
:1004D0009DFF52464349204604F0B6FD254B01934B
:1004E0000096204B1D4A29463F4800F0D3F83F496B
:1004F0003F4801F026F83F493F4801F022F803B099
:10050000BDE8F08FB4762000C87620007C7720000C
:1005100098440020907720009C44002080440020D4
:10052000F0762000A4772000A0440020B8772000B7
:10053000A444002004772000844400208844002044
:10054000187720002C77200090440020407720006E
:10055000547720009444002030782000704400201C
:10056000447820007444002064440020087820006F
:100570001C782000684400207041002010450020B5
:10058000687720003C450020CC77200040450020C3
:10059000DC76200044450020E0772000484500201C
:1005A000F4772000184500207045002064450020A5
:1005B000DC450020184100203D0320004041002080
:1005C0001F032000584100207845002020410020D2
:1005D0004C45002050450020A844002090450020B4
:1005E000204500200B032000C44400206C7820002C
:1005F000BC44002058782000C044002078440020EB
:100600007C4400208C4400202C4500200041002028
:1006100094450020B845002008B5416800F09AFED6
:10062000064800F07DFF064800F07AFF054800F01C
:1006300077FF054800F074FF08BD00BF3C4500206F
:1006400048450020404500204445002008B54FF6AD
:10065000FF710120FFF782FE08BD10B50346416817
:10066000C26801EB620012F0010F02D19B6898474B
:1006700010BD54100A599B68D358F8E710B50446CA
:10068000C06800F074FFA06800F071FF606800F0BF
:100690006EFF10BD30B585B00446016042608360D6
:1006A000089BC360099B0361174B029300230393CC
:1006B0006A4604A911E9030082E803001349616155
:1006C000A46104F11C0592E8030085E8030063625D
:1006D000A362E36223636363A363E363236484F835
:1006E000443084F8453084F8463084F8473084F844
:1006F00049302046FFF7C2FF04F11401206900F0E1
:10070000EDFE204605B030BDC307200088782000EC
:1007100038B50546144612F0010F04D0406A10B1F6
:1007200003681B68984714F0020F04D0A86A10B140
:1007300003681B68984714F0100F04D0286B10B1A1
:1007400003681B68984738BD38B50546144612F053
:10075000010F04D0406B10B103681B68984714F078
:10076000020F04D0A86B10B103681B68984714F0FF
:10077000100F04D0286C10B103681B68984738BD6F
:1007800030B585B0044615460B0A8DF80C308DF84F
:100790000D1000238DF80E30C06800F0E8FE94F8CC
:1007A000493001930322009202AB03A9206801F0B3
:1007B0007DFCE06800F0D3FE9DF80A302B7005B098
:1007C00030BD10B582B004460DF107020021FFF7DD
:1007D000D7FF0DF1060201212046FFF7D1FF0DF1F1
:1007E000050202212046FFF7CBFF01AA0321204684
:1007F000FFF7C6FF94F844309DF807100B4205D16F
:1008000094F846209DF805301A4204D09DF8052042
:100810002046FFF77DFF94F845309DF806100B4207
:1008200005D194F847209DF804301A4204D09DF871
:1008300004202046FFF788FF02B010BD016002715E
:10084000704738B504460379437201238372C0634D
:1008500000F10805284600F055FC002813DB0123B1
:1008600084F83630052384F83430022384F8353098
:10087000042384F8373029460F2000F091FC00282B
:1008800003DB012038BD0020FCE70020FAE72DE95A
:10089000F04104460D4616461F46BDF81880006814
:1008A00000F0DEFEB8F1010F13D032462946206871
:1008B00000F042FFD0B15FFA88F33A46294620683B
:1008C00000F002FF90B1206800F0D0FE0020BDE8EB
:1008D000F08132462946206800F02EFF30B13A46BA
:1008E0002946206800F0C8FE0028ECD1206800F0FE
:1008F000BDFE4FF0FF30EAE72DE9F04188B0064633
:100900000F4690461C46BDF83850006800F0A8FE1F
:100910008DF8008000220123AA4209DAA05C08A910
:10092000194401F8200C0133DBB20132D2B2F3E7F3
:100930006A463946306800F027FF30B1306800F071
:1009400095FE002008B0BDE8F081306800F08EFE12
:100950004FF0FF30F6E708B5084601F031FD08BD5D
:1009600070B584B004460D4600F1080631460120FA
:1009700000F050FC10B1002004B070BD6021204692
:10098000FFF7E9FF324601A9072000F0B2FCB8B931
:10099000029804F019FC0B4904F01EFD286003982E
:1009A00004F00EFC4FF06A5104F062FC686001989C
:1009B00004F006FC034904F00FFDA8600120DBE70A
:1009C0000020D9E70000C84290F9003023F01C0352
:1009D000CA78920002F01C0213430370704790F92A
:1009E000003003F01F030A7943EA42130370704793
:1009F00090F9003023F01C030A78920002F01C02E8
:100A000013430370704790F9003003F01F034A78D6
:100A100043EA421303707047037803F007038B70B7
:100A20008378C3F382030B7083785B094B70C378C0
:100A3000C3F38203CB70C3785B090B71704700006E
:100A400010B440680A885300C3EBD003B1F90240E8
:100A500003FB04F3002B1EDBDB12C2EB101202FBC4
:100A600002F2002A1ADB1213B1F9040000FB02F2B1
:100A7000002A16DB03EBA2334B6203EB830313F173
:100A8000800012D400120C4A934210DB0B4A9342AE
:100A90000FDA10BC704703F2FF73DDE702F6FF7256
:100AA000E1E702F57F523F32E4E7FF30EAE704482E
:100AB000EFE742F23410ECE7815EF0FF8034210072
:100AC00060F0FFFF70B44B6A03EBD3735B10A3F5C8
:100AD0007A431A46002B68DB921002FB02F215469D
:100AE000002A64DBED12B1F91060B1F90E4003FB8E
:100AF00004F4640006FB0544002C5BDBB1F90C50E8
:100B00002D0405EBA405B1F90A601446002A53DB55
:100B1000621302FB06F2002A52DBB1F9084003FB24
:100B200004F303EBD3735B1013EBE2034AD49B147F
:100B300003F50043CA8802FB03F3002B47DBDB13FA
:100B400059D00068C0F580102A46002D43DBA0EB89
:100B5000223240F6354000FB02F000283EDB400028
:100B6000B0FBF3F3B1F91620DC0804FB04F4640BCA
:100B700004FB02F2002A35DB12139808B1F9144085
:100B800004FB00F0002830DB02EB6032B1F9120008
:100B900012182ED403EB221047F22F5398422ED96D
:100BA000184B984229D9174827E0DA1C94E702F23B
:100BB000FF7597E70334A1E702F5FF541F34A7E759
:100BC0000732AAE703F57F3303F2FF33AFE703F5FC
:100BD000FF437F33B3E705F6FF72B8E7B0FBF3F3EB
:100BE0005B00BFE702F6FF72C6E700F5FF501F305B
:100BF000CAE70F32CEE747F2305070BC704747F279
:100C00003050FAE7B0AD010010B44C6AA4F5963448
:100C10008268B1F91E000005B1F92030C0EB8230C6
:100C200004FB130313F5804341D4D81391F9222018
:100C300004FB02F2002A3EDB92120B7F04FB03F45A
:100C4000002C3BDBE41204F5004402FB04F2002A12
:100C500037DB931203F50013B1F91A2003FB02F3FB
:100C600013F5005330D49B1303FB00F31A46002BFB
:100C70002EDBD21302FB02F2002A2DDBD211097EF9
:100C800002FB01F2002A29DBA3EB221323EAE37320
:100C9000B3F1C85FA8BF4FF0C8531A46002B1FDB43
:100CA00013131846B3F5C83F1DD810BC704703F5A1
:100CB000FF437F33B9E702F2FF32BDE704F2FF746E
:100CC000C0E702F2FF32C4E703F57F533F33CAE7C0
:100CD00003F5FF427F32CCE77F32CFE70F32D3E715
:100CE00003F6FF72DCE74FF4C830DEE770B401248E
:100CF0009C4209D26500013D065D4E55155D01F827
:100D000014500134E4B2F3E770BC704742780378C2
:100D100043EA02238B80C278837843EA0223CB80A4
:100D20004279037943EA02230B81C279837943EA4A
:100D300002234B81427A037A43EA02238B81C27AEF
:100D4000837A43EA0223CB81427B037B43EA02237B
:100D50000B82C27B837B43EA02234B82427C037C6F
:100D600043EA02238B82C27C837C43EA0223CB8248
:100D7000427D037D43EA02230B83C27D837D43EAE8
:100D800002234B83437E0B7770474278037843EA14
:100D90000223CB83837881F8203090F903309BB213
:100DA0001B011BB2027902F00F0213434B8490F92E
:100DB00005309BB21B011BB2027943EA12138B84EC
:100DC00090F9063081F826307047084000D00120A5
:100DD000704730B1436B0BB1002070474FF0FF30CC
:100DE00070474FF0FF307047F0B583B005460F46AF
:100DF00016461C461846FFF7ECFF60B9A378012B96
:100E000001D045F0800500963B462A466178606B2C
:100E1000FFF73DFD08B903B0F0BD6FF00300FAE73E
:100E200030B589B0044600230193029303930493E1
:100E300005930693ADF81C3003461A2201A98820B9
:100E4000FFF7D2FF054610B1284609B030BD214654
:100E500001A8FFF75BFF2346072201A9E120FFF766
:100E6000C3FF05460028EFD1214601A8FFF78DFFFB
:100E7000EAE72DE9F04389B00746894616469846C9
:100E80000A2A00D90A264046FFF7A3FF80BB97B382
:100E9000B9F1000F32D0A6B399F800308DF80C30BC
:100EA00098F80230012B09D00024A64206D93D5DF6
:100EB00005F07F053D550134E4B2F6E7012E0DD86B
:100EC000B6B2009603AB3A7898F80110D8F834001F
:100ED000FFF712FDC0B909B0BDE8F08333464A46BA
:100EE00003A93846FFF702FF7600013EB6B2E8E7F5
:100EF0004FF0FF30EFE74FF0FF30ECE74FF0FF30FF
:100F0000E9E76FF00200E6E76FF00300E3E710B5F2
:100F100082B00C46F2238DF80530837803F0070386
:100F20008DF807300B4601220DF107010DF1050088
:100F3000FFF79FFF08B102B010BDF4208DF8050047
:100F4000234601220DF10601FFF74EFF0028F2D1E2
:100F5000234601220DF106010DF10500FFF789FF7F
:100F6000E9E770B582B005460E461446F4208DF8C8
:100F70000700134601220DF10601FFF735FF68B99E
:100F800015F0010F0CD115F0020F0FD123460122ED
:100F90000DF106010DF10700FFF76BFF02B070BD08
:100FA00031460DF10600FFF723FDECE731460DF168
:100FB0000600FFF728FDE9E770B504460D46164622
:100FC00010F0040F04D1012014F0030F05D170BDFF
:100FD00011462846FFF79BFFF6E732462946204692
:100FE000FFF7BFFFF3E770B582B005460E46144623
:100FF000F5208DF80700134601220DF10601FFF7D9
:10100000F3FE68B915F0080F0CD115F0100F0FD1D1
:10101000234601220DF106010DF10700FFF729FF1C
:1010200002B070BD31460DF10600FFF7CDFCECE7D4
:1010300031460DF10600FFF7D2FCE9E738B504466A
:101040000D460A4601461F20FFF7B6FF00B138BD26
:101050002A4621461F20FFF7C6FFF8E730B583B0C8
:1010600005460C46F4208DF807000B4601220DF1D1
:101070000601FFF7B9FE08B103B030BD9DF8063098
:1010800023F003035BB205F003051D438DF8065002
:10109000234601220DF106010DF10700FFF7E9FEDD
:1010A000EAE738B505460C460846FFF792FE00B160
:1010B00038BD234601222946F420FFF795FE2B7800
:1010C00003F003032B70F3E730B583B00446E0234D
:1010D0008DF80730B6238DF80630FFF77AFE054607
:1010E00010B1284603B030BD234601220DF10601A0
:1010F0000DF10700FFF7BDFE05460221606BFFF70B
:101100002AFCEEE770B582B0054600238DF8073063
:10111000FFF75FFE064618BB05240AE02846FFF7E6
:101120007FFE06461BE00121686BFFF714FC013CC3
:10113000E4B2A4B12B4601220DF10701D020FFF744
:1011400053FE06460028EED19DF80730602BEAD109
:101150002B702846FFF7B8FF06460028DED014B1F2
:10116000304602B070BD6FF00106F9E710B584B0EB
:1011700004460346042203A9F220FFF735FE08B116
:1011800004B010BD01A903A8FFF746FC2046FFF7F5
:101190009BFF0028F4D1214601A8FFF74FFFEFE79E
:1011A00070B582B006460C460846FFF712FE0546AB
:1011B00010B1284602B070BD21460DF10700FFF7BF
:1011C00070FF054610B99DF80730B3B9002DF0D176
:1011D00031460720FFF7F9FDA0B9002DE9D13146CE
:1011E0001820FFF7F2FD0028E3D0224604F12C017D
:1011F0003046FFF7F8FE0546DBE72046FFF7B6FF6F
:101200000546E3E7224604F12C013046FFF7D4FE01
:101210000546E2E730B583B005460C460846FFF7C1
:10122000D8FD034610B1184603B030BD21460DF17C
:101230000700FFF736FF034610B99DF807203AB9BB
:10124000002BF0D121462846FFF708FF0346EAE7C6
:101250002046FFF78BFF0346F2E710B4047843788B
:101260001B01827843EA043343EA12130B60C4780B
:1012700003791B01427943EA043343EA12134B60BA
:101280008279C37943EA02238B6010BC704729B38B
:10129000F8B5074614461D460E4612B323B3002385
:1012A00053601360936010F0070F11D117F0010F16
:1012B00004D029463046FFF705FC206017F0040FE4
:1012C00015D029463046FFF79FFCA06000200FE0B4
:1012D00029463046FFF7B4FB6060E7E74FF0FF3088
:1012E00070474FF0FF3003E04FF0FF3000E0002088
:1012F000F8BD70B586B006460D461446002304932B
:1013000005930193029303931046FFF762FDA0B982
:10131000B5B12346082204A9F720FFF765FD08B1FF
:1013200006B070BD01A904A8FFF797FF231D2A4648
:1013300001A93046FFF7ABFFF2E74FF0FF30EFE7D0
:101340004FF0FF30ECE70022027070477047002238
:101350000270704738B50C46184D002240212846CF
:1013600002F06CFB00228021284602F067FB01227C
:101370004021284603F0D0F801228021284603F0BE
:10138000CBF862686178207803F0E8FAA06803F08F
:101390009BFA637823B90A4B1B6813F4002FFAD029
:1013A00023784BB1064B1B6813F0806FFAD1044BC6
:1013B0001B6813F0806FFAD038BD00BF00C00D402D
:1013C00004200D4008B503F029F908BD10B50C46FE
:1013D000FFF7F8FF201AC00F10BD0000094B03E013
:1013E00013F8012901F8012BB3F1281FF8D2064B9D
:1013F00003E013F8012901F8012B024A9342F8D8BF
:10140000704700BF2B0028002F00280010B50446AD
:1014100000F0C1FF0021201D01F01EF800232372FF
:10142000204610BD08B5043000F0FEFF08BD016085
:1014300070470068704710B50446FFF7F8FF0023B7
:10144000636023681979186802F0C2FB2368DA68C0
:101450001979186802F022FB23689A680AB92046B5
:1014600010BD1979186803F057F8F8E710B504466D
:10147000FFF7E1FF23681979186802F0A9FB2368D8
:10148000DA681979186802F041FC23681B680F4A72
:10149000934209D00E4A93420BD00E4A93420CD08D
:1014A0000D4A93420DD0FEE7012002F0C9FC204610
:1014B00010BD022002F0C4FCF9E7042002F0C0FCD9
:1014C000F5E7082002F0BCFCF1E700BF00900D40FA
:1014D00000A00D4000B00D4000C00D4010B5044606
:1014E000416000F019FA204600F01AFA10BD406879
:1014F00020B108B503681B68984708BD704708B558
:1015000003681A69012A05D019790A46186802F099
:101510004DFB08BD00221979186802F047FBF8E777
:1015200008B503681A69012A05D0002219791868DC
:1015300002F03CFB08BD19790A46186802F036FB38
:10154000F8E710B50446FFF772FF236819791868A9
:1015500002F058FB2046FFF7E3FF204610BD08B518
:10156000036819790A46186802F020FB08BD08B51F
:10157000036800221979186802F018FB08BD000002
:10158000012800D070474FF6FF739942FAD1044BFF
:101590001A68044BB3FBF2F3034A1360F2E700BF8F
:1015A0008C782000A0860100E045002010B504469C
:1015B00001604260836001210C3000F04DFF204645
:1015C00010BD000070B5044609B182685160206802
:1015D000FFF72FFF06466068FFF72BFF0546A3685D
:1015E000186803F077FAA368186803F091FAA36803
:1015F000186803F0ABFAA368186803F035FA31797C
:10160000306802F019FB134A3179306802F06AFE43
:101610000C223179306802F007FE2979286802F03F
:101620000BFB0D4A2979286802F05CFE0B22297910
:10163000286802F0F9FDA3685C68084BE41A18BF3B
:10164000012403F011F9214602F0A0FC02F096FCFF
:1016500070BD00BF30410D402C410D40A0860100FF
:1016600008B500210C3000F0C3FE08BD08B50C30F1
:1016700000F0D2FE08BD000038B508461546104BF4
:101680001C68012102F0A6FC072002F0C5FC0D48F1
:10169000FFF798FE044402F0B3FC38B12146094834
:1016A000FFF794FE0028F6D0002007E002F0EAFCE5
:1016B000287002F0CFFCB0FA80F0400938BD00BFBE
:1016C000E045002010450020F8B5084617461E46A4
:1016D000174B1C68012102F07DFC0B2002F09CFCE2
:1016E0001448FFF76FFE044406B302F089FC054678
:1016F00040B121460F48FFF769FE0028F5D00025CC
:101700002846F8BD02F0A6FC0028F9D102F0BAFC88
:1017100007F8010B013EF6B2012E03D9092002F0B1
:101720007BFCE1E7052002F077FCDDE70125E7E738
:10173000E04500201045002038B508461546104BFE
:101740001C68002102F046FC284602F095FC0720A8
:1017500002F062FC0B48FFF735FE044402F050FC37
:1017600038B121460748FFF731FE0028F6D00020A7
:1017700004E002F06FFCB0FA80F0400938BD00BF11
:10178000E0450020104500202DE9F04108461646AE
:101790001D46224B1C68002102F01CFC16F8010BB0
:1017A00002F06AFC013DEDB2032002F035FC1C485A
:1017B000FFF708FE044402F023FC804688B121466E
:1017C0001748FFF703FE0028F5D04FF00008404609
:1017D000BDE8F081012002F01FFC0EE002F03AFCAF
:1017E000B8B9C5B116F8010B02F046FC013D15F081
:1017F000FF05EFD1052002F00FFC02F001FC0746C7
:101800000028EBD021460648FFF7E0FD0028F4D081
:10181000DDE7B846DBE74FF00108D8E7E0450020F8
:1018200010450020704708B54FF6FF710120FFF703
:10183000A7FE08BD08B5034B186808B100F009FD04
:1018400008BD00BF8046002008B5034B186808B1EA
:1018500000F0FFFC08BD00BF8446002008B5034B24
:10186000186808B1FFF7DEFF08BD00BFF045002093
:1018700008B5034B186808B100F035FC08BD00BF7F
:10188000F445002008B5044B1B681BB1034B1868D6
:1018900000F029FC08BD00BFF4450020F8450020F9
:1018A00008B5034B186808B100F058FA08BD00BF2E
:1018B0007C46002008B5034B186808B100F0A0FA78
:1018C00008BD00BF7C46002008B5034B186808B16E
:1018D00000F0AEFA08BD00BFA846002008B5034BD3
:1018E000186808B1FFF732FD08BD00BFE8450020C9
:1018F00008B5034B186808B100F045FD08BD00BFEE
:10190000E445002008B5034B186808B1FFF78AFDCD
:1019100008BD00BFEC45002000487047AC460020E1
:1019200070B50546FFF785FD06682846FFF781FD7F
:101930000479012C0FD0022C1BD0042C1BD0082CB6
:101940001BD0102C1BD0202C1BD0402C1BD0802C4B
:1019500002D1072400E000241C4B9E4215D01C4BF2
:101960009E421AD01B4B9E421FD01B4B9E4224D03E
:1019700070BD0124F0E70224EEE70324ECE7042421
:10198000EAE70524E8E70624E6E7F021102002F064
:101990007FFB124B43F82450EAE7F021112002F0BC
:1019A00077FB0F4B43F82450E2E7F021122002F0BE
:1019B0006FFB0C4B43F82450DAE7F021132002F0C0
:1019C00067FB094B43F82450D2E700BF00900D405D
:1019D00000A00D4000B00D4000C00D40FC450020AF
:1019E0001C4600203C4600205C4600202DE9F041CA
:1019F0000446DFF8A8814FF6FF71404603F0C4F9B2
:101A00004B4F4FF6FF71384603F0BEF949494A483B
:101A100002F0B2F849494A4802F0AEF849494A484A
:101A200002F0AAF849494A4802F0A6F8494E4A4D40
:101A30003246FF21284602F033FA32464FF47F4106
:101A4000284602F02DFA32464FF6FF71284602F082
:101A500027FA424E05F580553246FF21284602F00E
:101A60001FFA32464FF47F41284602F019FA3246F7
:101A70004FF6FF71284602F013FA394E05F58055EE
:101A80003246FF21284602F00BFA32464FF47F41DE
:101A9000284602F005FA32464FF6FF71284602F05A
:101AA000FFF9304E05F580553246FF21284602F0F9
:101AB000F7F932464FF47F41284602F0F1F93246F9
:101AC0004FF6FF71284602F0EBF92749404603F034
:101AD0003DF92649384603F039F9254802F070FAF5
:101AE0002449254802F0AEFD2449254802F0AAFD0C
:101AF00024492A2002F068FB23492B2002F064FBD2
:101B00002249312002F060FB21492E2002F05CFBCB
:101B100020491E2002F058FB1F4D29463E2003F0AD
:101B200073FA29463F2003F06FFA2046BDE8F081A2
:101B300000D000405D1C200000900D40711C200072
:101B400000A00D40851C200000B00D40991C200015
:101B500000C00D40F11C200000000340051D2000C6
:101B6000191D20002D1D20003518200049182000C7
:101B70005D182000711820000080004085182000AA
:101B800000900040A1182000B5182000C9182000BE
:101B9000DD182000F11820000519200000C00040C9
:101BA000012800D0704708B54FF6FF73994200D066
:101BB00008BD0248FFF71AFFFAE700BFAC46002055
:101BC000F8B505460F46012101F0AEFF064601219A
:101BD000284602F0D9F80446F1B2284601F0BAFFCF
:101BE000E1B2284602F000F9344314F0010F03D0AB
:101BF000386808B1FFF77BFC14F0020F03D0786857
:101C000008B1FFF774FC14F0040F03D0B86808B1F2
:101C1000FFF76DFC14F0080F03D0F86808B1FFF768
:101C200066FC14F0100F03D0386908B1FFF75FFCB1
:101C300014F0200F03D0786908B1FFF758FC14F0B6
:101C4000400F03D0B86908B1FFF751FC14F0800FC2
:101C500003D0F86908B1FFF74AFCF8BD08B502499E
:101C60000248FFF7ADFF08BDFC45002000900D4085
:101C700008B502490248FFF7A3FF08BD1C46002033
:101C800000A00D4008B502490248FFF799FF08BDC2
:101C90003C46002000B00D4008B502490248FFF75D
:101CA0008FFF08BD5C46002000C00D4038B50E4DCA
:101CB0000121284602F03EF904460146284602F07A
:101CC0004DF90A4B186810B114F0170F06D1074BE5
:101CD000586810B114F4706F03D138BD00F022FAC7
:101CE000F5E700F01FFAF8E70000034088460020FF
:101CF00008B502490248FFF7D9FF08BD8846002011
:101D00000000034008B502490248FFF7CFFF08BDB5
:101D1000904600200010034008B502490248FFF732
:101D2000C5FF08BD984600200020034008B50249C1
:101D30000248FFF7BBFF08BDA0460020003003406B
:101D400008B54FF6FF710120FFF72AFF08BD0022FA
:101D5000027042608260C260026170472DE9F0410A
:101D60000446254F3D68254ED6F800802A2002F013
:101D7000F1F900233B60336015F0020F07D02378A0
:101D8000DBB2022B13D02378DBB2052B18D015F071
:101D9000400F03D02378DBB2032B1AD018F0020FC8
:101DA00003D02378DBB2062B1CD0BDE8F08160683D
:101DB0000028E8D00323237003681B689847E6E7F0
:101DC000E0680028E3D00623237003681B68984767
:101DD000DDE7A0680028E1D00423237003681B68B6
:101DE0009847DBE720690028DFD0072323700368CA
:101DF0001B689847D9E700BF3488084030880840FE
:101E000038B5074C25682B2002F0A4F923682B4035
:101E100013F0020F02D06FF00202226038BD00BF43
:101E20009486084001600022426082607047000092
:101E3000F8B50546134B1C68134E3768312002F085
:101E400089F90023336004EA070313F0100F09D067
:101E5000336823F010033360A86810B103681B686F
:101E60009847F8BD13F0080FFBD0074A136823F01A
:101E70000803136068680028F3D003681B6898475C
:101E8000EFE700BF088808400C88084008B50368E1
:101E90001B68984708BD08B503685B68984708BD8C
:101EA00000B583B069460B48FFF798FA9DF8040027
:101EB0009DF805301B0443EA00639DF8060043EAE1
:101EC00000239DF80700184303F03AFC03B05DF8C7
:101ED00004FB00BF1045002008B503F063FC80B28E
:101EE00008BD0000014B0360704700BF98782000D8
:101EF00010B50446FFF7F6FF014B2360204610BDE6
:101F0000A8782000016000224260704710B4016090
:101F100042608360019BC36000230361436110BC86
:101F200070472DE9F04782B004468A461E460A9F54
:101F3000914622B137B1BA4206D9904600E0B84680
:101F4000002508E09046FBE7B846F9E7FF2109E0E5
:101F5000002373550135A84518D9B9F1000FF5D004
:101F60001AF80510E368586802F0BEFBE368586889
:101F700002F030FC0028F9D1E36801A9586802F0AA
:101F8000DBFB002FE4D09DF80430E2E7012002B033
:101F9000BDE8F0872DE9F04585B01E46FF238DF89A
:101FA0000F308DF80E30B14279D00546884617467D
:101FB000C36858683C4B984207D003F58053984259
:101FC0006FD118244FF0190A02E00A244FF00B0ACF
:101FD000002F3BD0022102F0CBFB4FF04041504696
:101FE00002F03CFFEB685B68009708334246012132
:101FF000504602F05BFF0C9B002B3BD0EB680121AD
:10200000586802F0B5FB4FF04061204602F026FF11
:10201000EB685A680C9B0093334608320121204636
:1020200002F044FF204602F001FF504602F0FEFE9F
:10203000204602F0C1FF0028FAD1EB68032158685E
:1020400002F0AEFB012005B0BDE8F085022102F0F0
:102050008FFB4FF04C41504602F000FFEB685B688D
:102060000C9A009208330DF10F020121504602F044
:102070001DFFC0E7EB680121586802F079FB4FF0C3
:102080004C41204602F0EAFEEB685A6800970DF1D9
:102090000E0308320121204602F008FFC2E70020AB
:1020A000D1E70020CFE700BF0080004000B583B03B
:1020B000049C9DF8145015B10094FFF76BFF009439
:1020C000FFF72FFFFBE7406920B108B503681B68E5
:1020D000984708BD7047006920B108B503681B68C0
:1020E000984708BD704738B50546C3680121586850
:1020F00002F0CAFA0446EB680146D86802F0DEFA3C
:1021000014F0080F03D114F0040F04D138BD284691
:10211000FFF7E1FFF7E72846FFF7D5FFF6E70022D4
:1021200002807047406820B108B503681B68984773
:1021300008BD704710B5044601604260836000210D
:102140000C3000F089F9002104F1100000F084F94E
:10215000002104F1140000F07FF90023A361E36182
:1021600084F8203084F82130204610BDF8B50446AC
:102170000F460068FFF75DF906466068FFF759F9FA
:1021800005460FB1A3681F61A368186802F0A2FC9E
:10219000A368186802F0BCFCA368186802F0D6FCBB
:1021A000A368586802F03EFDA3689968586802F079
:1021B00023FEB2683179306802F094F8AA68297970
:1021C000286802F031F83179306801F04FFD297943
:1021D000286801F073FDA3689B6813B1012B1DD023
:1021E000FEE702F041FB0146A5686B692A69686851
:1021F00002F034FDA36820220021586802F0D4FCCC
:10220000A368586802F05EFDA3681021586802F0C8
:102210006BFDA368586802F0EDFCF8BD02F06AFBA4
:102220000146A5686B692A69686802F017FDE1E755
:10223000F8B507460C4616460025B54207D2BB68DE
:1022400014F8011B586802F06DFD0135F5E7002018
:10225000F8BD38B5054683680121586802F0A8FD2D
:102260000446AB680146586802F0B6FD14F0200F32
:102270000CD114F0500F08D0C4F3801485F820401E
:10228000A86910B103681B68984738BD05F11400B0
:1022900000F0CAF8EDE70160704700BFFDE700BF3E
:1022A000FDE7000008B5FF21074801F091FCFF2180
:1022B000064801F08DFCFF21054801F089FCFF2153
:1022C000044801F085FC08BD00900D4000A00D40C1
:1022D00000B00D4000C00D4008B502F087FBFCE7E0
:1022E00000B583B01A4BFF221A601A4B1A4A1A60C3
:1022F0001A4B01931A4B1A681A4B9A4204D1019B4C
:102300005A1E0192002BF5D1124B00221A60164A78
:10231000136843F001031360144B154A03E052F8AD
:10232000041B43F8041B13498B42F8D3124B134A86
:10233000934204D200221A6053F8042BF7E7FFF708
:10234000B1FF03F013F9FDF7BBFFFFF7C5FF00BFB7
:10235000B4200D4004300020BBAABBAA80841E001C
:10236000003000204812F0A598200D4000400020C9
:10237000B87C2000E8410020E84100207859002086
:1023800008B5FFF7ADFF406820B108B503681B68CA
:10239000984708BD704710B50446012000F054FA74
:1023A000206008B1204610BDFEE710B50446006865
:1023B00000F06EFB204610BD08B500F027FD08BDFB
:1023C00008B54FF47A7303FB00F0034BA3FB003016
:1023D000800900F069FE08BDD34D62100022026042
:1023E000704710B50446006800F052FB204610BD4F
:1023F00008B539B1006800F08BFA012814BF00203D
:10240000012008BD4FF0FF31006800F081FA01287B
:1024100014BF00200120F4E708B500231A4619462E
:10242000006800F053F908BD00B583B000230193A4
:1024300001A9006800F013FA019B3BB1054B4FF076
:1024400080521A60BFF34F8FBFF36F8F03B05DF8F8
:1024500004FB00BF04ED00E038B504460D46FFF76D
:10246000BDFF03220021012000F00CF9206010B113
:1024700015B9204638BDFEE72046FFF7CDFFF8E747
:1024800020B108B5C2680069904708BD70470000D8
:1024900010B582B00446416083600498E0600598FE
:1024A0002061019400932346024800F07DFC204601
:1024B00002B010BD812420000346406A18B11B6B96
:1024C0001868C0F10500704710B5044601F08AF89D
:1024D000A26BE36B9A4204D0002401F0A5F82046D9
:1024E00010BD0124F9E710B5044601F07BF8A36B99
:1024F00023B9012401F098F8204610BD0024F9E723
:1025000070B504461546866B026C5AB903681BB158
:1025100000200136A66370BD806800F045FF0023EF
:10252000A360F6E76DB9406803F044F8226C636875
:1025300013446360A268934219D3236863602846FA
:10254000E7E7C06803F036F8226C5142E3689B1A53
:10255000E3602268934202D2A3680B44E360022D39
:1025600001D00020D5E726B1013E0020D1E7284662
:10257000CFE70020CDE738B5054601F033F895F8F0
:10258000454064B203E000F0ADFE013C64B2002CB3
:1025900008DD6B6A33B105F1240000F00FFE00285E
:1025A000F3D0F0E7FF2385F8453001F03DF801F066
:1025B00019F895F8444064B203E000F093FE013C42
:1025C00064B2002C08DD2B6933B105F1100000F076
:1025D000F5FD0028F3D0F0E7FF2385F8443001F043
:1025E00023F838BD38B5E0B10D46044600F0FAFFD7
:1025F0002168E26B236C03FB0210A0600020A06343
:102600006160013A02FB0313E360FF2384F8443066
:1026100084F84530EDB9236963B901F005F801206C
:1026200038BD4FF0A00383F31188BFF36F8FBFF362
:102630004F8FFEE704F1100000F0C0FD0028ECD041
:10264000084B4FF080521A60BFF34F8FBFF36F8F6C
:10265000E3E704F1100001F063F904F1240001F054
:102660005FF9DAE704ED00E010B5034602980C4686
:1026700031B90060C36304640121FFF7B3FF10BDEB
:102680000260F7E740B94FF0A00383F31188BFF36E
:102690006F8FBFF34F8FFEE7F0B583B00C46164641
:1026A000074689B101FB00F0483001F0CBF8054640
:1026B00038B10090334600F1480221463846FFF712
:1026C000D3FF284603B0F0BD0846EDE7F0B585B06E
:1026D000019238B10E461D46044661B1022D16D056
:1026E00000275CE04FF0A00383F31188BFF36F8FE6
:1026F000BFF34F8FFEE7036C002BEFD04FF0A0032A
:1027000083F31188BFF36F8FBFF34F8FFEE7E36B47
:10271000012B08D04FF0A00383F31188BFF36F8F14
:10272000BFF34F8FFEE7002739E02A4631462046A7
:10273000FFF7E6FE626A6AB938B13C4B4FF080524F
:102740001A60BFF34F8FBFF36F8F00F06DFF012052
:1027500005B0F0BD04F1240000F030FD0028F4D0F5
:10276000324B4FF080521A60BFF34F8FBFF36F8F21
:10277000EBE700F059FF0020EAE702A800F064FD53
:10278000012719E0002384F8443021E0002384F875
:10279000453023E02046FFF7EEFE00F009FC00F094
:1027A00021FFA26BE36B9A42BFD3022DBDD0019BE8
:1027B000002BDED0002FE0D000F036FF00F064FBED
:1027C00000F010FF94F844305BB2B3F1FF3FD9D072
:1027D00094F845305BB2B3F1FF3FD7D000F024FF4F
:1027E00001A902A800F03CFDC8B92046FFF76CFE25
:1027F0000028CFD0019904F1100000F0C7FC20465A
:10280000FFF7B9FE00F0D4FB0028C8D1074B4FF00A
:1028100080521A60BFF34F8FBFF36F8FBFE7204620
:10282000FFF7A9FE00F0C4FB002091E704ED00E0F3
:1028300048B110B5002181600160C1600B460A46B5
:10284000FFF744FF10BD704710B50246002101207C
:10285000FFF718FF0446FFF7EBFF204610BD68B1F5
:1028600070B50E460446036C8BB14FF0A00383F3A2
:102870001188BFF36F8FBFF34F8FFEE74FF0A003B8
:1028800083F31188BFF36F8FBFF34F8FFEE70368A9
:10289000EBB100F093FFEFF311854FF0A00383F34A
:1028A0001188BFF36F8FBFF34F8FA26BE36B93421F
:1028B00026D994F845305BB20132A263B3F1FF3FF1
:1028C00011D001335BB284F84530012019E08368F0
:1028D000002BDED04FF0A00383F31188BFF36F8F7E
:1028E000BFF34F8FFEE7636A0BB9012009E004F1E3
:1028F000240000F063FC38B146B10120306000E0F4
:10290000002085F3118870BD0120FAE70120F8E767
:1029100070B584B0019158B10446036C8BB14FF08F
:10292000A00383F31188BFF36F8FBFF34F8FFEE7D0
:102930004FF0A00383F31188BFF36F8FBFF34F8F66
:10294000FEE700252E4651E0013BA36323683BB11F
:1029500023694BB900F068FE0125284604B070BD1C
:1029600000F0DEFDA060F3E704F1100000F026FCAB
:102970000028EFD0454B4FF080521A60BFF34F8FC5
:10298000BFF36F8FE6E745B14FF0A00383F31188E3
:10299000BFF36F8FBFF34F8FFEE700F045FEDCE71C
:1029A00002A800F051FC01262AE0002384F84430FC
:1029B00032E0002384F8453034E000F013FEA068D4
:1029C00000F096FC054600F02FFE3BE02046FFF7A6
:1029D000D2FD00F0EDFA09E02046FFF7CCFD00F053
:1029E000E7FA2046FFF77FFD002840D100F0FAFD0E
:1029F000A36B002BA8D1019B002BC4D0002ECFD0FD
:102A000000F012FE00F040FA00F0ECFD94F84430C3
:102A10005BB2B3F1FF3FC8D094F845305BB2B3F17D
:102A2000FF3FC6D000F000FE01A902A800F018FC8C
:102A30000028D1D12046FFF756FD0028C6D02368D4
:102A4000002BBAD0019904F1240000F09FFB20462E
:102A5000FFF791FD00F0ACFA0028C7D10B4B4FF007
:102A600080521A60BFF34F8FBFF36F8FBEE70DB96F
:102A7000002572E700F0B6FD2046FFF71DFD014678
:102A8000A06800F0EBFC00F0CFFDF1E704ED00E002
:102A900008B510B100F026FF08BD4FF0A00383F386
:102AA0001188BFF36F8FBFF34F8FFEE7084B1B6892
:102AB0001B6823B9074B4FF0FF321A607047044B75
:102AC0001B68DB68DB685A68024B1A60704700BFFE
:102AD000B44600206447002010B50446006B00F0A7
:102AE00001FF204600F0FEFE10BD2DE9F047089DD5
:102AF000DDF824800A9C61B106461F460846216B1A
:102B000002F18043013B01EB830323F0070900231B
:102B100009E04FF0A00383F31188BFF36F8FBFF379
:102B20004F8FFEE701330B2B06D8C15CE21882F809
:102B30003410C25C002AF5D1002384F83F30042D04
:102B400000D90425E56225644FF0000AC4F844A0CA
:102B5000201D00F0F0FE04F1180000F0ECFE2461EE
:102B6000C5F10505A5616462C4F848A084F84CA0CD
:102B70003A463146484600F011FD2060B8F1000F9A
:102B800001D0C8F80040BDE8F087000038B5002447
:102B9000042C08D804EB840293000E48184400F07B
:102BA000BFFE0134F4E70C4D284600F0B9FE0B4C93
:102BB000204600F0B5FE0A4800F0B2FE094800F0D9
:102BC000AFFE094800F0ACFE084B1D60084B1C60CE
:102BD00038BD00BFBC460020384700204C470020CD
:102BE0006C4700209847002084470020B44600200E
:102BF000B846002010B5044600F0F4FC204A1368E3
:102C0000013313601F4B1B685BB11F4B1B686BB913
:102C10001C4B1B68DA6AE36A9A4207D8194B1C609E
:102C200004E0184B1C601368012B26D0174A136868
:102C300001331360E06A01238340154A11680B4396
:102C4000136000EB8000211D124B03EB800000F0AD
:102C500075FE00F0E9FC0C4B1B686BB1094B1B685F
:102C6000DA6AE36A9A4207D20B4B4FF080521A603D
:102C7000BFF34F8FBFF36F8F10BDFFF787FFD5E70F
:102C800020470020B0460020804700203047002029
:102C900034470020BC46002004ED00E00F4B1B68C9
:102CA000D3B110B500F09EFC0D4BDB68DC68201D35
:102CB00000F069FE0B4A1368013B1360074A136872
:102CC000013B136000F0B0FC2046FFF705FF034B0B
:102CD0001B68002BE6D110BD704700BF24470020C1
:102CE000984700202047002008B5FFF7D7FF064B84
:102CF0001B68012BF9D9054B4FF080521A60BFF3C6
:102D00004F8FBFF36F8FF0E7BC46002004ED00E06B
:102D100070B504460D461D4B1E681D4B18680430E7
:102D200000F031FE50B91A4B1B68DA6A012303FA2E
:102D300002F218490B6823EA02030B60B4F1FF3F6B
:102D40000DD03444124B1B685C60A64210D9124B64
:102D500018680F4B1968043100F0FCFD70BD002DA0
:102D6000EFD00B4B196804310C4800F0E7FDF5E794
:102D70000B4B1868064B1968043100F0EBFD094B4A
:102D80001B68A342EAD9074B1C60E7E7AC47002069
:102D9000B046002034470020B84600208447002079
:102DA000B4460020644700202DE9F04385B0074673
:102DB000884614461E46900000F044FDF0B181465E
:102DC000502000F03FFD0546A0B1C0F83090D5B1CD
:102DD0000023039302950D9B01930C9B00933346B4
:102DE000224641463846FFF780FE2846FFF702FF9D
:102DF000012005E0484600F075FDE8E74FF0FF30A0
:102E000005B0BDE8F0834FF0FF30F9E700B583B0BF
:102E1000174B019300230093802216491648FFF7B1
:102E2000C3FF012805D0B0F1FF3F17D003B05DF814
:102E300004FB4FF0A00383F31188BFF36F8FBFF340
:102E40004F8F0E4B4FF0FF321A600D4B01221A606C
:102E50000C4B00221A6000F055FCE7E74FF0A0038E
:102E600083F31188BFF36F8FBFF34F8FFEE700BF6F
:102E700060470020B0782000E92C20006447002043
:102E800080470020AC470020024A136801331360DA
:102E9000704700BF2C470020F8B53A4B1B68002B49
:102EA00064D1394B1D6801351D60C5B9374B1B68AE
:102EB0001B6843B14FF0A00383F31188BFF36F8FFA
:102EC000BFF34F8FFEE7314A1168314B186810602D
:102ED0001960304A136801331360FFF7E7FD2E4B8A
:102EE0001B68AB4238D900242C4B1B68DB6A03EB10
:102EF00083039A002A4B9B58012B3CD901243AE0CA
:102F00000124224B1B681B6843B3204B1B68DB6802
:102F1000DE6873689D4226D3371D384600F033FDC6
:102F2000B36A1BB106F1180000F02DFDF36A01220F
:102F30009A401C49086802430A6003EB83039A0025
:102F400039461748104400F0F9FCF26A134B1B682D
:102F5000DB6A9A42D4D2D4E70024D2E70E4B4FF07A
:102F6000FF321A60C0E70C4A1360BDE70E4A1368CF
:102F70000133136000240D4B1B6803B1012420466C
:102F8000F8BD00BF2C470020AC470020B44600200D
:102F9000B84600206847002064470020B046002063
:102FA000BC4600203447002028470020B0470020BE
:102FB00038B5344B1B6843B94FF0A00383F3118835
:102FC000BFF36F8FBFF34F8FFEE700F00BFB2D4B6E
:102FD0001A68013A1A601B68002B4DD12A4B1B68F6
:102FE0000BB9002449E00024284B1B681BB3274B76
:102FF000DB68DC6804F1180000F0C5FC251D2846DC
:1030000000F0C1FCE06A01238340214A11680B43B0
:10301000136000EB800029461E4B03EB800000F09C
:103020008DFCE26A1C4B1B68DB6A9A42DCD31B4BAB
:1030300001221A60D8E70CB1FFF738FD184B1C6865
:1030400074B9164B1C68C4B1164B4FF080521A600D
:10305000BFF34F8FBFF36F8F01240EE0013C07D009
:10306000FFF71AFF0028F9D00C4B01221A60F5E790
:103070000B4B00221A60E4E7002400F0D5FA20464A
:1030800038BD00BF2C470020204700206C4700209F
:1030900034470020BC460020B0460020B047002046
:1030A0002847002004ED00E010B5A8B104460F4BFE
:1030B0001B6843B14FF0A00383F31188BFF36F8FF8
:1030C000BFF34F8FFEE7FFF7DFFE00212046FFF73B
:1030D0001FFEFFF76DFF38B9054B4FF080521A60A5
:1030E000BFF34F8FBFF36F8F10BD00BF2C47002081
:1030F00004ED00E0204B1B681BB1204B01221A603D
:1031000070471E4B00221A601D4B1B68B3FA83F3F5
:10311000DBB2C3F11F0303EB83018A0019498A580C
:1031200042B94FF0A00383F31188BFF36F8FBFF351
:103130004F8FFEE710B4134903EB830082000A446B
:1031400050684068506003EB8304A20014460832C4
:10315000114488420AD003EB83039A00094B1344BD
:103160005B68DA68084B1A6010BC70474068054A13
:1031700022445060EFE700BF2C470020B0470020FA
:1031800034470020BC460020B046002058B110B59E
:103190000C46094B1968183100F0DCFB0121204670
:1031A000FFF7B6FD10BD4FF0A00383F31188BFF306
:1031B0006F8FBFF34F8FFEE7B046002038B5C3686E
:1031C000DC6824B304F11805284600F0DCFB184B3A
:1031D0001B682BBB251D284600F0D5FBE06A0123A8
:1031E0008340144A11680B43136000EB80002946AA
:1031F000114B03EB800000F0A1FBE26A0F4B1B6850
:10320000DB6A9A4211D901200D4B18600EE04FF095
:10321000A00383F31188BFF36F8FBFF34F8FFEE7D7
:103220002946084800F08AFBE7E7002038BD00BFC8
:103230002C47002034470020BC460020B046002028
:10324000B04700206C470020034B1B680360034B12
:103250001B684360704700BF68470020AC470020F0
:10326000F8B5C8B10C460546F9B100F0BBF91B4BE7
:1032700019686B68C81A2268B2F1FF3F26D02F6820
:10328000174E3668B74201D08B4224D9824215D8F6
:103290000023236001241AE04FF0A00383F3118878
:1032A000BFF36F8FBFF34F8FFEE74FF0A00383F3A1
:1032B0001188BFF36F8FBFF34F8FFEE75B1A134484
:1032C00023602846FFF7C0FF002400E0002400F040
:1032D000ABF92046F8BD0124F9E700BFAC47002058
:1032E00068470020014B01221A607047B047002058
:1032F00000284FD038B50446C36A284A1268D26AFB
:1033000093423FD28269002A05DB244A1268D26ABE
:10331000C2F105028261616903EB8303204A02EB7B
:103320008303994205D01D4B1B68DB6AE3620120D1
:1033300038BD251D284600F026FB70B9E26A02EB75
:1033400082039B001649CB583BB9012303FA02F2D2
:1033500014490B6823EA02030B60104B1B68D86A00
:10336000E062012404FA00F30E4A11680B43136073
:1033700000EB800029460A4B03EB800000F0DEFAE8
:103380002046D5E7026C054B1B68DB6A9A4203D3E3
:103390000020CDE7002070470120C9E7B04600209B
:1033A000BC4600203447002000284CD038B50446E5
:1033B000274B1B68834208D04FF0A00383F311888A
:1033C000BFF36F8FBFF34F8FFEE7436C43B94FF0EE
:1033D000A00383F31188BFF36F8FBFF34F8FFEE716
:1033E000013B4364C16A026C91422ED00BB10020B4
:1033F00038BD051D284600F0C6FA70B9E26A02EB36
:1034000082039B001349CB583BB9012303FA02F214
:1034100011490B6823EA02030B60206CE062C0F1E3
:103420000503A361012404FA00F30B4A11680B435E
:10343000136000EB80002946064B03EB800000F090
:103440007DFA2046D4E7002070470020D0E700BF77
:10345000B0460020BC46002034470020002857D04A
:1034600038B50A460446416C41B94FF0A00383F3D6
:103470001188BFF36F8FBFF34F8FFEE7036C93424A
:1034800000D21346E26A9A4201D0012900D038BD29
:1034900020490968A14232D0E362A169002902DB18
:1034A000C3F10503A361616902EB82021A4B03EBCE
:1034B00082029142EBD1251D284600F064FA70B9D2
:1034C000E26A02EB82039B001349CB583BB901230C
:1034D00003FA02F211490B6823EA02030B60E06A67
:1034E000012383400D4A11680B43136000EB8000F9
:1034F0002946094B03EB800000F020FAC7E74FF0A4
:10350000A00383F31188BFF36F8FBFF34F8FFEE7E4
:10351000704700BFB0460020BC4600203447002062
:10352000054B1B6823B1044B1A68536C0133536479
:10353000014B1868704700BFB046002082B00023DE
:1035400001930D4B1B68B3F1FF3F08D04FF0A00370
:1035500083F31188BFF36F8FBFF34F8FFEE74FF0F8
:10356000A00383F31188BFF36F8FBFF34F8F019BCD
:10357000002BFCD002B070477C4100200648006858
:10358000006880F3088862B661B6BFF34F8FBFF35F
:103590006F8F00DF00BF000008ED00E04FF0807388
:1035A00040F8043C21F0010140F8081C034B40F8AE
:1035B0000C3C40F8202C4038704700BF3D352000BF
:1035C000074B19680868B0E8F00F80F30988BFF36B
:1035D0006F8F4FF0000080F311884EF00D0E704792
:1035E000B04600204FF0A00383F31188BFF36F8F24
:1035F000BFF34F8F0A4A136801331360012B00D0C9
:103600007047084B1B6813F0FF0FF9D04FF0A00371
:1036100083F31188BFF36F8FBFF34F8FFEE700BFB7
:103620007C41002004ED00E0094B1B6843B94FF0DA
:10363000A00383F31188BFF36F8FBFF34F8FFEE7B3
:10364000013B034A13600BB983F31188704700BF35
:103650007C4100200000000000000000000000008D
:10366000EFF30980BFF36F8F0D4B1A6820E9F00F5D
:1036700010602DE908404FF0A00080F31188FFF79B
:1036800039FD4FF0000080F31188BDE8084019684B
:103690000868B0E8F00F80F30988BFF36F8F7047B8
:1036A000B046002008B54FF0A00383F31188BFF3A4
:1036B0006F8FBFF34F8FFFF7EFFB18B1034B4FF046
:1036C00080521A60002383F3118808BD04ED00E0E6
:1036D00010B5084C00232360074A136001F0C4F8BA
:1036E000064BA3FB00239B09013B054A13600723FC
:1036F000236010BD10E000E018E000E0D34D621040
:1037000014E000E010B582B0274B1A78D2B20192D3
:10371000FF221A701B78DBB28DF803309DF803305E
:1037200003F0A003214A1370214B07221A609DF871
:10373000033013F0800F0AD01D4A1368013B136059
:103740009DF803305B00DBB28DF80330EFE7184BD8
:103750001B68042B08D04FF0A00383F31188BFF33C
:103760006F8FBFF34F8FFEE71B0203F4E063104A35
:103770001360019BDBB20C4A13700E4B1A6842F4C3
:1037800060021A601A6842F060421A60FFF7A0FFF8
:103790000024094B1C60FFF7F1FEFFF7ABFCFFF7BD
:1037A000CDFE204602B010BD00E400E0B44700208A
:1037B000B847002020ED00E07C410020EFF30583B6
:1037C0000F2B0FD9104A9B5CDBB2104A12789A4239
:1037D00008D94FF0A00383F31188BFF36F8FBFF3B5
:1037E0004F8FFEE70A4B1B6803F4E063094A126837
:1037F000934208D94FF0A00383F31188BFF36F8F72
:10380000BFF34F8FFEE77047F0E300E0B4470020BE
:103810000CED00E0B8470020074B23F00703074AF0
:10382000136000205060064A40F6F8715160106045
:1038300059601A60704700BFC4470020C857002075
:10384000BC57002070B50446FFF71EFB214B1B68D8
:103850007BB134B1083414F0070F02D024F0070410
:103860000834621E40F6F6739A422FD81A4D2B6820
:1038700007E0FFF7D1FF174B01221A60E9E71D4669
:1038800013465968A14202D21A68002AF7D1134A96
:1038900093421DD02E6808361A682A60091B102929
:1038A0000BD91D1969605C606C680B4A1046126880
:1038B0005168A142FAD32A6005605968084A136822
:1038C0005B1A1360FFF774FB304670BD0026F9E702
:1038D0000026F7E7C4570020C8570020BC57002037
:1038E00080410020B8B138B50446A0F10805FFF7C3
:1038F000CBFA54F8041C084B18461B685A688A42D5
:10390000FAD344F8083C0560044A1368194411606E
:10391000FFF74EFB38BD7047C8570020804100209C
:1039200000F1080343604FF0FF328260C36003611F
:1039300000230360704700230361704743684B60B6
:103940009A688A609A6851609960086103680133D7
:103950000360704730B40D68B5F1FF3F11D000F13E
:1039600008031C465B681A68AA42FAD963684B6070
:1039700099608C606160086103680133036030BC4A
:1039800070470469F2E70369416882688A605160A0
:103990005968814206D0002202611A68013A1A6011
:1039A000186870475A60F6E7FEE700000C4B984233
:1039B0000FD003F5805398420DD003F58053984201
:1039C0000BD003F58053984201D0002070470120AE
:1039D000704701207047012070470120704700BFE9
:1039E00000900D4010B50446FFF7E0FF60B1104BAA
:1039F0009C4218D00DD90F4B9C4216D003F5805332
:103A00009C420ED113200BE062210B48FFF7CCFF44
:103A1000EDE7A3F580539C4201D1102000E0002087
:103A200010BD0020FCE71120FAE71220F8E700BFE4
:103A300000A00D4000B00D40B878200070B50446DD
:103A40000D461646FFF7B2FF90B1022E15D816F0BC
:103A5000010F17D0D4F800342B43C4F8003416F00B
:103A6000020F14D0D4F820341D43C4F8205470BD84
:103A7000B5210948FFF798FFE7E7B7210648FFF7A8
:103A800093FFE4E7D4F8003423EA0503E5E7D4F82C
:103A9000203423EA0505E8E7B878200070B504462D
:103AA0000E461546FFF782FF08B33DB1042D05D041
:103AB000012D03D0022D01D0072D1ED115F0010FCD
:103AC00021D0D4F808343343C4F8083415F0020F79
:103AD0001ED0D4F804343343C4F8043415F0040F72
:103AE0001BD0D4F80C341E43C4F80C6470BD40F2F3
:103AF00019110C48FFF758FFD7E74FF48E710948AA
:103B0000FFF752FFDAE7D4F8083423EA0603DBE7CD
:103B1000D4F8043423EA0603DEE7D4F80C3423EAAD
:103B20000606E1E7B878200038B504460D46FFF7F1
:103B30003DFF18B145B1D4F8180438BD4FF4D57124
:103B40000348FFF731FFF5E7D4F81404F5E700BFA9
:103B5000B878200038B504460D46FFF727FF10B1AE
:103B6000C4F81C5438BD4FF4EC710248FFF71CFF39
:103B7000F6E700BFB878200038B504460D46FFF7D9
:103B800015FF50B12046FFF72DFF0446294600F0EF
:103B90001BFB204600F09EFA38BD4FF4FD71024831
:103BA000FFF702FFEEE700BFB878200070B50446CB
:103BB0000D461646FFF7FAFE10B144F8256070BDB9
:103BC0004FF41C710148FFF7EFFEF6E7B8782000CC
:103BD00038B504460D46FFF7E9FE50B100222946EC
:103BE0002046FFF72BFF00222946204600F094FCD8
:103BF00038BD4FF424710248FFF7D6FEEEE700BF50
:103C0000B878200038B504460D46FFF7CFFE50B116
:103C1000012229462046FFF711FF002229462046AF
:103C200000F07AFC38BD40F2B5210248FFF7BCFE37
:103C3000EEE700BFB878200038B504460D46FFF720
:103C4000B5FE50B1022229462046FFF7F7FE0022BA
:103C50002946204600F060FC38BD40F2DD210248D4
:103C6000FFF7A2FEEEE700BFB878200038B50446A3
:103C70000D46FFF79BFE68B10E4B9C4210D002220E
:103C800029462046FFF7DAFE00222946204600F0AA
:103C900043FC38BD40F25B310748FFF785FEEBE798
:103CA00015F00F0FEBD04FF457710348FFF77CFE70
:103CB000E5E700BF00B00D40B878200038B50446F5
:103CC0000D46FFF773FE68B10E4B9C4210D00222E6
:103CD00029462046FFF7B2FE08222946204600F07A
:103CE0001BFC38BD40F285310748FFF75DFEEBE76E
:103CF00015F00F0FEBD040F286310348FFF754FE6A
:103D0000E5E700BF00B00D40B878200070B504466C
:103D10000D461646FFF74AFEA8B1012E19D8164BDC
:103D20009C421CD00023154A94421AD0144A944253
:103D300019D09D40012E18D0D4F8043723EA050588
:103D4000C4F8045770BD40F2BE310E48FFF72CFE98
:103D5000E3E74FF470710B48FFF726FEDFE7082317
:103D6000E1E71023E2E71823E3E7D4F804371D4323
:103D7000C4F80457E6E700BF00A00D4000B00D40B6
:103D800000C00D40B878200038B504460D46FFF756
:103D90000DFE78B1104B9C4212D000230F4A944282
:103DA00010D00F4A94420FD085B1D4F81807D840EC
:103DB000C0B238BD40F2BA410A48FFF7F5FDE9E765
:103DC0000823EBE71023ECE71823EDE7D4F82007EE
:103DD000D840C0B2EDE700BF00A00D4000B00D40DC
:103DE00000C00D40B878200038B504460D46FFF7F6
:103DF000DDFD80B10E4B9C4213D000210D4B9C4247
:103E000011D00D4B9C4210D08D40D4F81817294387
:103E1000C4F8181738BD40F2FB410848FFF7C4FD4D
:103E2000E8E70821EAE71021EBE71821ECE700BFFB
:103E300000A00D4000B00D4000C00D40B87820003B
:103E400010B5044610F03F0F04D0054B186820430E
:103E5000186010BD40F233510248FFF7A5FDF4E7AA
:103E600094200D40B87820000C4B98420FD003F5F9
:103E7000805398420DD003F5805398420BD003F540
:103E80008053984201D000207047012070470120E4
:103E90007047012070470120704700BF00000340B9
:103EA00070B505460C461646FFF7DEFFA8B1FF2C9D
:103EB00006D0B4F57F4F03D04FF6FF739C4212D16A
:103EC0001A4B9D4217D003F580539D421BD003F53A
:103ED00080539D420DD033250EE040F23931144815
:103EE000FFF762FDE3E740F23B311148FFF75CFD6D
:103EF000E6E7272500E0232514F0FF0F05D114F491
:103F00007F4F0AD170BD2525F6E73146284600F0DF
:103F10005BF9284600F0DEF8F1E701353146284626
:103F200000F052F9284600F0D5F8EBE70000034016
:103F3000C478200038B504460D46FFF795FF10B150
:103F40003DB1206A38BD40F204410348FFF72CFD23
:103F5000F6E7E069F6E700BFC478200038B504460C
:103F60000D46FFF781FF08B1656238BD40F22E4172
:103F70000148FFF719FDF7E7C4782000024A1368EB
:103F800043F01003136070472000024038B5044628
:103F90000D46FFF7F3FF5DB1064B03EB83039A0079
:103FA0001444013CB4FBF2F4013C034B1C6038BDEB
:103FB000024BF2E7801A06000C000240A0860100C6
:103FC00008B50146182000F0FFF8182000F082F82C
:103FD00008BD000038B505460C4610F0800F04D12E
:103FE00044EA4504044B1C6038BD4FF41D7103487E
:103FF000FFF7DAFCF4E700BF00000240D4782000AD
:10400000044B1B6813F0010F01D001207047002002
:10401000704700BF0400024010B5044607280BD0CB
:10402000032809D0012807D0052805D0042803D08B
:104030000B2801D0092802D1044B1C6010BD40F2AE
:10404000DA210348FFF7B0FCF6E700BF04000240A6
:10405000D4782000074B186810F0010F05D110F03C
:10406000120F04D000F01C007047002070470020A1
:10407000704700BF04000240014B1860704700BF4A
:1040800008000240014B1868704700BF080002405A
:1040900038B504460D46031F3B2B10D8A2080B4B26
:1040A00053F822100B6804F00304E400FF22A2403E
:1040B00023EA020305FA04F41C430C6038BD4FF4F4
:1040C000DE710348FFF770FCE8E700BF04792000C9
:1040D000E078200010B504463F2814D8042C18D0EE
:1040E000052C1CD0062C20D00F2C24D00F2C15D939
:1040F000103C04F01F016409124B53F824200123E3
:104100008B4013600AE04FF4FB710F48FFF74CFC43
:10411000E4E70E4A136843F48033136010BD0B4A82
:10412000136843F400331360F8E7084A136843F454
:1041300080231360F2E7064A136843F0020313601A
:10414000ECE700BFF0782000E078200024ED00E0EC
:1041500010E000E010B504463F2810D80E2C14D013
:104160000F2C18D00F2C15D9103C04F01F01640936
:104170000C4B53F8242001238B4013600AE040F2DB
:10418000AE210948FFF710FCE8E7084A136843F03E
:104190000063136010BD054A136843F00073136099
:1041A000F8E700BFA8792000E078200004ED00E0E7
:1041B000044B1B6813F0010F01D001207047002051
:1041C000704700BF98200D4070B504460E463F284A
:1041D00013D8FFF7EDFFA8B1104B1B68104DAB4291
:1041E00018D00E4B186800233F2B11D850F823101D
:1041F0000B4A42F823100133F6E7FE210948FFF786
:10420000D3FBE6E74FF481710648FFF7CDFBE3E708
:10421000024B1D60024B43F8246070BD08ED00E0C6
:1042200000400020E078200070B504460D46164698
:10423000244B98420BD003F58053984207D003F5E6
:104240008053984203D003F58053984202D135B190
:10425000002315E0FB211C48FFF7A6FBF7E7FC2134
:104260001948FFF7A1FBF3E7A2F58052944203D16E
:10427000164A52F8232001E0A2F5A042166001334D
:10428000072B1ED845FA03F212F0010FF7D0104A9F
:1042900094420ED0E8D90F4A94420ED002F58052D3
:1042A000944203D10C4A52F82320E7E7A2F50042DA
:1042B000E4E70A4A52F82320E0E7094A52F82320AB
:1042C000DCE770BD00900D40BC792000E87920004B
:1042D00000A00D4000B00D40A87A2000287A2000F0
:1042E000687A200070B505460C461646854B984204
:1042F0000BD003F58053984207D003F580539842C2
:1043000003D003F58053984273D1631EDBB2012BB7
:104310000BD9042C09D0082C07D0102C05D0202C48
:1043200003D0402C01D0802C69D1774B9E423BD0EA
:1043300004339E4238D004339E4235D004339E422B
:1043400032D004339E422FD004339E422CD004330B
:104350009E4229D004339E4226D004339E4223D06D
:1043600004339E4220D004339E421DD004339E422B
:104370001AD004339E4217D004339E4214D0043323
:104380009E4211D004339E420ED004339E420BD085
:1043900004339E4208D004339E4205D004339E422B
:1043A00002D004339E4230D1584B9D4259D032D96D
:1043B000574B9D4276D003F580539D4243D1012C4B
:1043C00000F091800023022C00F08F80042C00F07C
:1043D0008E80082C00F08D80102C00F08C80202C1A
:1043E00000F08B80402C00F08A80802C29D11F2384
:1043F00027E040F26D114748FFF7D6FA85E740F213
:1044000071114448FFF7D0FA8FE74FF4C371414868
:10441000FFF7CAFAC8E7A3F580539D4210D1022CDA
:1044200013D00023042C12D0082C12D0102C12D040
:10443000202C12D0402C12D0802C02D1072300E077
:104440000023336070BD0023FBE70123EAE702236A
:10445000EAE70323EAE70423EAE70523EAE706237A
:10446000EAE7012C10D00023022C0FD0042C0FD02F
:10447000082C0FD0102C0FD0202C0FD0402C0FD098
:10448000802CDED10F23DCE70823EDE70923EDE7DD
:104490000A23EDE70B23EDE70C23EDE70D23EDE712
:1044A0000E23EDE7012C10D00023022C0FD0042C9A
:1044B0000FD0082C0FD0102C0FD0202C0FD0402C58
:1044C0000FD0802CBDD11723BBE71023EDE71123BC
:1044D000EDE71223EDE71323EDE71423EDE71523B2
:1044E000EDE71623EDE718236DE719236EE71A238E
:1044F0006FE71B2370E71C2371E71D2372E71E2360
:1045000073E700BF00900D4000410D4000A00D403A
:1045100000B00D40BC79200070B504460D4616462B
:10452000364B98420BD003F58053984207D003F5E1
:104530008053984203D003F5805398420ED19DB129
:10454000082E06D0042E04D0022E02D0012E00D058
:1045500086B92B4B9C4213D000232CE040F259210A
:104560002848FFF721FAEAE740F25A212548FFF7E9
:104570001BFAE5E740F25F212248FFF715FAE8E76A
:1045800015F00F0FE8D0042E03D0022E01D0012E1B
:10459000E2D140F266211B48FFF706FADCE7A2F5FC
:1045A0008052944203D1184A52F8232001E0A2F528
:1045B0009F4216600133072B1ED845FA03F212F012
:1045C000010FF7D0114A94420ED0E8D90C4A944218
:1045D0000ED002F58052944203D10D4A52F82320A6
:1045E000E7E7A2F5FF42E4E70A4A52F82320E0E7B2
:1045F000094A52F82320DCE770BD00BF00900D404F
:1046000000B00D40BC792000C879200000A00D400A
:10461000887A2000087A2000487A2000074B1B681F
:10462000074A106843EA00230432106843EA004353
:104630000432106843EA0060704700BF40500D40EC
:1046400044500D4038B504460D460D4B984203D0FA
:1046500003F5805398420BD1094B9C420DD0322474
:1046600029462046FFF7B0FD2046FFF733FD38BD51
:10467000F6210448FFF798F9EEE71724F0E700BFAA
:1046800000800040C87A200038B504460D46094B2A
:10469000984203D003F58053984202D13DB1E069BE
:1046A00038BD40F281110448FFF77EF9F6E7A069B2
:1046B000F6E700BF00800040C87A200038B5044605
:1046C0000D46074B984203D003F58053984201D121
:1046D000256238BD4FF4D8710248FFF765F9F7E756
:1046E00000800040C87A200038B504460D46104BC3
:1046F000984203D003F5805398420DD1226802F00E
:104700000F026FF0010393402B420BD1E36813F0CB
:10471000020FFBD0A56038BD4FF4E8710548FFF7E4
:1047200043F9EBE74FF4E9710248FFF73DF9EDE794
:1047300000800040C87A200038B504460D460A4B78
:10474000984203D003F58053984206D1E36813F0F2
:10475000040FFBD0A3682B6038BD40F2272103482B
:10476000FFF722F9F2E700BF00800040C87A20007E
:1047700038B504460D46084B984203D003F58053E4
:10478000984203D1616A2943616238BD40F27D21BC
:104790000248FFF709F9F5E700800040C87A2000D9
:1047A00038B504460D46094B984203D003F58053B3
:1047B000984204D1616A21EA0501616238BD4FF473
:1047C00027710348FFF7F0F8F4E700BF00800040CE
:1047D000C87A200010B50446084B984203D003F570
:1047E0008053984203D1E068C0F3001010BD40F23E
:1047F000B9210348FFF7D8F8F5E700BF0080004073
:10480000C87A200003281ED9B0F5807F1DD040F261
:10481000011398421BD0B0F5007F1AD040F201235B
:10482000984218D0B0F5407F17D0B0F5806F16D001
:1048300040F20143984214D0B0F5A06F01D000209F
:104840007047012070470120704701207047012008
:1048500070470120704701207047012070470120F8
:1048600070470120704700000E4B1B6803F00703E0
:10487000072B05D8DFE803F01406080A0C0E101207
:10488000002070470848704708487047084870473C
:1048900008487047084870470848704708487047FC
:1048A0000848704704200D400024F40000127A00EC
:1048B00000093D0080841E0040420F0020A1070037
:1048C00090D003000048E80110B50446072807D837
:1048D000064B186820F4E06040EA0420186010BD20
:1048E0004FF4B0710248FFF75FF8F1E700200D4088
:1048F000D47A20000E4B1B68C3F30223072B05D884
:10490000DFE803F01406080A0C0E101200207047AE
:10491000084870470848704708487047084870477B
:10492000084870470848704708487047084870476B
:1049300004200D400024F40000127A0000093D001C
:1049400080841E0040420F0020A1070090D0030089
:104950000048E80101387FF4FDAF704770B50646A6
:104960000D461446072A01D822B919B1D9211B488E
:10497000FFF71AF825B91A4A136843F400131360B5
:10498000174B1A68174B13400EB943F08073BDB133
:104990004FF480352B432343114A1360124B1B689D
:1049A000002403F48033AB420CD04FF6FE739C42DC
:1049B00008D81020FFF7CEFF0B4B1B680134F0E73F
:1049C0000025E7E74FF6FE739C4200D870BD4FF418
:1049D00081710248FEF7E8FFF8E700BFD47A2000B3
:1049E00000200D40F8FFFEFE04200D4070B51B4B6B
:1049F0001D6805F4E06615F0070500D056B9184BA0
:104A00001A680DBB01231A4306BB4FF4807313438E
:104A1000134A1360134C236843F00403236000F02F
:104A200011FB236823F00403236005B15EB90C4B2E
:104A30001A686DB96FF007031A4066B96FF4E06346
:104A40001340074A136070BD0023DCE70023DEE754
:104A50004FF0FF33F0E74FF0FF33F1E704200D4054
:104A600000200D4010ED00E010B582B00446FFF7C5
:104A7000C9FEC0B1B4F5A06F1BD0C4F30322134B21
:104A800053F82220116804F00F04012303FA04F400
:104A90002143116000230193019B0F2B0FD8019B31
:104AA00001330193F8E740F2AA210948FEF77CFFA1
:104AB000E0E740F2AB210648FEF776FFDDE713683A
:104AC00023EA0404146002B010BD00BF2C7B200058
:104AD000D47A200010B50446FFF794FE68B1C4F301
:104AE0000322094B53F822100B6804F00F04012233
:104AF00002FA04F41C430C6010BD40F2D7210348B5
:104B0000FEF752FFEBE700BFFC7A2000D47A2000CA
:104B100010B50446FFF776FE68B1C4F30322094BD3
:104B200053F822100B6804F00F04012202FA04F477
:104B30001C430C6010BD40F21A310348FEF734FFED
:104B4000EBE700BF147B2000D47A200010B50446A8
:104B5000FFF758FE70B1C4F30322094B53F822103B
:104B60000B6804F00F04012202FA04F423EA04049F
:104B70000C6010BD40F287310248FEF715FFEAE7EE
:104B8000E47A2000D47A2000064B984207D003F53F
:104B90008053984201D000207047012070470120C7
:104BA000704700BF00C0004070B506460C46154671
:104BB000FFF7EAFF68B1042C10D83DB1082D05D0ED
:104BC000102D03D0182D01D0202D0CD12C4374634F
:104BD00070BDA8210648FEF7E7FEECE7AD210448CA
:104BE000FEF7E2FEE9E7B2210148FEF7DDFEEDE760
:104BF000407B200010B50446FFF7C6FF50B1E36AC2
:104C000043F01003E362236B43F4407343F001036A
:104C1000236310BD40F2A3110148FEF7C5FEEEE785
:104C2000407B200010B50446FFF7AEFF70B1A369CA
:104C300013F0080FFBD1E36A23F01003E362236B48
:104C400023F4407323F00103236310BD40F2C3112A
:104C50000148FEF7A9FEEAE7407B2000F8B50546CB
:104C60000C4616461F46FFF78FFFC0B1EEB128462F
:104C7000FFF7D8FFB4EB061F1DD22B6B43F02003C8
:104C80002B637608E400B4FBF6F40134E3096B62AD
:104C9000C4F34504AC62EF620023AB61F8BD40F29F
:104CA00015110748FEF780FEE0E74FF48B710448CA
:104CB000FEF77AFEDBE72B6B23F020032B63E1E7A3
:104CC000407B200010B50446FFF75EFF20B1E36A89
:104CD00043F01003E36210BD40F2E9110148FEF712
:104CE00063FEF4E7407B200038B505460C46FFF72D
:104CF0004BFF40B1102C00D05CB9296B21F01001A2
:104D00002143296338BD4FF418710548FEF74CFE66
:104D1000F0E740F262210248FEF746FEEDE700BFF1
:104D2000407B200038B504460D46FFF72DFF28B123
:104D3000A36913F0200FFBD1256038BD4FF45571E6
:104D40000148FEF731FEF3E7407B200038B504460A
:104D50000D46FFF719FF58B1094B9C420ED016249F
:104D600029462046FFF730FA2046FFF7B3F938BD51
:104D700040F2BB310348FEF717FEEDE71524EFE7DD
:104D800000C00040407B200038B504460D46FFF7C8
:104D9000FBFE20B1A16B21EA0501A16338BD40F201
:104DA00037410248FEF700FEF4E700BF407B2000D9
:104DB00038B504460D46FFF7E7FE10B13DB1206C53
:104DC00038BD40F255410348FEF7EEFDF6E7E06BD3
:104DD000F6E700BF407B200038B504460D46FFF7DC
:104DE000D3FE08B1656438BD40F285410148FEF745
:104DF000DBFDF7E7407B200038B505460C46FFF7A2
:104E0000C3FE20B1012C08D8C5F8C84F38BD40F208
:104E10002F510548FEF7C8FDF4E74FF4A66102489C
:104E2000FEF7C2FDF0E700BF407B200010B504464E
:104E30004FF6E073184207D104F01F04012303FA70
:104E400004F4044B1C6010BD9A210348FEF7ACFD2E
:104E5000F2E700BF28F00F404C7B200038B5044635
:104E60000D464FF6C07318420ED10D4B1B688BB127
:104E700004F03F040A4B186800EB041083680949EA
:104E800019402943816038BD40F261210648FEF790
:104E90008BFDEAE740F262210348FEF785FDE7E774
:104EA00008F00F40F73FFC004C7B20002DE9F84F45
:104EB00083460D4616461F46DDF828804FF6C07320
:104EC000184247D13A4B1B68002B49D0062D4DD8CC
:104ED000B146B6F1005F4FD3BA46B7F1005F51D388
:104EE00008F1FF34B4F5806F52D20BF03F0C304B19
:104EF0001A684FEA0C1E02EB0E00836823F47F53FE
:104F000023F037031BF0200F05D0042D01D0062D10
:104F100001D145F0010545EA0411194301F0406350
:104F2000B3F1406F04D09E0E08FA06F64E44013EDF
:104F300042F80E6001F04043B3F1404F33D0042DEE
:104F40002CD0062D2AD09B0F08FA03F8D04408F184
:104F5000FF3728E040F2D1211648FEF725FDB1E7E2
:104F600040F2D2211348FEF71FFDAFE740F2D321F4
:104F70001048FEF719FDABE74FF435710D48FEF709
:104F800013FDA9E740F2D5210A48FEF70DFDA7E77A
:104F900040F2D6210748FEF707FDA6E74CF02007B0
:104FA00002EB07170C3747608160BDE8F88F00BF40
:104FB00008F00F404C7B200010B504464FF6C0733C
:104FC000184210D10E4B1B689BB104F03F040C4BF0
:104FD0001B6803EB0414A06843F6F773184001D074
:104FE0000009013010BD40F2B3310648FEF7DCFC89
:104FF000E8E74FF46D710348FEF7D6FCE5E700BF24
:1050000008F00F404C7B200038B504460D4659B1DE
:10501000A4F13E03012B0DD829462046FFF7D4F812
:105020002046FFF757F838BD4FF488610448FEF773
:10503000BBFCEDE740F241410148FEF7B5FCEBE770
:105040004C7B200030BF70470B460146184600F0ED
:105050007FBA000080F0004002E000BF81F0004114
:1050600042001FBF5FEA410392EA030F7FEA226C0E
:105070007FEA236C6AD04FEA1262D2EB1363C1BF9E
:10508000D218414048404140B8BF5B42192B88BF0D
:10509000704710F0004F40F4000020F07F4018BF30
:1050A000404211F0004F41F4000121F07F4118BF50
:1050B000494292EA030F3FD0A2F1010241FA03FCF8
:1050C00010EB0C00C3F1200301FA03F100F00043E0
:1050D00002D5494260EB4000B0F5000F13D3B0F1A8
:1050E000807F06D340084FEA310102F10102FE2A17
:1050F00051D2B1F1004F40EBC25008BF20F0010087
:1051000040EA03007047490040EB0000013A28BF25
:10511000B0F5000FEDD2B0FA80FCACF1080CB2EBA8
:105120000C0200FA0CF0AABF00EBC2505242184326
:10513000BCBFD0401843704792F0000F81F40001CB
:1051400006BF80F400000132013BB5E74FEA41039E
:105150007FEA226C18BF7FEA236C21D092EA030F0A
:1051600004D092F0000F08BF0846704790EA010F84
:105170001CBF0020704712F07F4F04D1400028BFB1
:1051800040F00040704712F100723CBF00F5000093
:10519000704700F0004343F0FE4040F400007047C9
:1051A0007FEA226216BF08467FEA23630146420275
:1051B00006BF5FEA412390EA010F40F48000704788
:1051C0004FF0000304E000BF10F0004348BF40422E
:1051D0005FEA000C08BF704743F0964301464FF06A
:1051E00000001CE050EA010208BF70474FF00003C6
:1051F0000AE000BF50EA010208BF704711F0004307
:1052000002D5404261EB41015FEA010C02BF8446D6
:105210000146002043F0B64308BFA3F18053A3F535
:105220000003BCFA8CF2083AA3EBC25310DB01FA7C
:1052300002FC634400FA02FCC2F12002BCF1004F00
:1052400020FA02F243EB020008BF20F00100704791
:1052500002F1200201FA02FCC2F1200250EA4C00E5
:1052600021FA02F243EB020008BF20EADC7070472B
:105270004FF0FF0C1CEAD0521EBF1CEAD15392EA39
:105280000C0F93EA0C0F6FD01A4480EA010C400215
:1052900018BF5FEA41211ED04FF0006343EA50106F
:1052A00043EA5111A0FB01310CF00040B1F5000FB1
:1052B0003EBF490041EAD3715B0040EA010062F160
:1052C0007F02FD2A1DD8B3F1004F40EBC25008BF4A
:1052D00020F00100704790F0000F0CF0004C08BF68
:1052E00049024CEA502040EA51207F3AC2BFD2F135
:1052F000FF0340EAC250704740F400004FF0000343
:10530000013A5DDC12F1190FDCBF00F0004070477C
:10531000C2F10002410021FA02F1C2F1200200FABA
:1053200002FC5FEA310040F1000053EA4C0308BF81
:1053300020EADC70704792F0000F00F0004C02BFD2
:10534000400010F4000F013AF9D040EA0C0093F04D
:10535000000F01F0004C02BF490011F4000F013BA7
:10536000F9D041EA0C018FE70CEAD15392EA0C0F15
:1053700018BF93EA0C0F0AD030F0004C18BF31F080
:10538000004CD8D180EA010000F00040704790F056
:10539000000F17BF90F0004F084691F0000F91F0FA
:1053A000004F14D092EA0C0F01D142020FD193EAC0
:1053B0000C0F03D14B0218BF084608D180EA010048
:1053C00000F0004040F0FE4040F40000704740F024
:1053D000FE4040F4400070474FF0FF0C1CEAD052F2
:1053E0001EBF1CEAD15392EA0C0F93EA0C0F69D04E
:1053F000A2EB030280EA010C49024FEA402037D0B9
:105400004FF0805343EA111143EA10130CF00040AF
:105410008B4238BF5B0042F17D024FF4000C8B429F
:1054200024BF5B1A40EA0C00B3EB510F24BFA3EB7F
:10543000510340EA5C00B3EB910F24BFA3EB91034F
:1054400040EA9C00B3EBD10F24BFA3EBD10340EAA9
:10545000DC001B0118BF5FEA1C1CE0D1FD2A3FF6EF
:1054600050AF8B4240EBC25008BF20F001007047A4
:105470000CF0004C4CEA50207F32C2BFD2F1FF0347
:1054800040EAC250704740F400004FF00003013A78
:1054900037E792F0000F00F0004C02BF400010F41C
:1054A000000F013AF9D040EA0C0093F0000F01F030
:1054B000004C02BF490011F4000F013BF9D041EA52
:1054C0000C0195E70CEAD15392EA0C0F08D1420285
:1054D0007FF47DAF93EA0C0F7FF470AF084676E758
:1054E00093EA0C0F04D14B023FF44CAF08466EE731
:1054F00030F0004C18BF31F0004CCAD130F00042FF
:105500007FF45CAF31F000437FF43CAF5FE700BF56
:1055100042000ED2B2F1FE4F0BD34FF09E03B3EB1D
:10552000126209D44FEA002343F0004323FA02F049
:1055300070474FF00000704712F1610F01D1420235
:1055400002D14FF0FF3070474FF00000704700BFAE
:1055500010B5054C34B113460A460146022000F04E
:10556000A9F910BD204610BDB558200070B50D4EEC
:105570000D4D761BB61006D00024013455F8043BBF
:105580009847A642F9D1094E094D02F07DFB761BE2
:10559000B61006D00024013455F8043B9847A642C3
:1055A000F9D170BD947C2000947C2000A87C200060
:1055B000947C2000844641EA000313F0030349D1A0
:1055C000403A23D30B6803604B6843608B68836069
:1055D000CB68C3600B6903614B6943618B6983616D
:1055E000CB69C3610B6A03624B6A43628B6A836255
:1055F000CB6AC3620B6B03634B6B43638B6B83633D
:10560000CB6BC36340304031403ADBD230320BD3F6
:105610000B6803604B6843608B688360CB68C36032
:1056200010301031103AF3D20C3205D351F8043B4C
:1056300040F8043B043AF9D2043208D0D2071CBF28
:1056400011F8013B00F8013B01D30B880380604651
:10565000704700BF082A13D38B07B1D010F00303A3
:10566000AED0C3F10403D21ADB071CBF11F8013B13
:1056700000F8013BA4D331F8023B20F8023B9FE73E
:10568000043AD9D3013A11F8013B00F8013BF9D2B1
:105690000B7803704B7843708B788370604670474B
:1056A000F0B4860746D0541E002A3CD0CAB2034646
:1056B00002E014F1FF3436D303F8012B9D07F8D133
:1056C000032C29D9CDB245EA05250F2C45EA05451D
:1056D00033D9A4F11006360903F1200707EB0617AA
:1056E00003F1100242E9045542E902551032BA4270
:1056F000F8D1721C14F00C0F03EB021204F00F0629
:1057000013D0331F23F003030433134442F8045B24
:105710009342FBD106F003042CB1C9B21C4403F838
:10572000011B9C42FBD1F0BC704734461346002C51
:10573000F3D1F8E714460346C2E71A462646E0E7E7
:1057400038B5124B05461C68A06B18B10023C0E9A0
:10575000045338BD182000F04DF9A06378B1012240
:105760000023C0E904230A4B0B248360002309496A
:10577000094A8481C0E90012C0E9045338BD0246D9
:10578000064B4221064800F0EDF800BF844100209E
:10579000ECDE05000E33CDAB34126DE6607B2000ED
:1057A000787B200038B51A4B1C68A26B92B1146943
:1057B0001849536901FB04F1174800FB0313A4FBCC
:1057C0000045611C1D4445F1000323F00040C2E97F
:1057D000041338BD182000F00DF90246A06388B10B
:1057E000012400250B21C0E904450C4B0948136036
:1057F00003460B4D0B4C91810B49C2E90154C2E9A0
:10580000041338BD094B4E21094800F0ABF800BF26
:10581000844100202DF451582D7F954C0E33CDAB93
:1058200034126DE6ECDE05002E7F954C607B200087
:10583000787B20000CB470B56FF000459CB020ACB4
:1058400054F8042B094E02910691234602A90194B3
:105850000795CDE9045600F073FA0022029B1A70F6
:105860001CB0BDE8704002B0704700BF0802FFFFE7
:105870000EB4034630B56FF000449CB01FA951F838
:10588000042B0A480A4D0293069301910B460068C7
:1058900002A90794CDE9044500F052FA0022029BC8
:1058A0001A701CB0BDE8304003B07047844100203E
:1058B0000802FFFF2DE9F041264C82B025680DB3A8
:1058C0006C681F2C42DC9846064690B1D5F88800DB
:1058D00038B3D0F800310127A74047EA030C022E65
:1058E00000EB840340F82420C0F800C1C3F8808096
:1058F00011D00020631C02346B6045F8241002B004
:10590000BDE8F081144E154D2660EDB12C6835468A
:10591000C6F88840D4E7D0F804311F43C0F80471BA
:10592000E7E70F4BCDE9001283B14FF4847000F02C
:1059300061F858B1DDE9001200276C683B46C0E908
:105940004077C5F88800C6E73546B9E74FF0FF3025
:10595000D5E700BF64590020D85800205C7B2000A8
:10596000F559200000B50A4C0546206885B01C4654
:10597000C06852B1074BCDE9013200912B46224657
:10598000054900F023F800F099FF044B1A46F2E7AE
:1059900084410020AC7B2000BC7B2000B87B200031
:1059A00008B513460022FFF7DDFF00BF0CB410B5A9
:1059B00082B004AC54F8042B2346019400F03EFB63
:1059C00002B0BDE8104002B0704700BF0EB430B561
:1059D00082B005AC54F8042B054D014623462868D7
:1059E000019400F02BFB02B0BDE8304003B07047DB
:1059F00084410020024B0146186800F05FB800BFE8
:105A000084410020024B0146186800F003B800BF33
:105A10008441002000293AD038B551F8043C0C1FCD
:105A2000002BB8BFE418054601F020FC224B1A6891
:105A30002AB1A2420DD921686018824221D0626049
:105A400028461C60BDE8384001F012BCA34203D8D0
:105A50001A465368002BF9D111685018A04217D08C
:105A600022D821686018834203BFD3E900030918D4
:105A7000C4E90013636054602846BDE8384001F073
:105A8000F7BBD2E900020144C4E90012D8E770472D
:105A900020680144501883421160EDD1D3E900031E
:105AA0000144C2E90013E7E70C2328462B60BDE858
:105AB000384001F0DDBB00BF68590020F8B5CD1CAF
:105AC00025F0030508350C2D38BF0C25002D0646A2
:105AD00033DBA94231D82A4F01F0C8FB3A6852B1F2
